{
  "_format": "hh-sol-artifact-1",
  "contractName": "FundSplitter",
  "sourceName": "contracts/FundSplitter.sol",
  "abi": [
    {
      "inputs": [],
      "stateMutability": "nonpayable",
      "type": "constructor"
    },
    {
      "inputs": [
        {
          "internalType": "address",
          "name": "_participant",
          "type": "address"
        }
      ],
      "name": "addParticipant",
      "outputs": [],
      "stateMutability": "nonpayable",
      "type": "function"
    },
    {
      "inputs": [],
      "name": "getContractBalance",
      "outputs": [
        {
          "internalType": "uint256",
          "name": "",
          "type": "uint256"
        }
      ],
      "stateMutability": "view",
      "type": "function"
    },
    {
      "inputs": [],
      "name": "getParticipants",
      "outputs": [
        {
          "internalType": "address payable[]",
          "name": "",
          "type": "address[]"
        }
      ],
      "stateMutability": "view",
      "type": "function"
    },
    {
      "inputs": [],
      "name": "owner",
      "outputs": [
        {
          "internalType": "address",
          "name": "",
          "type": "address"
        }
      ],
      "stateMutability": "view",
      "type": "function"
    },
    {
      "inputs": [
        {
          "internalType": "uint256",
          "name": "",
          "type": "uint256"
        }
      ],
      "name": "participants",
      "outputs": [
        {
          "internalType": "address payable",
          "name": "",
          "type": "address"
        }
      ],
      "stateMutability": "view",
      "type": "function"
    },
    {
      "inputs": [],
      "name": "resetParticipants",
      "outputs": [],
      "stateMutability": "nonpayable",
      "type": "function"
    },
    {
      "inputs": [],
      "name": "splitBill",
      "outputs": [],
      "stateMutability": "payable",
      "type": "function"
    }
  ],
  "bytecode": "0x608060405273874069fa1eb16d44d622f2e0ca25eea172369bc16000806101000a81548173ffffffffffffffffffffffffffffffffffffffff021916908373ffffffffffffffffffffffffffffffffffffffff16021790555034801561006457600080fd5b5033600260006101000a81548173ffffffffffffffffffffffffffffffffffffffff021916908373ffffffffffffffffffffffffffffffffffffffff160217905550610c06806100b56000396000f3fe6080604052600436106100705760003560e01c80636f9fb98a1161004e5780636f9fb98a146100e75780638da5cb5b14610112578063946647231461013d578063dfafe10f1461015457610070565b80632785adb51461007557806335c1d3491461007f5780635aa68ac0146100bc575b600080fd5b61007d61017d565b005b34801561008b57600080fd5b506100a660048036038101906100a1919061062f565b6103b5565b6040516100b3919061069d565b60405180910390f35b3480156100c857600080fd5b506100d16103f4565b6040516100de9190610776565b60405180910390f35b3480156100f357600080fd5b506100fc610482565b60405161010991906107a7565b60405180910390f35b34801561011e57600080fd5b5061012761048a565b60405161013491906107e3565b60405180910390f35b34801561014957600080fd5b506101526104b0565b005b34801561016057600080fd5b5061017b6004803603810190610176919061082a565b6104c0565b005b600260149054906101000a900460ff16156101cd576040517f08c379a00000000000000000000000000000000000000000000000000000000081526004016101c4906108b4565b60405180910390fd5b6001600260146101000a81548160ff0219169083151502179055506000471161022b576040517f08c379a000000000000000000000000000000000000000000000000000000000815260040161022290610920565b60405180910390fd5b600060018054905011610273576040517f08c379a000000000000000000000000000000000000000000000000000000000815260040161026a9061098c565b60405180910390fd5b6000600180549050476102869190610a0a565b905060005b600180549050811015610396576000600182815481106102ae576102ad610a3b565b5b9060005260206000200160009054906101000a900473ffffffffffffffffffffffffffffffffffffffff1673ffffffffffffffffffffffffffffffffffffffff16836040516102fc90610a9b565b60006040518083038185875af1925050503d8060008114610339576040519150601f19603f3d011682016040523d82523d6000602084013e61033e565b606091505b5050905080610382576040517f08c379a000000000000000000000000000000000000000000000000000000000815260040161037990610afc565b60405180910390fd5b50808061038e90610b1c565b91505061028b565b50506000600260146101000a81548160ff021916908315150217905550565b600181815481106103c557600080fd5b906000526020600020016000915054906101000a900473ffffffffffffffffffffffffffffffffffffffff1681565b6060600180548060200260200160405190810160405280929190818152602001828054801561047857602002820191906000526020600020905b8160009054906101000a900473ffffffffffffffffffffffffffffffffffffffff1673ffffffffffffffffffffffffffffffffffffffff168152602001906001019080831161042e575b5050505050905090565b600047905090565b600260009054906101000a900473ffffffffffffffffffffffffffffffffffffffff1681565b600160006104be91906105b6565b565b600260009054906101000a900473ffffffffffffffffffffffffffffffffffffffff1673ffffffffffffffffffffffffffffffffffffffff163373ffffffffffffffffffffffffffffffffffffffff1614610550576040517f08c379a000000000000000000000000000000000000000000000000000000000815260040161054790610bb0565b60405180910390fd5b6001819080600181540180825580915050600190039060005260206000200160009091909190916101000a81548173ffffffffffffffffffffffffffffffffffffffff021916908373ffffffffffffffffffffffffffffffffffffffff16021790555050565b50805460008255906000526020600020908101906105d491906105d7565b50565b5b808211156105f05760008160009055506001016105d8565b5090565b600080fd5b6000819050919050565b61060c816105f9565b811461061757600080fd5b50565b60008135905061062981610603565b92915050565b600060208284031215610645576106446105f4565b5b60006106538482850161061a565b91505092915050565b600073ffffffffffffffffffffffffffffffffffffffff82169050919050565b60006106878261065c565b9050919050565b6106978161067c565b82525050565b60006020820190506106b2600083018461068e565b92915050565b600081519050919050565b600082825260208201905092915050565b6000819050602082019050919050565b6106ed8161067c565b82525050565b60006106ff83836106e4565b60208301905092915050565b6000602082019050919050565b6000610723826106b8565b61072d81856106c3565b9350610738836106d4565b8060005b8381101561076957815161075088826106f3565b975061075b8361070b565b92505060018101905061073c565b5085935050505092915050565b600060208201905081810360008301526107908184610718565b905092915050565b6107a1816105f9565b82525050565b60006020820190506107bc6000830184610798565b92915050565b60006107cd8261065c565b9050919050565b6107dd816107c2565b82525050565b60006020820190506107f860008301846107d4565b92915050565b610807816107c2565b811461081257600080fd5b50565b600081359050610824816107fe565b92915050565b6000602082840312156108405761083f6105f4565b5b600061084e84828501610815565b91505092915050565b600082825260208201905092915050565b7f5265656e7472616e742063616c6c000000000000000000000000000000000000600082015250565b600061089e600e83610857565b91506108a982610868565b602082019050919050565b600060208201905081810360008301526108cd81610891565b9050919050565b7f496e76616c696420616d6f756e7420456e746572656400000000000000000000600082015250565b600061090a601683610857565b9150610915826108d4565b602082019050919050565b60006020820190508181036000830152610939816108fd565b9050919050565b7f4e6f207061727469636970616e74732061646465640000000000000000000000600082015250565b6000610976601583610857565b915061098182610940565b602082019050919050565b600060208201905081810360008301526109a581610969565b9050919050565b7f4e487b7100000000000000000000000000000000000000000000000000000000600052601260045260246000fd5b7f4e487b7100000000000000000000000000000000000000000000000000000000600052601160045260246000fd5b6000610a15826105f9565b9150610a20836105f9565b925082610a3057610a2f6109ac565b5b828204905092915050565b7f4e487b7100000000000000000000000000000000000000000000000000000000600052603260045260246000fd5b600081905092915050565b50565b6000610a85600083610a6a565b9150610a9082610a75565b600082019050919050565b6000610aa682610a78565b9150819050919050565b7f4661696c656420746f2073656e64204574686572000000000000000000000000600082015250565b6000610ae6601483610857565b9150610af182610ab0565b602082019050919050565b60006020820190508181036000830152610b1581610ad9565b9050919050565b6000610b27826105f9565b91507fffffffffffffffffffffffffffffffffffffffffffffffffffffffffffffffff8203610b5957610b586109db565b5b600182019050919050565b7f4e6f74207065726d697474656420746f20616464207061727469636970616e74600082015250565b6000610b9a602083610857565b9150610ba582610b64565b602082019050919050565b60006020820190508181036000830152610bc981610b8d565b905091905056fea2646970667358221220f958339f64ebaa57e9ba0f902dd678820b46ebb7d24027673c56bed440d5f86964736f6c63430008110033",
  "linkReferences": {},
  "deployedLinkReferences": {}
}