{
  "_format": "hh-sol-artifact-1",
  "contractName": "Donation",
  "sourceName": "contracts/Donation.sol",
  "abi": [
    {
      "inputs": [],
      "stateMutability": "payable",
      "type": "constructor"
    },
    {
      "anonymous": false,
      "inputs": [
        {
          "indexed": false,
          "internalType": "uint256",
          "name": "id",
          "type": "uint256"
        },
        {
          "indexed": false,
          "internalType": "string",
          "name": "username",
          "type": "string"
        },
        {
          "indexed": false,
          "internalType": "address payable",
          "name": "walletAddress",
          "type": "address"
        },
        {
          "indexed": false,
          "internalType": "string",
          "name": "ipfsHash",
          "type": "string"
        },
        {
          "indexed": false,
          "internalType": "string",
          "name": "userbio",
          "type": "string"
        },
        {
          "indexed": false,
          "internalType": "uint256",
          "name": "donationsReceived",
          "type": "uint256"
        },
        {
          "indexed": false,
          "internalType": "string",
          "name": "networkOption",
          "type": "string"
        },
        {
          "indexed": false,
          "internalType": "uint256",
          "name": "supporters",
          "type": "uint256"
        }
      ],
      "name": "CreatorEvent",
      "type": "event"
    },
    {
      "anonymous": false,
      "inputs": [
        {
          "indexed": true,
          "internalType": "address",
          "name": "from",
          "type": "address"
        },
        {
          "indexed": false,
          "internalType": "uint256",
          "name": "timestamp",
          "type": "uint256"
        },
        {
          "indexed": false,
          "internalType": "string",
          "name": "message",
          "type": "string"
        }
      ],
      "name": "SupporterEvent",
      "type": "event"
    },
    {
      "inputs": [],
      "name": "contractBal",
      "outputs": [
        {
          "internalType": "uint256",
          "name": "",
          "type": "uint256"
        }
      ],
      "stateMutability": "view",
      "type": "function"
    },
    {
      "inputs": [],
      "name": "contractOwnerWithdraw",
      "outputs": [],
      "stateMutability": "nonpayable",
      "type": "function"
    },
    {
      "inputs": [],
      "name": "creatorCounter",
      "outputs": [
        {
          "internalType": "uint256",
          "name": "",
          "type": "uint256"
        }
      ],
      "stateMutability": "view",
      "type": "function"
    },
    {
      "inputs": [
        {
          "internalType": "uint256",
          "name": "index",
          "type": "uint256"
        },
        {
          "internalType": "uint256",
          "name": "amount",
          "type": "uint256"
        }
      ],
      "name": "creatorWithdrawTip",
      "outputs": [
        {
          "internalType": "address payable",
          "name": "_creatorAddress",
          "type": "address"
        }
      ],
      "stateMutability": "nonpayable",
      "type": "function"
    },
    {
      "inputs": [
        {
          "internalType": "uint256",
          "name": "index",
          "type": "uint256"
        }
      ],
      "name": "getCreatorBal",
      "outputs": [
        {
          "internalType": "uint256",
          "name": "",
          "type": "uint256"
        }
      ],
      "stateMutability": "view",
      "type": "function"
    },
    {
      "inputs": [],
      "name": "getCreatorCount",
      "outputs": [
        {
          "internalType": "uint256",
          "name": "",
          "type": "uint256"
        }
      ],
      "stateMutability": "view",
      "type": "function"
    },
    {
      "inputs": [
        {
          "internalType": "uint256",
          "name": "index",
          "type": "uint256"
        }
      ],
      "name": "getCreatorInfo",
      "outputs": [
        {
          "internalType": "uint256",
          "name": "id",
          "type": "uint256"
        },
        {
          "internalType": "string",
          "name": "",
          "type": "string"
        },
        {
          "internalType": "string",
          "name": "",
          "type": "string"
        },
        {
          "internalType": "address",
          "name": "",
          "type": "address"
        },
        {
          "internalType": "string",
          "name": "",
          "type": "string"
        },
        {
          "internalType": "uint256",
          "name": "",
          "type": "uint256"
        },
        {
          "internalType": "string",
          "name": "",
          "type": "string"
        },
        {
          "internalType": "uint256",
          "name": "",
          "type": "uint256"
        }
      ],
      "stateMutability": "view",
      "type": "function"
    },
    {
      "inputs": [],
      "name": "getCreatorList",
      "outputs": [
        {
          "components": [
            {
              "internalType": "uint256",
              "name": "id",
              "type": "uint256"
            },
            {
              "internalType": "string",
              "name": "username",
              "type": "string"
            },
            {
              "internalType": "string",
              "name": "ipfsHash",
              "type": "string"
            },
            {
              "internalType": "address payable",
              "name": "walletAddress",
              "type": "address"
            },
            {
              "internalType": "string",
              "name": "userbio",
              "type": "string"
            },
            {
              "internalType": "uint256",
              "name": "donationsReceived",
              "type": "uint256"
            },
            {
              "internalType": "string",
              "name": "networkOption",
              "type": "string"
            },
            {
              "internalType": "uint256",
              "name": "supporters",
              "type": "uint256"
            }
          ],
          "internalType": "struct Donation.CreatorInfo[]",
          "name": "",
          "type": "tuple[]"
        }
      ],
      "stateMutability": "view",
      "type": "function"
    },
    {
      "inputs": [
        {
          "internalType": "uint256",
          "name": "_index",
          "type": "uint256"
        }
      ],
      "name": "getCreatorObj",
      "outputs": [
        {
          "components": [
            {
              "internalType": "uint256",
              "name": "id",
              "type": "uint256"
            },
            {
              "internalType": "string",
              "name": "username",
              "type": "string"
            },
            {
              "internalType": "string",
              "name": "ipfsHash",
              "type": "string"
            },
            {
              "internalType": "address payable",
              "name": "walletAddress",
              "type": "address"
            },
            {
              "internalType": "string",
              "name": "userbio",
              "type": "string"
            },
            {
              "internalType": "uint256",
              "name": "donationsReceived",
              "type": "uint256"
            },
            {
              "internalType": "string",
              "name": "networkOption",
              "type": "string"
            },
            {
              "internalType": "uint256",
              "name": "supporters",
              "type": "uint256"
            }
          ],
          "internalType": "struct Donation.CreatorInfo",
          "name": "",
          "type": "tuple"
        }
      ],
      "stateMutability": "view",
      "type": "function"
    },
    {
      "inputs": [
        {
          "internalType": "uint256",
          "name": "index",
          "type": "uint256"
        }
      ],
      "name": "getSupportInfo",
      "outputs": [
        {
          "internalType": "address",
          "name": "_from",
          "type": "address"
        },
        {
          "internalType": "uint256",
          "name": "_timestamp",
          "type": "uint256"
        },
        {
          "internalType": "string",
          "name": "_message",
          "type": "string"
        }
      ],
      "stateMutability": "view",
      "type": "function"
    },
    {
      "inputs": [],
      "name": "getSupporterList",
      "outputs": [
        {
          "components": [
            {
              "internalType": "address",
              "name": "from",
              "type": "address"
            },
            {
              "internalType": "uint256",
              "name": "timestamp",
              "type": "uint256"
            },
            {
              "internalType": "string",
              "name": "message",
              "type": "string"
            }
          ],
          "internalType": "struct Donation.Supporter[]",
          "name": "",
          "type": "tuple[]"
        }
      ],
      "stateMutability": "view",
      "type": "function"
    },
    {
      "inputs": [
        {
          "internalType": "uint256",
          "name": "_index",
          "type": "uint256"
        }
      ],
      "name": "getSupporterObj",
      "outputs": [
        {
          "components": [
            {
              "internalType": "address",
              "name": "from",
              "type": "address"
            },
            {
              "internalType": "uint256",
              "name": "timestamp",
              "type": "uint256"
            },
            {
              "internalType": "string",
              "name": "message",
              "type": "string"
            }
          ],
          "internalType": "struct Donation.Supporter",
          "name": "",
          "type": "tuple"
        }
      ],
      "stateMutability": "view",
      "type": "function"
    },
    {
      "inputs": [],
      "name": "getSupporters",
      "outputs": [
        {
          "internalType": "uint256",
          "name": "",
          "type": "uint256"
        }
      ],
      "stateMutability": "view",
      "type": "function"
    },
    {
      "inputs": [],
      "name": "owner",
      "outputs": [
        {
          "internalType": "address payable",
          "name": "",
          "type": "address"
        }
      ],
      "stateMutability": "view",
      "type": "function"
    },
    {
      "inputs": [
        {
          "internalType": "string",
          "name": "_message",
          "type": "string"
        },
        {
          "internalType": "uint256",
          "name": "_index",
          "type": "uint256"
        }
      ],
      "name": "sendTip",
      "outputs": [],
      "stateMutability": "payable",
      "type": "function"
    },
    {
      "inputs": [
        {
          "internalType": "string",
          "name": "_username",
          "type": "string"
        },
        {
          "internalType": "string",
          "name": "_ipfsHash",
          "type": "string"
        },
        {
          "internalType": "string",
          "name": "_userbio",
          "type": "string"
        },
        {
          "internalType": "string",
          "name": "_networkOption",
          "type": "string"
        }
      ],
      "name": "setCreatorDetail",
      "outputs": [],
      "stateMutability": "nonpayable",
      "type": "function"
    }
  ],
  "bytecode": "0x608060405233600260006101000a81548173ffffffffffffffffffffffffffffffffffffffff021916908373ffffffffffffffffffffffffffffffffffffffff160217905550612b9c806100546000396000f3fe6080604052600436106100f35760003560e01c8063c43ad4811161008a578063d9088afc11610059578063d9088afc1461034e578063db9020eb14610365578063dfe6712e14610390578063e0a57eb8146103bb576100f3565b8063c43ad481146102b1578063c580ec0a146102dc578063c92d7231146102f8578063c9cd30a014610323576100f3565b806343020b1a116100c657806343020b1a146101e15780634af498a21461020c578063746614a8146102495780638da5cb5b14610286576100f3565b806305860bdc146100f85780632516f8e61461013557806325e860a5146101795780633985d500146101a2575b600080fd5b34801561010457600080fd5b5061011f600480360381019061011a91906119da565b6103f8565b60405161012c9190611b37565b60405180910390f35b34801561014157600080fd5b5061015c600480360381019061015791906119da565b610526565b604051610170989796959493929190611bc1565b60405180910390f35b34801561018557600080fd5b506101a0600480360381019061019b9190611d90565b6107ea565b005b3480156101ae57600080fd5b506101c960048036038101906101c491906119da565b610b4e565b6040516101d893929190611e67565b60405180910390f35b3480156101ed57600080fd5b506101f6610c41565b6040516102039190611ea5565b60405180910390f35b34801561021857600080fd5b50610233600480360381019061022e91906119da565b610c4e565b6040516102409190611fa6565b60405180910390f35b34801561025557600080fd5b50610270600480360381019061026b9190611fc8565b610f47565b60405161027d9190612017565b60405180910390f35b34801561029257600080fd5b5061029b611146565b6040516102a89190612017565b60405180910390f35b3480156102bd57600080fd5b506102c661116c565b6040516102d39190611ea5565b60405180910390f35b6102f660048036038101906102f19190612032565b611172565b005b34801561030457600080fd5b5061030d611347565b60405161031a9190612215565b60405180910390f35b34801561032f57600080fd5b50610338611663565b6040516103459190611ea5565b60405180910390f35b34801561035a57600080fd5b5061036361166b565b005b34801561037157600080fd5b5061037a611742565b6040516103879190612349565b60405180910390f35b34801561039c57600080fd5b506103a5611893565b6040516103b29190611ea5565b60405180910390f35b3480156103c757600080fd5b506103e260048036038101906103dd91906119da565b6118a0565b6040516103ef9190611ea5565b60405180910390f35b6104006118fe565b600582815481106104145761041361236b565b5b90600052602060002090600302016040518060600160405290816000820160009054906101000a900473ffffffffffffffffffffffffffffffffffffffff1673ffffffffffffffffffffffffffffffffffffffff1673ffffffffffffffffffffffffffffffffffffffff1681526020016001820154815260200160028201805461049d906123c9565b80601f01602080910402602001604051908101604052809291908181526020018280546104c9906123c9565b80156105165780601f106104eb57610100808354040283529160200191610516565b820191906000526020600020905b8154815290600101906020018083116104f957829003601f168201915b5050505050815250509050919050565b6000606080600060606000606060008060068a8154811061054a5761054961236b565b5b90600052602060002090600802019050806000015481600101826002018360030160009054906101000a900473ffffffffffffffffffffffffffffffffffffffff168460040185600501548660060187600701548680546105aa906123c9565b80601f01602080910402602001604051908101604052809291908181526020018280546105d6906123c9565b80156106235780601f106105f857610100808354040283529160200191610623565b820191906000526020600020905b81548152906001019060200180831161060657829003601f168201915b50505050509650858054610636906123c9565b80601f0160208091040260200160405190810160405280929190818152602001828054610662906123c9565b80156106af5780601f10610684576101008083540402835291602001916106af565b820191906000526020600020905b81548152906001019060200180831161069257829003601f168201915b505050505095508380546106c2906123c9565b80601f01602080910402602001604051908101604052809291908181526020018280546106ee906123c9565b801561073b5780601f106107105761010080835404028352916020019161073b565b820191906000526020600020905b81548152906001019060200180831161071e57829003601f168201915b5050505050935081805461074e906123c9565b80601f016020809104026020016040519081016040528092919081815260200182805461077a906123c9565b80156107c75780601f1061079c576101008083540402835291602001916107c7565b820191906000526020600020905b8154815290600101906020018083116107aa57829003601f168201915b505050505091509850985098509850985098509850985050919395975091939597565b60008451116107f857600080fd5b600083511161080657600080fd5b600082511161081457600080fd5b60008060001515600360003373ffffffffffffffffffffffffffffffffffffffff1673ffffffffffffffffffffffffffffffffffffffff16815260200190815260200160002060009054906101000a900460ff161515146108aa576040517f08c379a00000000000000000000000000000000000000000000000000000000081526004016108a190612446565b60405180910390fd5b600015156004876040516108be91906124a2565b908152602001604051809103902060009054906101000a900460ff1615151461091c576040517f08c379a000000000000000000000000000000000000000000000000000000000815260040161091390612505565b60405180910390fd5b61092660006118da565b600660405180610100016040528061093e60006118f0565b81526020018881526020018781526020013373ffffffffffffffffffffffffffffffffffffffff1681526020018681526020018481526020018581526020018381525090806001815401808255809150506001900390600052602060002090600802016000909190919091506000820151816000015560208201518160010190816109c991906126d1565b5060408201518160020190816109df91906126d1565b5060608201518160030160006101000a81548173ffffffffffffffffffffffffffffffffffffffff021916908373ffffffffffffffffffffffffffffffffffffffff1602179055506080820151816004019081610a3c91906126d1565b5060a0820151816005015560c0820151816006019081610a5c91906126d1565b5060e0820151816007015550506001600360003373ffffffffffffffffffffffffffffffffffffffff1673ffffffffffffffffffffffffffffffffffffffff16815260200190815260200160002060006101000a81548160ff0219169083151502179055506001600487604051610ad391906124a2565b908152602001604051809103902060006101000a81548160ff0219169083151502179055507f1f2b5d1f5852ee1b568a3ab56bde183bd34ea4e92ab3875e469e846dbcfc406e610b2360006118f0565b87338888878988604051610b3e9897969594939291906127a3565b60405180910390a1505050505050565b6000806060600060058581548110610b6957610b6861236b565b5b906000526020600020906003020190508060000160009054906101000a900473ffffffffffffffffffffffffffffffffffffffff16816001015482600201808054610bb3906123c9565b80601f0160208091040260200160405190810160405280929190818152602001828054610bdf906123c9565b8015610c2c5780601f10610c0157610100808354040283529160200191610c2c565b820191906000526020600020905b815481529060010190602001808311610c0f57829003601f168201915b50505050509050935093509350509193909250565b6000600580549050905090565b610c56611935565b60068281548110610c6a57610c6961236b565b5b90600052602060002090600802016040518061010001604052908160008201548152602001600182018054610c9e906123c9565b80601f0160208091040260200160405190810160405280929190818152602001828054610cca906123c9565b8015610d175780601f10610cec57610100808354040283529160200191610d17565b820191906000526020600020905b815481529060010190602001808311610cfa57829003601f168201915b50505050508152602001600282018054610d30906123c9565b80601f0160208091040260200160405190810160405280929190818152602001828054610d5c906123c9565b8015610da95780601f10610d7e57610100808354040283529160200191610da9565b820191906000526020600020905b815481529060010190602001808311610d8c57829003601f168201915b505050505081526020016003820160009054906101000a900473ffffffffffffffffffffffffffffffffffffffff1673ffffffffffffffffffffffffffffffffffffffff1673ffffffffffffffffffffffffffffffffffffffff168152602001600482018054610e18906123c9565b80601f0160208091040260200160405190810160405280929190818152602001828054610e44906123c9565b8015610e915780601f10610e6657610100808354040283529160200191610e91565b820191906000526020600020905b815481529060010190602001808311610e7457829003601f168201915b5050505050815260200160058201548152602001600682018054610eb4906123c9565b80601f0160208091040260200160405190810160405280929190818152602001828054610ee0906123c9565b8015610f2d5780601f10610f0257610100808354040283529160200191610f2d565b820191906000526020600020905b815481529060010190602001808311610f1057829003601f168201915b505050505081526020016007820154815250509050919050565b60008060068481548110610f5e57610f5d61236b565b5b9060005260206000209060080201905060008160050154905060008260030160009054906101000a900473ffffffffffffffffffffffffffffffffffffffff1690508460068781548110610fb557610fb461236b565b5b90600052602060002090600802016005016000828254610fd5919061286c565b925050819055508185111561101f576040517f08c379a0000000000000000000000000000000000000000000000000000000008152600401611016906128ec565b60405180910390fd5b8073ffffffffffffffffffffffffffffffffffffffff163373ffffffffffffffffffffffffffffffffffffffff161461108d576040517f08c379a000000000000000000000000000000000000000000000000000000000815260040161108490612958565b60405180910390fd5b60008173ffffffffffffffffffffffffffffffffffffffff16866040516110b3906129a9565b60006040518083038185875af1925050503d80600081146110f0576040519150601f19603f3d011682016040523d82523d6000602084013e6110f5565b606091505b5050905080611139576040517f08c379a000000000000000000000000000000000000000000000000000000000815260040161113090612a0a565b60405180910390fd5b8194505050505092915050565b600260009054906101000a900473ffffffffffffffffffffffffffffffffffffffff1681565b60015481565b34600682815481106111875761118661236b565b5b906000526020600020906008020160050160008282546111a79190612a2a565b925050819055506001600682815481106111c4576111c361236b565b5b906000526020600020906008020160070160008282546111e49190612a2a565b925050819055506000341161122e576040517f08c379a000000000000000000000000000000000000000000000000000000000815260040161122590612aaa565b60405180910390fd5b600560405180606001604052803373ffffffffffffffffffffffffffffffffffffffff16815260200142815260200184815250908060018154018082558091505060019003906000526020600020906003020160009091909190915060008201518160000160006101000a81548173ffffffffffffffffffffffffffffffffffffffff021916908373ffffffffffffffffffffffffffffffffffffffff1602179055506020820151816001015560408201518160020190816112f091906126d1565b5050503373ffffffffffffffffffffffffffffffffffffffff167fd6a897edbe2f5bae63386e323f717069a8974221d9297299ac544cace2d0f992428460405161133b929190612aca565b60405180910390a25050565b60606006805480602002602001604051908101604052809291908181526020016000905b8282101561165a578382906000526020600020906008020160405180610100016040529081600082015481526020016001820180546113a9906123c9565b80601f01602080910402602001604051908101604052809291908181526020018280546113d5906123c9565b80156114225780601f106113f757610100808354040283529160200191611422565b820191906000526020600020905b81548152906001019060200180831161140557829003601f168201915b5050505050815260200160028201805461143b906123c9565b80601f0160208091040260200160405190810160405280929190818152602001828054611467906123c9565b80156114b45780601f10611489576101008083540402835291602001916114b4565b820191906000526020600020905b81548152906001019060200180831161149757829003601f168201915b505050505081526020016003820160009054906101000a900473ffffffffffffffffffffffffffffffffffffffff1673ffffffffffffffffffffffffffffffffffffffff1673ffffffffffffffffffffffffffffffffffffffff168152602001600482018054611523906123c9565b80601f016020809104026020016040519081016040528092919081815260200182805461154f906123c9565b801561159c5780601f106115715761010080835404028352916020019161159c565b820191906000526020600020905b81548152906001019060200180831161157f57829003601f168201915b50505050508152602001600582015481526020016006820180546115bf906123c9565b80601f01602080910402602001604051908101604052809291908181526020018280546115eb906123c9565b80156116385780601f1061160d57610100808354040283529160200191611638565b820191906000526020600020905b81548152906001019060200180831161161b57829003601f168201915b505050505081526020016007820154815250508152602001906001019061136b565b50505050905090565b600047905090565b60004790506000600260009054906101000a900473ffffffffffffffffffffffffffffffffffffffff1673ffffffffffffffffffffffffffffffffffffffff16826040516116b8906129a9565b60006040518083038185875af1925050503d80600081146116f5576040519150601f19603f3d011682016040523d82523d6000602084013e6116fa565b606091505b505090508061173e576040517f08c379a000000000000000000000000000000000000000000000000000000000815260040161173590612b46565b60405180910390fd5b5050565b60606005805480602002602001604051908101604052809291908181526020016000905b8282101561188a57838290600052602060002090600302016040518060600160405290816000820160009054906101000a900473ffffffffffffffffffffffffffffffffffffffff1673ffffffffffffffffffffffffffffffffffffffff1673ffffffffffffffffffffffffffffffffffffffff168152602001600182015481526020016002820180546117f9906123c9565b80601f0160208091040260200160405190810160405280929190818152602001828054611825906123c9565b80156118725780601f1061184757610100808354040283529160200191611872565b820191906000526020600020905b81548152906001019060200180831161185557829003601f168201915b50505050508152505081526020019060010190611766565b50505050905090565b6000600680549050905090565b600080600683815481106118b7576118b661236b565b5b906000526020600020906008020190506000816005015490508092505050919050565b6001816000016000828254019250508190555050565b600081600001549050919050565b6040518060600160405280600073ffffffffffffffffffffffffffffffffffffffff16815260200160008152602001606081525090565b604051806101000160405280600081526020016060815260200160608152602001600073ffffffffffffffffffffffffffffffffffffffff168152602001606081526020016000815260200160608152602001600081525090565b6000604051905090565b600080fd5b600080fd5b6000819050919050565b6119b7816119a4565b81146119c257600080fd5b50565b6000813590506119d4816119ae565b92915050565b6000602082840312156119f0576119ef61199a565b5b60006119fe848285016119c5565b91505092915050565b600073ffffffffffffffffffffffffffffffffffffffff82169050919050565b6000611a3282611a07565b9050919050565b611a4281611a27565b82525050565b611a51816119a4565b82525050565b600081519050919050565b600082825260208201905092915050565b60005b83811015611a91578082015181840152602081019050611a76565b60008484015250505050565b6000601f19601f8301169050919050565b6000611ab982611a57565b611ac38185611a62565b9350611ad3818560208601611a73565b611adc81611a9d565b840191505092915050565b6000606083016000830151611aff6000860182611a39565b506020830151611b126020860182611a48565b5060408301518482036040860152611b2a8282611aae565b9150508091505092915050565b60006020820190508181036000830152611b518184611ae7565b905092915050565b611b62816119a4565b82525050565b600082825260208201905092915050565b6000611b8482611a57565b611b8e8185611b68565b9350611b9e818560208601611a73565b611ba781611a9d565b840191505092915050565b611bbb81611a27565b82525050565b600061010082019050611bd7600083018b611b59565b8181036020830152611be9818a611b79565b90508181036040830152611bfd8189611b79565b9050611c0c6060830188611bb2565b8181036080830152611c1e8187611b79565b9050611c2d60a0830186611b59565b81810360c0830152611c3f8185611b79565b9050611c4e60e0830184611b59565b9998505050505050505050565b600080fd5b600080fd5b7f4e487b7100000000000000000000000000000000000000000000000000000000600052604160045260246000fd5b611c9d82611a9d565b810181811067ffffffffffffffff82111715611cbc57611cbb611c65565b5b80604052505050565b6000611ccf611990565b9050611cdb8282611c94565b919050565b600067ffffffffffffffff821115611cfb57611cfa611c65565b5b611d0482611a9d565b9050602081019050919050565b82818337600083830152505050565b6000611d33611d2e84611ce0565b611cc5565b905082815260208101848484011115611d4f57611d4e611c60565b5b611d5a848285611d11565b509392505050565b600082601f830112611d7757611d76611c5b565b5b8135611d87848260208601611d20565b91505092915050565b60008060008060808587031215611daa57611da961199a565b5b600085013567ffffffffffffffff811115611dc857611dc761199f565b5b611dd487828801611d62565b945050602085013567ffffffffffffffff811115611df557611df461199f565b5b611e0187828801611d62565b935050604085013567ffffffffffffffff811115611e2257611e2161199f565b5b611e2e87828801611d62565b925050606085013567ffffffffffffffff811115611e4f57611e4e61199f565b5b611e5b87828801611d62565b91505092959194509250565b6000606082019050611e7c6000830186611bb2565b611e896020830185611b59565b8181036040830152611e9b8184611b79565b9050949350505050565b6000602082019050611eba6000830184611b59565b92915050565b6000611ecb82611a07565b9050919050565b611edb81611ec0565b82525050565b600061010083016000830151611efa6000860182611a48565b5060208301518482036020860152611f128282611aae565b91505060408301518482036040860152611f2c8282611aae565b9150506060830151611f416060860182611ed2565b5060808301518482036080860152611f598282611aae565b91505060a0830151611f6e60a0860182611a48565b5060c083015184820360c0860152611f868282611aae565b91505060e0830151611f9b60e0860182611a48565b508091505092915050565b60006020820190508181036000830152611fc08184611ee1565b905092915050565b60008060408385031215611fdf57611fde61199a565b5b6000611fed858286016119c5565b9250506020611ffe858286016119c5565b9150509250929050565b61201181611ec0565b82525050565b600060208201905061202c6000830184612008565b92915050565b600080604083850312156120495761204861199a565b5b600083013567ffffffffffffffff8111156120675761206661199f565b5b61207385828601611d62565b9250506020612084858286016119c5565b9150509250929050565b600081519050919050565b600082825260208201905092915050565b6000819050602082019050919050565b6000610100830160008301516120d36000860182611a48565b50602083015184820360208601526120eb8282611aae565b915050604083015184820360408601526121058282611aae565b915050606083015161211a6060860182611ed2565b50608083015184820360808601526121328282611aae565b91505060a083015161214760a0860182611a48565b5060c083015184820360c086015261215f8282611aae565b91505060e083015161217460e0860182611a48565b508091505092915050565b600061218b83836120ba565b905092915050565b6000602082019050919050565b60006121ab8261208e565b6121b58185612099565b9350836020820285016121c7856120aa565b8060005b8581101561220357848403895281516121e4858261217f565b94506121ef83612193565b925060208a019950506001810190506121cb565b50829750879550505050505092915050565b6000602082019050818103600083015261222f81846121a0565b905092915050565b600081519050919050565b600082825260208201905092915050565b6000819050602082019050919050565b600060608301600083015161227b6000860182611a39565b50602083015161228e6020860182611a48565b50604083015184820360408601526122a68282611aae565b9150508091505092915050565b60006122bf8383612263565b905092915050565b6000602082019050919050565b60006122df82612237565b6122e98185612242565b9350836020820285016122fb85612253565b8060005b85811015612337578484038952815161231885826122b3565b9450612323836122c7565b925060208a019950506001810190506122ff565b50829750879550505050505092915050565b6000602082019050818103600083015261236381846122d4565b905092915050565b7f4e487b7100000000000000000000000000000000000000000000000000000000600052603260045260246000fd5b7f4e487b7100000000000000000000000000000000000000000000000000000000600052602260045260246000fd5b600060028204905060018216806123e157607f821691505b6020821081036123f4576123f361239a565b5b50919050565b7f4164647265737320616c72656164792065786973740000000000000000000000600082015250565b6000612430601583611b68565b915061243b826123fa565b602082019050919050565b6000602082019050818103600083015261245f81612423565b9050919050565b600081905092915050565b600061247c82611a57565b6124868185612466565b9350612496818560208601611a73565b80840191505092915050565b60006124ae8284612471565b915081905092915050565b7f557365726e616d6520616c726561647920657869737400000000000000000000600082015250565b60006124ef601683611b68565b91506124fa826124b9565b602082019050919050565b6000602082019050818103600083015261251e816124e2565b9050919050565b60008190508160005260206000209050919050565b60006020601f8301049050919050565b600082821b905092915050565b6000600883026125877fffffffffffffffffffffffffffffffffffffffffffffffffffffffffffffffff8261254a565b612591868361254a565b95508019841693508086168417925050509392505050565b6000819050919050565b60006125ce6125c96125c4846119a4565b6125a9565b6119a4565b9050919050565b6000819050919050565b6125e8836125b3565b6125fc6125f4826125d5565b848454612557565b825550505050565b600090565b612611612604565b61261c8184846125df565b505050565b5b8181101561264057612635600082612609565b600181019050612622565b5050565b601f8211156126855761265681612525565b61265f8461253a565b8101602085101561266e578190505b61268261267a8561253a565b830182612621565b50505b505050565b600082821c905092915050565b60006126a86000198460080261268a565b1980831691505092915050565b60006126c18383612697565b9150826002028217905092915050565b6126da82611a57565b67ffffffffffffffff8111156126f3576126f2611c65565b5b6126fd82546123c9565b612708828285612644565b600060209050601f83116001811461273b5760008415612729578287015190505b61273385826126b5565b86555061279b565b601f19841661274986612525565b60005b828110156127715784890151825560018201915060208501945060208101905061274c565b8683101561278e578489015161278a601f891682612697565b8355505b6001600288020188555050505b505050505050565b6000610100820190506127b9600083018b611b59565b81810360208301526127cb818a611b79565b90506127da6040830189612008565b81810360608301526127ec8188611b79565b905081810360808301526128008187611b79565b905061280f60a0830186611b59565b81810360c08301526128218185611b79565b905061283060e0830184611b59565b9998505050505050505050565b7f4e487b7100000000000000000000000000000000000000000000000000000000600052601160045260246000fd5b6000612877826119a4565b9150612882836119a4565b925082820390508181111561289a5761289961283d565b5b92915050565b7f496e73756666696369656e742062616c00000000000000000000000000000000600082015250565b60006128d6601083611b68565b91506128e1826128a0565b602082019050919050565b60006020820190508181036000830152612905816128c9565b9050919050565b7f596f7520617265206e6f74207468652063726561746f72000000000000000000600082015250565b6000612942601783611b68565b915061294d8261290c565b602082019050919050565b6000602082019050818103600083015261297181612935565b9050919050565b600081905092915050565b50565b6000612993600083612978565b915061299e82612983565b600082019050919050565b60006129b482612986565b9150819050919050565b7f4661696c656420746f2073656e64204574686572000000000000000000000000600082015250565b60006129f4601483611b68565b91506129ff826129be565b602082019050919050565b60006020820190508181036000830152612a23816129e7565b9050919050565b6000612a35826119a4565b9150612a40836119a4565b9250828201905080821115612a5857612a5761283d565b5b92915050565b7f496e73756666696369656e742062616c616e6365210000000000000000000000600082015250565b6000612a94601583611b68565b9150612a9f82612a5e565b602082019050919050565b60006020820190508181036000830152612ac381612a87565b9050919050565b6000604082019050612adf6000830185611b59565b8181036020830152612af18184611b79565b90509392505050565b7f4661696c656420746f2073656e64206574686572000000000000000000000000600082015250565b6000612b30601483611b68565b9150612b3b82612afa565b602082019050919050565b60006020820190508181036000830152612b5f81612b23565b905091905056fea26469706673582212206c517f98d46d23d21de74f534f6edd2498ac571af4f0ab0f55b63044cf2d788564736f6c63430008110033",
  "linkReferences": {},
  "deployedLinkReferences": {}
}