{
  "_format": "hh-sol-artifact-1",
  "contractName": "InvestmentDAO",
  "sourceName": "contracts/InvestmentDAO.sol",
  "abi": [
    {
      "inputs": [
        {
          "internalType": "address",
          "name": "_tokenAddress",
          "type": "address"
        }
      ],
      "stateMutability": "nonpayable",
      "type": "constructor"
    },
    {
      "anonymous": false,
      "inputs": [
        {
          "indexed": false,
          "internalType": "address",
          "name": "memberAddress",
          "type": "address"
        },
        {
          "indexed": false,
          "internalType": "uint256",
          "name": "tokenBalance",
          "type": "uint256"
        }
      ],
      "name": "AddMember",
      "type": "event"
    },
    {
      "anonymous": false,
      "inputs": [
        {
          "indexed": false,
          "internalType": "uint256",
          "name": "proposalId",
          "type": "uint256"
        },
        {
          "indexed": false,
          "internalType": "string",
          "name": "title",
          "type": "string"
        },
        {
          "indexed": false,
          "internalType": "string",
          "name": "description",
          "type": "string"
        },
        {
          "indexed": false,
          "internalType": "uint256",
          "name": "startTime",
          "type": "uint256"
        },
        {
          "indexed": false,
          "internalType": "uint256",
          "name": "endTime",
          "type": "uint256"
        }
      ],
      "name": "ProposalCreated",
      "type": "event"
    },
    {
      "anonymous": false,
      "inputs": [
        {
          "indexed": false,
          "internalType": "uint256",
          "name": "proposalId",
          "type": "uint256"
        },
        {
          "indexed": false,
          "internalType": "address",
          "name": "voter",
          "type": "address"
        },
        {
          "indexed": false,
          "internalType": "uint256",
          "name": "choice",
          "type": "uint256"
        },
        {
          "indexed": false,
          "internalType": "uint256",
          "name": "yesVotes",
          "type": "uint256"
        },
        {
          "indexed": false,
          "internalType": "uint256",
          "name": "noVotes",
          "type": "uint256"
        }
      ],
      "name": "Voted",
      "type": "event"
    },
    {
      "inputs": [],
      "name": "addMember",
      "outputs": [],
      "stateMutability": "nonpayable",
      "type": "function"
    },
    {
      "inputs": [
        {
          "internalType": "string",
          "name": "_title",
          "type": "string"
        },
        {
          "internalType": "string",
          "name": "_description",
          "type": "string"
        },
        {
          "internalType": "uint256",
          "name": "_startTime",
          "type": "uint256"
        },
        {
          "internalType": "uint256",
          "name": "_endTime",
          "type": "uint256"
        }
      ],
      "name": "createProposal",
      "outputs": [],
      "stateMutability": "nonpayable",
      "type": "function"
    },
    {
      "inputs": [
        {
          "internalType": "uint256",
          "name": "_proposalIndex",
          "type": "uint256"
        }
      ],
      "name": "executeProposal",
      "outputs": [],
      "stateMutability": "nonpayable",
      "type": "function"
    },
    {
      "inputs": [],
      "name": "fundAccount",
      "outputs": [],
      "stateMutability": "nonpayable",
      "type": "function"
    },
    {
      "inputs": [],
      "name": "getAllProposals",
      "outputs": [
        {
          "components": [
            {
              "internalType": "uint256",
              "name": "id",
              "type": "uint256"
            },
            {
              "internalType": "address",
              "name": "creator",
              "type": "address"
            },
            {
              "internalType": "string",
              "name": "title",
              "type": "string"
            },
            {
              "internalType": "string",
              "name": "description",
              "type": "string"
            },
            {
              "internalType": "uint256",
              "name": "startTime",
              "type": "uint256"
            },
            {
              "internalType": "uint256",
              "name": "endTime",
              "type": "uint256"
            },
            {
              "internalType": "uint256",
              "name": "yesVotes",
              "type": "uint256"
            },
            {
              "internalType": "uint256",
              "name": "noVotes",
              "type": "uint256"
            }
          ],
          "internalType": "struct InvestmentDAO.Proposal[]",
          "name": "",
          "type": "tuple[]"
        }
      ],
      "stateMutability": "view",
      "type": "function"
    },
    {
      "inputs": [
        {
          "internalType": "address",
          "name": "_address",
          "type": "address"
        }
      ],
      "name": "getMemberStatus",
      "outputs": [
        {
          "internalType": "bool",
          "name": "",
          "type": "bool"
        }
      ],
      "stateMutability": "view",
      "type": "function"
    },
    {
      "inputs": [
        {
          "internalType": "uint256",
          "name": "proposalId",
          "type": "uint256"
        },
        {
          "internalType": "address",
          "name": "_address",
          "type": "address"
        }
      ],
      "name": "getMemberVoteStatus",
      "outputs": [
        {
          "internalType": "bool",
          "name": "",
          "type": "bool"
        }
      ],
      "stateMutability": "view",
      "type": "function"
    },
    {
      "inputs": [],
      "name": "getMembers",
      "outputs": [
        {
          "components": [
            {
              "internalType": "address",
              "name": "memberAddress",
              "type": "address"
            },
            {
              "internalType": "uint256",
              "name": "tokenBalance",
              "type": "uint256"
            }
          ],
          "internalType": "struct InvestmentDAO.Member[]",
          "name": "",
          "type": "tuple[]"
        }
      ],
      "stateMutability": "view",
      "type": "function"
    },
    {
      "inputs": [
        {
          "internalType": "uint256",
          "name": "_proposalIndex",
          "type": "uint256"
        }
      ],
      "name": "getProposal",
      "outputs": [
        {
          "internalType": "address",
          "name": "creator",
          "type": "address"
        },
        {
          "internalType": "string",
          "name": "title",
          "type": "string"
        },
        {
          "internalType": "string",
          "name": "description",
          "type": "string"
        },
        {
          "internalType": "uint256",
          "name": "startTime",
          "type": "uint256"
        },
        {
          "internalType": "uint256",
          "name": "endTime",
          "type": "uint256"
        },
        {
          "internalType": "uint256",
          "name": "yesVotes",
          "type": "uint256"
        },
        {
          "internalType": "uint256",
          "name": "noVotes",
          "type": "uint256"
        }
      ],
      "stateMutability": "view",
      "type": "function"
    },
    {
      "inputs": [
        {
          "internalType": "uint256",
          "name": "_proposalIndex",
          "type": "uint256"
        }
      ],
      "name": "getProposalStatus",
      "outputs": [
        {
          "internalType": "uint256",
          "name": "",
          "type": "uint256"
        }
      ],
      "stateMutability": "view",
      "type": "function"
    },
    {
      "inputs": [
        {
          "internalType": "address",
          "name": "_address",
          "type": "address"
        }
      ],
      "name": "getTokenBalance",
      "outputs": [
        {
          "internalType": "uint256",
          "name": "",
          "type": "uint256"
        }
      ],
      "stateMutability": "view",
      "type": "function"
    },
    {
      "inputs": [],
      "name": "getVoters",
      "outputs": [
        {
          "components": [
            {
              "internalType": "uint256",
              "name": "proposerIndex",
              "type": "uint256"
            },
            {
              "internalType": "address",
              "name": "voterAddress",
              "type": "address"
            },
            {
              "internalType": "uint256",
              "name": "voteChoice",
              "type": "uint256"
            }
          ],
          "internalType": "struct InvestmentDAO.Voter[]",
          "name": "",
          "type": "tuple[]"
        }
      ],
      "stateMutability": "view",
      "type": "function"
    },
    {
      "inputs": [],
      "name": "memberCount",
      "outputs": [
        {
          "internalType": "uint256",
          "name": "",
          "type": "uint256"
        }
      ],
      "stateMutability": "view",
      "type": "function"
    },
    {
      "inputs": [
        {
          "internalType": "uint256",
          "name": "",
          "type": "uint256"
        }
      ],
      "name": "members",
      "outputs": [
        {
          "internalType": "address",
          "name": "memberAddress",
          "type": "address"
        },
        {
          "internalType": "uint256",
          "name": "tokenBalance",
          "type": "uint256"
        }
      ],
      "stateMutability": "view",
      "type": "function"
    },
    {
      "inputs": [
        {
          "internalType": "address",
          "name": "",
          "type": "address"
        }
      ],
      "name": "membersMap",
      "outputs": [
        {
          "internalType": "address",
          "name": "memberAddress",
          "type": "address"
        },
        {
          "internalType": "uint256",
          "name": "tokenBalance",
          "type": "uint256"
        }
      ],
      "stateMutability": "view",
      "type": "function"
    },
    {
      "inputs": [],
      "name": "proposalCount",
      "outputs": [
        {
          "internalType": "uint256",
          "name": "",
          "type": "uint256"
        }
      ],
      "stateMutability": "view",
      "type": "function"
    },
    {
      "inputs": [
        {
          "internalType": "uint256",
          "name": "",
          "type": "uint256"
        }
      ],
      "name": "proposals",
      "outputs": [
        {
          "internalType": "uint256",
          "name": "id",
          "type": "uint256"
        },
        {
          "internalType": "address",
          "name": "creator",
          "type": "address"
        },
        {
          "internalType": "string",
          "name": "title",
          "type": "string"
        },
        {
          "internalType": "string",
          "name": "description",
          "type": "string"
        },
        {
          "internalType": "uint256",
          "name": "startTime",
          "type": "uint256"
        },
        {
          "internalType": "uint256",
          "name": "endTime",
          "type": "uint256"
        },
        {
          "internalType": "uint256",
          "name": "yesVotes",
          "type": "uint256"
        },
        {
          "internalType": "uint256",
          "name": "noVotes",
          "type": "uint256"
        }
      ],
      "stateMutability": "view",
      "type": "function"
    },
    {
      "inputs": [
        {
          "internalType": "uint256",
          "name": "proposalId",
          "type": "uint256"
        }
      ],
      "name": "removeProposal",
      "outputs": [
        {
          "components": [
            {
              "internalType": "uint256",
              "name": "id",
              "type": "uint256"
            },
            {
              "internalType": "address",
              "name": "creator",
              "type": "address"
            },
            {
              "internalType": "string",
              "name": "title",
              "type": "string"
            },
            {
              "internalType": "string",
              "name": "description",
              "type": "string"
            },
            {
              "internalType": "uint256",
              "name": "startTime",
              "type": "uint256"
            },
            {
              "internalType": "uint256",
              "name": "endTime",
              "type": "uint256"
            },
            {
              "internalType": "uint256",
              "name": "yesVotes",
              "type": "uint256"
            },
            {
              "internalType": "uint256",
              "name": "noVotes",
              "type": "uint256"
            }
          ],
          "internalType": "struct InvestmentDAO.Proposal",
          "name": "",
          "type": "tuple"
        }
      ],
      "stateMutability": "nonpayable",
      "type": "function"
    },
    {
      "inputs": [
        {
          "internalType": "uint256",
          "name": "amount",
          "type": "uint256"
        }
      ],
      "name": "stakeToken",
      "outputs": [],
      "stateMutability": "nonpayable",
      "type": "function"
    },
    {
      "inputs": [],
      "name": "token",
      "outputs": [
        {
          "internalType": "contract IERC20",
          "name": "",
          "type": "address"
        }
      ],
      "stateMutability": "view",
      "type": "function"
    },
    {
      "inputs": [
        {
          "internalType": "uint256",
          "name": "_proposalIndex",
          "type": "uint256"
        },
        {
          "internalType": "uint256",
          "name": "_choice",
          "type": "uint256"
        }
      ],
      "name": "vote",
      "outputs": [],
      "stateMutability": "nonpayable",
      "type": "function"
    },
    {
      "inputs": [
        {
          "internalType": "uint256",
          "name": "",
          "type": "uint256"
        }
      ],
      "name": "voters",
      "outputs": [
        {
          "internalType": "uint256",
          "name": "proposerIndex",
          "type": "uint256"
        },
        {
          "internalType": "address",
          "name": "voterAddress",
          "type": "address"
        },
        {
          "internalType": "uint256",
          "name": "voteChoice",
          "type": "uint256"
        }
      ],
      "stateMutability": "view",
      "type": "function"
    },
    {
      "inputs": [],
      "name": "votingPeriod",
      "outputs": [
        {
          "internalType": "uint256",
          "name": "",
          "type": "uint256"
        }
      ],
      "stateMutability": "view",
      "type": "function"
    }
  ],
  "bytecode": "0x60806040523480156200001157600080fd5b50604051620048ef380380620048ef8339818101604052810190620000379190620001cb565b80600160006101000a81548173ffffffffffffffffffffffffffffffffffffffff021916908373ffffffffffffffffffffffffffffffffffffffff160217905550336000806101000a81548173ffffffffffffffffffffffffffffffffffffffff021916908373ffffffffffffffffffffffffffffffffffffffff16021790555033600960008060009054906101000a900473ffffffffffffffffffffffffffffffffffffffff1673ffffffffffffffffffffffffffffffffffffffff1673ffffffffffffffffffffffffffffffffffffffff16815260200190815260200160002060000160006101000a81548173ffffffffffffffffffffffffffffffffffffffff021916908373ffffffffffffffffffffffffffffffffffffffff16021790555050620001fd565b600080fd5b600073ffffffffffffffffffffffffffffffffffffffff82169050919050565b6000620001938262000166565b9050919050565b620001a58162000186565b8114620001b157600080fd5b50565b600081519050620001c5816200019a565b92915050565b600060208284031215620001e457620001e362000161565b5b6000620001f484828501620001b4565b91505092915050565b6146e2806200020d6000396000f3fe608060405234801561001057600080fd5b506004361061014d5760003560e01c80639eab5253116100c3578063d9a8748c1161007c578063d9a8748c146103c1578063da35c664146103cb578063da58c7d9146103e9578063dde8535f1461041b578063e22393b81461044b578063fc0c546a1461047b5761014d565b80639eab5253146102f9578063b384abef14610317578063c7f758a814610333578063cceb68f514610369578063cda6b84714610387578063cdd72253146103a35761014d565b80633aecd0e3116101155780633aecd0e3146101eb578063401853b71461021b5780634ce4e6c71461024b5780635daf08ca1461027b5780636b5e1766146102ac578063872ea68a146102c85761014d565b8063013cf08b14610152578063029d010d1461018957806302a251a3146101935780630d61b519146101b157806311aee380146101cd575b600080fd5b61016c60048036038101906101679190612d7d565b610499565b604051610180989796959493929190612e8a565b60405180910390f35b610191610621565b005b61019b610abe565b6040516101a89190612f16565b60405180910390f35b6101cb60048036038101906101c69190612d7d565b610ac4565b005b6101d5610e74565b6040516101e29190612f16565b60405180910390f35b61020560048036038101906102009190612f5d565b610e7a565b6040516102129190612f16565b60405180910390f35b61023560048036038101906102309190612d7d565b610f1f565b6040516102429190612f16565b60405180910390f35b61026560048036038101906102609190612d7d565b610fdc565b60405161027291906130a9565b60405180910390f35b61029560048036038101906102909190612d7d565b6113b5565b6040516102a39291906130cb565b60405180910390f35b6102c660048036038101906102c19190613159565b611409565b005b6102e260048036038101906102dd9190612f5d565b611935565b6040516102f09291906130cb565b60405180910390f35b610301611979565b60405161030e91906132de565b60405180910390f35b610331600480360381019061032c9190613300565b611a38565b005b61034d60048036038101906103489190612d7d565b6120ab565b6040516103609796959493929190613340565b60405180910390f35b610371612315565b60405161037e9190613536565b60405180910390f35b6103a1600480360381019061039c9190612d7d565b612521565b005b6103ab61279f565b6040516103b89190613649565b60405180910390f35b6103c9612868565b005b6103d3612afd565b6040516103e09190612f16565b60405180910390f35b61040360048036038101906103fe9190612d7d565b612b03565b6040516104129392919061366b565b60405180910390f35b61043560048036038101906104309190612f5d565b612b5d565b60405161044291906136bd565b60405180910390f35b610465600480360381019061046091906136d8565b612bf7565b60405161047291906136bd565b60405180910390f35b610483612c5f565b6040516104909190613777565b60405180910390f35b600281815481106104a957600080fd5b90600052602060002090600802016000915090508060000154908060010160009054906101000a900473ffffffffffffffffffffffffffffffffffffffff16908060020180546104f8906137c1565b80601f0160208091040260200160405190810160405280929190818152602001828054610524906137c1565b80156105715780601f1061054657610100808354040283529160200191610571565b820191906000526020600020905b81548152906001019060200180831161055457829003601f168201915b505050505090806003018054610586906137c1565b80601f01602080910402602001604051908101604052809291908181526020018280546105b2906137c1565b80156105ff5780601f106105d4576101008083540402835291602001916105ff565b820191906000526020600020905b8154815290600101906020018083116105e257829003601f168201915b5050505050908060040154908060050154908060060154908060070154905088565b600073ffffffffffffffffffffffffffffffffffffffff163373ffffffffffffffffffffffffffffffffffffffff1603610690576040517f08c379a00000000000000000000000000000000000000000000000000000000081526004016106879061383e565b60405180910390fd5b600073ffffffffffffffffffffffffffffffffffffffff16600960003373ffffffffffffffffffffffffffffffffffffffff1673ffffffffffffffffffffffffffffffffffffffff16815260200190815260200160002060000160009054906101000a900473ffffffffffffffffffffffffffffffffffffffff1673ffffffffffffffffffffffffffffffffffffffff1614610761576040517f08c379a0000000000000000000000000000000000000000000000000000000008152600401610758906138aa565b60405180910390fd5b6000600960003373ffffffffffffffffffffffffffffffffffffffff1673ffffffffffffffffffffffffffffffffffffffff1681526020019081526020016000209050338160000160006101000a81548173ffffffffffffffffffffffffffffffffffffffff021916908373ffffffffffffffffffffffffffffffffffffffff160217905550600160009054906101000a900473ffffffffffffffffffffffffffffffffffffffff1673ffffffffffffffffffffffffffffffffffffffff166370a08231336040518263ffffffff1660e01b815260040161084291906138ca565b602060405180830381865afa15801561085f573d6000803e3d6000fd5b505050506040513d601f19601f8201168201806040525081019061088391906138fa565b8160010181905550600460405180604001604052803373ffffffffffffffffffffffffffffffffffffffff168152602001600160009054906101000a900473ffffffffffffffffffffffffffffffffffffffff1673ffffffffffffffffffffffffffffffffffffffff166370a08231336040518263ffffffff1660e01b815260040161090f91906138ca565b602060405180830381865afa15801561092c573d6000803e3d6000fd5b505050506040513d601f19601f8201168201806040525081019061095091906138fa565b815250908060018154018082558091505060019003906000526020600020906002020160009091909190915060008201518160000160006101000a81548173ffffffffffffffffffffffffffffffffffffffff021916908373ffffffffffffffffffffffffffffffffffffffff160217905550602082015181600101555050600760008154809291906109e290613956565b91905055507f8c79ca5dc8dffd30e0ae906c79b4e5d0b55e6e50c77cb39a5acc9f132f13efb433600160009054906101000a900473ffffffffffffffffffffffffffffffffffffffff1673ffffffffffffffffffffffffffffffffffffffff166370a08231336040518263ffffffff1660e01b8152600401610a6491906138ca565b602060405180830381865afa158015610a81573d6000803e3d6000fd5b505050506040513d601f19601f82011682018060405250810190610aa591906138fa565b604051610ab39291906130cb565b60405180910390a150565b60065481565b600a60009054906101000a900460ff1615610b14576040517f08c379a0000000000000000000000000000000000000000000000000000000008152600401610b0b906139ea565b60405180910390fd5b6001600a60006101000a81548160ff0219169083151502179055506005548110610b73576040517f08c379a0000000000000000000000000000000000000000000000000000000008152600401610b6a90613a56565b60405180910390fd5b3373ffffffffffffffffffffffffffffffffffffffff1660028281548110610b9e57610b9d613a76565b5b906000526020600020906008020160010160009054906101000a900473ffffffffffffffffffffffffffffffffffffffff1673ffffffffffffffffffffffffffffffffffffffff1614610c26576040517f08c379a0000000000000000000000000000000000000000000000000000000008152600401610c1d90613b17565b60405180910390fd5b600060028281548110610c3c57610c3b613a76565b5b906000526020600020906008020160405180610100016040529081600082015481526020016001820160009054906101000a900473ffffffffffffffffffffffffffffffffffffffff1673ffffffffffffffffffffffffffffffffffffffff1673ffffffffffffffffffffffffffffffffffffffff168152602001600282018054610cc6906137c1565b80601f0160208091040260200160405190810160405280929190818152602001828054610cf2906137c1565b8015610d3f5780601f10610d1457610100808354040283529160200191610d3f565b820191906000526020600020905b815481529060010190602001808311610d2257829003601f168201915b50505050508152602001600382018054610d58906137c1565b80601f0160208091040260200160405190810160405280929190818152602001828054610d84906137c1565b8015610dd15780601f10610da657610100808354040283529160200191610dd1565b820191906000526020600020905b815481529060010190602001808311610db457829003601f168201915b505050505081526020016004820154815260200160058201548152602001600682015481526020016007820154815250509050600654421015610e49576040517f08c379a0000000000000000000000000000000000000000000000000000000008152600401610e4090613b83565b60405180910390fd5b8060e001518160c001515050506000600a60006101000a81548160ff02191690831515021790555050565b60075481565b6000600160009054906101000a900473ffffffffffffffffffffffffffffffffffffffff1673ffffffffffffffffffffffffffffffffffffffff166370a08231836040518263ffffffff1660e01b8152600401610ed791906138ca565b602060405180830381865afa158015610ef4573d6000803e3d6000fd5b505050506040513d601f19601f82011682018060405250810190610f1891906138fa565b9050919050565b60008060028381548110610f3657610f35613a76565b5b906000526020600020906008020160040154421015610f585760009050610fc1565b60028381548110610f6c57610f6b613a76565b5b9060005260206000209060080201600501544211610f8d5760019050610fc0565b60028381548110610fa157610fa0613a76565b5b906000526020600020906008020160050154421115610fbf57600290505b5b5b806002811115610fd457610fd3613ba3565b5b915050919050565b610fe4612c85565b6005548210611028576040517f08c379a000000000000000000000000000000000000000000000000000000000815260040161101f90613a56565b60405180910390fd5b3373ffffffffffffffffffffffffffffffffffffffff166002838154811061105357611052613a76565b5b906000526020600020906008020160010160009054906101000a900473ffffffffffffffffffffffffffffffffffffffff1673ffffffffffffffffffffffffffffffffffffffff16146110db576040517f08c379a00000000000000000000000000000000000000000000000000000000081526004016110d290613c44565b60405180910390fd5b600060028054905011611123576040517f08c379a000000000000000000000000000000000000000000000000000000000815260040161111a90613cb0565b60405180910390fd5b6000600260016002805490506111399190613cd0565b8154811061114a57611149613a76565b5b90600052602060002090600802019050600280548061116c5761116b613d04565b5b60019003818190600052602060002090600802016000808201600090556001820160006101000a81549073ffffffffffffffffffffffffffffffffffffffff02191690556002820160006111c09190612ce0565b6003820160006111d09190612ce0565b6004820160009055600582016000905560068201600090556007820160009055505090558060405180610100016040529081600082015481526020016001820160009054906101000a900473ffffffffffffffffffffffffffffffffffffffff1673ffffffffffffffffffffffffffffffffffffffff1673ffffffffffffffffffffffffffffffffffffffff168152602001600282018054611271906137c1565b80601f016020809104026020016040519081016040528092919081815260200182805461129d906137c1565b80156112ea5780601f106112bf576101008083540402835291602001916112ea565b820191906000526020600020905b8154815290600101906020018083116112cd57829003601f168201915b50505050508152602001600382018054611303906137c1565b80601f016020809104026020016040519081016040528092919081815260200182805461132f906137c1565b801561137c5780601f106113515761010080835404028352916020019161137c565b820191906000526020600020905b81548152906001019060200180831161135f57829003601f168201915b50505050508152602001600482015481526020016005820154815260200160068201548152602001600782015481525050915050919050565b600481815481106113c557600080fd5b90600052602060002090600202016000915090508060000160009054906101000a900473ffffffffffffffffffffffffffffffffffffffff16908060010154905082565b3373ffffffffffffffffffffffffffffffffffffffff16600960003373ffffffffffffffffffffffffffffffffffffffff1673ffffffffffffffffffffffffffffffffffffffff16815260200190815260200160002060000160009054906101000a900473ffffffffffffffffffffffffffffffffffffffff1673ffffffffffffffffffffffffffffffffffffffff16146114d9576040517f08c379a00000000000000000000000000000000000000000000000000000000081526004016114d090613da5565b60405180910390fd5b68056bc75e2d63100000600160009054906101000a900473ffffffffffffffffffffffffffffffffffffffff1673ffffffffffffffffffffffffffffffffffffffff166370a08231336040518263ffffffff1660e01b815260040161153e91906138ca565b602060405180830381865afa15801561155b573d6000803e3d6000fd5b505050506040513d601f19601f8201168201806040525081019061157f91906138fa565b116115bf576040517f08c379a00000000000000000000000000000000000000000000000000000000081526004016115b690613e37565b60405180910390fd5b428211611601576040517f08c379a00000000000000000000000000000000000000000000000000000000081526004016115f890613ec9565b60405180910390fd5b818111611643576040517f08c379a000000000000000000000000000000000000000000000000000000000815260040161163a90613f5b565b60405180910390fd5b3373ffffffffffffffffffffffffffffffffffffffff16600960003373ffffffffffffffffffffffffffffffffffffffff1673ffffffffffffffffffffffffffffffffffffffff16815260200190815260200160002060000160009054906101000a900473ffffffffffffffffffffffffffffffffffffffff1673ffffffffffffffffffffffffffffffffffffffff1614611713576040517f08c379a000000000000000000000000000000000000000000000000000000000815260040161170a90613da5565b60405180910390fd5b600260405180610100016040528060055481526020013373ffffffffffffffffffffffffffffffffffffffff16815260200188888080601f016020809104026020016040519081016040528093929190818152602001838380828437600081840152601f19601f82011690508083019250505050505050815260200186868080601f016020809104026020016040519081016040528093929190818152602001838380828437600081840152601f19601f82011690508083019250505050505050815260200184815260200183815260200160008152602001600081525090806001815401808255809150506001900390600052602060002090600802016000909190919091506000820151816000015560208201518160010160006101000a81548173ffffffffffffffffffffffffffffffffffffffff021916908373ffffffffffffffffffffffffffffffffffffffff1602179055506040820151816002019081611880919061414c565b506060820151816003019081611896919061414c565b506080820151816004015560a0820151816005015560c0820151816006015560e082015181600701555050600560008154809291906118d490613956565b91905055507fd6b0b08c4ffc17964758389955af67e78f9c97140393526749d4994031e62ef2600160028054905061190c9190613cd0565b878787878787604051611925979695949392919061425a565b60405180910390a1505050505050565b60096020528060005260406000206000915090508060000160009054906101000a900473ffffffffffffffffffffffffffffffffffffffff16908060010154905082565b60606004805480602002602001604051908101604052809291908181526020016000905b82821015611a2f57838290600052602060002090600202016040518060400160405290816000820160009054906101000a900473ffffffffffffffffffffffffffffffffffffffff1673ffffffffffffffffffffffffffffffffffffffff1673ffffffffffffffffffffffffffffffffffffffff1681526020016001820154815250508152602001906001019061199d565b50505050905090565b3373ffffffffffffffffffffffffffffffffffffffff16600960003373ffffffffffffffffffffffffffffffffffffffff1673ffffffffffffffffffffffffffffffffffffffff16815260200190815260200160002060000160009054906101000a900473ffffffffffffffffffffffffffffffffffffffff1673ffffffffffffffffffffffffffffffffffffffff1614611b08576040517f08c379a0000000000000000000000000000000000000000000000000000000008152600401611aff90613da5565b60405180910390fd5b60028281548110611b1c57611b1b613a76565b5b90600052602060002090600802016004015460028381548110611b4257611b41613a76565b5b90600052602060002090600802016005015481421015611b97576040517f08c379a0000000000000000000000000000000000000000000000000000000008152600401611b8e9061430b565b60405180910390fd5b80421115611bda576040517f08c379a0000000000000000000000000000000000000000000000000000000008152600401611bd190614377565b60405180910390fd5b6005548410611c1e576040517f08c379a0000000000000000000000000000000000000000000000000000000008152600401611c1590613a56565b60405180910390fd5b600860003373ffffffffffffffffffffffffffffffffffffffff1673ffffffffffffffffffffffffffffffffffffffff168152602001908152602001600020600085815260200190815260200160002060009054906101000a900460ff1615611cbc576040517f08c379a0000000000000000000000000000000000000000000000000000000008152600401611cb390614409565b60405180910390fd5b6802b5e3af16b1880000600160009054906101000a900473ffffffffffffffffffffffffffffffffffffffff1673ffffffffffffffffffffffffffffffffffffffff166370a08231336040518263ffffffff1660e01b8152600401611d2191906138ca565b602060405180830381865afa158015611d3e573d6000803e3d6000fd5b505050506040513d601f19601f82011682018060405250810190611d6291906138fa565b11611da2576040517f08c379a0000000000000000000000000000000000000000000000000000000008152600401611d999061449b565b60405180910390fd5b3373ffffffffffffffffffffffffffffffffffffffff16600960003373ffffffffffffffffffffffffffffffffffffffff1673ffffffffffffffffffffffffffffffffffffffff16815260200190815260200160002060000160009054906101000a900473ffffffffffffffffffffffffffffffffffffffff1673ffffffffffffffffffffffffffffffffffffffff1614611e72576040517f08c379a0000000000000000000000000000000000000000000000000000000008152600401611e6990613da5565b60405180910390fd5b60018303611ebc57600160028581548110611e9057611e8f613a76565b5b90600052602060002090600802016006016000828254611eb091906144bb565b92505081905550611efa565b600160028581548110611ed257611ed1613a76565b5b90600052602060002090600802016007016000828254611ef291906144bb565b925050819055505b600360405180606001604052808681526020013373ffffffffffffffffffffffffffffffffffffffff1681526020018581525090806001815401808255809150506001900390600052602060002090600302016000909190919091506000820151816000015560208201518160010160006101000a81548173ffffffffffffffffffffffffffffffffffffffff021916908373ffffffffffffffffffffffffffffffffffffffff1602179055506040820151816002015550506001600860003373ffffffffffffffffffffffffffffffffffffffff1673ffffffffffffffffffffffffffffffffffffffff168152602001908152602001600020600086815260200190815260200160002060006101000a81548160ff0219169083151502179055507f7bbc702cfc0c62aaa977159d2c8ff0642f94715abcc34af64106c1b15c2af0a08433856002888154811061205457612053613a76565b5b9060005260206000209060080201600601546002898154811061207a57612079613a76565b5b90600052602060002090600802016007015460405161209d9594939291906144ef565b60405180910390a150505050565b600060608060008060008060055488106120fa576040517f08c379a00000000000000000000000000000000000000000000000000000000081526004016120f190613a56565b60405180910390fd5b6000600289815481106121105761210f613a76565b5b906000526020600020906008020160405180610100016040529081600082015481526020016001820160009054906101000a900473ffffffffffffffffffffffffffffffffffffffff1673ffffffffffffffffffffffffffffffffffffffff1673ffffffffffffffffffffffffffffffffffffffff16815260200160028201805461219a906137c1565b80601f01602080910402602001604051908101604052809291908181526020018280546121c6906137c1565b80156122135780601f106121e857610100808354040283529160200191612213565b820191906000526020600020905b8154815290600101906020018083116121f657829003601f168201915b5050505050815260200160038201805461222c906137c1565b80601f0160208091040260200160405190810160405280929190818152602001828054612258906137c1565b80156122a55780601f1061227a576101008083540402835291602001916122a5565b820191906000526020600020905b81548152906001019060200180831161228857829003601f168201915b50505050508152602001600482015481526020016005820154815260200160068201548152602001600782015481525050905080602001518160400151826060015183608001518460a001518560c001518660e00151975097509750975097509750975050919395979092949650565b60606002805480602002602001604051908101604052809291908181526020016000905b82821015612518578382906000526020600020906008020160405180610100016040529081600082015481526020016001820160009054906101000a900473ffffffffffffffffffffffffffffffffffffffff1673ffffffffffffffffffffffffffffffffffffffff1673ffffffffffffffffffffffffffffffffffffffff1681526020016002820180546123cd906137c1565b80601f01602080910402602001604051908101604052809291908181526020018280546123f9906137c1565b80156124465780601f1061241b57610100808354040283529160200191612446565b820191906000526020600020905b81548152906001019060200180831161242957829003601f168201915b5050505050815260200160038201805461245f906137c1565b80601f016020809104026020016040519081016040528092919081815260200182805461248b906137c1565b80156124d85780601f106124ad576101008083540402835291602001916124d8565b820191906000526020600020905b8154815290600101906020018083116124bb57829003601f168201915b5050505050815260200160048201548152602001600582015481526020016006820154815260200160078201548152505081526020019060010190612339565b50505050905090565b600a60009054906101000a900460ff1615612571576040517f08c379a0000000000000000000000000000000000000000000000000000000008152600401612568906139ea565b60405180910390fd5b6001600a60006101000a81548160ff0219169083151502179055503373ffffffffffffffffffffffffffffffffffffffff16600960003373ffffffffffffffffffffffffffffffffffffffff1673ffffffffffffffffffffffffffffffffffffffff16815260200190815260200160002060000160009054906101000a900473ffffffffffffffffffffffffffffffffffffffff1673ffffffffffffffffffffffffffffffffffffffff161461265c576040517f08c379a0000000000000000000000000000000000000000000000000000000008152600401612653906145b4565b60405180910390fd5b6000600160009054906101000a900473ffffffffffffffffffffffffffffffffffffffff1673ffffffffffffffffffffffffffffffffffffffff166370a08231336040518263ffffffff1660e01b81526004016126b991906138ca565b602060405180830381865afa1580156126d6573d6000803e3d6000fd5b505050506040513d601f19601f820116820180604052508101906126fa91906138fa565b1161273a576040517f08c379a000000000000000000000000000000000000000000000000000000000815260040161273190614620565b60405180910390fd5b3073ffffffffffffffffffffffffffffffffffffffff166108fc829081150290604051600060405180830381858888f19350505050158015612780573d6000803e3d6000fd5b506000600a60006101000a81548160ff02191690831515021790555050565b60606003805480602002602001604051908101604052809291908181526020016000905b8282101561285f5783829060005260206000209060030201604051806060016040529081600082015481526020016001820160009054906101000a900473ffffffffffffffffffffffffffffffffffffffff1673ffffffffffffffffffffffffffffffffffffffff1673ffffffffffffffffffffffffffffffffffffffff168152602001600282015481525050815260200190600101906127c3565b50505050905090565b600a60009054906101000a900460ff16156128b8576040517f08c379a00000000000000000000000000000000000000000000000000000000081526004016128af906139ea565b60405180910390fd5b6001600a60006101000a81548160ff0219169083151502179055506064600160009054906101000a900473ffffffffffffffffffffffffffffffffffffffff1673ffffffffffffffffffffffffffffffffffffffff166370a08231306040518263ffffffff1660e01b815260040161293091906138ca565b602060405180830381865afa15801561294d573d6000803e3d6000fd5b505050506040513d601f19601f8201168201806040525081019061297191906138fa565b116129b1576040517f08c379a00000000000000000000000000000000000000000000000000000000081526004016129a890614620565b60405180910390fd5b60c8600160009054906101000a900473ffffffffffffffffffffffffffffffffffffffff1673ffffffffffffffffffffffffffffffffffffffff166370a08231336040518263ffffffff1660e01b8152600401612a0e91906138ca565b602060405180830381865afa158015612a2b573d6000803e3d6000fd5b505050506040513d601f19601f82011682018060405250810190612a4f91906138fa565b1015612a90576040517f08c379a0000000000000000000000000000000000000000000000000000000008152600401612a879061468c565b60405180910390fd5b3373ffffffffffffffffffffffffffffffffffffffff166108fc68056bc75e2d631000009081150290604051600060405180830381858888f19350505050158015612adf573d6000803e3d6000fd5b506000600a60006101000a81548160ff021916908315150217905550565b60055481565b60038181548110612b1357600080fd5b90600052602060002090600302016000915090508060000154908060010160009054906101000a900473ffffffffffffffffffffffffffffffffffffffff16908060020154905083565b60008173ffffffffffffffffffffffffffffffffffffffff16600960008473ffffffffffffffffffffffffffffffffffffffff1673ffffffffffffffffffffffffffffffffffffffff16815260200190815260200160002060000160009054906101000a900473ffffffffffffffffffffffffffffffffffffffff1673ffffffffffffffffffffffffffffffffffffffff16149050919050565b6000600860008373ffffffffffffffffffffffffffffffffffffffff1673ffffffffffffffffffffffffffffffffffffffff168152602001908152602001600020600084815260200190815260200160002060009054906101000a900460ff16905092915050565b600160009054906101000a900473ffffffffffffffffffffffffffffffffffffffff1681565b60405180610100016040528060008152602001600073ffffffffffffffffffffffffffffffffffffffff1681526020016060815260200160608152602001600081526020016000815260200160008152602001600081525090565b508054612cec906137c1565b6000825580601f10612cfe5750612d1d565b601f016020900490600052602060002090810190612d1c9190612d20565b5b50565b5b80821115612d39576000816000905550600101612d21565b5090565b600080fd5b600080fd5b6000819050919050565b612d5a81612d47565b8114612d6557600080fd5b50565b600081359050612d7781612d51565b92915050565b600060208284031215612d9357612d92612d3d565b5b6000612da184828501612d68565b91505092915050565b612db381612d47565b82525050565b600073ffffffffffffffffffffffffffffffffffffffff82169050919050565b6000612de482612db9565b9050919050565b612df481612dd9565b82525050565b600081519050919050565b600082825260208201905092915050565b60005b83811015612e34578082015181840152602081019050612e19565b60008484015250505050565b6000601f19601f8301169050919050565b6000612e5c82612dfa565b612e668185612e05565b9350612e76818560208601612e16565b612e7f81612e40565b840191505092915050565b600061010082019050612ea0600083018b612daa565b612ead602083018a612deb565b8181036040830152612ebf8189612e51565b90508181036060830152612ed38188612e51565b9050612ee26080830187612daa565b612eef60a0830186612daa565b612efc60c0830185612daa565b612f0960e0830184612daa565b9998505050505050505050565b6000602082019050612f2b6000830184612daa565b92915050565b612f3a81612dd9565b8114612f4557600080fd5b50565b600081359050612f5781612f31565b92915050565b600060208284031215612f7357612f72612d3d565b5b6000612f8184828501612f48565b91505092915050565b612f9381612d47565b82525050565b612fa281612dd9565b82525050565b600082825260208201905092915050565b6000612fc482612dfa565b612fce8185612fa8565b9350612fde818560208601612e16565b612fe781612e40565b840191505092915050565b60006101008301600083015161300b6000860182612f8a565b50602083015161301e6020860182612f99565b50604083015184820360408601526130368282612fb9565b915050606083015184820360608601526130508282612fb9565b91505060808301516130656080860182612f8a565b5060a083015161307860a0860182612f8a565b5060c083015161308b60c0860182612f8a565b5060e083015161309e60e0860182612f8a565b508091505092915050565b600060208201905081810360008301526130c38184612ff2565b905092915050565b60006040820190506130e06000830185612deb565b6130ed6020830184612daa565b9392505050565b600080fd5b600080fd5b600080fd5b60008083601f840112613119576131186130f4565b5b8235905067ffffffffffffffff811115613136576131356130f9565b5b602083019150836001820283011115613152576131516130fe565b5b9250929050565b6000806000806000806080878903121561317657613175612d3d565b5b600087013567ffffffffffffffff81111561319457613193612d42565b5b6131a089828a01613103565b9650965050602087013567ffffffffffffffff8111156131c3576131c2612d42565b5b6131cf89828a01613103565b945094505060406131e289828a01612d68565b92505060606131f389828a01612d68565b9150509295509295509295565b600081519050919050565b600082825260208201905092915050565b6000819050602082019050919050565b6040820160008201516132426000850182612f99565b5060208201516132556020850182612f8a565b50505050565b6000613267838361322c565b60408301905092915050565b6000602082019050919050565b600061328b82613200565b613295818561320b565b93506132a08361321c565b8060005b838110156132d15781516132b8888261325b565b97506132c383613273565b9250506001810190506132a4565b5085935050505092915050565b600060208201905081810360008301526132f88184613280565b905092915050565b6000806040838503121561331757613316612d3d565b5b600061332585828601612d68565b925050602061333685828601612d68565b9150509250929050565b600060e082019050613355600083018a612deb565b81810360208301526133678189612e51565b9050818103604083015261337b8188612e51565b905061338a6060830187612daa565b6133976080830186612daa565b6133a460a0830185612daa565b6133b160c0830184612daa565b98975050505050505050565b600081519050919050565b600082825260208201905092915050565b6000819050602082019050919050565b6000610100830160008301516134026000860182612f8a565b5060208301516134156020860182612f99565b506040830151848203604086015261342d8282612fb9565b915050606083015184820360608601526134478282612fb9565b915050608083015161345c6080860182612f8a565b5060a083015161346f60a0860182612f8a565b5060c083015161348260c0860182612f8a565b5060e083015161349560e0860182612f8a565b508091505092915050565b60006134ac83836133e9565b905092915050565b6000602082019050919050565b60006134cc826133bd565b6134d681856133c8565b9350836020820285016134e8856133d9565b8060005b85811015613524578484038952815161350585826134a0565b9450613510836134b4565b925060208a019950506001810190506134ec565b50829750879550505050505092915050565b6000602082019050818103600083015261355081846134c1565b905092915050565b600081519050919050565b600082825260208201905092915050565b6000819050602082019050919050565b60608201600082015161359a6000850182612f8a565b5060208201516135ad6020850182612f99565b5060408201516135c06040850182612f8a565b50505050565b60006135d28383613584565b60608301905092915050565b6000602082019050919050565b60006135f682613558565b6136008185613563565b935061360b83613574565b8060005b8381101561363c57815161362388826135c6565b975061362e836135de565b92505060018101905061360f565b5085935050505092915050565b6000602082019050818103600083015261366381846135eb565b905092915050565b60006060820190506136806000830186612daa565b61368d6020830185612deb565b61369a6040830184612daa565b949350505050565b60008115159050919050565b6136b7816136a2565b82525050565b60006020820190506136d260008301846136ae565b92915050565b600080604083850312156136ef576136ee612d3d565b5b60006136fd85828601612d68565b925050602061370e85828601612f48565b9150509250929050565b6000819050919050565b600061373d61373861373384612db9565b613718565b612db9565b9050919050565b600061374f82613722565b9050919050565b600061376182613744565b9050919050565b61377181613756565b82525050565b600060208201905061378c6000830184613768565b92915050565b7f4e487b7100000000000000000000000000000000000000000000000000000000600052602260045260246000fd5b600060028204905060018216806137d957607f821691505b6020821081036137ec576137eb613792565b5b50919050565b7f496e76616c696420616464726573730000000000000000000000000000000000600082015250565b6000613828600f83612e05565b9150613833826137f2565b602082019050919050565b600060208201905081810360008301526138578161381b565b9050919050565b7f416c72656164792061206d656d62657200000000000000000000000000000000600082015250565b6000613894601083612e05565b915061389f8261385e565b602082019050919050565b600060208201905081810360008301526138c381613887565b9050919050565b60006020820190506138df6000830184612deb565b92915050565b6000815190506138f481612d51565b92915050565b6000602082840312156139105761390f612d3d565b5b600061391e848285016138e5565b91505092915050565b7f4e487b7100000000000000000000000000000000000000000000000000000000600052601160045260246000fd5b600061396182612d47565b91507fffffffffffffffffffffffffffffffffffffffffffffffffffffffffffffffff820361399357613992613927565b5b600182019050919050565b7f4e6f2072652d656e7472616e6379000000000000000000000000000000000000600082015250565b60006139d4600e83612e05565b91506139df8261399e565b602082019050919050565b60006020820190508181036000830152613a03816139c7565b9050919050565b7f496e76616c69642070726f706f73616c20696e64657800000000000000000000600082015250565b6000613a40601683612e05565b9150613a4b82613a0a565b602082019050919050565b60006020820190508181036000830152613a6f81613a33565b9050919050565b7f4e487b7100000000000000000000000000000000000000000000000000000000600052603260045260246000fd5b7f4f6e6c79207468652063726561746f72206f66207468652070726f706f73616c60008201527f2063616e20656e642074686520766f74696e6700000000000000000000000000602082015250565b6000613b01603383612e05565b9150613b0c82613aa5565b604082019050919050565b60006020820190508181036000830152613b3081613af4565b9050919050565b7f566f74696e6720706572696f6420686173206e6f7420656e6465642079657400600082015250565b6000613b6d601f83612e05565b9150613b7882613b37565b602082019050919050565b60006020820190508181036000830152613b9c81613b60565b9050919050565b7f4e487b7100000000000000000000000000000000000000000000000000000000600052602160045260246000fd5b7f4f6e6c79207468652063726561746f72206f66207468652070726f706f73616c60008201527f2063616e2072656d6f7665207468652070726f706f73616c0000000000000000602082015250565b6000613c2e603883612e05565b9150613c3982613bd2565b604082019050919050565b60006020820190508181036000830152613c5d81613c21565b9050919050565b7f50726f706f73616c20697320656d707479000000000000000000000000000000600082015250565b6000613c9a601183612e05565b9150613ca582613c64565b602082019050919050565b60006020820190508181036000830152613cc981613c8d565b9050919050565b6000613cdb82612d47565b9150613ce683612d47565b9250828203905081811115613cfe57613cfd613927565b5b92915050565b7f4e487b7100000000000000000000000000000000000000000000000000000000600052603160045260246000fd5b7f596f7520617265206e6f74207965742061206d656d626572206f66207468697360008201527f20636f6d6d756e69747900000000000000000000000000000000000000000000602082015250565b6000613d8f602a83612e05565b9150613d9a82613d33565b604082019050919050565b60006020820190508181036000830152613dbe81613d82565b9050919050565b7f596f75206d75737420686f6c6420757020746f2031303020746f6b656e73207460008201527f6f2063726561746520612070726f706f73616c00000000000000000000000000602082015250565b6000613e21603383612e05565b9150613e2c82613dc5565b604082019050919050565b60006020820190508181036000830152613e5081613e14565b9050919050565b7f50726f706f73616c2073746172742074696d65206d75737420626520696e207460008201527f6865206675747572650000000000000000000000000000000000000000000000602082015250565b6000613eb3602983612e05565b9150613ebe82613e57565b604082019050919050565b60006020820190508181036000830152613ee281613ea6565b9050919050565b7f50726f706f73616c20656e642074696d65206d7573742062652061667465722060008201527f73746172742074696d6500000000000000000000000000000000000000000000602082015250565b6000613f45602a83612e05565b9150613f5082613ee9565b604082019050919050565b60006020820190508181036000830152613f7481613f38565b9050919050565b7f4e487b7100000000000000000000000000000000000000000000000000000000600052604160045260246000fd5b60008190508160005260206000209050919050565b60006020601f8301049050919050565b600082821b905092915050565b60006008830261400c7fffffffffffffffffffffffffffffffffffffffffffffffffffffffffffffffff82613fcf565b6140168683613fcf565b95508019841693508086168417925050509392505050565b600061404961404461403f84612d47565b613718565b612d47565b9050919050565b6000819050919050565b6140638361402e565b61407761406f82614050565b848454613fdc565b825550505050565b600090565b61408c61407f565b61409781848461405a565b505050565b5b818110156140bb576140b0600082614084565b60018101905061409d565b5050565b601f821115614100576140d181613faa565b6140da84613fbf565b810160208510156140e9578190505b6140fd6140f585613fbf565b83018261409c565b50505b505050565b600082821c905092915050565b600061412360001984600802614105565b1980831691505092915050565b600061413c8383614112565b9150826002028217905092915050565b61415582612dfa565b67ffffffffffffffff81111561416e5761416d613f7b565b5b61417882546137c1565b6141838282856140bf565b600060209050601f8311600181146141b657600084156141a4578287015190505b6141ae8582614130565b865550614216565b601f1984166141c486613faa565b60005b828110156141ec578489015182556001820191506020850194506020810190506141c7565b868310156142095784890151614205601f891682614112565b8355505b6001600288020188555050505b505050505050565b82818337600083830152505050565b60006142398385612e05565b935061424683858461421e565b61424f83612e40565b840190509392505050565b600060a08201905061426f600083018a612daa565b818103602083015261428281888a61422d565b9050818103604083015261429781868861422d565b90506142a66060830185612daa565b6142b36080830184612daa565b98975050505050505050565b7f566f74696e6720686173206e6f74207374617274656420796574000000000000600082015250565b60006142f5601a83612e05565b9150614300826142bf565b602082019050919050565b60006020820190508181036000830152614324816142e8565b9050919050565b7f566f74696e672068617320616c726561647920656e6465640000000000000000600082015250565b6000614361601883612e05565b915061436c8261432b565b602082019050919050565b6000602082019050818103600083015261439081614354565b9050919050565b7f596f75206861766520616c726561647920766f74656420666f7220746869732060008201527f70726f706f73616c000000000000000000000000000000000000000000000000602082015250565b60006143f3602883612e05565b91506143fe82614397565b604082019050919050565b60006020820190508181036000830152614422816143e6565b9050919050565b7f596f75206d75737420686f6c6420757020746f20353020746f6b656e7320746f60008201527f20766f7465000000000000000000000000000000000000000000000000000000602082015250565b6000614485602583612e05565b915061449082614429565b604082019050919050565b600060208201905081810360008301526144b481614478565b9050919050565b60006144c682612d47565b91506144d183612d47565b92508282019050808211156144e9576144e8613927565b5b92915050565b600060a0820190506145046000830188612daa565b6145116020830187612deb565b61451e6040830186612daa565b61452b6060830185612daa565b6145386080830184612daa565b9695505050505050565b7f596f7520617265206e6f74207965742061206d656d626572206f66207468697360008201527f2044414f00000000000000000000000000000000000000000000000000000000602082015250565b600061459e602483612e05565b91506145a982614542565b604082019050919050565b600060208201905081810360008301526145cd81614591565b9050919050565b7f496e73756666696369656e7420746f6b656e2062616c616e6365000000000000600082015250565b600061460a601a83612e05565b9150614615826145d4565b602082019050919050565b60006020820190508181036000830152614639816145fd565b9050919050565b7f596f7520616c7265616479206861766520656e6f75676820746f6b656e000000600082015250565b6000614676601d83612e05565b915061468182614640565b602082019050919050565b600060208201905081810360008301526146a581614669565b905091905056fea2646970667358221220afe213b730e9ad3839ab66656143122922458a1f47011821613fff939a8e8fa464736f6c63430008110033",
  "linkReferences": {},
  "deployedLinkReferences": {}
}