{
  "_format": "hh-sol-artifact-1",
  "contractName": "InvestmentDAO",
  "sourceName": "contracts/InvestmentDAO.sol",
  "abi": [
    {
      "inputs": [
        {
          "internalType": "address",
          "name": "_tokenAddress",
          "type": "address"
        }
      ],
      "stateMutability": "nonpayable",
      "type": "constructor"
    },
    {
      "anonymous": false,
      "inputs": [
        {
          "indexed": false,
          "internalType": "address",
          "name": "memberAddress",
          "type": "address"
        },
        {
          "indexed": false,
          "internalType": "uint256",
          "name": "tokenBalance",
          "type": "uint256"
        }
      ],
      "name": "AddMember",
      "type": "event"
    },
    {
      "anonymous": false,
      "inputs": [
        {
          "indexed": false,
          "internalType": "uint256",
          "name": "proposalId",
          "type": "uint256"
        },
        {
          "indexed": false,
          "internalType": "string",
          "name": "title",
          "type": "string"
        },
        {
          "indexed": false,
          "internalType": "string",
          "name": "description",
          "type": "string"
        },
        {
          "indexed": false,
          "internalType": "uint256",
          "name": "startTime",
          "type": "uint256"
        },
        {
          "indexed": false,
          "internalType": "uint256",
          "name": "endTime",
          "type": "uint256"
        }
      ],
      "name": "ProposalCreated",
      "type": "event"
    },
    {
      "anonymous": false,
      "inputs": [
        {
          "indexed": false,
          "internalType": "uint256",
          "name": "proposalId",
          "type": "uint256"
        },
        {
          "indexed": false,
          "internalType": "address",
          "name": "voter",
          "type": "address"
        },
        {
          "indexed": false,
          "internalType": "uint256",
          "name": "choice",
          "type": "uint256"
        },
        {
          "indexed": false,
          "internalType": "uint256",
          "name": "yesVotes",
          "type": "uint256"
        },
        {
          "indexed": false,
          "internalType": "uint256",
          "name": "noVotes",
          "type": "uint256"
        }
      ],
      "name": "Voted",
      "type": "event"
    },
    {
      "inputs": [],
      "name": "addMember",
      "outputs": [],
      "stateMutability": "nonpayable",
      "type": "function"
    },
    {
      "inputs": [
        {
          "internalType": "string",
          "name": "_title",
          "type": "string"
        },
        {
          "internalType": "string",
          "name": "_description",
          "type": "string"
        },
        {
          "internalType": "uint256",
          "name": "_startTime",
          "type": "uint256"
        },
        {
          "internalType": "uint256",
          "name": "_endTime",
          "type": "uint256"
        }
      ],
      "name": "createProposal",
      "outputs": [],
      "stateMutability": "nonpayable",
      "type": "function"
    },
    {
      "inputs": [
        {
          "internalType": "uint256",
          "name": "_proposalIndex",
          "type": "uint256"
        }
      ],
      "name": "executeProposal",
      "outputs": [],
      "stateMutability": "nonpayable",
      "type": "function"
    },
    {
      "inputs": [
        {
          "internalType": "address",
          "name": "_receiver",
          "type": "address"
        },
        {
          "internalType": "uint256",
          "name": "amount",
          "type": "uint256"
        }
      ],
      "name": "fundAccount",
      "outputs": [],
      "stateMutability": "nonpayable",
      "type": "function"
    },
    {
      "inputs": [],
      "name": "getAllProposals",
      "outputs": [
        {
          "components": [
            {
              "internalType": "uint256",
              "name": "id",
              "type": "uint256"
            },
            {
              "internalType": "address",
              "name": "creator",
              "type": "address"
            },
            {
              "internalType": "string",
              "name": "title",
              "type": "string"
            },
            {
              "internalType": "string",
              "name": "description",
              "type": "string"
            },
            {
              "internalType": "uint256",
              "name": "startTime",
              "type": "uint256"
            },
            {
              "internalType": "uint256",
              "name": "endTime",
              "type": "uint256"
            },
            {
              "internalType": "uint256",
              "name": "yesVotes",
              "type": "uint256"
            },
            {
              "internalType": "uint256",
              "name": "noVotes",
              "type": "uint256"
            }
          ],
          "internalType": "struct InvestmentDAO.Proposal[]",
          "name": "",
          "type": "tuple[]"
        }
      ],
      "stateMutability": "view",
      "type": "function"
    },
    {
      "inputs": [
        {
          "internalType": "address",
          "name": "_address",
          "type": "address"
        }
      ],
      "name": "getMemberStatus",
      "outputs": [
        {
          "internalType": "bool",
          "name": "",
          "type": "bool"
        }
      ],
      "stateMutability": "view",
      "type": "function"
    },
    {
      "inputs": [
        {
          "internalType": "uint256",
          "name": "proposalId",
          "type": "uint256"
        },
        {
          "internalType": "address",
          "name": "_address",
          "type": "address"
        }
      ],
      "name": "getMemberVoteStatus",
      "outputs": [
        {
          "internalType": "bool",
          "name": "",
          "type": "bool"
        }
      ],
      "stateMutability": "view",
      "type": "function"
    },
    {
      "inputs": [],
      "name": "getMembers",
      "outputs": [
        {
          "components": [
            {
              "internalType": "address",
              "name": "memberAddress",
              "type": "address"
            },
            {
              "internalType": "uint256",
              "name": "tokenBalance",
              "type": "uint256"
            }
          ],
          "internalType": "struct InvestmentDAO.Member[]",
          "name": "",
          "type": "tuple[]"
        }
      ],
      "stateMutability": "view",
      "type": "function"
    },
    {
      "inputs": [
        {
          "internalType": "uint256",
          "name": "_proposalIndex",
          "type": "uint256"
        }
      ],
      "name": "getProposal",
      "outputs": [
        {
          "internalType": "address",
          "name": "creator",
          "type": "address"
        },
        {
          "internalType": "string",
          "name": "title",
          "type": "string"
        },
        {
          "internalType": "string",
          "name": "description",
          "type": "string"
        },
        {
          "internalType": "uint256",
          "name": "startTime",
          "type": "uint256"
        },
        {
          "internalType": "uint256",
          "name": "endTime",
          "type": "uint256"
        },
        {
          "internalType": "uint256",
          "name": "yesVotes",
          "type": "uint256"
        },
        {
          "internalType": "uint256",
          "name": "noVotes",
          "type": "uint256"
        }
      ],
      "stateMutability": "view",
      "type": "function"
    },
    {
      "inputs": [
        {
          "internalType": "uint256",
          "name": "_proposalIndex",
          "type": "uint256"
        }
      ],
      "name": "getProposalStatus",
      "outputs": [
        {
          "internalType": "uint256",
          "name": "",
          "type": "uint256"
        }
      ],
      "stateMutability": "view",
      "type": "function"
    },
    {
      "inputs": [
        {
          "internalType": "address",
          "name": "_address",
          "type": "address"
        }
      ],
      "name": "getTokenBalance",
      "outputs": [
        {
          "internalType": "uint256",
          "name": "",
          "type": "uint256"
        }
      ],
      "stateMutability": "view",
      "type": "function"
    },
    {
      "inputs": [],
      "name": "getVoters",
      "outputs": [
        {
          "components": [
            {
              "internalType": "uint256",
              "name": "proposerIndex",
              "type": "uint256"
            },
            {
              "internalType": "address",
              "name": "voterAddress",
              "type": "address"
            },
            {
              "internalType": "uint256",
              "name": "voteChoice",
              "type": "uint256"
            }
          ],
          "internalType": "struct InvestmentDAO.Voter[]",
          "name": "",
          "type": "tuple[]"
        }
      ],
      "stateMutability": "view",
      "type": "function"
    },
    {
      "inputs": [],
      "name": "memberCount",
      "outputs": [
        {
          "internalType": "uint256",
          "name": "",
          "type": "uint256"
        }
      ],
      "stateMutability": "view",
      "type": "function"
    },
    {
      "inputs": [
        {
          "internalType": "uint256",
          "name": "",
          "type": "uint256"
        }
      ],
      "name": "members",
      "outputs": [
        {
          "internalType": "address",
          "name": "memberAddress",
          "type": "address"
        },
        {
          "internalType": "uint256",
          "name": "tokenBalance",
          "type": "uint256"
        }
      ],
      "stateMutability": "view",
      "type": "function"
    },
    {
      "inputs": [
        {
          "internalType": "address",
          "name": "",
          "type": "address"
        }
      ],
      "name": "membersMap",
      "outputs": [
        {
          "internalType": "address",
          "name": "memberAddress",
          "type": "address"
        },
        {
          "internalType": "uint256",
          "name": "tokenBalance",
          "type": "uint256"
        }
      ],
      "stateMutability": "view",
      "type": "function"
    },
    {
      "inputs": [],
      "name": "proposalCount",
      "outputs": [
        {
          "internalType": "uint256",
          "name": "",
          "type": "uint256"
        }
      ],
      "stateMutability": "view",
      "type": "function"
    },
    {
      "inputs": [
        {
          "internalType": "uint256",
          "name": "",
          "type": "uint256"
        }
      ],
      "name": "proposals",
      "outputs": [
        {
          "internalType": "uint256",
          "name": "id",
          "type": "uint256"
        },
        {
          "internalType": "address",
          "name": "creator",
          "type": "address"
        },
        {
          "internalType": "string",
          "name": "title",
          "type": "string"
        },
        {
          "internalType": "string",
          "name": "description",
          "type": "string"
        },
        {
          "internalType": "uint256",
          "name": "startTime",
          "type": "uint256"
        },
        {
          "internalType": "uint256",
          "name": "endTime",
          "type": "uint256"
        },
        {
          "internalType": "uint256",
          "name": "yesVotes",
          "type": "uint256"
        },
        {
          "internalType": "uint256",
          "name": "noVotes",
          "type": "uint256"
        }
      ],
      "stateMutability": "view",
      "type": "function"
    },
    {
      "inputs": [
        {
          "internalType": "uint256",
          "name": "proposalId",
          "type": "uint256"
        }
      ],
      "name": "removeProposal",
      "outputs": [
        {
          "components": [
            {
              "internalType": "uint256",
              "name": "id",
              "type": "uint256"
            },
            {
              "internalType": "address",
              "name": "creator",
              "type": "address"
            },
            {
              "internalType": "string",
              "name": "title",
              "type": "string"
            },
            {
              "internalType": "string",
              "name": "description",
              "type": "string"
            },
            {
              "internalType": "uint256",
              "name": "startTime",
              "type": "uint256"
            },
            {
              "internalType": "uint256",
              "name": "endTime",
              "type": "uint256"
            },
            {
              "internalType": "uint256",
              "name": "yesVotes",
              "type": "uint256"
            },
            {
              "internalType": "uint256",
              "name": "noVotes",
              "type": "uint256"
            }
          ],
          "internalType": "struct InvestmentDAO.Proposal",
          "name": "",
          "type": "tuple"
        }
      ],
      "stateMutability": "nonpayable",
      "type": "function"
    },
    {
      "inputs": [
        {
          "internalType": "uint256",
          "name": "amount",
          "type": "uint256"
        }
      ],
      "name": "stakeToken",
      "outputs": [],
      "stateMutability": "nonpayable",
      "type": "function"
    },
    {
      "inputs": [],
      "name": "token",
      "outputs": [
        {
          "internalType": "contract IERC20",
          "name": "",
          "type": "address"
        }
      ],
      "stateMutability": "view",
      "type": "function"
    },
    {
      "inputs": [
        {
          "internalType": "uint256",
          "name": "_proposalIndex",
          "type": "uint256"
        },
        {
          "internalType": "uint256",
          "name": "_choice",
          "type": "uint256"
        }
      ],
      "name": "vote",
      "outputs": [],
      "stateMutability": "nonpayable",
      "type": "function"
    },
    {
      "inputs": [
        {
          "internalType": "uint256",
          "name": "",
          "type": "uint256"
        }
      ],
      "name": "voters",
      "outputs": [
        {
          "internalType": "uint256",
          "name": "proposerIndex",
          "type": "uint256"
        },
        {
          "internalType": "address",
          "name": "voterAddress",
          "type": "address"
        },
        {
          "internalType": "uint256",
          "name": "voteChoice",
          "type": "uint256"
        }
      ],
      "stateMutability": "view",
      "type": "function"
    },
    {
      "inputs": [],
      "name": "votingPeriod",
      "outputs": [
        {
          "internalType": "uint256",
          "name": "",
          "type": "uint256"
        }
      ],
      "stateMutability": "view",
      "type": "function"
    }
  ],
  "bytecode": "0x60806040523480156200001157600080fd5b5060405162004941380380620049418339818101604052810190620000379190620001cb565b80600160006101000a81548173ffffffffffffffffffffffffffffffffffffffff021916908373ffffffffffffffffffffffffffffffffffffffff160217905550336000806101000a81548173ffffffffffffffffffffffffffffffffffffffff021916908373ffffffffffffffffffffffffffffffffffffffff16021790555033600960008060009054906101000a900473ffffffffffffffffffffffffffffffffffffffff1673ffffffffffffffffffffffffffffffffffffffff1673ffffffffffffffffffffffffffffffffffffffff16815260200190815260200160002060000160006101000a81548173ffffffffffffffffffffffffffffffffffffffff021916908373ffffffffffffffffffffffffffffffffffffffff16021790555050620001fd565b600080fd5b600073ffffffffffffffffffffffffffffffffffffffff82169050919050565b6000620001938262000166565b9050919050565b620001a58162000186565b8114620001b157600080fd5b50565b600081519050620001c5816200019a565b92915050565b600060208284031215620001e457620001e362000161565b5b6000620001f484828501620001b4565b91505092915050565b614734806200020d6000396000f3fe608060405234801561001057600080fd5b506004361061014d5760003560e01c8063872ea68a116100c3578063cdd722531161007c578063cdd72253146103bf578063da35c664146103dd578063da58c7d9146103fb578063dde8535f1461042d578063e22393b81461045d578063fc0c546a1461048d5761014d565b8063872ea68a146102e45780639eab525314610315578063b384abef14610333578063c7f758a81461034f578063cceb68f514610385578063cda6b847146103a35761014d565b80633aecd0e3116101155780633aecd0e3146101eb578063401853b71461021b578063450fac711461024b5780634ce4e6c7146102675780635daf08ca146102975780636b5e1766146102c85761014d565b8063013cf08b14610152578063029d010d1461018957806302a251a3146101935780630d61b519146101b157806311aee380146101cd575b600080fd5b61016c60048036038101906101679190612d8f565b6104ab565b604051610180989796959493929190612e9c565b60405180910390f35b610191610633565b005b61019b610ad0565b6040516101a89190612f28565b60405180910390f35b6101cb60048036038101906101c69190612d8f565b610ad6565b005b6101d5610e86565b6040516101e29190612f28565b60405180910390f35b61020560048036038101906102009190612f6f565b610e8c565b6040516102129190612f28565b60405180910390f35b61023560048036038101906102309190612d8f565b610f31565b6040516102429190612f28565b60405180910390f35b61026560048036038101906102609190612f9c565b610fee565b005b610281600480360381019061027c9190612d8f565b611283565b60405161028e91906130fb565b60405180910390f35b6102b160048036038101906102ac9190612d8f565b61165c565b6040516102bf92919061311d565b60405180910390f35b6102e260048036038101906102dd91906131ab565b6116b0565b005b6102fe60048036038101906102f99190612f6f565b611bdc565b60405161030c92919061311d565b60405180910390f35b61031d611c20565b60405161032a9190613330565b60405180910390f35b61034d60048036038101906103489190613352565b611cdf565b005b61036960048036038101906103649190612d8f565b612352565b60405161037c9796959493929190613392565b60405180910390f35b61038d6125bc565b60405161039a9190613588565b60405180910390f35b6103bd60048036038101906103b89190612d8f565b6127c8565b005b6103c7612a46565b6040516103d4919061369b565b60405180910390f35b6103e5612b0f565b6040516103f29190612f28565b60405180910390f35b61041560048036038101906104109190612d8f565b612b15565b604051610424939291906136bd565b60405180910390f35b61044760048036038101906104429190612f6f565b612b6f565b604051610454919061370f565b60405180910390f35b6104776004803603810190610472919061372a565b612c09565b604051610484919061370f565b60405180910390f35b610495612c71565b6040516104a291906137c9565b60405180910390f35b600281815481106104bb57600080fd5b90600052602060002090600802016000915090508060000154908060010160009054906101000a900473ffffffffffffffffffffffffffffffffffffffff169080600201805461050a90613813565b80601f016020809104026020016040519081016040528092919081815260200182805461053690613813565b80156105835780601f1061055857610100808354040283529160200191610583565b820191906000526020600020905b81548152906001019060200180831161056657829003601f168201915b50505050509080600301805461059890613813565b80601f01602080910402602001604051908101604052809291908181526020018280546105c490613813565b80156106115780601f106105e657610100808354040283529160200191610611565b820191906000526020600020905b8154815290600101906020018083116105f457829003601f168201915b5050505050908060040154908060050154908060060154908060070154905088565b600073ffffffffffffffffffffffffffffffffffffffff163373ffffffffffffffffffffffffffffffffffffffff16036106a2576040517f08c379a000000000000000000000000000000000000000000000000000000000815260040161069990613890565b60405180910390fd5b600073ffffffffffffffffffffffffffffffffffffffff16600960003373ffffffffffffffffffffffffffffffffffffffff1673ffffffffffffffffffffffffffffffffffffffff16815260200190815260200160002060000160009054906101000a900473ffffffffffffffffffffffffffffffffffffffff1673ffffffffffffffffffffffffffffffffffffffff1614610773576040517f08c379a000000000000000000000000000000000000000000000000000000000815260040161076a906138fc565b60405180910390fd5b6000600960003373ffffffffffffffffffffffffffffffffffffffff1673ffffffffffffffffffffffffffffffffffffffff1681526020019081526020016000209050338160000160006101000a81548173ffffffffffffffffffffffffffffffffffffffff021916908373ffffffffffffffffffffffffffffffffffffffff160217905550600160009054906101000a900473ffffffffffffffffffffffffffffffffffffffff1673ffffffffffffffffffffffffffffffffffffffff166370a08231336040518263ffffffff1660e01b8152600401610854919061391c565b602060405180830381865afa158015610871573d6000803e3d6000fd5b505050506040513d601f19601f82011682018060405250810190610895919061394c565b8160010181905550600460405180604001604052803373ffffffffffffffffffffffffffffffffffffffff168152602001600160009054906101000a900473ffffffffffffffffffffffffffffffffffffffff1673ffffffffffffffffffffffffffffffffffffffff166370a08231336040518263ffffffff1660e01b8152600401610921919061391c565b602060405180830381865afa15801561093e573d6000803e3d6000fd5b505050506040513d601f19601f82011682018060405250810190610962919061394c565b815250908060018154018082558091505060019003906000526020600020906002020160009091909190915060008201518160000160006101000a81548173ffffffffffffffffffffffffffffffffffffffff021916908373ffffffffffffffffffffffffffffffffffffffff160217905550602082015181600101555050600760008154809291906109f4906139a8565b91905055507f8c79ca5dc8dffd30e0ae906c79b4e5d0b55e6e50c77cb39a5acc9f132f13efb433600160009054906101000a900473ffffffffffffffffffffffffffffffffffffffff1673ffffffffffffffffffffffffffffffffffffffff166370a08231336040518263ffffffff1660e01b8152600401610a76919061391c565b602060405180830381865afa158015610a93573d6000803e3d6000fd5b505050506040513d601f19601f82011682018060405250810190610ab7919061394c565b604051610ac592919061311d565b60405180910390a150565b60065481565b600a60009054906101000a900460ff1615610b26576040517f08c379a0000000000000000000000000000000000000000000000000000000008152600401610b1d90613a3c565b60405180910390fd5b6001600a60006101000a81548160ff0219169083151502179055506005548110610b85576040517f08c379a0000000000000000000000000000000000000000000000000000000008152600401610b7c90613aa8565b60405180910390fd5b3373ffffffffffffffffffffffffffffffffffffffff1660028281548110610bb057610baf613ac8565b5b906000526020600020906008020160010160009054906101000a900473ffffffffffffffffffffffffffffffffffffffff1673ffffffffffffffffffffffffffffffffffffffff1614610c38576040517f08c379a0000000000000000000000000000000000000000000000000000000008152600401610c2f90613b69565b60405180910390fd5b600060028281548110610c4e57610c4d613ac8565b5b906000526020600020906008020160405180610100016040529081600082015481526020016001820160009054906101000a900473ffffffffffffffffffffffffffffffffffffffff1673ffffffffffffffffffffffffffffffffffffffff1673ffffffffffffffffffffffffffffffffffffffff168152602001600282018054610cd890613813565b80601f0160208091040260200160405190810160405280929190818152602001828054610d0490613813565b8015610d515780601f10610d2657610100808354040283529160200191610d51565b820191906000526020600020905b815481529060010190602001808311610d3457829003601f168201915b50505050508152602001600382018054610d6a90613813565b80601f0160208091040260200160405190810160405280929190818152602001828054610d9690613813565b8015610de35780601f10610db857610100808354040283529160200191610de3565b820191906000526020600020905b815481529060010190602001808311610dc657829003601f168201915b505050505081526020016004820154815260200160058201548152602001600682015481526020016007820154815250509050600654421015610e5b576040517f08c379a0000000000000000000000000000000000000000000000000000000008152600401610e5290613bd5565b60405180910390fd5b8060e001518160c001515050506000600a60006101000a81548160ff02191690831515021790555050565b60075481565b6000600160009054906101000a900473ffffffffffffffffffffffffffffffffffffffff1673ffffffffffffffffffffffffffffffffffffffff166370a08231836040518263ffffffff1660e01b8152600401610ee9919061391c565b602060405180830381865afa158015610f06573d6000803e3d6000fd5b505050506040513d601f19601f82011682018060405250810190610f2a919061394c565b9050919050565b60008060028381548110610f4857610f47613ac8565b5b906000526020600020906008020160040154421015610f6a5760009050610fd3565b60028381548110610f7e57610f7d613ac8565b5b9060005260206000209060080201600501544211610f9f5760019050610fd2565b60028381548110610fb357610fb2613ac8565b5b906000526020600020906008020160050154421115610fd157600290505b5b5b806002811115610fe657610fe5613bf5565b5b915050919050565b600a60009054906101000a900460ff161561103e576040517f08c379a000000000000000000000000000000000000000000000000000000000815260040161103590613a3c565b60405180910390fd5b6001600a60006101000a81548160ff02191690831515021790555080600160009054906101000a900473ffffffffffffffffffffffffffffffffffffffff1673ffffffffffffffffffffffffffffffffffffffff166370a08231306040518263ffffffff1660e01b81526004016110b5919061391c565b602060405180830381865afa1580156110d2573d6000803e3d6000fd5b505050506040513d601f19601f820116820180604052508101906110f6919061394c565b11611136576040517f08c379a000000000000000000000000000000000000000000000000000000000815260040161112d90613c70565b60405180910390fd5b680ad78ebc5ac6200000600160009054906101000a900473ffffffffffffffffffffffffffffffffffffffff1673ffffffffffffffffffffffffffffffffffffffff166370a08231846040518263ffffffff1660e01b815260040161119b919061391c565b602060405180830381865afa1580156111b8573d6000803e3d6000fd5b505050506040513d601f19601f820116820180604052508101906111dc919061394c565b111561121d576040517f08c379a000000000000000000000000000000000000000000000000000000000815260040161121490613cdc565b60405180910390fd5b8173ffffffffffffffffffffffffffffffffffffffff166108fc829081150290604051600060405180830381858888f19350505050158015611263573d6000803e3d6000fd5b506000600a60006101000a81548160ff0219169083151502179055505050565b61128b612c97565b60055482106112cf576040517f08c379a00000000000000000000000000000000000000000000000000000000081526004016112c690613aa8565b60405180910390fd5b3373ffffffffffffffffffffffffffffffffffffffff16600283815481106112fa576112f9613ac8565b5b906000526020600020906008020160010160009054906101000a900473ffffffffffffffffffffffffffffffffffffffff1673ffffffffffffffffffffffffffffffffffffffff1614611382576040517f08c379a000000000000000000000000000000000000000000000000000000000815260040161137990613d6e565b60405180910390fd5b6000600280549050116113ca576040517f08c379a00000000000000000000000000000000000000000000000000000000081526004016113c190613dda565b60405180910390fd5b6000600260016002805490506113e09190613dfa565b815481106113f1576113f0613ac8565b5b90600052602060002090600802019050600280548061141357611412613e2e565b5b60019003818190600052602060002090600802016000808201600090556001820160006101000a81549073ffffffffffffffffffffffffffffffffffffffff02191690556002820160006114679190612cf2565b6003820160006114779190612cf2565b6004820160009055600582016000905560068201600090556007820160009055505090558060405180610100016040529081600082015481526020016001820160009054906101000a900473ffffffffffffffffffffffffffffffffffffffff1673ffffffffffffffffffffffffffffffffffffffff1673ffffffffffffffffffffffffffffffffffffffff16815260200160028201805461151890613813565b80601f016020809104026020016040519081016040528092919081815260200182805461154490613813565b80156115915780601f1061156657610100808354040283529160200191611591565b820191906000526020600020905b81548152906001019060200180831161157457829003601f168201915b505050505081526020016003820180546115aa90613813565b80601f01602080910402602001604051908101604052809291908181526020018280546115d690613813565b80156116235780601f106115f857610100808354040283529160200191611623565b820191906000526020600020905b81548152906001019060200180831161160657829003601f168201915b50505050508152602001600482015481526020016005820154815260200160068201548152602001600782015481525050915050919050565b6004818154811061166c57600080fd5b90600052602060002090600202016000915090508060000160009054906101000a900473ffffffffffffffffffffffffffffffffffffffff16908060010154905082565b3373ffffffffffffffffffffffffffffffffffffffff16600960003373ffffffffffffffffffffffffffffffffffffffff1673ffffffffffffffffffffffffffffffffffffffff16815260200190815260200160002060000160009054906101000a900473ffffffffffffffffffffffffffffffffffffffff1673ffffffffffffffffffffffffffffffffffffffff1614611780576040517f08c379a000000000000000000000000000000000000000000000000000000000815260040161177790613ecf565b60405180910390fd5b68056bc75e2d63100000600160009054906101000a900473ffffffffffffffffffffffffffffffffffffffff1673ffffffffffffffffffffffffffffffffffffffff166370a08231336040518263ffffffff1660e01b81526004016117e5919061391c565b602060405180830381865afa158015611802573d6000803e3d6000fd5b505050506040513d601f19601f82011682018060405250810190611826919061394c565b11611866576040517f08c379a000000000000000000000000000000000000000000000000000000000815260040161185d90613f61565b60405180910390fd5b4282116118a8576040517f08c379a000000000000000000000000000000000000000000000000000000000815260040161189f90613ff3565b60405180910390fd5b8181116118ea576040517f08c379a00000000000000000000000000000000000000000000000000000000081526004016118e190614085565b60405180910390fd5b3373ffffffffffffffffffffffffffffffffffffffff16600960003373ffffffffffffffffffffffffffffffffffffffff1673ffffffffffffffffffffffffffffffffffffffff16815260200190815260200160002060000160009054906101000a900473ffffffffffffffffffffffffffffffffffffffff1673ffffffffffffffffffffffffffffffffffffffff16146119ba576040517f08c379a00000000000000000000000000000000000000000000000000000000081526004016119b190613ecf565b60405180910390fd5b600260405180610100016040528060055481526020013373ffffffffffffffffffffffffffffffffffffffff16815260200188888080601f016020809104026020016040519081016040528093929190818152602001838380828437600081840152601f19601f82011690508083019250505050505050815260200186868080601f016020809104026020016040519081016040528093929190818152602001838380828437600081840152601f19601f82011690508083019250505050505050815260200184815260200183815260200160008152602001600081525090806001815401808255809150506001900390600052602060002090600802016000909190919091506000820151816000015560208201518160010160006101000a81548173ffffffffffffffffffffffffffffffffffffffff021916908373ffffffffffffffffffffffffffffffffffffffff1602179055506040820151816002019081611b279190614276565b506060820151816003019081611b3d9190614276565b506080820151816004015560a0820151816005015560c0820151816006015560e08201518160070155505060056000815480929190611b7b906139a8565b91905055507fd6b0b08c4ffc17964758389955af67e78f9c97140393526749d4994031e62ef26001600280549050611bb39190613dfa565b878787878787604051611bcc9796959493929190614384565b60405180910390a1505050505050565b60096020528060005260406000206000915090508060000160009054906101000a900473ffffffffffffffffffffffffffffffffffffffff16908060010154905082565b60606004805480602002602001604051908101604052809291908181526020016000905b82821015611cd657838290600052602060002090600202016040518060400160405290816000820160009054906101000a900473ffffffffffffffffffffffffffffffffffffffff1673ffffffffffffffffffffffffffffffffffffffff1673ffffffffffffffffffffffffffffffffffffffff16815260200160018201548152505081526020019060010190611c44565b50505050905090565b3373ffffffffffffffffffffffffffffffffffffffff16600960003373ffffffffffffffffffffffffffffffffffffffff1673ffffffffffffffffffffffffffffffffffffffff16815260200190815260200160002060000160009054906101000a900473ffffffffffffffffffffffffffffffffffffffff1673ffffffffffffffffffffffffffffffffffffffff1614611daf576040517f08c379a0000000000000000000000000000000000000000000000000000000008152600401611da690613ecf565b60405180910390fd5b60028281548110611dc357611dc2613ac8565b5b90600052602060002090600802016004015460028381548110611de957611de8613ac8565b5b90600052602060002090600802016005015481421015611e3e576040517f08c379a0000000000000000000000000000000000000000000000000000000008152600401611e3590614435565b60405180910390fd5b80421115611e81576040517f08c379a0000000000000000000000000000000000000000000000000000000008152600401611e78906144a1565b60405180910390fd5b6005548410611ec5576040517f08c379a0000000000000000000000000000000000000000000000000000000008152600401611ebc90613aa8565b60405180910390fd5b600860003373ffffffffffffffffffffffffffffffffffffffff1673ffffffffffffffffffffffffffffffffffffffff168152602001908152602001600020600085815260200190815260200160002060009054906101000a900460ff1615611f63576040517f08c379a0000000000000000000000000000000000000000000000000000000008152600401611f5a90614533565b60405180910390fd5b6802b5e3af16b1880000600160009054906101000a900473ffffffffffffffffffffffffffffffffffffffff1673ffffffffffffffffffffffffffffffffffffffff166370a08231336040518263ffffffff1660e01b8152600401611fc8919061391c565b602060405180830381865afa158015611fe5573d6000803e3d6000fd5b505050506040513d601f19601f82011682018060405250810190612009919061394c565b11612049576040517f08c379a0000000000000000000000000000000000000000000000000000000008152600401612040906145c5565b60405180910390fd5b3373ffffffffffffffffffffffffffffffffffffffff16600960003373ffffffffffffffffffffffffffffffffffffffff1673ffffffffffffffffffffffffffffffffffffffff16815260200190815260200160002060000160009054906101000a900473ffffffffffffffffffffffffffffffffffffffff1673ffffffffffffffffffffffffffffffffffffffff1614612119576040517f08c379a000000000000000000000000000000000000000000000000000000000815260040161211090613ecf565b60405180910390fd5b600183036121635760016002858154811061213757612136613ac8565b5b9060005260206000209060080201600601600082825461215791906145e5565b925050819055506121a1565b60016002858154811061217957612178613ac8565b5b9060005260206000209060080201600701600082825461219991906145e5565b925050819055505b600360405180606001604052808681526020013373ffffffffffffffffffffffffffffffffffffffff1681526020018581525090806001815401808255809150506001900390600052602060002090600302016000909190919091506000820151816000015560208201518160010160006101000a81548173ffffffffffffffffffffffffffffffffffffffff021916908373ffffffffffffffffffffffffffffffffffffffff1602179055506040820151816002015550506001600860003373ffffffffffffffffffffffffffffffffffffffff1673ffffffffffffffffffffffffffffffffffffffff168152602001908152602001600020600086815260200190815260200160002060006101000a81548160ff0219169083151502179055507f7bbc702cfc0c62aaa977159d2c8ff0642f94715abcc34af64106c1b15c2af0a0843385600288815481106122fb576122fa613ac8565b5b9060005260206000209060080201600601546002898154811061232157612320613ac8565b5b906000526020600020906008020160070154604051612344959493929190614619565b60405180910390a150505050565b600060608060008060008060055488106123a1576040517f08c379a000000000000000000000000000000000000000000000000000000000815260040161239890613aa8565b60405180910390fd5b6000600289815481106123b7576123b6613ac8565b5b906000526020600020906008020160405180610100016040529081600082015481526020016001820160009054906101000a900473ffffffffffffffffffffffffffffffffffffffff1673ffffffffffffffffffffffffffffffffffffffff1673ffffffffffffffffffffffffffffffffffffffff16815260200160028201805461244190613813565b80601f016020809104026020016040519081016040528092919081815260200182805461246d90613813565b80156124ba5780601f1061248f576101008083540402835291602001916124ba565b820191906000526020600020905b81548152906001019060200180831161249d57829003601f168201915b505050505081526020016003820180546124d390613813565b80601f01602080910402602001604051908101604052809291908181526020018280546124ff90613813565b801561254c5780601f106125215761010080835404028352916020019161254c565b820191906000526020600020905b81548152906001019060200180831161252f57829003601f168201915b50505050508152602001600482015481526020016005820154815260200160068201548152602001600782015481525050905080602001518160400151826060015183608001518460a001518560c001518660e00151975097509750975097509750975050919395979092949650565b60606002805480602002602001604051908101604052809291908181526020016000905b828210156127bf578382906000526020600020906008020160405180610100016040529081600082015481526020016001820160009054906101000a900473ffffffffffffffffffffffffffffffffffffffff1673ffffffffffffffffffffffffffffffffffffffff1673ffffffffffffffffffffffffffffffffffffffff16815260200160028201805461267490613813565b80601f01602080910402602001604051908101604052809291908181526020018280546126a090613813565b80156126ed5780601f106126c2576101008083540402835291602001916126ed565b820191906000526020600020905b8154815290600101906020018083116126d057829003601f168201915b5050505050815260200160038201805461270690613813565b80601f016020809104026020016040519081016040528092919081815260200182805461273290613813565b801561277f5780601f106127545761010080835404028352916020019161277f565b820191906000526020600020905b81548152906001019060200180831161276257829003601f168201915b50505050508152602001600482015481526020016005820154815260200160068201548152602001600782015481525050815260200190600101906125e0565b50505050905090565b600a60009054906101000a900460ff1615612818576040517f08c379a000000000000000000000000000000000000000000000000000000000815260040161280f90613a3c565b60405180910390fd5b6001600a60006101000a81548160ff0219169083151502179055503373ffffffffffffffffffffffffffffffffffffffff16600960003373ffffffffffffffffffffffffffffffffffffffff1673ffffffffffffffffffffffffffffffffffffffff16815260200190815260200160002060000160009054906101000a900473ffffffffffffffffffffffffffffffffffffffff1673ffffffffffffffffffffffffffffffffffffffff1614612903576040517f08c379a00000000000000000000000000000000000000000000000000000000081526004016128fa906146de565b60405180910390fd5b6000600160009054906101000a900473ffffffffffffffffffffffffffffffffffffffff1673ffffffffffffffffffffffffffffffffffffffff166370a08231336040518263ffffffff1660e01b8152600401612960919061391c565b602060405180830381865afa15801561297d573d6000803e3d6000fd5b505050506040513d601f19601f820116820180604052508101906129a1919061394c565b116129e1576040517f08c379a00000000000000000000000000000000000000000000000000000000081526004016129d890613c70565b60405180910390fd5b3073ffffffffffffffffffffffffffffffffffffffff166108fc829081150290604051600060405180830381858888f19350505050158015612a27573d6000803e3d6000fd5b506000600a60006101000a81548160ff02191690831515021790555050565b60606003805480602002602001604051908101604052809291908181526020016000905b82821015612b065783829060005260206000209060030201604051806060016040529081600082015481526020016001820160009054906101000a900473ffffffffffffffffffffffffffffffffffffffff1673ffffffffffffffffffffffffffffffffffffffff1673ffffffffffffffffffffffffffffffffffffffff16815260200160028201548152505081526020019060010190612a6a565b50505050905090565b60055481565b60038181548110612b2557600080fd5b90600052602060002090600302016000915090508060000154908060010160009054906101000a900473ffffffffffffffffffffffffffffffffffffffff16908060020154905083565b60008173ffffffffffffffffffffffffffffffffffffffff16600960008473ffffffffffffffffffffffffffffffffffffffff1673ffffffffffffffffffffffffffffffffffffffff16815260200190815260200160002060000160009054906101000a900473ffffffffffffffffffffffffffffffffffffffff1673ffffffffffffffffffffffffffffffffffffffff16149050919050565b6000600860008373ffffffffffffffffffffffffffffffffffffffff1673ffffffffffffffffffffffffffffffffffffffff168152602001908152602001600020600084815260200190815260200160002060009054906101000a900460ff16905092915050565b600160009054906101000a900473ffffffffffffffffffffffffffffffffffffffff1681565b60405180610100016040528060008152602001600073ffffffffffffffffffffffffffffffffffffffff1681526020016060815260200160608152602001600081526020016000815260200160008152602001600081525090565b508054612cfe90613813565b6000825580601f10612d105750612d2f565b601f016020900490600052602060002090810190612d2e9190612d32565b5b50565b5b80821115612d4b576000816000905550600101612d33565b5090565b600080fd5b600080fd5b6000819050919050565b612d6c81612d59565b8114612d7757600080fd5b50565b600081359050612d8981612d63565b92915050565b600060208284031215612da557612da4612d4f565b5b6000612db384828501612d7a565b91505092915050565b612dc581612d59565b82525050565b600073ffffffffffffffffffffffffffffffffffffffff82169050919050565b6000612df682612dcb565b9050919050565b612e0681612deb565b82525050565b600081519050919050565b600082825260208201905092915050565b60005b83811015612e46578082015181840152602081019050612e2b565b60008484015250505050565b6000601f19601f8301169050919050565b6000612e6e82612e0c565b612e788185612e17565b9350612e88818560208601612e28565b612e9181612e52565b840191505092915050565b600061010082019050612eb2600083018b612dbc565b612ebf602083018a612dfd565b8181036040830152612ed18189612e63565b90508181036060830152612ee58188612e63565b9050612ef46080830187612dbc565b612f0160a0830186612dbc565b612f0e60c0830185612dbc565b612f1b60e0830184612dbc565b9998505050505050505050565b6000602082019050612f3d6000830184612dbc565b92915050565b612f4c81612deb565b8114612f5757600080fd5b50565b600081359050612f6981612f43565b92915050565b600060208284031215612f8557612f84612d4f565b5b6000612f9384828501612f5a565b91505092915050565b60008060408385031215612fb357612fb2612d4f565b5b6000612fc185828601612f5a565b9250506020612fd285828601612d7a565b9150509250929050565b612fe581612d59565b82525050565b612ff481612deb565b82525050565b600082825260208201905092915050565b600061301682612e0c565b6130208185612ffa565b9350613030818560208601612e28565b61303981612e52565b840191505092915050565b60006101008301600083015161305d6000860182612fdc565b5060208301516130706020860182612feb565b5060408301518482036040860152613088828261300b565b915050606083015184820360608601526130a2828261300b565b91505060808301516130b76080860182612fdc565b5060a08301516130ca60a0860182612fdc565b5060c08301516130dd60c0860182612fdc565b5060e08301516130f060e0860182612fdc565b508091505092915050565b600060208201905081810360008301526131158184613044565b905092915050565b60006040820190506131326000830185612dfd565b61313f6020830184612dbc565b9392505050565b600080fd5b600080fd5b600080fd5b60008083601f84011261316b5761316a613146565b5b8235905067ffffffffffffffff8111156131885761318761314b565b5b6020830191508360018202830111156131a4576131a3613150565b5b9250929050565b600080600080600080608087890312156131c8576131c7612d4f565b5b600087013567ffffffffffffffff8111156131e6576131e5612d54565b5b6131f289828a01613155565b9650965050602087013567ffffffffffffffff81111561321557613214612d54565b5b61322189828a01613155565b9450945050604061323489828a01612d7a565b925050606061324589828a01612d7a565b9150509295509295509295565b600081519050919050565b600082825260208201905092915050565b6000819050602082019050919050565b6040820160008201516132946000850182612feb565b5060208201516132a76020850182612fdc565b50505050565b60006132b9838361327e565b60408301905092915050565b6000602082019050919050565b60006132dd82613252565b6132e7818561325d565b93506132f28361326e565b8060005b8381101561332357815161330a88826132ad565b9750613315836132c5565b9250506001810190506132f6565b5085935050505092915050565b6000602082019050818103600083015261334a81846132d2565b905092915050565b6000806040838503121561336957613368612d4f565b5b600061337785828601612d7a565b925050602061338885828601612d7a565b9150509250929050565b600060e0820190506133a7600083018a612dfd565b81810360208301526133b98189612e63565b905081810360408301526133cd8188612e63565b90506133dc6060830187612dbc565b6133e96080830186612dbc565b6133f660a0830185612dbc565b61340360c0830184612dbc565b98975050505050505050565b600081519050919050565b600082825260208201905092915050565b6000819050602082019050919050565b6000610100830160008301516134546000860182612fdc565b5060208301516134676020860182612feb565b506040830151848203604086015261347f828261300b565b91505060608301518482036060860152613499828261300b565b91505060808301516134ae6080860182612fdc565b5060a08301516134c160a0860182612fdc565b5060c08301516134d460c0860182612fdc565b5060e08301516134e760e0860182612fdc565b508091505092915050565b60006134fe838361343b565b905092915050565b6000602082019050919050565b600061351e8261340f565b613528818561341a565b93508360208202850161353a8561342b565b8060005b85811015613576578484038952815161355785826134f2565b945061356283613506565b925060208a0199505060018101905061353e565b50829750879550505050505092915050565b600060208201905081810360008301526135a28184613513565b905092915050565b600081519050919050565b600082825260208201905092915050565b6000819050602082019050919050565b6060820160008201516135ec6000850182612fdc565b5060208201516135ff6020850182612feb565b5060408201516136126040850182612fdc565b50505050565b600061362483836135d6565b60608301905092915050565b6000602082019050919050565b6000613648826135aa565b61365281856135b5565b935061365d836135c6565b8060005b8381101561368e5781516136758882613618565b975061368083613630565b925050600181019050613661565b5085935050505092915050565b600060208201905081810360008301526136b5818461363d565b905092915050565b60006060820190506136d26000830186612dbc565b6136df6020830185612dfd565b6136ec6040830184612dbc565b949350505050565b60008115159050919050565b613709816136f4565b82525050565b60006020820190506137246000830184613700565b92915050565b6000806040838503121561374157613740612d4f565b5b600061374f85828601612d7a565b925050602061376085828601612f5a565b9150509250929050565b6000819050919050565b600061378f61378a61378584612dcb565b61376a565b612dcb565b9050919050565b60006137a182613774565b9050919050565b60006137b382613796565b9050919050565b6137c3816137a8565b82525050565b60006020820190506137de60008301846137ba565b92915050565b7f4e487b7100000000000000000000000000000000000000000000000000000000600052602260045260246000fd5b6000600282049050600182168061382b57607f821691505b60208210810361383e5761383d6137e4565b5b50919050565b7f496e76616c696420616464726573730000000000000000000000000000000000600082015250565b600061387a600f83612e17565b915061388582613844565b602082019050919050565b600060208201905081810360008301526138a98161386d565b9050919050565b7f416c72656164792061206d656d62657200000000000000000000000000000000600082015250565b60006138e6601083612e17565b91506138f1826138b0565b602082019050919050565b60006020820190508181036000830152613915816138d9565b9050919050565b60006020820190506139316000830184612dfd565b92915050565b60008151905061394681612d63565b92915050565b60006020828403121561396257613961612d4f565b5b600061397084828501613937565b91505092915050565b7f4e487b7100000000000000000000000000000000000000000000000000000000600052601160045260246000fd5b60006139b382612d59565b91507fffffffffffffffffffffffffffffffffffffffffffffffffffffffffffffffff82036139e5576139e4613979565b5b600182019050919050565b7f4e6f2072652d656e7472616e6379000000000000000000000000000000000000600082015250565b6000613a26600e83612e17565b9150613a31826139f0565b602082019050919050565b60006020820190508181036000830152613a5581613a19565b9050919050565b7f496e76616c69642070726f706f73616c20696e64657800000000000000000000600082015250565b6000613a92601683612e17565b9150613a9d82613a5c565b602082019050919050565b60006020820190508181036000830152613ac181613a85565b9050919050565b7f4e487b7100000000000000000000000000000000000000000000000000000000600052603260045260246000fd5b7f4f6e6c79207468652063726561746f72206f66207468652070726f706f73616c60008201527f2063616e20656e642074686520766f74696e6700000000000000000000000000602082015250565b6000613b53603383612e17565b9150613b5e82613af7565b604082019050919050565b60006020820190508181036000830152613b8281613b46565b9050919050565b7f566f74696e6720706572696f6420686173206e6f7420656e6465642079657400600082015250565b6000613bbf601f83612e17565b9150613bca82613b89565b602082019050919050565b60006020820190508181036000830152613bee81613bb2565b9050919050565b7f4e487b7100000000000000000000000000000000000000000000000000000000600052602160045260246000fd5b7f496e73756666696369656e7420746f6b656e2062616c616e6365000000000000600082015250565b6000613c5a601a83612e17565b9150613c6582613c24565b602082019050919050565b60006020820190508181036000830152613c8981613c4d565b9050919050565b7f596f7520616c7265616479206861766520656e6f75676820746f6b656e000000600082015250565b6000613cc6601d83612e17565b9150613cd182613c90565b602082019050919050565b60006020820190508181036000830152613cf581613cb9565b9050919050565b7f4f6e6c79207468652063726561746f72206f66207468652070726f706f73616c60008201527f2063616e2072656d6f7665207468652070726f706f73616c0000000000000000602082015250565b6000613d58603883612e17565b9150613d6382613cfc565b604082019050919050565b60006020820190508181036000830152613d8781613d4b565b9050919050565b7f50726f706f73616c20697320656d707479000000000000000000000000000000600082015250565b6000613dc4601183612e17565b9150613dcf82613d8e565b602082019050919050565b60006020820190508181036000830152613df381613db7565b9050919050565b6000613e0582612d59565b9150613e1083612d59565b9250828203905081811115613e2857613e27613979565b5b92915050565b7f4e487b7100000000000000000000000000000000000000000000000000000000600052603160045260246000fd5b7f596f7520617265206e6f74207965742061206d656d626572206f66207468697360008201527f20636f6d6d756e69747900000000000000000000000000000000000000000000602082015250565b6000613eb9602a83612e17565b9150613ec482613e5d565b604082019050919050565b60006020820190508181036000830152613ee881613eac565b9050919050565b7f596f75206d75737420686f6c6420757020746f2031303020746f6b656e73207460008201527f6f2063726561746520612070726f706f73616c00000000000000000000000000602082015250565b6000613f4b603383612e17565b9150613f5682613eef565b604082019050919050565b60006020820190508181036000830152613f7a81613f3e565b9050919050565b7f50726f706f73616c2073746172742074696d65206d75737420626520696e207460008201527f6865206675747572650000000000000000000000000000000000000000000000602082015250565b6000613fdd602983612e17565b9150613fe882613f81565b604082019050919050565b6000602082019050818103600083015261400c81613fd0565b9050919050565b7f50726f706f73616c20656e642074696d65206d7573742062652061667465722060008201527f73746172742074696d6500000000000000000000000000000000000000000000602082015250565b600061406f602a83612e17565b915061407a82614013565b604082019050919050565b6000602082019050818103600083015261409e81614062565b9050919050565b7f4e487b7100000000000000000000000000000000000000000000000000000000600052604160045260246000fd5b60008190508160005260206000209050919050565b60006020601f8301049050919050565b600082821b905092915050565b6000600883026141367fffffffffffffffffffffffffffffffffffffffffffffffffffffffffffffffff826140f9565b61414086836140f9565b95508019841693508086168417925050509392505050565b600061417361416e61416984612d59565b61376a565b612d59565b9050919050565b6000819050919050565b61418d83614158565b6141a16141998261417a565b848454614106565b825550505050565b600090565b6141b66141a9565b6141c1818484614184565b505050565b5b818110156141e5576141da6000826141ae565b6001810190506141c7565b5050565b601f82111561422a576141fb816140d4565b614204846140e9565b81016020851015614213578190505b61422761421f856140e9565b8301826141c6565b50505b505050565b600082821c905092915050565b600061424d6000198460080261422f565b1980831691505092915050565b6000614266838361423c565b9150826002028217905092915050565b61427f82612e0c565b67ffffffffffffffff811115614298576142976140a5565b5b6142a28254613813565b6142ad8282856141e9565b600060209050601f8311600181146142e057600084156142ce578287015190505b6142d8858261425a565b865550614340565b601f1984166142ee866140d4565b60005b82811015614316578489015182556001820191506020850194506020810190506142f1565b86831015614333578489015161432f601f89168261423c565b8355505b6001600288020188555050505b505050505050565b82818337600083830152505050565b60006143638385612e17565b9350614370838584614348565b61437983612e52565b840190509392505050565b600060a082019050614399600083018a612dbc565b81810360208301526143ac81888a614357565b905081810360408301526143c1818688614357565b90506143d06060830185612dbc565b6143dd6080830184612dbc565b98975050505050505050565b7f566f74696e6720686173206e6f74207374617274656420796574000000000000600082015250565b600061441f601a83612e17565b915061442a826143e9565b602082019050919050565b6000602082019050818103600083015261444e81614412565b9050919050565b7f566f74696e672068617320616c726561647920656e6465640000000000000000600082015250565b600061448b601883612e17565b915061449682614455565b602082019050919050565b600060208201905081810360008301526144ba8161447e565b9050919050565b7f596f75206861766520616c726561647920766f74656420666f7220746869732060008201527f70726f706f73616c000000000000000000000000000000000000000000000000602082015250565b600061451d602883612e17565b9150614528826144c1565b604082019050919050565b6000602082019050818103600083015261454c81614510565b9050919050565b7f596f75206d75737420686f6c6420757020746f20353020746f6b656e7320746f60008201527f20766f7465000000000000000000000000000000000000000000000000000000602082015250565b60006145af602583612e17565b91506145ba82614553565b604082019050919050565b600060208201905081810360008301526145de816145a2565b9050919050565b60006145f082612d59565b91506145fb83612d59565b925082820190508082111561461357614612613979565b5b92915050565b600060a08201905061462e6000830188612dbc565b61463b6020830187612dfd565b6146486040830186612dbc565b6146556060830185612dbc565b6146626080830184612dbc565b9695505050505050565b7f596f7520617265206e6f74207965742061206d656d626572206f66207468697360008201527f2044414f00000000000000000000000000000000000000000000000000000000602082015250565b60006146c8602483612e17565b91506146d38261466c565b604082019050919050565b600060208201905081810360008301526146f7816146bb565b905091905056fea26469706673582212202082e9255de4da291f6b8e4d672399ed267900581c8e085aad7f450474de706b64736f6c63430008110033",
  "linkReferences": {},
  "deployedLinkReferences": {}
}