{
  "_format": "hh-sol-artifact-1",
  "contractName": "InvestmentDAO",
  "sourceName": "contracts/InvestmentDAO.sol",
  "abi": [
    {
      "inputs": [
        {
          "internalType": "address",
          "name": "_tokenAddress",
          "type": "address"
        },
        {
          "internalType": "address",
          "name": "_nft",
          "type": "address"
        }
      ],
      "stateMutability": "nonpayable",
      "type": "constructor"
    },
    {
      "anonymous": false,
      "inputs": [
        {
          "indexed": false,
          "internalType": "address",
          "name": "memberAddress",
          "type": "address"
        },
        {
          "indexed": false,
          "internalType": "uint256",
          "name": "tokenBalance",
          "type": "uint256"
        }
      ],
      "name": "AddMember",
      "type": "event"
    },
    {
      "anonymous": false,
      "inputs": [
        {
          "indexed": false,
          "internalType": "uint256",
          "name": "proposalId",
          "type": "uint256"
        },
        {
          "indexed": false,
          "internalType": "string",
          "name": "title",
          "type": "string"
        },
        {
          "indexed": false,
          "internalType": "string",
          "name": "description",
          "type": "string"
        },
        {
          "indexed": false,
          "internalType": "uint256",
          "name": "startTime",
          "type": "uint256"
        },
        {
          "indexed": false,
          "internalType": "uint256",
          "name": "endTime",
          "type": "uint256"
        }
      ],
      "name": "ProposalCreated",
      "type": "event"
    },
    {
      "anonymous": false,
      "inputs": [
        {
          "indexed": false,
          "internalType": "uint256",
          "name": "proposalId",
          "type": "uint256"
        },
        {
          "indexed": false,
          "internalType": "address",
          "name": "voter",
          "type": "address"
        },
        {
          "indexed": false,
          "internalType": "uint256",
          "name": "choice",
          "type": "uint256"
        },
        {
          "indexed": false,
          "internalType": "uint256",
          "name": "yesVotes",
          "type": "uint256"
        },
        {
          "indexed": false,
          "internalType": "uint256",
          "name": "noVotes",
          "type": "uint256"
        }
      ],
      "name": "Voted",
      "type": "event"
    },
    {
      "inputs": [],
      "name": "addMember",
      "outputs": [],
      "stateMutability": "nonpayable",
      "type": "function"
    },
    {
      "inputs": [
        {
          "internalType": "address",
          "name": "",
          "type": "address"
        }
      ],
      "name": "blackListed",
      "outputs": [
        {
          "internalType": "bool",
          "name": "",
          "type": "bool"
        }
      ],
      "stateMutability": "view",
      "type": "function"
    },
    {
      "inputs": [
        {
          "internalType": "uint256",
          "name": "_tokenId",
          "type": "uint256"
        }
      ],
      "name": "buyNFT",
      "outputs": [],
      "stateMutability": "payable",
      "type": "function"
    },
    {
      "inputs": [
        {
          "internalType": "address",
          "name": "_receiver",
          "type": "address"
        },
        {
          "internalType": "uint256",
          "name": "amount",
          "type": "uint256"
        }
      ],
      "name": "buyToken",
      "outputs": [],
      "stateMutability": "nonpayable",
      "type": "function"
    },
    {
      "inputs": [
        {
          "internalType": "string",
          "name": "_title",
          "type": "string"
        },
        {
          "internalType": "string",
          "name": "_description",
          "type": "string"
        },
        {
          "internalType": "uint256",
          "name": "_startTime",
          "type": "uint256"
        },
        {
          "internalType": "uint256",
          "name": "_endTime",
          "type": "uint256"
        }
      ],
      "name": "createProposal",
      "outputs": [],
      "stateMutability": "nonpayable",
      "type": "function"
    },
    {
      "inputs": [
        {
          "internalType": "uint256",
          "name": "_proposalIndex",
          "type": "uint256"
        },
        {
          "internalType": "uint256",
          "name": "_nftId",
          "type": "uint256"
        }
      ],
      "name": "executeProposal",
      "outputs": [],
      "stateMutability": "payable",
      "type": "function"
    },
    {
      "inputs": [],
      "name": "getAllProposals",
      "outputs": [
        {
          "components": [
            {
              "internalType": "uint256",
              "name": "id",
              "type": "uint256"
            },
            {
              "internalType": "address",
              "name": "creator",
              "type": "address"
            },
            {
              "internalType": "string",
              "name": "title",
              "type": "string"
            },
            {
              "internalType": "string",
              "name": "description",
              "type": "string"
            },
            {
              "internalType": "uint256",
              "name": "startTime",
              "type": "uint256"
            },
            {
              "internalType": "uint256",
              "name": "endTime",
              "type": "uint256"
            },
            {
              "internalType": "uint256",
              "name": "yesVotes",
              "type": "uint256"
            },
            {
              "internalType": "uint256",
              "name": "noVotes",
              "type": "uint256"
            },
            {
              "internalType": "bool",
              "name": "executed",
              "type": "bool"
            }
          ],
          "internalType": "struct InvestmentDAO.Proposal[]",
          "name": "",
          "type": "tuple[]"
        }
      ],
      "stateMutability": "view",
      "type": "function"
    },
    {
      "inputs": [],
      "name": "getDAOATokenBalance",
      "outputs": [
        {
          "internalType": "uint256",
          "name": "",
          "type": "uint256"
        }
      ],
      "stateMutability": "view",
      "type": "function"
    },
    {
      "inputs": [
        {
          "internalType": "address",
          "name": "_address",
          "type": "address"
        }
      ],
      "name": "getMemberStatus",
      "outputs": [
        {
          "internalType": "bool",
          "name": "",
          "type": "bool"
        }
      ],
      "stateMutability": "view",
      "type": "function"
    },
    {
      "inputs": [
        {
          "internalType": "uint256",
          "name": "proposalId",
          "type": "uint256"
        },
        {
          "internalType": "address",
          "name": "_address",
          "type": "address"
        }
      ],
      "name": "getMemberVoteStatus",
      "outputs": [
        {
          "internalType": "bool",
          "name": "",
          "type": "bool"
        }
      ],
      "stateMutability": "view",
      "type": "function"
    },
    {
      "inputs": [],
      "name": "getMembers",
      "outputs": [
        {
          "components": [
            {
              "internalType": "address",
              "name": "memberAddress",
              "type": "address"
            },
            {
              "internalType": "uint256",
              "name": "tokenBalance",
              "type": "uint256"
            }
          ],
          "internalType": "struct InvestmentDAO.Member[]",
          "name": "",
          "type": "tuple[]"
        }
      ],
      "stateMutability": "view",
      "type": "function"
    },
    {
      "inputs": [
        {
          "internalType": "uint256",
          "name": "_proposalIndex",
          "type": "uint256"
        }
      ],
      "name": "getProposal",
      "outputs": [
        {
          "internalType": "address",
          "name": "creator",
          "type": "address"
        },
        {
          "internalType": "string",
          "name": "title",
          "type": "string"
        },
        {
          "internalType": "string",
          "name": "description",
          "type": "string"
        },
        {
          "internalType": "uint256",
          "name": "startTime",
          "type": "uint256"
        },
        {
          "internalType": "uint256",
          "name": "endTime",
          "type": "uint256"
        },
        {
          "internalType": "uint256",
          "name": "yesVotes",
          "type": "uint256"
        },
        {
          "internalType": "uint256",
          "name": "noVotes",
          "type": "uint256"
        },
        {
          "internalType": "bool",
          "name": "executed",
          "type": "bool"
        }
      ],
      "stateMutability": "view",
      "type": "function"
    },
    {
      "inputs": [
        {
          "internalType": "uint256",
          "name": "_proposalIndex",
          "type": "uint256"
        }
      ],
      "name": "getProposalStatus",
      "outputs": [
        {
          "internalType": "uint256",
          "name": "",
          "type": "uint256"
        }
      ],
      "stateMutability": "view",
      "type": "function"
    },
    {
      "inputs": [
        {
          "internalType": "address",
          "name": "_address",
          "type": "address"
        }
      ],
      "name": "getTokenBalance",
      "outputs": [
        {
          "internalType": "uint256",
          "name": "",
          "type": "uint256"
        }
      ],
      "stateMutability": "view",
      "type": "function"
    },
    {
      "inputs": [],
      "name": "getTreasuryBalance",
      "outputs": [
        {
          "internalType": "uint256",
          "name": "",
          "type": "uint256"
        }
      ],
      "stateMutability": "view",
      "type": "function"
    },
    {
      "inputs": [],
      "name": "getVoters",
      "outputs": [
        {
          "components": [
            {
              "internalType": "uint256",
              "name": "proposerIndex",
              "type": "uint256"
            },
            {
              "internalType": "address",
              "name": "voterAddress",
              "type": "address"
            },
            {
              "internalType": "uint256",
              "name": "voteChoice",
              "type": "uint256"
            }
          ],
          "internalType": "struct InvestmentDAO.Voter[]",
          "name": "",
          "type": "tuple[]"
        }
      ],
      "stateMutability": "view",
      "type": "function"
    },
    {
      "inputs": [],
      "name": "memberCount",
      "outputs": [
        {
          "internalType": "uint256",
          "name": "",
          "type": "uint256"
        }
      ],
      "stateMutability": "view",
      "type": "function"
    },
    {
      "inputs": [
        {
          "internalType": "uint256",
          "name": "",
          "type": "uint256"
        }
      ],
      "name": "members",
      "outputs": [
        {
          "internalType": "address",
          "name": "memberAddress",
          "type": "address"
        },
        {
          "internalType": "uint256",
          "name": "tokenBalance",
          "type": "uint256"
        }
      ],
      "stateMutability": "view",
      "type": "function"
    },
    {
      "inputs": [
        {
          "internalType": "address",
          "name": "",
          "type": "address"
        }
      ],
      "name": "membersMap",
      "outputs": [
        {
          "internalType": "address",
          "name": "memberAddress",
          "type": "address"
        },
        {
          "internalType": "uint256",
          "name": "tokenBalance",
          "type": "uint256"
        }
      ],
      "stateMutability": "view",
      "type": "function"
    },
    {
      "inputs": [],
      "name": "nft",
      "outputs": [
        {
          "internalType": "contract ERC1155",
          "name": "",
          "type": "address"
        }
      ],
      "stateMutability": "view",
      "type": "function"
    },
    {
      "inputs": [],
      "name": "proposalCount",
      "outputs": [
        {
          "internalType": "uint256",
          "name": "",
          "type": "uint256"
        }
      ],
      "stateMutability": "view",
      "type": "function"
    },
    {
      "inputs": [
        {
          "internalType": "uint256",
          "name": "",
          "type": "uint256"
        }
      ],
      "name": "proposals",
      "outputs": [
        {
          "internalType": "uint256",
          "name": "id",
          "type": "uint256"
        },
        {
          "internalType": "address",
          "name": "creator",
          "type": "address"
        },
        {
          "internalType": "string",
          "name": "title",
          "type": "string"
        },
        {
          "internalType": "string",
          "name": "description",
          "type": "string"
        },
        {
          "internalType": "uint256",
          "name": "startTime",
          "type": "uint256"
        },
        {
          "internalType": "uint256",
          "name": "endTime",
          "type": "uint256"
        },
        {
          "internalType": "uint256",
          "name": "yesVotes",
          "type": "uint256"
        },
        {
          "internalType": "uint256",
          "name": "noVotes",
          "type": "uint256"
        },
        {
          "internalType": "bool",
          "name": "executed",
          "type": "bool"
        }
      ],
      "stateMutability": "view",
      "type": "function"
    },
    {
      "inputs": [
        {
          "internalType": "address",
          "name": "_memberAddress",
          "type": "address"
        }
      ],
      "name": "removeMember",
      "outputs": [],
      "stateMutability": "nonpayable",
      "type": "function"
    },
    {
      "inputs": [
        {
          "internalType": "uint256",
          "name": "proposalId",
          "type": "uint256"
        }
      ],
      "name": "removeProposal",
      "outputs": [
        {
          "components": [
            {
              "internalType": "uint256",
              "name": "id",
              "type": "uint256"
            },
            {
              "internalType": "address",
              "name": "creator",
              "type": "address"
            },
            {
              "internalType": "string",
              "name": "title",
              "type": "string"
            },
            {
              "internalType": "string",
              "name": "description",
              "type": "string"
            },
            {
              "internalType": "uint256",
              "name": "startTime",
              "type": "uint256"
            },
            {
              "internalType": "uint256",
              "name": "endTime",
              "type": "uint256"
            },
            {
              "internalType": "uint256",
              "name": "yesVotes",
              "type": "uint256"
            },
            {
              "internalType": "uint256",
              "name": "noVotes",
              "type": "uint256"
            },
            {
              "internalType": "bool",
              "name": "executed",
              "type": "bool"
            }
          ],
          "internalType": "struct InvestmentDAO.Proposal",
          "name": "",
          "type": "tuple"
        }
      ],
      "stateMutability": "nonpayable",
      "type": "function"
    },
    {
      "inputs": [
        {
          "internalType": "uint256",
          "name": "amount",
          "type": "uint256"
        }
      ],
      "name": "stakeToken",
      "outputs": [],
      "stateMutability": "nonpayable",
      "type": "function"
    },
    {
      "inputs": [],
      "name": "token",
      "outputs": [
        {
          "internalType": "contract IERC20",
          "name": "",
          "type": "address"
        }
      ],
      "stateMutability": "view",
      "type": "function"
    },
    {
      "inputs": [
        {
          "internalType": "uint256",
          "name": "_proposalIndex",
          "type": "uint256"
        },
        {
          "internalType": "uint256",
          "name": "_choice",
          "type": "uint256"
        }
      ],
      "name": "vote",
      "outputs": [],
      "stateMutability": "nonpayable",
      "type": "function"
    },
    {
      "inputs": [
        {
          "internalType": "uint256",
          "name": "",
          "type": "uint256"
        }
      ],
      "name": "voters",
      "outputs": [
        {
          "internalType": "uint256",
          "name": "proposerIndex",
          "type": "uint256"
        },
        {
          "internalType": "address",
          "name": "voterAddress",
          "type": "address"
        },
        {
          "internalType": "uint256",
          "name": "voteChoice",
          "type": "uint256"
        }
      ],
      "stateMutability": "view",
      "type": "function"
    },
    {
      "inputs": [],
      "name": "votingPeriod",
      "outputs": [
        {
          "internalType": "uint256",
          "name": "",
          "type": "uint256"
        }
      ],
      "stateMutability": "view",
      "type": "function"
    },
    {
      "inputs": [
        {
          "internalType": "address",
          "name": "",
          "type": "address"
        }
      ],
      "name": "whiteListed",
      "outputs": [
        {
          "internalType": "bool",
          "name": "",
          "type": "bool"
        }
      ],
      "stateMutability": "view",
      "type": "function"
    }
  ],
  "bytecode": "0x60806040523480156200001157600080fd5b506040516200a9743803806200a97483398181016040528101906200003791906200037a565b81600160006101000a81548173ffffffffffffffffffffffffffffffffffffffff021916908373ffffffffffffffffffffffffffffffffffffffff16021790555080600260006101000a81548173ffffffffffffffffffffffffffffffffffffffff021916908373ffffffffffffffffffffffffffffffffffffffff160217905550604051620000c790620002f4565b604051809103906000f080158015620000e4573d6000803e3d6000fd5b50601060006101000a81548173ffffffffffffffffffffffffffffffffffffffff021916908373ffffffffffffffffffffffffffffffffffffffff160217905550604051620001339062000302565b604051809103906000f08015801562000150573d6000803e3d6000fd5b50600f60006101000a81548173ffffffffffffffffffffffffffffffffffffffff021916908373ffffffffffffffffffffffffffffffffffffffff160217905550336000806101000a81548173ffffffffffffffffffffffffffffffffffffffff021916908373ffffffffffffffffffffffffffffffffffffffff16021790555033600c60008060009054906101000a900473ffffffffffffffffffffffffffffffffffffffff1673ffffffffffffffffffffffffffffffffffffffff1673ffffffffffffffffffffffffffffffffffffffff16815260200190815260200160002060000160006101000a81548173ffffffffffffffffffffffffffffffffffffffff021916908373ffffffffffffffffffffffffffffffffffffffff1602179055506001600d60008060009054906101000a900473ffffffffffffffffffffffffffffffffffffffff1673ffffffffffffffffffffffffffffffffffffffff1673ffffffffffffffffffffffffffffffffffffffff16815260200190815260200160002060006101000a81548160ff0219169083151502179055505050620003c1565b61154f8062005b1f83390190565b613906806200706e83390190565b600080fd5b600073ffffffffffffffffffffffffffffffffffffffff82169050919050565b6000620003428262000315565b9050919050565b620003548162000335565b81146200036057600080fd5b50565b600081519050620003748162000349565b92915050565b6000806040838503121562000394576200039362000310565b5b6000620003a48582860162000363565b9250506020620003b78582860162000363565b9150509250929050565b61574e80620003d16000396000f3fe6080604052600436106101cd5760003560e01c8063872ea68a116100f7578063cda6b84711610095578063dde8535f11610064578063dde8535f146106a9578063e22393b8146106e6578063fa0fca8414610723578063fc0c546a14610760576101cd565b8063cda6b847146105eb578063cdd7225314610614578063da35c6641461063f578063da58c7d91461066a576101cd565b8063b384abef116100d1578063b384abef14610516578063bbde5b251461053f578063c7f758a81461057c578063cceb68f5146105c0576101cd565b8063872ea68a146104825780639b5655dc146104c05780639eab5253146104eb576101cd565b8063401853b71161016f5780635daf08ca1161013e5780635daf08ca146103c757806368f8fc10146104055780636b5e17661461042e5780637b62654714610457576101cd565b8063401853b71461030657806347ccca02146103435780634ce4e6c71461036e57806351ed8288146103ab576101cd565b80630b1ca49a116101ab5780630b1ca49a1461025957806311aee380146102825780631ab76712146102ad5780633aecd0e3146102c9576101cd565b8063013cf08b146101d2578063029d010d1461021757806302a251a31461022e575b600080fd5b3480156101de57600080fd5b506101f960048036038101906101f49190613a9c565b61078b565b60405161020e99989796959493929190613bc4565b60405180910390f35b34801561022357600080fd5b5061022c610926565b005b34801561023a57600080fd5b50610243610ea1565b6040516102509190613c5f565b60405180910390f35b34801561026557600080fd5b50610280600480360381019061027b9190613ca6565b610ea7565b005b34801561028e57600080fd5b50610297611308565b6040516102a49190613c5f565b60405180910390f35b6102c760048036038101906102c29190613cd3565b61130e565b005b3480156102d557600080fd5b506102f060048036038101906102eb9190613ca6565b611807565b6040516102fd9190613c5f565b60405180910390f35b34801561031257600080fd5b5061032d60048036038101906103289190613a9c565b6118ac565b60405161033a9190613c5f565b60405180910390f35b34801561034f57600080fd5b50610358611969565b6040516103659190613d72565b60405180910390f35b34801561037a57600080fd5b5061039560048036038101906103909190613a9c565b61198f565b6040516103a29190613ed0565b60405180910390f35b6103c560048036038101906103c09190613a9c565b611d97565b005b3480156103d357600080fd5b506103ee60048036038101906103e99190613a9c565b611f07565b6040516103fc929190613ef2565b60405180910390f35b34801561041157600080fd5b5061042c60048036038101906104279190613f1b565b611f5b565b005b34801561043a57600080fd5b5061045560048036038101906104509190613fc0565b6121c0565b005b34801561046357600080fd5b5061046c612716565b6040516104799190613c5f565b60405180910390f35b34801561048e57600080fd5b506104a960048036038101906104a49190613ca6565b6127b9565b6040516104b7929190613ef2565b60405180910390f35b3480156104cc57600080fd5b506104d56127fd565b6040516104e29190613c5f565b60405180910390f35b3480156104f757600080fd5b50610500612805565b60405161050d9190614145565b60405180910390f35b34801561052257600080fd5b5061053d60048036038101906105389190613cd3565b6128c4565b005b34801561054b57600080fd5b5061056660048036038101906105619190613ca6565b612fd6565b6040516105739190614167565b60405180910390f35b34801561058857600080fd5b506105a3600480360381019061059e9190613a9c565b612ff6565b6040516105b7989796959493929190614182565b60405180910390f35b3480156105cc57600080fd5b506105d5613285565b6040516105e2919061439c565b60405180910390f35b3480156105f757600080fd5b50610612600480360381019061060d9190613a9c565b6134ac565b005b34801561062057600080fd5b5061062961372a565b60405161063691906144af565b60405180910390f35b34801561064b57600080fd5b506106546137f3565b6040516106619190613c5f565b60405180910390f35b34801561067657600080fd5b50610691600480360381019061068c9190613a9c565b6137f9565b6040516106a0939291906144d1565b60405180910390f35b3480156106b557600080fd5b506106d060048036038101906106cb9190613ca6565b613853565b6040516106dd9190614167565b60405180910390f35b3480156106f257600080fd5b5061070d60048036038101906107089190614508565b6138ed565b60405161071a9190614167565b60405180910390f35b34801561072f57600080fd5b5061074a60048036038101906107459190613ca6565b613955565b6040516107579190614167565b60405180910390f35b34801561076c57600080fd5b50610775613975565b6040516107829190614569565b60405180910390f35b6003818154811061079b57600080fd5b90600052602060002090600902016000915090508060000154908060010160009054906101000a900473ffffffffffffffffffffffffffffffffffffffff16908060020180546107ea906145b3565b80601f0160208091040260200160405190810160405280929190818152602001828054610816906145b3565b80156108635780601f1061083857610100808354040283529160200191610863565b820191906000526020600020905b81548152906001019060200180831161084657829003601f168201915b505050505090806003018054610878906145b3565b80601f01602080910402602001604051908101604052809291908181526020018280546108a4906145b3565b80156108f15780601f106108c6576101008083540402835291602001916108f1565b820191906000526020600020905b8154815290600101906020018083116108d457829003601f168201915b5050505050908060040154908060050154908060060154908060070154908060080160009054906101000a900460ff16905089565b6000600160009054906101000a900473ffffffffffffffffffffffffffffffffffffffff1673ffffffffffffffffffffffffffffffffffffffff166370a08231336040518263ffffffff1660e01b815260040161098391906145e4565b602060405180830381865afa1580156109a0573d6000803e3d6000fd5b505050506040513d601f19601f820116820180604052508101906109c49190614614565b11610a04576040517f08c379a00000000000000000000000000000000000000000000000000000000081526004016109fb9061468d565b60405180910390fd5b600073ffffffffffffffffffffffffffffffffffffffff163373ffffffffffffffffffffffffffffffffffffffff1603610a73576040517f08c379a0000000000000000000000000000000000000000000000000000000008152600401610a6a906146f9565b60405180910390fd5b600073ffffffffffffffffffffffffffffffffffffffff16600c60003373ffffffffffffffffffffffffffffffffffffffff1673ffffffffffffffffffffffffffffffffffffffff16815260200190815260200160002060000160009054906101000a900473ffffffffffffffffffffffffffffffffffffffff1673ffffffffffffffffffffffffffffffffffffffff1614610b44576040517f08c379a0000000000000000000000000000000000000000000000000000000008152600401610b3b90614765565b60405180910390fd5b6000600c60003373ffffffffffffffffffffffffffffffffffffffff1673ffffffffffffffffffffffffffffffffffffffff1681526020019081526020016000209050338160000160006101000a81548173ffffffffffffffffffffffffffffffffffffffff021916908373ffffffffffffffffffffffffffffffffffffffff160217905550600160009054906101000a900473ffffffffffffffffffffffffffffffffffffffff1673ffffffffffffffffffffffffffffffffffffffff166370a08231336040518263ffffffff1660e01b8152600401610c2591906145e4565b602060405180830381865afa158015610c42573d6000803e3d6000fd5b505050506040513d601f19601f82011682018060405250810190610c669190614614565b8160010181905550600560405180604001604052803373ffffffffffffffffffffffffffffffffffffffff168152602001600160009054906101000a900473ffffffffffffffffffffffffffffffffffffffff1673ffffffffffffffffffffffffffffffffffffffff166370a08231336040518263ffffffff1660e01b8152600401610cf291906145e4565b602060405180830381865afa158015610d0f573d6000803e3d6000fd5b505050506040513d601f19601f82011682018060405250810190610d339190614614565b815250908060018154018082558091505060019003906000526020600020906002020160009091909190915060008201518160000160006101000a81548173ffffffffffffffffffffffffffffffffffffffff021916908373ffffffffffffffffffffffffffffffffffffffff160217905550602082015181600101555050600a6000815480929190610dc5906147b4565b91905055507f8c79ca5dc8dffd30e0ae906c79b4e5d0b55e6e50c77cb39a5acc9f132f13efb433600160009054906101000a900473ffffffffffffffffffffffffffffffffffffffff1673ffffffffffffffffffffffffffffffffffffffff166370a08231336040518263ffffffff1660e01b8152600401610e4791906145e4565b602060405180830381865afa158015610e64573d6000803e3d6000fd5b505050506040513d601f19601f82011682018060405250810190610e889190614614565b604051610e96929190613ef2565b60405180910390a150565b60095481565b60008054906101000a905050601060149054906101000a900460ff1615610f03576040517f08c379a0000000000000000000000000000000000000000000000000000000008152600401610efa90614848565b60405180910390fd5b6001601060146101000a81548160ff0219169083151502179055508073ffffffffffffffffffffffffffffffffffffffff16600c60008373ffffffffffffffffffffffffffffffffffffffff1673ffffffffffffffffffffffffffffffffffffffff16815260200190815260200160002060000160009054906101000a900473ffffffffffffffffffffffffffffffffffffffff1673ffffffffffffffffffffffffffffffffffffffff1614610fee576040517f08c379a0000000000000000000000000000000000000000000000000000000008152600401610fe5906148b4565b60405180910390fd5b6000600160009054906101000a900473ffffffffffffffffffffffffffffffffffffffff1673ffffffffffffffffffffffffffffffffffffffff166370a08231836040518263ffffffff1660e01b815260040161104b91906145e4565b602060405180830381865afa158015611068573d6000803e3d6000fd5b505050506040513d601f19601f8201168201806040525081019061108c9190614614565b11156112ea576000600160009054906101000a900473ffffffffffffffffffffffffffffffffffffffff1673ffffffffffffffffffffffffffffffffffffffff166370a08231306040518263ffffffff1660e01b81526004016110ef91906145e4565b602060405180830381865afa15801561110c573d6000803e3d6000fd5b505050506040513d601f19601f820116820180604052508101906111309190614614565b11611170576040517f08c379a000000000000000000000000000000000000000000000000000000000815260040161116790614920565b60405180910390fd5b3073ffffffffffffffffffffffffffffffffffffffff166108fc6064600160009054906101000a900473ffffffffffffffffffffffffffffffffffffffff1673ffffffffffffffffffffffffffffffffffffffff166370a08231856040518263ffffffff1660e01b81526004016111e791906145e4565b602060405180830381865afa158015611204573d6000803e3d6000fd5b505050506040513d601f19601f820116820180604052508101906112289190614614565b611232919061496f565b9081150290604051600060405180830381858888f1935050505015801561125d573d6000803e3d6000fd5b506005600160058054905061127291906149a0565b81548110611283576112826149d4565b5b90600052602060002090505060058054806112a1576112a0614a03565b5b6001900381819060005260206000209060020201600080820160006101000a81549073ffffffffffffffffffffffffffffffffffffffff02191690556001820160009055505090555b6000601060146101000a81548160ff02191690831515021790555050565b600a5481565b60008054906101000a90505081426201518060038381548110611334576113336149d4565b5b9060005260206000209060090201600501546113509190614a32565b11611390576040517f08c379a000000000000000000000000000000000000000000000000000000000815260040161138790614ab2565b60405180910390fd5b601060149054906101000a900460ff16156113e0576040517f08c379a00000000000000000000000000000000000000000000000000000000081526004016113d790614848565b60405180910390fd5b6001601060146101000a81548160ff021916908315150217905550600854831061143f576040517f08c379a000000000000000000000000000000000000000000000000000000000815260040161143690614b1e565b60405180910390fd5b60038381548110611453576114526149d4565b5b906000526020600020906009020160080160009054906101000a900460ff166114b1576040517f08c379a00000000000000000000000000000000000000000000000000000000081526004016114a890614b8a565b60405180910390fd5b6000600384815481106114c7576114c66149d4565b5b906000526020600020906009020160405180610120016040529081600082015481526020016001820160009054906101000a900473ffffffffffffffffffffffffffffffffffffffff1673ffffffffffffffffffffffffffffffffffffffff1673ffffffffffffffffffffffffffffffffffffffff168152602001600282018054611551906145b3565b80601f016020809104026020016040519081016040528092919081815260200182805461157d906145b3565b80156115ca5780601f1061159f576101008083540402835291602001916115ca565b820191906000526020600020905b8154815290600101906020018083116115ad57829003601f168201915b505050505081526020016003820180546115e3906145b3565b80601f016020809104026020016040519081016040528092919081815260200182805461160f906145b3565b801561165c5780601f106116315761010080835404028352916020019161165c565b820191906000526020600020905b81548152906001019060200180831161163f57829003601f168201915b50505050508152602001600482015481526020016005820154815260200160068201548152602001600782015481526020016008820160009054906101000a900460ff16151515158152505090506009544210156116ef576040517f08c379a00000000000000000000000000000000000000000000000000000000081526004016116e690614bf6565b60405180910390fd5b8060e001518160c0015111156117e557344711611741576040517f08c379a000000000000000000000000000000000000000000000000000000000815260040161173890614c62565b60405180910390fd5b600f60009054906101000a900473ffffffffffffffffffffffffffffffffffffffff1673ffffffffffffffffffffffffffffffffffffffff1663d96a094a846040518263ffffffff1660e01b815260040161179c9190613c5f565b600060405180830381600087803b1580156117b657600080fd5b505af11580156117ca573d6000803e3d6000fd5b505050506001816101000190151590811515815250506117e6565b5b506000601060146101000a81548160ff021916908315150217905550505050565b6000600160009054906101000a900473ffffffffffffffffffffffffffffffffffffffff1673ffffffffffffffffffffffffffffffffffffffff166370a08231836040518263ffffffff1660e01b815260040161186491906145e4565b602060405180830381865afa158015611881573d6000803e3d6000fd5b505050506040513d601f19601f820116820180604052508101906118a59190614614565b9050919050565b600080600383815481106118c3576118c26149d4565b5b9060005260206000209060090201600401544210156118e5576000905061194e565b600383815481106118f9576118f86149d4565b5b906000526020600020906009020160050154421161191a576001905061194d565b6003838154811061192e5761192d6149d4565b5b90600052602060002090600902016005015442111561194c57600290505b5b5b80600281111561196157611960614c82565b5b915050919050565b600260009054906101000a900473ffffffffffffffffffffffffffffffffffffffff1681565b61199761399b565b60085482106119db576040517f08c379a00000000000000000000000000000000000000000000000000000000081526004016119d290614b1e565b60405180910390fd5b3373ffffffffffffffffffffffffffffffffffffffff1660038381548110611a0657611a056149d4565b5b906000526020600020906009020160010160009054906101000a900473ffffffffffffffffffffffffffffffffffffffff1673ffffffffffffffffffffffffffffffffffffffff1614611a8e576040517f08c379a0000000000000000000000000000000000000000000000000000000008152600401611a8590614d23565b60405180910390fd5b600060038054905011611ad6576040517f08c379a0000000000000000000000000000000000000000000000000000000008152600401611acd90614d8f565b60405180910390fd5b600060036001600380549050611aec91906149a0565b81548110611afd57611afc6149d4565b5b906000526020600020906009020190506003805480611b1f57611b1e614a03565b5b60019003818190600052602060002090600902016000808201600090556001820160006101000a81549073ffffffffffffffffffffffffffffffffffffffff0219169055600282016000611b7391906139ff565b600382016000611b8391906139ff565b60048201600090556005820160009055600682016000905560078201600090556008820160006101000a81549060ff0219169055505090558060405180610120016040529081600082015481526020016001820160009054906101000a900473ffffffffffffffffffffffffffffffffffffffff1673ffffffffffffffffffffffffffffffffffffffff1673ffffffffffffffffffffffffffffffffffffffff168152602001600282018054611c38906145b3565b80601f0160208091040260200160405190810160405280929190818152602001828054611c64906145b3565b8015611cb15780601f10611c8657610100808354040283529160200191611cb1565b820191906000526020600020905b815481529060010190602001808311611c9457829003601f168201915b50505050508152602001600382018054611cca906145b3565b80601f0160208091040260200160405190810160405280929190818152602001828054611cf6906145b3565b8015611d435780601f10611d1857610100808354040283529160200191611d43565b820191906000526020600020905b815481529060010190602001808311611d2657829003601f168201915b50505050508152602001600482015481526020016005820154815260200160068201548152602001600782015481526020016008820160009054906101000a900460ff161515151581525050915050919050565b601060149054906101000a900460ff1615611de7576040517f08c379a0000000000000000000000000000000000000000000000000000000008152600401611dde90614848565b60405180910390fd5b6001601060146101000a81548160ff02191690831515021790555060003373ffffffffffffffffffffffffffffffffffffffff163111611e5c576040517f08c379a0000000000000000000000000000000000000000000000000000000008152600401611e5390614dfb565b60405180910390fd5b600f60009054906101000a900473ffffffffffffffffffffffffffffffffffffffff1673ffffffffffffffffffffffffffffffffffffffff1663d96a094a826040518263ffffffff1660e01b8152600401611eb79190613c5f565b600060405180830381600087803b158015611ed157600080fd5b505af1158015611ee5573d6000803e3d6000fd5b505050506000601060146101000a81548160ff02191690831515021790555050565b60058181548110611f1757600080fd5b90600052602060002090600202016000915090508060000160009054906101000a900473ffffffffffffffffffffffffffffffffffffffff16908060010154905082565b601060149054906101000a900460ff1615611fab576040517f08c379a0000000000000000000000000000000000000000000000000000000008152600401611fa290614848565b60405180910390fd5b6001601060146101000a81548160ff02191690831515021790555080600160009054906101000a900473ffffffffffffffffffffffffffffffffffffffff1673ffffffffffffffffffffffffffffffffffffffff166370a08231306040518263ffffffff1660e01b815260040161202291906145e4565b602060405180830381865afa15801561203f573d6000803e3d6000fd5b505050506040513d601f19601f820116820180604052508101906120639190614614565b116120a3576040517f08c379a000000000000000000000000000000000000000000000000000000000815260040161209a90614920565b60405180910390fd5b600160009054906101000a900473ffffffffffffffffffffffffffffffffffffffff1673ffffffffffffffffffffffffffffffffffffffff166323b872dd3084846040518463ffffffff1660e01b815260040161210293929190614e1b565b6020604051808303816000875af1158015612121573d6000803e3d6000fd5b505050506040513d601f19601f820116820180604052508101906121459190614e7e565b503073ffffffffffffffffffffffffffffffffffffffff166108fc68056bc75e2d6310000083612175919061496f565b9081150290604051600060405180830381858888f193505050501580156121a0573d6000803e3d6000fd5b506000601060146101000a81548160ff0219169083151502179055505050565b3373ffffffffffffffffffffffffffffffffffffffff16600c60003373ffffffffffffffffffffffffffffffffffffffff1673ffffffffffffffffffffffffffffffffffffffff16815260200190815260200160002060000160009054906101000a900473ffffffffffffffffffffffffffffffffffffffff1673ffffffffffffffffffffffffffffffffffffffff1614612290576040517f08c379a000000000000000000000000000000000000000000000000000000000815260040161228790614f1d565b60405180910390fd5b68056bc75e2d63100000600160009054906101000a900473ffffffffffffffffffffffffffffffffffffffff1673ffffffffffffffffffffffffffffffffffffffff166370a08231336040518263ffffffff1660e01b81526004016122f591906145e4565b602060405180830381865afa158015612312573d6000803e3d6000fd5b505050506040513d601f19601f820116820180604052508101906123369190614614565b11612376576040517f08c379a000000000000000000000000000000000000000000000000000000000815260040161236d90614faf565b60405180910390fd5b4282116123b8576040517f08c379a00000000000000000000000000000000000000000000000000000000081526004016123af90615041565b60405180910390fd5b8181116123fa576040517f08c379a00000000000000000000000000000000000000000000000000000000081526004016123f1906150d3565b60405180910390fd5b3373ffffffffffffffffffffffffffffffffffffffff16600c60003373ffffffffffffffffffffffffffffffffffffffff1673ffffffffffffffffffffffffffffffffffffffff16815260200190815260200160002060000160009054906101000a900473ffffffffffffffffffffffffffffffffffffffff1673ffffffffffffffffffffffffffffffffffffffff16146124ca576040517f08c379a00000000000000000000000000000000000000000000000000000000081526004016124c190614f1d565b60405180910390fd5b600360405180610120016040528060085481526020013373ffffffffffffffffffffffffffffffffffffffff16815260200188888080601f016020809104026020016040519081016040528093929190818152602001838380828437600081840152601f19601f82011690508083019250505050505050815260200186868080601f016020809104026020016040519081016040528093929190818152602001838380828437600081840152601f19601f82011690508083019250505050505050815260200184815260200183815260200160008152602001600081526020016000151581525090806001815401808255809150506001900390600052602060002090600902016000909190919091506000820151816000015560208201518160010160006101000a81548173ffffffffffffffffffffffffffffffffffffffff021916908373ffffffffffffffffffffffffffffffffffffffff160217905550604082015181600201908161264091906152c4565b50606082015181600301908161265691906152c4565b506080820151816004015560a0820151816005015560c0820151816006015560e082015181600701556101008201518160080160006101000a81548160ff0219169083151502179055505050600860008154809291906126b5906147b4565b91905055507fd6b0b08c4ffc17964758389955af67e78f9c97140393526749d4994031e62ef260016003805490506126ed91906149a0565b87878787878760405161270697969594939291906153d2565b60405180910390a1505050505050565b6000600160009054906101000a900473ffffffffffffffffffffffffffffffffffffffff1673ffffffffffffffffffffffffffffffffffffffff166370a08231306040518263ffffffff1660e01b815260040161277391906145e4565b602060405180830381865afa158015612790573d6000803e3d6000fd5b505050506040513d601f19601f820116820180604052508101906127b49190614614565b905090565b600c6020528060005260406000206000915090508060000160009054906101000a900473ffffffffffffffffffffffffffffffffffffffff16908060010154905082565b600047905090565b60606005805480602002602001604051908101604052809291908181526020016000905b828210156128bb57838290600052602060002090600202016040518060400160405290816000820160009054906101000a900473ffffffffffffffffffffffffffffffffffffffff1673ffffffffffffffffffffffffffffffffffffffff1673ffffffffffffffffffffffffffffffffffffffff16815260200160018201548152505081526020019060010190612829565b50505050905090565b3373ffffffffffffffffffffffffffffffffffffffff16600c60003373ffffffffffffffffffffffffffffffffffffffff1673ffffffffffffffffffffffffffffffffffffffff16815260200190815260200160002060000160009054906101000a900473ffffffffffffffffffffffffffffffffffffffff1673ffffffffffffffffffffffffffffffffffffffff1614612994576040517f08c379a000000000000000000000000000000000000000000000000000000000815260040161298b90614f1d565b60405180910390fd5b600382815481106129a8576129a76149d4565b5b906000526020600020906009020160040154600383815481106129ce576129cd6149d4565b5b90600052602060002090600902016005015481421015612a23576040517f08c379a0000000000000000000000000000000000000000000000000000000008152600401612a1a90615483565b60405180910390fd5b80421115612a66576040517f08c379a0000000000000000000000000000000000000000000000000000000008152600401612a5d906154ef565b60405180910390fd5b6008548410612aaa576040517f08c379a0000000000000000000000000000000000000000000000000000000008152600401612aa190614b1e565b60405180910390fd5b600b60003373ffffffffffffffffffffffffffffffffffffffff1673ffffffffffffffffffffffffffffffffffffffff168152602001908152602001600020600085815260200190815260200160002060009054906101000a900460ff1615612b48576040517f08c379a0000000000000000000000000000000000000000000000000000000008152600401612b3f90615581565b60405180910390fd5b6802b5e3af16b1880000600160009054906101000a900473ffffffffffffffffffffffffffffffffffffffff1673ffffffffffffffffffffffffffffffffffffffff166370a08231336040518263ffffffff1660e01b8152600401612bad91906145e4565b602060405180830381865afa158015612bca573d6000803e3d6000fd5b505050506040513d601f19601f82011682018060405250810190612bee9190614614565b11612c2e576040517f08c379a0000000000000000000000000000000000000000000000000000000008152600401612c2590615613565b60405180910390fd5b3373ffffffffffffffffffffffffffffffffffffffff16600c60003373ffffffffffffffffffffffffffffffffffffffff1673ffffffffffffffffffffffffffffffffffffffff16815260200190815260200160002060000160009054906101000a900473ffffffffffffffffffffffffffffffffffffffff1673ffffffffffffffffffffffffffffffffffffffff1614612cfe576040517f08c379a0000000000000000000000000000000000000000000000000000000008152600401612cf590614f1d565b60405180910390fd5b6000600160009054906101000a900473ffffffffffffffffffffffffffffffffffffffff1673ffffffffffffffffffffffffffffffffffffffff166370a08231336040518263ffffffff1660e01b8152600401612d5b91906145e4565b602060405180830381865afa158015612d78573d6000803e3d6000fd5b505050506040513d601f19601f82011682018060405250810190612d9c9190614614565b905060018403612de7578060038681548110612dbb57612dba6149d4565b5b90600052602060002090600902016006016000828254612ddb9190614a32565b92505081905550612e24565b8060038681548110612dfc57612dfb6149d4565b5b90600052602060002090600902016007016000828254612e1c9190614a32565b925050819055505b600460405180606001604052808781526020013373ffffffffffffffffffffffffffffffffffffffff1681526020018681525090806001815401808255809150506001900390600052602060002090600302016000909190919091506000820151816000015560208201518160010160006101000a81548173ffffffffffffffffffffffffffffffffffffffff021916908373ffffffffffffffffffffffffffffffffffffffff1602179055506040820151816002015550506001600b60003373ffffffffffffffffffffffffffffffffffffffff1673ffffffffffffffffffffffffffffffffffffffff168152602001908152602001600020600087815260200190815260200160002060006101000a81548160ff0219169083151502179055507f7bbc702cfc0c62aaa977159d2c8ff0642f94715abcc34af64106c1b15c2af0a085338660038981548110612f7e57612f7d6149d4565b5b90600052602060002090600902016006015460038a81548110612fa457612fa36149d4565b5b906000526020600020906009020160070154604051612fc7959493929190615633565b60405180910390a15050505050565b600e6020528060005260406000206000915054906101000a900460ff1681565b600060608060008060008060006008548910613047576040517f08c379a000000000000000000000000000000000000000000000000000000000815260040161303e90614b1e565b60405180910390fd5b600060038a8154811061305d5761305c6149d4565b5b906000526020600020906009020160405180610120016040529081600082015481526020016001820160009054906101000a900473ffffffffffffffffffffffffffffffffffffffff1673ffffffffffffffffffffffffffffffffffffffff1673ffffffffffffffffffffffffffffffffffffffff1681526020016002820180546130e7906145b3565b80601f0160208091040260200160405190810160405280929190818152602001828054613113906145b3565b80156131605780601f1061313557610100808354040283529160200191613160565b820191906000526020600020905b81548152906001019060200180831161314357829003601f168201915b50505050508152602001600382018054613179906145b3565b80601f01602080910402602001604051908101604052809291908181526020018280546131a5906145b3565b80156131f25780601f106131c7576101008083540402835291602001916131f2565b820191906000526020600020905b8154815290600101906020018083116131d557829003601f168201915b50505050508152602001600482015481526020016005820154815260200160068201548152602001600782015481526020016008820160009054906101000a900460ff161515151581525050905080602001518160400151826060015183608001518460a001518560c001518660e001518761010001519850985098509850985098509850985050919395975091939597565b60606003805480602002602001604051908101604052809291908181526020016000905b828210156134a3578382906000526020600020906009020160405180610120016040529081600082015481526020016001820160009054906101000a900473ffffffffffffffffffffffffffffffffffffffff1673ffffffffffffffffffffffffffffffffffffffff1673ffffffffffffffffffffffffffffffffffffffff16815260200160028201805461333d906145b3565b80601f0160208091040260200160405190810160405280929190818152602001828054613369906145b3565b80156133b65780601f1061338b576101008083540402835291602001916133b6565b820191906000526020600020905b81548152906001019060200180831161339957829003601f168201915b505050505081526020016003820180546133cf906145b3565b80601f01602080910402602001604051908101604052809291908181526020018280546133fb906145b3565b80156134485780601f1061341d57610100808354040283529160200191613448565b820191906000526020600020905b81548152906001019060200180831161342b57829003601f168201915b50505050508152602001600482015481526020016005820154815260200160068201548152602001600782015481526020016008820160009054906101000a900460ff161515151581525050815260200190600101906132a9565b50505050905090565b601060149054906101000a900460ff16156134fc576040517f08c379a00000000000000000000000000000000000000000000000000000000081526004016134f390614848565b60405180910390fd5b6001601060146101000a81548160ff0219169083151502179055503373ffffffffffffffffffffffffffffffffffffffff16600c60003373ffffffffffffffffffffffffffffffffffffffff1673ffffffffffffffffffffffffffffffffffffffff16815260200190815260200160002060000160009054906101000a900473ffffffffffffffffffffffffffffffffffffffff1673ffffffffffffffffffffffffffffffffffffffff16146135e7576040517f08c379a00000000000000000000000000000000000000000000000000000000081526004016135de906156f8565b60405180910390fd5b6000600160009054906101000a900473ffffffffffffffffffffffffffffffffffffffff1673ffffffffffffffffffffffffffffffffffffffff166370a08231336040518263ffffffff1660e01b815260040161364491906145e4565b602060405180830381865afa158015613661573d6000803e3d6000fd5b505050506040513d601f19601f820116820180604052508101906136859190614614565b116136c5576040517f08c379a00000000000000000000000000000000000000000000000000000000081526004016136bc90614920565b60405180910390fd5b3073ffffffffffffffffffffffffffffffffffffffff166108fc829081150290604051600060405180830381858888f1935050505015801561370b573d6000803e3d6000fd5b506000601060146101000a81548160ff02191690831515021790555050565b60606004805480602002602001604051908101604052809291908181526020016000905b828210156137ea5783829060005260206000209060030201604051806060016040529081600082015481526020016001820160009054906101000a900473ffffffffffffffffffffffffffffffffffffffff1673ffffffffffffffffffffffffffffffffffffffff1673ffffffffffffffffffffffffffffffffffffffff1681526020016002820154815250508152602001906001019061374e565b50505050905090565b60085481565b6004818154811061380957600080fd5b90600052602060002090600302016000915090508060000154908060010160009054906101000a900473ffffffffffffffffffffffffffffffffffffffff16908060020154905083565b60008173ffffffffffffffffffffffffffffffffffffffff16600c60008473ffffffffffffffffffffffffffffffffffffffff1673ffffffffffffffffffffffffffffffffffffffff16815260200190815260200160002060000160009054906101000a900473ffffffffffffffffffffffffffffffffffffffff1673ffffffffffffffffffffffffffffffffffffffff16149050919050565b6000600b60008373ffffffffffffffffffffffffffffffffffffffff1673ffffffffffffffffffffffffffffffffffffffff168152602001908152602001600020600084815260200190815260200160002060009054906101000a900460ff16905092915050565b600d6020528060005260406000206000915054906101000a900460ff1681565b600160009054906101000a900473ffffffffffffffffffffffffffffffffffffffff1681565b60405180610120016040528060008152602001600073ffffffffffffffffffffffffffffffffffffffff1681526020016060815260200160608152602001600081526020016000815260200160008152602001600081526020016000151581525090565b508054613a0b906145b3565b6000825580601f10613a1d5750613a3c565b601f016020900490600052602060002090810190613a3b9190613a3f565b5b50565b5b80821115613a58576000816000905550600101613a40565b5090565b600080fd5b600080fd5b6000819050919050565b613a7981613a66565b8114613a8457600080fd5b50565b600081359050613a9681613a70565b92915050565b600060208284031215613ab257613ab1613a5c565b5b6000613ac084828501613a87565b91505092915050565b613ad281613a66565b82525050565b600073ffffffffffffffffffffffffffffffffffffffff82169050919050565b6000613b0382613ad8565b9050919050565b613b1381613af8565b82525050565b600081519050919050565b600082825260208201905092915050565b60005b83811015613b53578082015181840152602081019050613b38565b60008484015250505050565b6000601f19601f8301169050919050565b6000613b7b82613b19565b613b858185613b24565b9350613b95818560208601613b35565b613b9e81613b5f565b840191505092915050565b60008115159050919050565b613bbe81613ba9565b82525050565b600061012082019050613bda600083018c613ac9565b613be7602083018b613b0a565b8181036040830152613bf9818a613b70565b90508181036060830152613c0d8189613b70565b9050613c1c6080830188613ac9565b613c2960a0830187613ac9565b613c3660c0830186613ac9565b613c4360e0830185613ac9565b613c51610100830184613bb5565b9a9950505050505050505050565b6000602082019050613c746000830184613ac9565b92915050565b613c8381613af8565b8114613c8e57600080fd5b50565b600081359050613ca081613c7a565b92915050565b600060208284031215613cbc57613cbb613a5c565b5b6000613cca84828501613c91565b91505092915050565b60008060408385031215613cea57613ce9613a5c565b5b6000613cf885828601613a87565b9250506020613d0985828601613a87565b9150509250929050565b6000819050919050565b6000613d38613d33613d2e84613ad8565b613d13565b613ad8565b9050919050565b6000613d4a82613d1d565b9050919050565b6000613d5c82613d3f565b9050919050565b613d6c81613d51565b82525050565b6000602082019050613d876000830184613d63565b92915050565b613d9681613a66565b82525050565b613da581613af8565b82525050565b600082825260208201905092915050565b6000613dc782613b19565b613dd18185613dab565b9350613de1818560208601613b35565b613dea81613b5f565b840191505092915050565b613dfe81613ba9565b82525050565b600061012083016000830151613e1d6000860182613d8d565b506020830151613e306020860182613d9c565b5060408301518482036040860152613e488282613dbc565b91505060608301518482036060860152613e628282613dbc565b9150506080830151613e776080860182613d8d565b5060a0830151613e8a60a0860182613d8d565b5060c0830151613e9d60c0860182613d8d565b5060e0830151613eb060e0860182613d8d565b50610100830151613ec5610100860182613df5565b508091505092915050565b60006020820190508181036000830152613eea8184613e04565b905092915050565b6000604082019050613f076000830185613b0a565b613f146020830184613ac9565b9392505050565b60008060408385031215613f3257613f31613a5c565b5b6000613f4085828601613c91565b9250506020613f5185828601613a87565b9150509250929050565b600080fd5b600080fd5b600080fd5b60008083601f840112613f8057613f7f613f5b565b5b8235905067ffffffffffffffff811115613f9d57613f9c613f60565b5b602083019150836001820283011115613fb957613fb8613f65565b5b9250929050565b60008060008060008060808789031215613fdd57613fdc613a5c565b5b600087013567ffffffffffffffff811115613ffb57613ffa613a61565b5b61400789828a01613f6a565b9650965050602087013567ffffffffffffffff81111561402a57614029613a61565b5b61403689828a01613f6a565b9450945050604061404989828a01613a87565b925050606061405a89828a01613a87565b9150509295509295509295565b600081519050919050565b600082825260208201905092915050565b6000819050602082019050919050565b6040820160008201516140a96000850182613d9c565b5060208201516140bc6020850182613d8d565b50505050565b60006140ce8383614093565b60408301905092915050565b6000602082019050919050565b60006140f282614067565b6140fc8185614072565b935061410783614083565b8060005b8381101561413857815161411f88826140c2565b975061412a836140da565b92505060018101905061410b565b5085935050505092915050565b6000602082019050818103600083015261415f81846140e7565b905092915050565b600060208201905061417c6000830184613bb5565b92915050565b600061010082019050614198600083018b613b0a565b81810360208301526141aa818a613b70565b905081810360408301526141be8189613b70565b90506141cd6060830188613ac9565b6141da6080830187613ac9565b6141e760a0830186613ac9565b6141f460c0830185613ac9565b61420160e0830184613bb5565b9998505050505050505050565b600081519050919050565b600082825260208201905092915050565b6000819050602082019050919050565b6000610120830160008301516142536000860182613d8d565b5060208301516142666020860182613d9c565b506040830151848203604086015261427e8282613dbc565b915050606083015184820360608601526142988282613dbc565b91505060808301516142ad6080860182613d8d565b5060a08301516142c060a0860182613d8d565b5060c08301516142d360c0860182613d8d565b5060e08301516142e660e0860182613d8d565b506101008301516142fb610100860182613df5565b508091505092915050565b6000614312838361423a565b905092915050565b6000602082019050919050565b60006143328261420e565b61433c8185614219565b93508360208202850161434e8561422a565b8060005b8581101561438a578484038952815161436b8582614306565b94506143768361431a565b925060208a01995050600181019050614352565b50829750879550505050505092915050565b600060208201905081810360008301526143b68184614327565b905092915050565b600081519050919050565b600082825260208201905092915050565b6000819050602082019050919050565b6060820160008201516144006000850182613d8d565b5060208201516144136020850182613d9c565b5060408201516144266040850182613d8d565b50505050565b600061443883836143ea565b60608301905092915050565b6000602082019050919050565b600061445c826143be565b61446681856143c9565b9350614471836143da565b8060005b838110156144a2578151614489888261442c565b975061449483614444565b925050600181019050614475565b5085935050505092915050565b600060208201905081810360008301526144c98184614451565b905092915050565b60006060820190506144e66000830186613ac9565b6144f36020830185613b0a565b6145006040830184613ac9565b949350505050565b6000806040838503121561451f5761451e613a5c565b5b600061452d85828601613a87565b925050602061453e85828601613c91565b9150509250929050565b600061455382613d3f565b9050919050565b61456381614548565b82525050565b600060208201905061457e600083018461455a565b92915050565b7f4e487b7100000000000000000000000000000000000000000000000000000000600052602260045260246000fd5b600060028204905060018216806145cb57607f821691505b6020821081036145de576145dd614584565b5b50919050565b60006020820190506145f96000830184613b0a565b92915050565b60008151905061460e81613a70565b92915050565b60006020828403121561462a57614629613a5c565b5b6000614638848285016145ff565b91505092915050565b7f596f7520646f6e27742068617665207468652064616f20746f6b656e00000000600082015250565b6000614677601c83613b24565b915061468282614641565b602082019050919050565b600060208201905081810360008301526146a68161466a565b9050919050565b7f496e76616c696420616464726573730000000000000000000000000000000000600082015250565b60006146e3600f83613b24565b91506146ee826146ad565b602082019050919050565b60006020820190508181036000830152614712816146d6565b9050919050565b7f416c72656164792061206d656d62657200000000000000000000000000000000600082015250565b600061474f601083613b24565b915061475a82614719565b602082019050919050565b6000602082019050818103600083015261477e81614742565b9050919050565b7f4e487b7100000000000000000000000000000000000000000000000000000000600052601160045260246000fd5b60006147bf82613a66565b91507fffffffffffffffffffffffffffffffffffffffffffffffffffffffffffffffff82036147f1576147f0614785565b5b600182019050919050565b7f4e6f2072652d656e7472616e6379000000000000000000000000000000000000600082015250565b6000614832600e83613b24565b915061483d826147fc565b602082019050919050565b6000602082019050818103600083015261486181614825565b9050919050565b7f4d656d62657220646f6573206e6f742065786973740000000000000000000000600082015250565b600061489e601583613b24565b91506148a982614868565b602082019050919050565b600060208201905081810360008301526148cd81614891565b9050919050565b7f496e73756666696369656e7420746f6b656e2062616c616e6365000000000000600082015250565b600061490a601a83613b24565b9150614915826148d4565b602082019050919050565b60006020820190508181036000830152614939816148fd565b9050919050565b7f4e487b7100000000000000000000000000000000000000000000000000000000600052601260045260246000fd5b600061497a82613a66565b915061498583613a66565b92508261499557614994614940565b5b828204905092915050565b60006149ab82613a66565b91506149b683613a66565b92508282039050818111156149ce576149cd614785565b5b92915050565b7f4e487b7100000000000000000000000000000000000000000000000000000000600052603260045260246000fd5b7f4e487b7100000000000000000000000000000000000000000000000000000000600052603160045260246000fd5b6000614a3d82613a66565b9150614a4883613a66565b9250828201905080821115614a6057614a5f614785565b5b92915050565b7f4e6f742079657420657865637574696f6e20706572696f640000000000000000600082015250565b6000614a9c601883613b24565b9150614aa782614a66565b602082019050919050565b60006020820190508181036000830152614acb81614a8f565b9050919050565b7f496e76616c69642070726f706f73616c20696e64657800000000000000000000600082015250565b6000614b08601683613b24565b9150614b1382614ad2565b602082019050919050565b60006020820190508181036000830152614b3781614afb565b9050919050565b7f50726f706f73616c20616c726561647920657865637574656400000000000000600082015250565b6000614b74601983613b24565b9150614b7f82614b3e565b602082019050919050565b60006020820190508181036000830152614ba381614b67565b9050919050565b7f566f74696e6720706572696f6420686173206e6f7420656e6465642079657400600082015250565b6000614be0601f83613b24565b9150614beb82614baa565b602082019050919050565b60006020820190508181036000830152614c0f81614bd3565b9050919050565b7f696e73756666696369656e742062616c616e6365000000000000000000000000600082015250565b6000614c4c601483613b24565b9150614c5782614c16565b602082019050919050565b60006020820190508181036000830152614c7b81614c3f565b9050919050565b7f4e487b7100000000000000000000000000000000000000000000000000000000600052602160045260246000fd5b7f4f6e6c79207468652063726561746f72206f66207468652070726f706f73616c60008201527f2063616e2072656d6f7665207468652070726f706f73616c0000000000000000602082015250565b6000614d0d603883613b24565b9150614d1882614cb1565b604082019050919050565b60006020820190508181036000830152614d3c81614d00565b9050919050565b7f50726f706f73616c20697320656d707479000000000000000000000000000000600082015250565b6000614d79601183613b24565b9150614d8482614d43565b602082019050919050565b60006020820190508181036000830152614da881614d6c565b9050919050565b7f496e73756666696369656e74202062616c616e63650000000000000000000000600082015250565b6000614de5601583613b24565b9150614df082614daf565b602082019050919050565b60006020820190508181036000830152614e1481614dd8565b9050919050565b6000606082019050614e306000830186613b0a565b614e3d6020830185613b0a565b614e4a6040830184613ac9565b949350505050565b614e5b81613ba9565b8114614e6657600080fd5b50565b600081519050614e7881614e52565b92915050565b600060208284031215614e9457614e93613a5c565b5b6000614ea284828501614e69565b91505092915050565b7f596f7520617265206e6f74207965742061206d656d626572206f66207468697360008201527f20636f6d6d756e69747900000000000000000000000000000000000000000000602082015250565b6000614f07602a83613b24565b9150614f1282614eab565b604082019050919050565b60006020820190508181036000830152614f3681614efa565b9050919050565b7f596f75206d75737420686f6c6420757020746f2031303020746f6b656e73207460008201527f6f2063726561746520612070726f706f73616c00000000000000000000000000602082015250565b6000614f99603383613b24565b9150614fa482614f3d565b604082019050919050565b60006020820190508181036000830152614fc881614f8c565b9050919050565b7f50726f706f73616c2073746172742074696d65206d75737420626520696e207460008201527f6865206675747572650000000000000000000000000000000000000000000000602082015250565b600061502b602983613b24565b915061503682614fcf565b604082019050919050565b6000602082019050818103600083015261505a8161501e565b9050919050565b7f50726f706f73616c20656e642074696d65206d7573742062652061667465722060008201527f73746172742074696d6500000000000000000000000000000000000000000000602082015250565b60006150bd602a83613b24565b91506150c882615061565b604082019050919050565b600060208201905081810360008301526150ec816150b0565b9050919050565b7f4e487b7100000000000000000000000000000000000000000000000000000000600052604160045260246000fd5b60008190508160005260206000209050919050565b60006020601f8301049050919050565b600082821b905092915050565b6000600883026151847fffffffffffffffffffffffffffffffffffffffffffffffffffffffffffffffff82615147565b61518e8683615147565b95508019841693508086168417925050509392505050565b60006151c16151bc6151b784613a66565b613d13565b613a66565b9050919050565b6000819050919050565b6151db836151a6565b6151ef6151e7826151c8565b848454615154565b825550505050565b600090565b6152046151f7565b61520f8184846151d2565b505050565b5b81811015615233576152286000826151fc565b600181019050615215565b5050565b601f8211156152785761524981615122565b61525284615137565b81016020851015615261578190505b61527561526d85615137565b830182615214565b50505b505050565b600082821c905092915050565b600061529b6000198460080261527d565b1980831691505092915050565b60006152b4838361528a565b9150826002028217905092915050565b6152cd82613b19565b67ffffffffffffffff8111156152e6576152e56150f3565b5b6152f082546145b3565b6152fb828285615237565b600060209050601f83116001811461532e576000841561531c578287015190505b61532685826152a8565b86555061538e565b601f19841661533c86615122565b60005b828110156153645784890151825560018201915060208501945060208101905061533f565b86831015615381578489015161537d601f89168261528a565b8355505b6001600288020188555050505b505050505050565b82818337600083830152505050565b60006153b18385613b24565b93506153be838584615396565b6153c783613b5f565b840190509392505050565b600060a0820190506153e7600083018a613ac9565b81810360208301526153fa81888a6153a5565b9050818103604083015261540f8186886153a5565b905061541e6060830185613ac9565b61542b6080830184613ac9565b98975050505050505050565b7f566f74696e6720686173206e6f74207374617274656420796574000000000000600082015250565b600061546d601a83613b24565b915061547882615437565b602082019050919050565b6000602082019050818103600083015261549c81615460565b9050919050565b7f566f74696e672068617320616c726561647920656e6465640000000000000000600082015250565b60006154d9601883613b24565b91506154e4826154a3565b602082019050919050565b60006020820190508181036000830152615508816154cc565b9050919050565b7f596f75206861766520616c726561647920766f74656420666f7220746869732060008201527f70726f706f73616c000000000000000000000000000000000000000000000000602082015250565b600061556b602883613b24565b91506155768261550f565b604082019050919050565b6000602082019050818103600083015261559a8161555e565b9050919050565b7f596f75206d75737420686f6c6420757020746f20353020746f6b656e7320746f60008201527f20766f7465000000000000000000000000000000000000000000000000000000602082015250565b60006155fd602583613b24565b9150615608826155a1565b604082019050919050565b6000602082019050818103600083015261562c816155f0565b9050919050565b600060a0820190506156486000830188613ac9565b6156556020830187613b0a565b6156626040830186613ac9565b61566f6060830185613ac9565b61567c6080830184613ac9565b9695505050505050565b7f596f7520617265206e6f74207965742061206d656d626572206f66207468697360008201527f2044414f00000000000000000000000000000000000000000000000000000000602082015250565b60006156e2602483613b24565b91506156ed82615686565b604082019050919050565b60006020820190508181036000830152615711816156d5565b905091905056fea264697066735822122053fdc70b23d6e730c30cf54bb3fc7021ea2145cc729eed5e73c884d020cc6f4f64736f6c6343000811003360806040523480156200001157600080fd5b50692a5a058fc295ed000000600381905550600354600460003373ffffffffffffffffffffffffffffffffffffffff1673ffffffffffffffffffffffffffffffffffffffff168152602001908152602001600020819055506040518060400160405280600781526020017f4d79546f6b656e0000000000000000000000000000000000000000000000000081525060009081620000af9190620003fd565b506040518060400160405280600281526020017f4d5400000000000000000000000000000000000000000000000000000000000081525060019081620000f69190620003fd565b506012600260006101000a81548160ff021916908360ff1602179055503373ffffffffffffffffffffffffffffffffffffffff16600073ffffffffffffffffffffffffffffffffffffffff167fddf252ad1be2c89b69c2b068fc378daa952ba7f163c4a11628f55a4df523b3ef600354604051620001759190620004f5565b60405180910390a362000512565b600081519050919050565b7f4e487b7100000000000000000000000000000000000000000000000000000000600052604160045260246000fd5b7f4e487b7100000000000000000000000000000000000000000000000000000000600052602260045260246000fd5b600060028204905060018216806200020557607f821691505b6020821081036200021b576200021a620001bd565b5b50919050565b60008190508160005260206000209050919050565b60006020601f8301049050919050565b600082821b905092915050565b600060088302620002857fffffffffffffffffffffffffffffffffffffffffffffffffffffffffffffffff8262000246565b62000291868362000246565b95508019841693508086168417925050509392505050565b6000819050919050565b6000819050919050565b6000620002de620002d8620002d284620002a9565b620002b3565b620002a9565b9050919050565b6000819050919050565b620002fa83620002bd565b620003126200030982620002e5565b84845462000253565b825550505050565b600090565b620003296200031a565b62000336818484620002ef565b505050565b5b818110156200035e57620003526000826200031f565b6001810190506200033c565b5050565b601f821115620003ad57620003778162000221565b620003828462000236565b8101602085101562000392578190505b620003aa620003a18562000236565b8301826200033b565b50505b505050565b600082821c905092915050565b6000620003d260001984600802620003b2565b1980831691505092915050565b6000620003ed8383620003bf565b9150826002028217905092915050565b620004088262000183565b67ffffffffffffffff8111156200042457620004236200018e565b5b620004308254620001ec565b6200043d82828562000362565b600060209050601f83116001811462000475576000841562000460578287015190505b6200046c8582620003df565b865550620004dc565b601f198416620004858662000221565b60005b82811015620004af5784890151825560018201915060208501945060208101905062000488565b86831015620004cf5784890151620004cb601f891682620003bf565b8355505b6001600288020188555050505b505050505050565b620004ef81620002a9565b82525050565b60006020820190506200050c6000830184620004e4565b92915050565b61102d80620005226000396000f3fe608060405234801561001057600080fd5b50600436106100935760003560e01c8063313ce56711610066578063313ce5671461013457806370a082311461015257806395d89b4114610182578063a9059cbb146101a0578063dd62ed3e146101d057610093565b806306fdde0314610098578063095ea7b3146100b657806318160ddd146100e657806323b872dd14610104575b600080fd5b6100a0610200565b6040516100ad9190610af8565b60405180910390f35b6100d060048036038101906100cb9190610bb3565b61028e565b6040516100dd9190610c0e565b60405180910390f35b6100ee610380565b6040516100fb9190610c38565b60405180910390f35b61011e60048036038101906101199190610c53565b61038a565b60405161012b9190610c0e565b60405180910390f35b61013c6106ea565b6040516101499190610cc2565b60405180910390f35b61016c60048036038101906101679190610cdd565b6106fd565b6040516101799190610c38565b60405180910390f35b61018a610746565b6040516101979190610af8565b60405180910390f35b6101ba60048036038101906101b59190610bb3565b6107d4565b6040516101c79190610c0e565b60405180910390f35b6101ea60048036038101906101e59190610d0a565b6109e1565b6040516101f79190610c38565b60405180910390f35b6000805461020d90610d79565b80601f016020809104026020016040519081016040528092919081815260200182805461023990610d79565b80156102865780601f1061025b57610100808354040283529160200191610286565b820191906000526020600020905b81548152906001019060200180831161026957829003601f168201915b505050505081565b600081600560003373ffffffffffffffffffffffffffffffffffffffff1673ffffffffffffffffffffffffffffffffffffffff16815260200190815260200160002060008573ffffffffffffffffffffffffffffffffffffffff1673ffffffffffffffffffffffffffffffffffffffff168152602001908152602001600020819055508273ffffffffffffffffffffffffffffffffffffffff163373ffffffffffffffffffffffffffffffffffffffff167f8c5be1e5ebec7d5bd14f71427d1e84f3dd0314c0f7b2291e5b200ac8c7c3b9258460405161036e9190610c38565b60405180910390a36001905092915050565b6000600354905090565b60008073ffffffffffffffffffffffffffffffffffffffff168373ffffffffffffffffffffffffffffffffffffffff16036103fa576040517f08c379a00000000000000000000000000000000000000000000000000000000081526004016103f190610e1c565b60405180910390fd5b81600460008673ffffffffffffffffffffffffffffffffffffffff1673ffffffffffffffffffffffffffffffffffffffff16815260200190815260200160002054101561047c576040517f08c379a000000000000000000000000000000000000000000000000000000000815260040161047390610eae565b60405180910390fd5b81600560008673ffffffffffffffffffffffffffffffffffffffff1673ffffffffffffffffffffffffffffffffffffffff16815260200190815260200160002060003373ffffffffffffffffffffffffffffffffffffffff1673ffffffffffffffffffffffffffffffffffffffff16815260200190815260200160002054101561053b576040517f08c379a000000000000000000000000000000000000000000000000000000000815260040161053290610f40565b60405180910390fd5b81600460008673ffffffffffffffffffffffffffffffffffffffff1673ffffffffffffffffffffffffffffffffffffffff168152602001908152602001600020600082825461058a9190610f8f565b9250508190555081600460008573ffffffffffffffffffffffffffffffffffffffff1673ffffffffffffffffffffffffffffffffffffffff16815260200190815260200160002060008282546105e09190610fc3565b9250508190555081600560008673ffffffffffffffffffffffffffffffffffffffff1673ffffffffffffffffffffffffffffffffffffffff16815260200190815260200160002060003373ffffffffffffffffffffffffffffffffffffffff1673ffffffffffffffffffffffffffffffffffffffff16815260200190815260200160002060008282546106739190610f8f565b925050819055508273ffffffffffffffffffffffffffffffffffffffff168473ffffffffffffffffffffffffffffffffffffffff167fddf252ad1be2c89b69c2b068fc378daa952ba7f163c4a11628f55a4df523b3ef846040516106d79190610c38565b60405180910390a3600190509392505050565b600260009054906101000a900460ff1681565b6000600460008373ffffffffffffffffffffffffffffffffffffffff1673ffffffffffffffffffffffffffffffffffffffff168152602001908152602001600020549050919050565b6001805461075390610d79565b80601f016020809104026020016040519081016040528092919081815260200182805461077f90610d79565b80156107cc5780601f106107a1576101008083540402835291602001916107cc565b820191906000526020600020905b8154815290600101906020018083116107af57829003601f168201915b505050505081565b60008073ffffffffffffffffffffffffffffffffffffffff168373ffffffffffffffffffffffffffffffffffffffff1603610844576040517f08c379a000000000000000000000000000000000000000000000000000000000815260040161083b90610e1c565b60405180910390fd5b81600460003373ffffffffffffffffffffffffffffffffffffffff1673ffffffffffffffffffffffffffffffffffffffff1681526020019081526020016000205410156108c6576040517f08c379a00000000000000000000000000000000000000000000000000000000081526004016108bd90610eae565b60405180910390fd5b81600460003373ffffffffffffffffffffffffffffffffffffffff1673ffffffffffffffffffffffffffffffffffffffff16815260200190815260200160002060008282546109159190610f8f565b9250508190555081600460008573ffffffffffffffffffffffffffffffffffffffff1673ffffffffffffffffffffffffffffffffffffffff168152602001908152602001600020600082825461096b9190610fc3565b925050819055508273ffffffffffffffffffffffffffffffffffffffff163373ffffffffffffffffffffffffffffffffffffffff167fddf252ad1be2c89b69c2b068fc378daa952ba7f163c4a11628f55a4df523b3ef846040516109cf9190610c38565b60405180910390a36001905092915050565b6000600560008473ffffffffffffffffffffffffffffffffffffffff1673ffffffffffffffffffffffffffffffffffffffff16815260200190815260200160002060008373ffffffffffffffffffffffffffffffffffffffff1673ffffffffffffffffffffffffffffffffffffffff16815260200190815260200160002054905092915050565b600081519050919050565b600082825260208201905092915050565b60005b83811015610aa2578082015181840152602081019050610a87565b60008484015250505050565b6000601f19601f8301169050919050565b6000610aca82610a68565b610ad48185610a73565b9350610ae4818560208601610a84565b610aed81610aae565b840191505092915050565b60006020820190508181036000830152610b128184610abf565b905092915050565b600080fd5b600073ffffffffffffffffffffffffffffffffffffffff82169050919050565b6000610b4a82610b1f565b9050919050565b610b5a81610b3f565b8114610b6557600080fd5b50565b600081359050610b7781610b51565b92915050565b6000819050919050565b610b9081610b7d565b8114610b9b57600080fd5b50565b600081359050610bad81610b87565b92915050565b60008060408385031215610bca57610bc9610b1a565b5b6000610bd885828601610b68565b9250506020610be985828601610b9e565b9150509250929050565b60008115159050919050565b610c0881610bf3565b82525050565b6000602082019050610c236000830184610bff565b92915050565b610c3281610b7d565b82525050565b6000602082019050610c4d6000830184610c29565b92915050565b600080600060608486031215610c6c57610c6b610b1a565b5b6000610c7a86828701610b68565b9350506020610c8b86828701610b68565b9250506040610c9c86828701610b9e565b9150509250925092565b600060ff82169050919050565b610cbc81610ca6565b82525050565b6000602082019050610cd76000830184610cb3565b92915050565b600060208284031215610cf357610cf2610b1a565b5b6000610d0184828501610b68565b91505092915050565b60008060408385031215610d2157610d20610b1a565b5b6000610d2f85828601610b68565b9250506020610d4085828601610b68565b9150509250929050565b7f4e487b7100000000000000000000000000000000000000000000000000000000600052602260045260246000fd5b60006002820490506001821680610d9157607f821691505b602082108103610da457610da3610d4a565b5b50919050565b7f45524332303a207472616e7366657220746f20746865207a65726f206164647260008201527f6573730000000000000000000000000000000000000000000000000000000000602082015250565b6000610e06602383610a73565b9150610e1182610daa565b604082019050919050565b60006020820190508181036000830152610e3581610df9565b9050919050565b7f45524332303a207472616e7366657220616d6f756e742065786365656473206260008201527f616c616e63650000000000000000000000000000000000000000000000000000602082015250565b6000610e98602683610a73565b9150610ea382610e3c565b604082019050919050565b60006020820190508181036000830152610ec781610e8b565b9050919050565b7f45524332303a207472616e7366657220616d6f756e742065786365656473206160008201527f6c6c6f77616e6365000000000000000000000000000000000000000000000000602082015250565b6000610f2a602883610a73565b9150610f3582610ece565b604082019050919050565b60006020820190508181036000830152610f5981610f1d565b9050919050565b7f4e487b7100000000000000000000000000000000000000000000000000000000600052601160045260246000fd5b6000610f9a82610b7d565b9150610fa583610b7d565b9250828203905081811115610fbd57610fbc610f60565b5b92915050565b6000610fce82610b7d565b9150610fd983610b7d565b9250828201905080821115610ff157610ff0610f60565b5b9291505056fea26469706673582212202da2e553e61e44dd8c9acffb4f3a5cdfe08da1946edb3e7e1b7166e3acc5775064736f6c6343000811003360806040523480156200001157600080fd5b506040518060a0016040528060628152602001620038a4606291396200003d81620000f860201b60201c565b506000600190505b600a8111620000f1576200007233826001604051806020016040528060008152506200010d60201b60201c565b336003600083815260200190815260200160002060006101000a81548173ffffffffffffffffffffffffffffffffffffffff021916908373ffffffffffffffffffffffffffffffffffffffff160217905550620000db6004620002f460201b620009f01760201c565b8080620000e890620005f8565b91505062000045565b5062000f66565b8060029081620001099190620008b5565b5050565b600073ffffffffffffffffffffffffffffffffffffffff168473ffffffffffffffffffffffffffffffffffffffff16036200017f576040517f08c379a0000000000000000000000000000000000000000000000000000000008152600401620001769062000a23565b60405180910390fd5b6000620001916200030a60201b60201c565b90506000620001a6856200031260201b60201c565b90506000620001bb856200031260201b60201c565b9050620001d4836000898585896200039360201b60201c565b8460008088815260200190815260200160002060008973ffffffffffffffffffffffffffffffffffffffff1673ffffffffffffffffffffffffffffffffffffffff168152602001908152602001600020600082825462000235919062000a45565b925050819055508673ffffffffffffffffffffffffffffffffffffffff16600073ffffffffffffffffffffffffffffffffffffffff168473ffffffffffffffffffffffffffffffffffffffff167fc3d58168c5ae7397731d063d5bbf3d657854427343f4c083240f7aacaa2d0f628989604051620002b592919062000a91565b60405180910390a4620002d4836000898585896200039b60201b60201c565b620002eb83600089898989620003a360201b60201c565b50505050505050565b6001816000016000828254019250508190555050565b600033905090565b60606000600167ffffffffffffffff81111562000334576200033362000650565b5b604051908082528060200260200182016040528015620003635781602001602082028036833780820191505090505b50905082816000815181106200037e576200037d62000abe565b5b60200260200101818152505080915050919050565b505050505050565b505050505050565b620003cf8473ffffffffffffffffffffffffffffffffffffffff166200059c60201b62000a061760201c565b1562000594578373ffffffffffffffffffffffffffffffffffffffff1663f23a6e6187878686866040518663ffffffff1660e01b81526004016200041895949392919062000bcc565b6020604051808303816000875af19250505080156200045757506040513d601f19601f8201168201806040525081019062000454919062000c9c565b60015b62000508576200046662000cdb565b806308c379a003620004c957506200047d62000d36565b806200048a5750620004cb565b806040517f08c379a0000000000000000000000000000000000000000000000000000000008152600401620004c0919062000e12565b60405180910390fd5b505b6040517f08c379a0000000000000000000000000000000000000000000000000000000008152600401620004ff9062000eac565b60405180910390fd5b63f23a6e6160e01b7bffffffffffffffffffffffffffffffffffffffffffffffffffffffff1916817bffffffffffffffffffffffffffffffffffffffffffffffffffffffff19161462000592576040517f08c379a0000000000000000000000000000000000000000000000000000000008152600401620005899062000f44565b60405180910390fd5b505b505050505050565b6000808273ffffffffffffffffffffffffffffffffffffffff163b119050919050565b7f4e487b7100000000000000000000000000000000000000000000000000000000600052601160045260246000fd5b6000819050919050565b60006200060582620005ee565b91507fffffffffffffffffffffffffffffffffffffffffffffffffffffffffffffffff82036200063a5762000639620005bf565b5b600182019050919050565b600081519050919050565b7f4e487b7100000000000000000000000000000000000000000000000000000000600052604160045260246000fd5b7f4e487b7100000000000000000000000000000000000000000000000000000000600052602260045260246000fd5b60006002820490506001821680620006c757607f821691505b602082108103620006dd57620006dc6200067f565b5b50919050565b60008190508160005260206000209050919050565b60006020601f8301049050919050565b600082821b905092915050565b600060088302620007477fffffffffffffffffffffffffffffffffffffffffffffffffffffffffffffffff8262000708565b62000753868362000708565b95508019841693508086168417925050509392505050565b6000819050919050565b600062000796620007906200078a84620005ee565b6200076b565b620005ee565b9050919050565b6000819050919050565b620007b28362000775565b620007ca620007c1826200079d565b84845462000715565b825550505050565b600090565b620007e1620007d2565b620007ee818484620007a7565b505050565b5b8181101562000816576200080a600082620007d7565b600181019050620007f4565b5050565b601f82111562000865576200082f81620006e3565b6200083a84620006f8565b810160208510156200084a578190505b620008626200085985620006f8565b830182620007f3565b50505b505050565b600082821c905092915050565b60006200088a600019846008026200086a565b1980831691505092915050565b6000620008a5838362000877565b9150826002028217905092915050565b620008c08262000645565b67ffffffffffffffff811115620008dc57620008db62000650565b5b620008e88254620006ae565b620008f58282856200081a565b600060209050601f8311600181146200092d576000841562000918578287015190505b62000924858262000897565b86555062000994565b601f1984166200093d86620006e3565b60005b82811015620009675784890151825560018201915060208501945060208101905062000940565b8683101562000987578489015162000983601f89168262000877565b8355505b6001600288020188555050505b505050505050565b600082825260208201905092915050565b7f455243313135353a206d696e7420746f20746865207a65726f2061646472657360008201527f7300000000000000000000000000000000000000000000000000000000000000602082015250565b600062000a0b6021836200099c565b915062000a1882620009ad565b604082019050919050565b6000602082019050818103600083015262000a3e81620009fc565b9050919050565b600062000a5282620005ee565b915062000a5f83620005ee565b925082820190508082111562000a7a5762000a79620005bf565b5b92915050565b62000a8b81620005ee565b82525050565b600060408201905062000aa8600083018562000a80565b62000ab7602083018462000a80565b9392505050565b7f4e487b7100000000000000000000000000000000000000000000000000000000600052603260045260246000fd5b600073ffffffffffffffffffffffffffffffffffffffff82169050919050565b600062000b1a8262000aed565b9050919050565b62000b2c8162000b0d565b82525050565b600081519050919050565b600082825260208201905092915050565b60005b8381101562000b6e57808201518184015260208101905062000b51565b60008484015250505050565b6000601f19601f8301169050919050565b600062000b988262000b32565b62000ba4818562000b3d565b935062000bb681856020860162000b4e565b62000bc18162000b7a565b840191505092915050565b600060a08201905062000be3600083018862000b21565b62000bf2602083018762000b21565b62000c01604083018662000a80565b62000c10606083018562000a80565b818103608083015262000c24818462000b8b565b90509695505050505050565b6000604051905090565b600080fd5b60007fffffffff0000000000000000000000000000000000000000000000000000000082169050919050565b62000c768162000c3f565b811462000c8257600080fd5b50565b60008151905062000c968162000c6b565b92915050565b60006020828403121562000cb55762000cb462000c3a565b5b600062000cc58482850162000c85565b91505092915050565b60008160e01c9050919050565b600060033d111562000cfd5760046000803e62000cfa60005162000cce565b90505b90565b62000d0b8262000b7a565b810181811067ffffffffffffffff8211171562000d2d5762000d2c62000650565b5b80604052505050565b600060443d1062000dce5762000d4b62000c30565b60043d036004823e80513d602482011167ffffffffffffffff8211171562000d7557505062000dce565b808201805167ffffffffffffffff81111562000d95575050505062000dce565b80602083010160043d03850181111562000db457505050505062000dce565b62000dc58260200185018662000d00565b82955050505050505b90565b600062000dde8262000645565b62000dea81856200099c565b935062000dfc81856020860162000b4e565b62000e078162000b7a565b840191505092915050565b6000602082019050818103600083015262000e2e818462000dd1565b905092915050565b7f455243313135353a207472616e7366657220746f206e6f6e2d4552433131353560008201527f526563656976657220696d706c656d656e746572000000000000000000000000602082015250565b600062000e946034836200099c565b915062000ea18262000e36565b604082019050919050565b6000602082019050818103600083015262000ec78162000e85565b9050919050565b7f455243313135353a204552433131353552656365697665722072656a6563746560008201527f6420746f6b656e73000000000000000000000000000000000000000000000000602082015250565b600062000f2c6028836200099c565b915062000f398262000ece565b604082019050919050565b6000602082019050818103600083015262000f5f8162000f1d565b9050919050565b61292e8062000f766000396000f3fe6080604052600436106100855760003560e01c80634e1273f4116100595780634e1273f41461016a578063a22cb465146101a7578063d96a094a146101d0578063e985e9c5146101ec578063f242432a1461022957610085565b8062fdd58e1461008a57806301ffc9a7146100c75780630e89341c146101045780632eb2c2d614610141575b600080fd5b34801561009657600080fd5b506100b160048036038101906100ac91906116a3565b610252565b6040516100be91906116f2565b60405180910390f35b3480156100d357600080fd5b506100ee60048036038101906100e99190611765565b61031a565b6040516100fb91906117ad565b60405180910390f35b34801561011057600080fd5b5061012b600480360381019061012691906117c8565b6103fc565b6040516101389190611885565b60405180910390f35b34801561014d57600080fd5b5061016860048036038101906101639190611aa4565b610490565b005b34801561017657600080fd5b50610191600480360381019061018c9190611c36565b610531565b60405161019e9190611d6c565b60405180910390f35b3480156101b357600080fd5b506101ce60048036038101906101c99190611dba565b61064a565b005b6101ea60048036038101906101e591906117c8565b610660565b005b3480156101f857600080fd5b50610213600480360381019061020e9190611dfa565b6108bb565b60405161022091906117ad565b60405180910390f35b34801561023557600080fd5b50610250600480360381019061024b9190611e3a565b61094f565b005b60008073ffffffffffffffffffffffffffffffffffffffff168373ffffffffffffffffffffffffffffffffffffffff16036102c2576040517f08c379a00000000000000000000000000000000000000000000000000000000081526004016102b990611f43565b60405180910390fd5b60008083815260200190815260200160002060008473ffffffffffffffffffffffffffffffffffffffff1673ffffffffffffffffffffffffffffffffffffffff16815260200190815260200160002054905092915050565b60007fd9b67a26000000000000000000000000000000000000000000000000000000007bffffffffffffffffffffffffffffffffffffffffffffffffffffffff1916827bffffffffffffffffffffffffffffffffffffffffffffffffffffffff191614806103e557507f0e89341c000000000000000000000000000000000000000000000000000000007bffffffffffffffffffffffffffffffffffffffffffffffffffffffff1916827bffffffffffffffffffffffffffffffffffffffffffffffffffffffff1916145b806103f557506103f482610a29565b5b9050919050565b60606002805461040b90611f92565b80601f016020809104026020016040519081016040528092919081815260200182805461043790611f92565b80156104845780601f1061045957610100808354040283529160200191610484565b820191906000526020600020905b81548152906001019060200180831161046757829003601f168201915b50505050509050919050565b610498610a93565b73ffffffffffffffffffffffffffffffffffffffff168573ffffffffffffffffffffffffffffffffffffffff1614806104de57506104dd856104d8610a93565b6108bb565b5b61051d576040517f08c379a000000000000000000000000000000000000000000000000000000000815260040161051490612035565b60405180910390fd5b61052a8585858585610a9b565b5050505050565b60608151835114610577576040517f08c379a000000000000000000000000000000000000000000000000000000000815260040161056e906120c7565b60405180910390fd5b6000835167ffffffffffffffff811115610594576105936118ac565b5b6040519080825280602002602001820160405280156105c25781602001602082028036833780820191505090505b50905060005b845181101561063f5761060f8582815181106105e7576105e66120e7565b5b6020026020010151858381518110610602576106016120e7565b5b6020026020010151610252565b828281518110610622576106216120e7565b5b6020026020010181815250508061063890612145565b90506105c8565b508091505092915050565b61065c610655610a93565b8383610dbc565b5050565b6000811180156106715750600a8111155b6106b0576040517f08c379a00000000000000000000000000000000000000000000000000000000081526004016106a7906121d9565b60405180910390fd5b600073ffffffffffffffffffffffffffffffffffffffff166003600083815260200190815260200160002060009054906101000a900473ffffffffffffffffffffffffffffffffffffffff1673ffffffffffffffffffffffffffffffffffffffff1603610752576040517f08c379a000000000000000000000000000000000000000000000000000000000815260040161074990612245565b60405180910390fd5b670de0b6b3a7640000341461079c576040517f08c379a0000000000000000000000000000000000000000000000000000000008152600401610793906122b1565b60405180910390fd5b6107ec6003600083815260200190815260200160002060009054906101000a900473ffffffffffffffffffffffffffffffffffffffff16338360016040518060200160405280600081525061094f565b6003600082815260200190815260200160002060009054906101000a900473ffffffffffffffffffffffffffffffffffffffff1673ffffffffffffffffffffffffffffffffffffffff166108fc349081150290604051600060405180830381858888f19350505050158015610865573d6000803e3d6000fd5b50336003600083815260200190815260200160002060006101000a81548173ffffffffffffffffffffffffffffffffffffffff021916908373ffffffffffffffffffffffffffffffffffffffff16021790555050565b6000600160008473ffffffffffffffffffffffffffffffffffffffff1673ffffffffffffffffffffffffffffffffffffffff16815260200190815260200160002060008373ffffffffffffffffffffffffffffffffffffffff1673ffffffffffffffffffffffffffffffffffffffff16815260200190815260200160002060009054906101000a900460ff16905092915050565b610957610a93565b73ffffffffffffffffffffffffffffffffffffffff168573ffffffffffffffffffffffffffffffffffffffff16148061099d575061099c85610997610a93565b6108bb565b5b6109dc576040517f08c379a00000000000000000000000000000000000000000000000000000000081526004016109d390612035565b60405180910390fd5b6109e98585858585610f28565b5050505050565b6001816000016000828254019250508190555050565b6000808273ffffffffffffffffffffffffffffffffffffffff163b119050919050565b60007f01ffc9a7000000000000000000000000000000000000000000000000000000007bffffffffffffffffffffffffffffffffffffffffffffffffffffffff1916827bffffffffffffffffffffffffffffffffffffffffffffffffffffffff1916149050919050565b600033905090565b8151835114610adf576040517f08c379a0000000000000000000000000000000000000000000000000000000008152600401610ad690612343565b60405180910390fd5b600073ffffffffffffffffffffffffffffffffffffffff168473ffffffffffffffffffffffffffffffffffffffff1603610b4e576040517f08c379a0000000000000000000000000000000000000000000000000000000008152600401610b45906123d5565b60405180910390fd5b6000610b58610a93565b9050610b688187878787876111c3565b60005b8451811015610d19576000858281518110610b8957610b886120e7565b5b602002602001015190506000858381518110610ba857610ba76120e7565b5b60200260200101519050600080600084815260200190815260200160002060008b73ffffffffffffffffffffffffffffffffffffffff1673ffffffffffffffffffffffffffffffffffffffff16815260200190815260200160002054905081811015610c49576040517f08c379a0000000000000000000000000000000000000000000000000000000008152600401610c4090612467565b60405180910390fd5b81810360008085815260200190815260200160002060008c73ffffffffffffffffffffffffffffffffffffffff1673ffffffffffffffffffffffffffffffffffffffff168152602001908152602001600020819055508160008085815260200190815260200160002060008b73ffffffffffffffffffffffffffffffffffffffff1673ffffffffffffffffffffffffffffffffffffffff1681526020019081526020016000206000828254610cfe9190612487565b9250508190555050505080610d1290612145565b9050610b6b565b508473ffffffffffffffffffffffffffffffffffffffff168673ffffffffffffffffffffffffffffffffffffffff168273ffffffffffffffffffffffffffffffffffffffff167f4a39dc06d4c0dbc64b70af90fd698a233a518aa5d07e595d983b8c0526c8f7fb8787604051610d909291906124bb565b60405180910390a4610da68187878787876111cb565b610db48187878787876111d3565b505050505050565b8173ffffffffffffffffffffffffffffffffffffffff168373ffffffffffffffffffffffffffffffffffffffff1603610e2a576040517f08c379a0000000000000000000000000000000000000000000000000000000008152600401610e2190612564565b60405180910390fd5b80600160008573ffffffffffffffffffffffffffffffffffffffff1673ffffffffffffffffffffffffffffffffffffffff16815260200190815260200160002060008473ffffffffffffffffffffffffffffffffffffffff1673ffffffffffffffffffffffffffffffffffffffff16815260200190815260200160002060006101000a81548160ff0219169083151502179055508173ffffffffffffffffffffffffffffffffffffffff168373ffffffffffffffffffffffffffffffffffffffff167f17307eab39ab6107e8899845ad3d59bd9653f200f220920489ca2b5937696c3183604051610f1b91906117ad565b60405180910390a3505050565b600073ffffffffffffffffffffffffffffffffffffffff168473ffffffffffffffffffffffffffffffffffffffff1603610f97576040517f08c379a0000000000000000000000000000000000000000000000000000000008152600401610f8e906123d5565b60405180910390fd5b6000610fa1610a93565b90506000610fae856113aa565b90506000610fbb856113aa565b9050610fcb8389898585896111c3565b600080600088815260200190815260200160002060008a73ffffffffffffffffffffffffffffffffffffffff1673ffffffffffffffffffffffffffffffffffffffff16815260200190815260200160002054905085811015611062576040517f08c379a000000000000000000000000000000000000000000000000000000000815260040161105990612467565b60405180910390fd5b85810360008089815260200190815260200160002060008b73ffffffffffffffffffffffffffffffffffffffff1673ffffffffffffffffffffffffffffffffffffffff168152602001908152602001600020819055508560008089815260200190815260200160002060008a73ffffffffffffffffffffffffffffffffffffffff1673ffffffffffffffffffffffffffffffffffffffff16815260200190815260200160002060008282546111179190612487565b925050819055508773ffffffffffffffffffffffffffffffffffffffff168973ffffffffffffffffffffffffffffffffffffffff168573ffffffffffffffffffffffffffffffffffffffff167fc3d58168c5ae7397731d063d5bbf3d657854427343f4c083240f7aacaa2d0f628a8a604051611194929190612584565b60405180910390a46111aa848a8a86868a6111cb565b6111b8848a8a8a8a8a611424565b505050505050505050565b505050505050565b505050505050565b6111f28473ffffffffffffffffffffffffffffffffffffffff16610a06565b156113a2578373ffffffffffffffffffffffffffffffffffffffff1663bc197c8187878686866040518663ffffffff1660e01b8152600401611238959493929190612611565b6020604051808303816000875af192505050801561127457506040513d601f19601f82011682018060405250810190611271919061268e565b60015b611319576112806126c8565b806308c379a0036112dc57506112946126ea565b8061129f57506112de565b806040517f08c379a00000000000000000000000000000000000000000000000000000000081526004016112d39190611885565b60405180910390fd5b505b6040517f08c379a0000000000000000000000000000000000000000000000000000000008152600401611310906127ec565b60405180910390fd5b63bc197c8160e01b7bffffffffffffffffffffffffffffffffffffffffffffffffffffffff1916817bffffffffffffffffffffffffffffffffffffffffffffffffffffffff1916146113a0576040517f08c379a00000000000000000000000000000000000000000000000000000000081526004016113979061287e565b60405180910390fd5b505b505050505050565b60606000600167ffffffffffffffff8111156113c9576113c86118ac565b5b6040519080825280602002602001820160405280156113f75781602001602082028036833780820191505090505b509050828160008151811061140f5761140e6120e7565b5b60200260200101818152505080915050919050565b6114438473ffffffffffffffffffffffffffffffffffffffff16610a06565b156115f3578373ffffffffffffffffffffffffffffffffffffffff1663f23a6e6187878686866040518663ffffffff1660e01b815260040161148995949392919061289e565b6020604051808303816000875af19250505080156114c557506040513d601f19601f820116820180604052508101906114c2919061268e565b60015b61156a576114d16126c8565b806308c379a00361152d57506114e56126ea565b806114f0575061152f565b806040517f08c379a00000000000000000000000000000000000000000000000000000000081526004016115249190611885565b60405180910390fd5b505b6040517f08c379a0000000000000000000000000000000000000000000000000000000008152600401611561906127ec565b60405180910390fd5b63f23a6e6160e01b7bffffffffffffffffffffffffffffffffffffffffffffffffffffffff1916817bffffffffffffffffffffffffffffffffffffffffffffffffffffffff1916146115f1576040517f08c379a00000000000000000000000000000000000000000000000000000000081526004016115e89061287e565b60405180910390fd5b505b505050505050565b6000604051905090565b600080fd5b600080fd5b600073ffffffffffffffffffffffffffffffffffffffff82169050919050565b600061163a8261160f565b9050919050565b61164a8161162f565b811461165557600080fd5b50565b60008135905061166781611641565b92915050565b6000819050919050565b6116808161166d565b811461168b57600080fd5b50565b60008135905061169d81611677565b92915050565b600080604083850312156116ba576116b9611605565b5b60006116c885828601611658565b92505060206116d98582860161168e565b9150509250929050565b6116ec8161166d565b82525050565b600060208201905061170760008301846116e3565b92915050565b60007fffffffff0000000000000000000000000000000000000000000000000000000082169050919050565b6117428161170d565b811461174d57600080fd5b50565b60008135905061175f81611739565b92915050565b60006020828403121561177b5761177a611605565b5b600061178984828501611750565b91505092915050565b60008115159050919050565b6117a781611792565b82525050565b60006020820190506117c2600083018461179e565b92915050565b6000602082840312156117de576117dd611605565b5b60006117ec8482850161168e565b91505092915050565b600081519050919050565b600082825260208201905092915050565b60005b8381101561182f578082015181840152602081019050611814565b60008484015250505050565b6000601f19601f8301169050919050565b6000611857826117f5565b6118618185611800565b9350611871818560208601611811565b61187a8161183b565b840191505092915050565b6000602082019050818103600083015261189f818461184c565b905092915050565b600080fd5b7f4e487b7100000000000000000000000000000000000000000000000000000000600052604160045260246000fd5b6118e48261183b565b810181811067ffffffffffffffff82111715611903576119026118ac565b5b80604052505050565b60006119166115fb565b905061192282826118db565b919050565b600067ffffffffffffffff821115611942576119416118ac565b5b602082029050602081019050919050565b600080fd5b600061196b61196684611927565b61190c565b9050808382526020820190506020840283018581111561198e5761198d611953565b5b835b818110156119b757806119a3888261168e565b845260208401935050602081019050611990565b5050509392505050565b600082601f8301126119d6576119d56118a7565b5b81356119e6848260208601611958565b91505092915050565b600080fd5b600067ffffffffffffffff821115611a0f57611a0e6118ac565b5b611a188261183b565b9050602081019050919050565b82818337600083830152505050565b6000611a47611a42846119f4565b61190c565b905082815260208101848484011115611a6357611a626119ef565b5b611a6e848285611a25565b509392505050565b600082601f830112611a8b57611a8a6118a7565b5b8135611a9b848260208601611a34565b91505092915050565b600080600080600060a08688031215611ac057611abf611605565b5b6000611ace88828901611658565b9550506020611adf88828901611658565b945050604086013567ffffffffffffffff811115611b0057611aff61160a565b5b611b0c888289016119c1565b935050606086013567ffffffffffffffff811115611b2d57611b2c61160a565b5b611b39888289016119c1565b925050608086013567ffffffffffffffff811115611b5a57611b5961160a565b5b611b6688828901611a76565b9150509295509295909350565b600067ffffffffffffffff821115611b8e57611b8d6118ac565b5b602082029050602081019050919050565b6000611bb2611bad84611b73565b61190c565b90508083825260208201905060208402830185811115611bd557611bd4611953565b5b835b81811015611bfe5780611bea8882611658565b845260208401935050602081019050611bd7565b5050509392505050565b600082601f830112611c1d57611c1c6118a7565b5b8135611c2d848260208601611b9f565b91505092915050565b60008060408385031215611c4d57611c4c611605565b5b600083013567ffffffffffffffff811115611c6b57611c6a61160a565b5b611c7785828601611c08565b925050602083013567ffffffffffffffff811115611c9857611c9761160a565b5b611ca4858286016119c1565b9150509250929050565b600081519050919050565b600082825260208201905092915050565b6000819050602082019050919050565b611ce38161166d565b82525050565b6000611cf58383611cda565b60208301905092915050565b6000602082019050919050565b6000611d1982611cae565b611d238185611cb9565b9350611d2e83611cca565b8060005b83811015611d5f578151611d468882611ce9565b9750611d5183611d01565b925050600181019050611d32565b5085935050505092915050565b60006020820190508181036000830152611d868184611d0e565b905092915050565b611d9781611792565b8114611da257600080fd5b50565b600081359050611db481611d8e565b92915050565b60008060408385031215611dd157611dd0611605565b5b6000611ddf85828601611658565b9250506020611df085828601611da5565b9150509250929050565b60008060408385031215611e1157611e10611605565b5b6000611e1f85828601611658565b9250506020611e3085828601611658565b9150509250929050565b600080600080600060a08688031215611e5657611e55611605565b5b6000611e6488828901611658565b9550506020611e7588828901611658565b9450506040611e868882890161168e565b9350506060611e978882890161168e565b925050608086013567ffffffffffffffff811115611eb857611eb761160a565b5b611ec488828901611a76565b9150509295509295909350565b7f455243313135353a2061646472657373207a65726f206973206e6f742061207660008201527f616c6964206f776e657200000000000000000000000000000000000000000000602082015250565b6000611f2d602a83611800565b9150611f3882611ed1565b604082019050919050565b60006020820190508181036000830152611f5c81611f20565b9050919050565b7f4e487b7100000000000000000000000000000000000000000000000000000000600052602260045260246000fd5b60006002820490506001821680611faa57607f821691505b602082108103611fbd57611fbc611f63565b5b50919050565b7f455243313135353a2063616c6c6572206973206e6f7420746f6b656e206f776e60008201527f6572206f7220617070726f766564000000000000000000000000000000000000602082015250565b600061201f602e83611800565b915061202a82611fc3565b604082019050919050565b6000602082019050818103600083015261204e81612012565b9050919050565b7f455243313135353a206163636f756e747320616e6420696473206c656e67746860008201527f206d69736d617463680000000000000000000000000000000000000000000000602082015250565b60006120b1602983611800565b91506120bc82612055565b604082019050919050565b600060208201905081810360008301526120e0816120a4565b9050919050565b7f4e487b7100000000000000000000000000000000000000000000000000000000600052603260045260246000fd5b7f4e487b7100000000000000000000000000000000000000000000000000000000600052601160045260246000fd5b60006121508261166d565b91507fffffffffffffffffffffffffffffffffffffffffffffffffffffffffffffffff820361218257612181612116565b5b600182019050919050565b7f496e76616c696420636f6c6c656374696f6e2049440000000000000000000000600082015250565b60006121c3601583611800565b91506121ce8261218d565b602082019050919050565b600060208201905081810360008301526121f2816121b6565b9050919050565b7f436f6c6c656374696f6e20646f6573206e6f7420657869737400000000000000600082015250565b600061222f601983611800565b915061223a826121f9565b602082019050919050565b6000602082019050818103600083015261225e81612222565b9050919050565b7f496e636f7272656374207061796d656e7420616d6f756e740000000000000000600082015250565b600061229b601883611800565b91506122a682612265565b602082019050919050565b600060208201905081810360008301526122ca8161228e565b9050919050565b7f455243313135353a2069647320616e6420616d6f756e7473206c656e6774682060008201527f6d69736d61746368000000000000000000000000000000000000000000000000602082015250565b600061232d602883611800565b9150612338826122d1565b604082019050919050565b6000602082019050818103600083015261235c81612320565b9050919050565b7f455243313135353a207472616e7366657220746f20746865207a65726f20616460008201527f6472657373000000000000000000000000000000000000000000000000000000602082015250565b60006123bf602583611800565b91506123ca82612363565b604082019050919050565b600060208201905081810360008301526123ee816123b2565b9050919050565b7f455243313135353a20696e73756666696369656e742062616c616e636520666f60008201527f72207472616e7366657200000000000000000000000000000000000000000000602082015250565b6000612451602a83611800565b915061245c826123f5565b604082019050919050565b6000602082019050818103600083015261248081612444565b9050919050565b60006124928261166d565b915061249d8361166d565b92508282019050808211156124b5576124b4612116565b5b92915050565b600060408201905081810360008301526124d58185611d0e565b905081810360208301526124e98184611d0e565b90509392505050565b7f455243313135353a2073657474696e6720617070726f76616c2073746174757360008201527f20666f722073656c660000000000000000000000000000000000000000000000602082015250565b600061254e602983611800565b9150612559826124f2565b604082019050919050565b6000602082019050818103600083015261257d81612541565b9050919050565b600060408201905061259960008301856116e3565b6125a660208301846116e3565b9392505050565b6125b68161162f565b82525050565b600081519050919050565b600082825260208201905092915050565b60006125e3826125bc565b6125ed81856125c7565b93506125fd818560208601611811565b6126068161183b565b840191505092915050565b600060a08201905061262660008301886125ad565b61263360208301876125ad565b81810360408301526126458186611d0e565b905081810360608301526126598185611d0e565b9050818103608083015261266d81846125d8565b90509695505050505050565b60008151905061268881611739565b92915050565b6000602082840312156126a4576126a3611605565b5b60006126b284828501612679565b91505092915050565b60008160e01c9050919050565b600060033d11156126e75760046000803e6126e46000516126bb565b90505b90565b600060443d10612777576126fc6115fb565b60043d036004823e80513d602482011167ffffffffffffffff82111715612724575050612777565b808201805167ffffffffffffffff8111156127425750505050612777565b80602083010160043d03850181111561275f575050505050612777565b61276e826020018501866118db565b82955050505050505b90565b7f455243313135353a207472616e7366657220746f206e6f6e2d4552433131353560008201527f526563656976657220696d706c656d656e746572000000000000000000000000602082015250565b60006127d6603483611800565b91506127e18261277a565b604082019050919050565b60006020820190508181036000830152612805816127c9565b9050919050565b7f455243313135353a204552433131353552656365697665722072656a6563746560008201527f6420746f6b656e73000000000000000000000000000000000000000000000000602082015250565b6000612868602883611800565b91506128738261280c565b604082019050919050565b600060208201905081810360008301526128978161285b565b9050919050565b600060a0820190506128b360008301886125ad565b6128c060208301876125ad565b6128cd60408301866116e3565b6128da60608301856116e3565b81810360808301526128ec81846125d8565b9050969550505050505056fea26469706673582212209cd49801b82f11523dff78cdc9a13ee581e78dacb7a1d4b24aa04071e1b8fa8464736f6c6343000811003368747470733a2f2f626166796265696737646d786c6f6d776a37376672723766726f706c7937626b6679326766786c6d6179326c7861756261323566617774327978792e697066732e6e667473746f726167652e6c696e6b2f7b69647d2e6a736f6e",
  "linkReferences": {},
  "deployedLinkReferences": {}
}