{
  "_format": "hh-sol-artifact-1",
  "contractName": "InvestmentDAO",
  "sourceName": "contracts/InvestmentDAO.sol",
  "abi": [
    {
      "inputs": [
        {
          "internalType": "address",
          "name": "_tokenAddress",
          "type": "address"
        }
      ],
      "stateMutability": "nonpayable",
      "type": "constructor"
    },
    {
      "anonymous": false,
      "inputs": [
        {
          "indexed": false,
          "internalType": "address",
          "name": "memberAddress",
          "type": "address"
        },
        {
          "indexed": false,
          "internalType": "uint256",
          "name": "tokenBalance",
          "type": "uint256"
        }
      ],
      "name": "AddMember",
      "type": "event"
    },
    {
      "anonymous": false,
      "inputs": [
        {
          "indexed": false,
          "internalType": "uint256",
          "name": "proposalId",
          "type": "uint256"
        },
        {
          "indexed": false,
          "internalType": "string",
          "name": "title",
          "type": "string"
        },
        {
          "indexed": false,
          "internalType": "string",
          "name": "description",
          "type": "string"
        },
        {
          "indexed": false,
          "internalType": "uint256",
          "name": "startTime",
          "type": "uint256"
        },
        {
          "indexed": false,
          "internalType": "uint256",
          "name": "endTime",
          "type": "uint256"
        }
      ],
      "name": "ProposalCreated",
      "type": "event"
    },
    {
      "anonymous": false,
      "inputs": [
        {
          "indexed": false,
          "internalType": "uint256",
          "name": "proposalId",
          "type": "uint256"
        },
        {
          "indexed": false,
          "internalType": "address",
          "name": "voter",
          "type": "address"
        },
        {
          "indexed": false,
          "internalType": "uint256",
          "name": "choice",
          "type": "uint256"
        },
        {
          "indexed": false,
          "internalType": "uint256",
          "name": "yesVotes",
          "type": "uint256"
        },
        {
          "indexed": false,
          "internalType": "uint256",
          "name": "noVotes",
          "type": "uint256"
        }
      ],
      "name": "Voted",
      "type": "event"
    },
    {
      "inputs": [],
      "name": "addMember",
      "outputs": [],
      "stateMutability": "nonpayable",
      "type": "function"
    },
    {
      "inputs": [
        {
          "internalType": "string",
          "name": "_title",
          "type": "string"
        },
        {
          "internalType": "string",
          "name": "_description",
          "type": "string"
        },
        {
          "internalType": "uint256",
          "name": "_startTime",
          "type": "uint256"
        },
        {
          "internalType": "uint256",
          "name": "_endTime",
          "type": "uint256"
        }
      ],
      "name": "createProposal",
      "outputs": [],
      "stateMutability": "nonpayable",
      "type": "function"
    },
    {
      "inputs": [
        {
          "internalType": "uint256",
          "name": "_proposalIndex",
          "type": "uint256"
        }
      ],
      "name": "endVoting",
      "outputs": [],
      "stateMutability": "nonpayable",
      "type": "function"
    },
    {
      "inputs": [],
      "name": "getAllProposals",
      "outputs": [
        {
          "components": [
            {
              "internalType": "uint256",
              "name": "id",
              "type": "uint256"
            },
            {
              "internalType": "address",
              "name": "creator",
              "type": "address"
            },
            {
              "internalType": "string",
              "name": "title",
              "type": "string"
            },
            {
              "internalType": "string",
              "name": "description",
              "type": "string"
            },
            {
              "internalType": "uint256",
              "name": "startTime",
              "type": "uint256"
            },
            {
              "internalType": "uint256",
              "name": "endTime",
              "type": "uint256"
            },
            {
              "internalType": "uint256",
              "name": "yesVotes",
              "type": "uint256"
            },
            {
              "internalType": "uint256",
              "name": "noVotes",
              "type": "uint256"
            }
          ],
          "internalType": "struct InvestmentDAO.Proposal[]",
          "name": "",
          "type": "tuple[]"
        }
      ],
      "stateMutability": "view",
      "type": "function"
    },
    {
      "inputs": [
        {
          "internalType": "address",
          "name": "_address",
          "type": "address"
        }
      ],
      "name": "getMemberStatus",
      "outputs": [
        {
          "internalType": "bool",
          "name": "",
          "type": "bool"
        }
      ],
      "stateMutability": "view",
      "type": "function"
    },
    {
      "inputs": [
        {
          "internalType": "uint256",
          "name": "proposalId",
          "type": "uint256"
        },
        {
          "internalType": "address",
          "name": "_address",
          "type": "address"
        }
      ],
      "name": "getMemberVoteStatus",
      "outputs": [
        {
          "internalType": "bool",
          "name": "",
          "type": "bool"
        }
      ],
      "stateMutability": "view",
      "type": "function"
    },
    {
      "inputs": [],
      "name": "getMembers",
      "outputs": [
        {
          "components": [
            {
              "internalType": "address",
              "name": "memberAddress",
              "type": "address"
            },
            {
              "internalType": "uint256",
              "name": "tokenBalance",
              "type": "uint256"
            }
          ],
          "internalType": "struct InvestmentDAO.Member[]",
          "name": "",
          "type": "tuple[]"
        }
      ],
      "stateMutability": "view",
      "type": "function"
    },
    {
      "inputs": [
        {
          "internalType": "uint256",
          "name": "_proposalIndex",
          "type": "uint256"
        }
      ],
      "name": "getProposal",
      "outputs": [
        {
          "internalType": "address",
          "name": "creator",
          "type": "address"
        },
        {
          "internalType": "string",
          "name": "title",
          "type": "string"
        },
        {
          "internalType": "string",
          "name": "description",
          "type": "string"
        },
        {
          "internalType": "uint256",
          "name": "startTime",
          "type": "uint256"
        },
        {
          "internalType": "uint256",
          "name": "endTime",
          "type": "uint256"
        },
        {
          "internalType": "uint256",
          "name": "yesVotes",
          "type": "uint256"
        },
        {
          "internalType": "uint256",
          "name": "noVotes",
          "type": "uint256"
        }
      ],
      "stateMutability": "view",
      "type": "function"
    },
    {
      "inputs": [
        {
          "internalType": "uint256",
          "name": "_proposalIndex",
          "type": "uint256"
        }
      ],
      "name": "getProposalStatus",
      "outputs": [
        {
          "internalType": "uint256",
          "name": "",
          "type": "uint256"
        }
      ],
      "stateMutability": "view",
      "type": "function"
    },
    {
      "inputs": [
        {
          "internalType": "address",
          "name": "_address",
          "type": "address"
        }
      ],
      "name": "getTokenBalance",
      "outputs": [
        {
          "internalType": "uint256",
          "name": "",
          "type": "uint256"
        }
      ],
      "stateMutability": "view",
      "type": "function"
    },
    {
      "inputs": [],
      "name": "getVoters",
      "outputs": [
        {
          "components": [
            {
              "internalType": "uint256",
              "name": "proposerIndex",
              "type": "uint256"
            },
            {
              "internalType": "address",
              "name": "voterAddress",
              "type": "address"
            },
            {
              "internalType": "uint256",
              "name": "voteChoice",
              "type": "uint256"
            }
          ],
          "internalType": "struct InvestmentDAO.Voter[]",
          "name": "",
          "type": "tuple[]"
        }
      ],
      "stateMutability": "view",
      "type": "function"
    },
    {
      "inputs": [],
      "name": "memberCount",
      "outputs": [
        {
          "internalType": "uint256",
          "name": "",
          "type": "uint256"
        }
      ],
      "stateMutability": "view",
      "type": "function"
    },
    {
      "inputs": [
        {
          "internalType": "uint256",
          "name": "",
          "type": "uint256"
        }
      ],
      "name": "members",
      "outputs": [
        {
          "internalType": "address",
          "name": "memberAddress",
          "type": "address"
        },
        {
          "internalType": "uint256",
          "name": "tokenBalance",
          "type": "uint256"
        }
      ],
      "stateMutability": "view",
      "type": "function"
    },
    {
      "inputs": [
        {
          "internalType": "address",
          "name": "",
          "type": "address"
        }
      ],
      "name": "membersMap",
      "outputs": [
        {
          "internalType": "address",
          "name": "memberAddress",
          "type": "address"
        },
        {
          "internalType": "uint256",
          "name": "tokenBalance",
          "type": "uint256"
        }
      ],
      "stateMutability": "view",
      "type": "function"
    },
    {
      "inputs": [],
      "name": "proposalCount",
      "outputs": [
        {
          "internalType": "uint256",
          "name": "",
          "type": "uint256"
        }
      ],
      "stateMutability": "view",
      "type": "function"
    },
    {
      "inputs": [
        {
          "internalType": "uint256",
          "name": "",
          "type": "uint256"
        }
      ],
      "name": "proposals",
      "outputs": [
        {
          "internalType": "uint256",
          "name": "id",
          "type": "uint256"
        },
        {
          "internalType": "address",
          "name": "creator",
          "type": "address"
        },
        {
          "internalType": "string",
          "name": "title",
          "type": "string"
        },
        {
          "internalType": "string",
          "name": "description",
          "type": "string"
        },
        {
          "internalType": "uint256",
          "name": "startTime",
          "type": "uint256"
        },
        {
          "internalType": "uint256",
          "name": "endTime",
          "type": "uint256"
        },
        {
          "internalType": "uint256",
          "name": "yesVotes",
          "type": "uint256"
        },
        {
          "internalType": "uint256",
          "name": "noVotes",
          "type": "uint256"
        }
      ],
      "stateMutability": "view",
      "type": "function"
    },
    {
      "inputs": [],
      "name": "token",
      "outputs": [
        {
          "internalType": "contract IERC20",
          "name": "",
          "type": "address"
        }
      ],
      "stateMutability": "view",
      "type": "function"
    },
    {
      "inputs": [
        {
          "internalType": "uint256",
          "name": "_proposalIndex",
          "type": "uint256"
        },
        {
          "internalType": "uint256",
          "name": "_choice",
          "type": "uint256"
        }
      ],
      "name": "vote",
      "outputs": [],
      "stateMutability": "nonpayable",
      "type": "function"
    },
    {
      "inputs": [
        {
          "internalType": "uint256",
          "name": "",
          "type": "uint256"
        }
      ],
      "name": "voters",
      "outputs": [
        {
          "internalType": "uint256",
          "name": "proposerIndex",
          "type": "uint256"
        },
        {
          "internalType": "address",
          "name": "voterAddress",
          "type": "address"
        },
        {
          "internalType": "uint256",
          "name": "voteChoice",
          "type": "uint256"
        }
      ],
      "stateMutability": "view",
      "type": "function"
    },
    {
      "inputs": [],
      "name": "votingPeriod",
      "outputs": [
        {
          "internalType": "uint256",
          "name": "",
          "type": "uint256"
        }
      ],
      "stateMutability": "view",
      "type": "function"
    }
  ],
  "bytecode": "0x60806040523480156200001157600080fd5b5060405162003a8c38038062003a8c833981810160405281019062000037919062000129565b80600160006101000a81548173ffffffffffffffffffffffffffffffffffffffff021916908373ffffffffffffffffffffffffffffffffffffffff160217905550336000806101000a81548173ffffffffffffffffffffffffffffffffffffffff021916908373ffffffffffffffffffffffffffffffffffffffff160217905550506200015b565b600080fd5b600073ffffffffffffffffffffffffffffffffffffffff82169050919050565b6000620000f182620000c4565b9050919050565b6200010381620000e4565b81146200010f57600080fd5b50565b6000815190506200012381620000f8565b92915050565b600060208284031215620001425762000141620000bf565b5b6000620001528482850162000112565b91505092915050565b613921806200016b6000396000f3fe608060405234801561001057600080fd5b506004361061012c5760003560e01c80639eab5253116100ad578063da35c66411610071578063da35c66414610354578063da58c7d914610372578063dde8535f146103a4578063e22393b8146103d4578063fc0c546a146104045761012c565b80639eab5253146102a8578063b384abef146102c6578063c7f758a8146102e2578063cceb68f514610318578063cdd72253146103365761012c565b8063401853b7116100f4578063401853b7146101de5780635daf08ca1461020e578063649f89a51461023f5780636b5e17661461025b578063872ea68a146102775761012c565b8063013cf08b14610131578063029d010d1461016857806302a251a31461017257806311aee380146101905780633aecd0e3146101ae575b600080fd5b61014b60048036038101906101469190612352565b610422565b60405161015f98979695949392919061245f565b60405180910390f35b6101706105aa565b005b61017a610a47565b60405161018791906124eb565b60405180910390f35b610198610a4d565b6040516101a591906124eb565b60405180910390f35b6101c860048036038101906101c39190612532565b610a53565b6040516101d591906124eb565b60405180910390f35b6101f860048036038101906101f39190612352565b610af8565b60405161020591906124eb565b60405180910390f35b61022860048036038101906102239190612352565b610bb5565b60405161023692919061255f565b60405180910390f35b61025960048036038101906102549190612352565b610c09565b005b610275600480360381019061027091906125ed565b610fb9565b005b610291600480360381019061028c9190612532565b6114dd565b60405161029f92919061255f565b60405180910390f35b6102b0611521565b6040516102bd9190612790565b60405180910390f35b6102e060048036038101906102db91906127b2565b6115e0565b005b6102fc60048036038101906102f79190612352565b611c4b565b60405161030f97969594939291906127f2565b60405180910390f35b610320611eb5565b60405161032d9190612a32565b60405180910390f35b61033e6120c1565b60405161034b9190612b45565b60405180910390f35b61035c61218a565b60405161036991906124eb565b60405180910390f35b61038c60048036038101906103879190612352565b612190565b60405161039b93929190612b67565b60405180910390f35b6103be60048036038101906103b99190612532565b6121ea565b6040516103cb9190612bb9565b60405180910390f35b6103ee60048036038101906103e99190612bd4565b612284565b6040516103fb9190612bb9565b60405180910390f35b61040c6122ec565b6040516104199190612c73565b60405180910390f35b6002818154811061043257600080fd5b90600052602060002090600802016000915090508060000154908060010160009054906101000a900473ffffffffffffffffffffffffffffffffffffffff169080600201805461048190612cbd565b80601f01602080910402602001604051908101604052809291908181526020018280546104ad90612cbd565b80156104fa5780601f106104cf576101008083540402835291602001916104fa565b820191906000526020600020905b8154815290600101906020018083116104dd57829003601f168201915b50505050509080600301805461050f90612cbd565b80601f016020809104026020016040519081016040528092919081815260200182805461053b90612cbd565b80156105885780601f1061055d57610100808354040283529160200191610588565b820191906000526020600020905b81548152906001019060200180831161056b57829003601f168201915b5050505050908060040154908060050154908060060154908060070154905088565b600073ffffffffffffffffffffffffffffffffffffffff163373ffffffffffffffffffffffffffffffffffffffff1603610619576040517f08c379a000000000000000000000000000000000000000000000000000000000815260040161061090612d3a565b60405180910390fd5b600073ffffffffffffffffffffffffffffffffffffffff16600960003373ffffffffffffffffffffffffffffffffffffffff1673ffffffffffffffffffffffffffffffffffffffff16815260200190815260200160002060000160009054906101000a900473ffffffffffffffffffffffffffffffffffffffff1673ffffffffffffffffffffffffffffffffffffffff16146106ea576040517f08c379a00000000000000000000000000000000000000000000000000000000081526004016106e190612da6565b60405180910390fd5b6000600960003373ffffffffffffffffffffffffffffffffffffffff1673ffffffffffffffffffffffffffffffffffffffff1681526020019081526020016000209050338160000160006101000a81548173ffffffffffffffffffffffffffffffffffffffff021916908373ffffffffffffffffffffffffffffffffffffffff160217905550600160009054906101000a900473ffffffffffffffffffffffffffffffffffffffff1673ffffffffffffffffffffffffffffffffffffffff166370a08231336040518263ffffffff1660e01b81526004016107cb9190612dc6565b602060405180830381865afa1580156107e8573d6000803e3d6000fd5b505050506040513d601f19601f8201168201806040525081019061080c9190612df6565b8160010181905550600460405180604001604052803373ffffffffffffffffffffffffffffffffffffffff168152602001600160009054906101000a900473ffffffffffffffffffffffffffffffffffffffff1673ffffffffffffffffffffffffffffffffffffffff166370a08231336040518263ffffffff1660e01b81526004016108989190612dc6565b602060405180830381865afa1580156108b5573d6000803e3d6000fd5b505050506040513d601f19601f820116820180604052508101906108d99190612df6565b815250908060018154018082558091505060019003906000526020600020906002020160009091909190915060008201518160000160006101000a81548173ffffffffffffffffffffffffffffffffffffffff021916908373ffffffffffffffffffffffffffffffffffffffff1602179055506020820151816001015550506007600081548092919061096b90612e52565b91905055507f8c79ca5dc8dffd30e0ae906c79b4e5d0b55e6e50c77cb39a5acc9f132f13efb433600160009054906101000a900473ffffffffffffffffffffffffffffffffffffffff1673ffffffffffffffffffffffffffffffffffffffff166370a08231336040518263ffffffff1660e01b81526004016109ed9190612dc6565b602060405180830381865afa158015610a0a573d6000803e3d6000fd5b505050506040513d601f19601f82011682018060405250810190610a2e9190612df6565b604051610a3c92919061255f565b60405180910390a150565b60065481565b60075481565b6000600160009054906101000a900473ffffffffffffffffffffffffffffffffffffffff1673ffffffffffffffffffffffffffffffffffffffff166370a08231836040518263ffffffff1660e01b8152600401610ab09190612dc6565b602060405180830381865afa158015610acd573d6000803e3d6000fd5b505050506040513d601f19601f82011682018060405250810190610af19190612df6565b9050919050565b60008060028381548110610b0f57610b0e612e9a565b5b906000526020600020906008020160040154421015610b315760009050610b9a565b60028381548110610b4557610b44612e9a565b5b9060005260206000209060080201600501544211610b665760019050610b99565b60028381548110610b7a57610b79612e9a565b5b906000526020600020906008020160050154421115610b9857600290505b5b5b806002811115610bad57610bac612ec9565b5b915050919050565b60048181548110610bc557600080fd5b90600052602060002090600202016000915090508060000160009054906101000a900473ffffffffffffffffffffffffffffffffffffffff16908060010154905082565b600a60009054906101000a900460ff1615610c59576040517f08c379a0000000000000000000000000000000000000000000000000000000008152600401610c5090612f44565b60405180910390fd5b6001600a60006101000a81548160ff0219169083151502179055506005548110610cb8576040517f08c379a0000000000000000000000000000000000000000000000000000000008152600401610caf90612fb0565b60405180910390fd5b3373ffffffffffffffffffffffffffffffffffffffff1660028281548110610ce357610ce2612e9a565b5b906000526020600020906008020160010160009054906101000a900473ffffffffffffffffffffffffffffffffffffffff1673ffffffffffffffffffffffffffffffffffffffff1614610d6b576040517f08c379a0000000000000000000000000000000000000000000000000000000008152600401610d6290613042565b60405180910390fd5b600060028281548110610d8157610d80612e9a565b5b906000526020600020906008020160405180610100016040529081600082015481526020016001820160009054906101000a900473ffffffffffffffffffffffffffffffffffffffff1673ffffffffffffffffffffffffffffffffffffffff1673ffffffffffffffffffffffffffffffffffffffff168152602001600282018054610e0b90612cbd565b80601f0160208091040260200160405190810160405280929190818152602001828054610e3790612cbd565b8015610e845780601f10610e5957610100808354040283529160200191610e84565b820191906000526020600020905b815481529060010190602001808311610e6757829003601f168201915b50505050508152602001600382018054610e9d90612cbd565b80601f0160208091040260200160405190810160405280929190818152602001828054610ec990612cbd565b8015610f165780601f10610eeb57610100808354040283529160200191610f16565b820191906000526020600020905b815481529060010190602001808311610ef957829003601f168201915b505050505081526020016004820154815260200160058201548152602001600682015481526020016007820154815250509050600654421015610f8e576040517f08c379a0000000000000000000000000000000000000000000000000000000008152600401610f85906130ae565b60405180910390fd5b8060e001518160c001515050506000600a60006101000a81548160ff02191690831515021790555050565b3373ffffffffffffffffffffffffffffffffffffffff16600960003373ffffffffffffffffffffffffffffffffffffffff1673ffffffffffffffffffffffffffffffffffffffff16815260200190815260200160002060000160009054906101000a900473ffffffffffffffffffffffffffffffffffffffff1673ffffffffffffffffffffffffffffffffffffffff1614611089576040517f08c379a000000000000000000000000000000000000000000000000000000000815260040161108090613140565b60405180910390fd5b6000600160009054906101000a900473ffffffffffffffffffffffffffffffffffffffff1673ffffffffffffffffffffffffffffffffffffffff166370a08231336040518263ffffffff1660e01b81526004016110e69190612dc6565b602060405180830381865afa158015611103573d6000803e3d6000fd5b505050506040513d601f19601f820116820180604052508101906111279190612df6565b11611167576040517f08c379a000000000000000000000000000000000000000000000000000000000815260040161115e906131d2565b60405180910390fd5b4282116111a9576040517f08c379a00000000000000000000000000000000000000000000000000000000081526004016111a090613264565b60405180910390fd5b8181116111eb576040517f08c379a00000000000000000000000000000000000000000000000000000000081526004016111e2906132f6565b60405180910390fd5b3373ffffffffffffffffffffffffffffffffffffffff16600960003373ffffffffffffffffffffffffffffffffffffffff1673ffffffffffffffffffffffffffffffffffffffff16815260200190815260200160002060000160009054906101000a900473ffffffffffffffffffffffffffffffffffffffff1673ffffffffffffffffffffffffffffffffffffffff16146112bb576040517f08c379a00000000000000000000000000000000000000000000000000000000081526004016112b290613140565b60405180910390fd5b600260405180610100016040528060055481526020013373ffffffffffffffffffffffffffffffffffffffff16815260200188888080601f016020809104026020016040519081016040528093929190818152602001838380828437600081840152601f19601f82011690508083019250505050505050815260200186868080601f016020809104026020016040519081016040528093929190818152602001838380828437600081840152601f19601f82011690508083019250505050505050815260200184815260200183815260200160008152602001600081525090806001815401808255809150506001900390600052602060002090600802016000909190919091506000820151816000015560208201518160010160006101000a81548173ffffffffffffffffffffffffffffffffffffffff021916908373ffffffffffffffffffffffffffffffffffffffff160217905550604082015181600201908161142891906134e7565b50606082015181600301908161143e91906134e7565b506080820151816004015560a0820151816005015560c0820151816006015560e0820151816007015550506005600081548092919061147c90612e52565b91905055507fd6b0b08c4ffc17964758389955af67e78f9c97140393526749d4994031e62ef260016002805490506114b491906135b9565b8787878787876040516114cd9796959493929190613629565b60405180910390a1505050505050565b60096020528060005260406000206000915090508060000160009054906101000a900473ffffffffffffffffffffffffffffffffffffffff16908060010154905082565b60606004805480602002602001604051908101604052809291908181526020016000905b828210156115d757838290600052602060002090600202016040518060400160405290816000820160009054906101000a900473ffffffffffffffffffffffffffffffffffffffff1673ffffffffffffffffffffffffffffffffffffffff1673ffffffffffffffffffffffffffffffffffffffff16815260200160018201548152505081526020019060010190611545565b50505050905090565b3373ffffffffffffffffffffffffffffffffffffffff16600960003373ffffffffffffffffffffffffffffffffffffffff1673ffffffffffffffffffffffffffffffffffffffff16815260200190815260200160002060000160009054906101000a900473ffffffffffffffffffffffffffffffffffffffff1673ffffffffffffffffffffffffffffffffffffffff16146116b0576040517f08c379a00000000000000000000000000000000000000000000000000000000081526004016116a790613140565b60405180910390fd5b600282815481106116c4576116c3612e9a565b5b906000526020600020906008020160040154600283815481106116ea576116e9612e9a565b5b9060005260206000209060080201600501548142101561173f576040517f08c379a0000000000000000000000000000000000000000000000000000000008152600401611736906136da565b60405180910390fd5b80421115611782576040517f08c379a000000000000000000000000000000000000000000000000000000000815260040161177990613746565b60405180910390fd5b60055484106117c6576040517f08c379a00000000000000000000000000000000000000000000000000000000081526004016117bd90612fb0565b60405180910390fd5b600860003373ffffffffffffffffffffffffffffffffffffffff1673ffffffffffffffffffffffffffffffffffffffff168152602001908152602001600020600085815260200190815260200160002060009054906101000a900460ff1615611864576040517f08c379a000000000000000000000000000000000000000000000000000000000815260040161185b906137d8565b60405180910390fd5b6000600160009054906101000a900473ffffffffffffffffffffffffffffffffffffffff1673ffffffffffffffffffffffffffffffffffffffff166370a08231336040518263ffffffff1660e01b81526004016118c19190612dc6565b602060405180830381865afa1580156118de573d6000803e3d6000fd5b505050506040513d601f19601f820116820180604052508101906119029190612df6565b11611942576040517f08c379a000000000000000000000000000000000000000000000000000000000815260040161193990613844565b60405180910390fd5b3373ffffffffffffffffffffffffffffffffffffffff16600960003373ffffffffffffffffffffffffffffffffffffffff1673ffffffffffffffffffffffffffffffffffffffff16815260200190815260200160002060000160009054906101000a900473ffffffffffffffffffffffffffffffffffffffff1673ffffffffffffffffffffffffffffffffffffffff1614611a12576040517f08c379a0000000000000000000000000000000000000000000000000000000008152600401611a0990613140565b60405180910390fd5b60018303611a5c57600160028581548110611a3057611a2f612e9a565b5b90600052602060002090600802016006016000828254611a509190613864565b92505081905550611a9a565b600160028581548110611a7257611a71612e9a565b5b90600052602060002090600802016007016000828254611a929190613864565b925050819055505b600360405180606001604052808681526020013373ffffffffffffffffffffffffffffffffffffffff1681526020018581525090806001815401808255809150506001900390600052602060002090600302016000909190919091506000820151816000015560208201518160010160006101000a81548173ffffffffffffffffffffffffffffffffffffffff021916908373ffffffffffffffffffffffffffffffffffffffff1602179055506040820151816002015550506001600860003373ffffffffffffffffffffffffffffffffffffffff1673ffffffffffffffffffffffffffffffffffffffff168152602001908152602001600020600086815260200190815260200160002060006101000a81548160ff0219169083151502179055507f7bbc702cfc0c62aaa977159d2c8ff0642f94715abcc34af64106c1b15c2af0a084338560028881548110611bf457611bf3612e9a565b5b90600052602060002090600802016006015460028981548110611c1a57611c19612e9a565b5b906000526020600020906008020160070154604051611c3d959493929190613898565b60405180910390a150505050565b60006060806000806000806005548810611c9a576040517f08c379a0000000000000000000000000000000000000000000000000000000008152600401611c9190612fb0565b60405180910390fd5b600060028981548110611cb057611caf612e9a565b5b906000526020600020906008020160405180610100016040529081600082015481526020016001820160009054906101000a900473ffffffffffffffffffffffffffffffffffffffff1673ffffffffffffffffffffffffffffffffffffffff1673ffffffffffffffffffffffffffffffffffffffff168152602001600282018054611d3a90612cbd565b80601f0160208091040260200160405190810160405280929190818152602001828054611d6690612cbd565b8015611db35780601f10611d8857610100808354040283529160200191611db3565b820191906000526020600020905b815481529060010190602001808311611d9657829003601f168201915b50505050508152602001600382018054611dcc90612cbd565b80601f0160208091040260200160405190810160405280929190818152602001828054611df890612cbd565b8015611e455780601f10611e1a57610100808354040283529160200191611e45565b820191906000526020600020905b815481529060010190602001808311611e2857829003601f168201915b50505050508152602001600482015481526020016005820154815260200160068201548152602001600782015481525050905080602001518160400151826060015183608001518460a001518560c001518660e00151975097509750975097509750975050919395979092949650565b60606002805480602002602001604051908101604052809291908181526020016000905b828210156120b8578382906000526020600020906008020160405180610100016040529081600082015481526020016001820160009054906101000a900473ffffffffffffffffffffffffffffffffffffffff1673ffffffffffffffffffffffffffffffffffffffff1673ffffffffffffffffffffffffffffffffffffffff168152602001600282018054611f6d90612cbd565b80601f0160208091040260200160405190810160405280929190818152602001828054611f9990612cbd565b8015611fe65780601f10611fbb57610100808354040283529160200191611fe6565b820191906000526020600020905b815481529060010190602001808311611fc957829003601f168201915b50505050508152602001600382018054611fff90612cbd565b80601f016020809104026020016040519081016040528092919081815260200182805461202b90612cbd565b80156120785780601f1061204d57610100808354040283529160200191612078565b820191906000526020600020905b81548152906001019060200180831161205b57829003601f168201915b5050505050815260200160048201548152602001600582015481526020016006820154815260200160078201548152505081526020019060010190611ed9565b50505050905090565b60606003805480602002602001604051908101604052809291908181526020016000905b828210156121815783829060005260206000209060030201604051806060016040529081600082015481526020016001820160009054906101000a900473ffffffffffffffffffffffffffffffffffffffff1673ffffffffffffffffffffffffffffffffffffffff1673ffffffffffffffffffffffffffffffffffffffff168152602001600282015481525050815260200190600101906120e5565b50505050905090565b60055481565b600381815481106121a057600080fd5b90600052602060002090600302016000915090508060000154908060010160009054906101000a900473ffffffffffffffffffffffffffffffffffffffff16908060020154905083565b60008173ffffffffffffffffffffffffffffffffffffffff16600960008473ffffffffffffffffffffffffffffffffffffffff1673ffffffffffffffffffffffffffffffffffffffff16815260200190815260200160002060000160009054906101000a900473ffffffffffffffffffffffffffffffffffffffff1673ffffffffffffffffffffffffffffffffffffffff16149050919050565b6000600860008373ffffffffffffffffffffffffffffffffffffffff1673ffffffffffffffffffffffffffffffffffffffff168152602001908152602001600020600084815260200190815260200160002060009054906101000a900460ff16905092915050565b600160009054906101000a900473ffffffffffffffffffffffffffffffffffffffff1681565b600080fd5b600080fd5b6000819050919050565b61232f8161231c565b811461233a57600080fd5b50565b60008135905061234c81612326565b92915050565b60006020828403121561236857612367612312565b5b60006123768482850161233d565b91505092915050565b6123888161231c565b82525050565b600073ffffffffffffffffffffffffffffffffffffffff82169050919050565b60006123b98261238e565b9050919050565b6123c9816123ae565b82525050565b600081519050919050565b600082825260208201905092915050565b60005b838110156124095780820151818401526020810190506123ee565b60008484015250505050565b6000601f19601f8301169050919050565b6000612431826123cf565b61243b81856123da565b935061244b8185602086016123eb565b61245481612415565b840191505092915050565b600061010082019050612475600083018b61237f565b612482602083018a6123c0565b81810360408301526124948189612426565b905081810360608301526124a88188612426565b90506124b7608083018761237f565b6124c460a083018661237f565b6124d160c083018561237f565b6124de60e083018461237f565b9998505050505050505050565b6000602082019050612500600083018461237f565b92915050565b61250f816123ae565b811461251a57600080fd5b50565b60008135905061252c81612506565b92915050565b60006020828403121561254857612547612312565b5b60006125568482850161251d565b91505092915050565b600060408201905061257460008301856123c0565b612581602083018461237f565b9392505050565b600080fd5b600080fd5b600080fd5b60008083601f8401126125ad576125ac612588565b5b8235905067ffffffffffffffff8111156125ca576125c961258d565b5b6020830191508360018202830111156125e6576125e5612592565b5b9250929050565b6000806000806000806080878903121561260a57612609612312565b5b600087013567ffffffffffffffff81111561262857612627612317565b5b61263489828a01612597565b9650965050602087013567ffffffffffffffff81111561265757612656612317565b5b61266389828a01612597565b9450945050604061267689828a0161233d565b925050606061268789828a0161233d565b9150509295509295509295565b600081519050919050565b600082825260208201905092915050565b6000819050602082019050919050565b6126c9816123ae565b82525050565b6126d88161231c565b82525050565b6040820160008201516126f460008501826126c0565b50602082015161270760208501826126cf565b50505050565b600061271983836126de565b60408301905092915050565b6000602082019050919050565b600061273d82612694565b612747818561269f565b9350612752836126b0565b8060005b8381101561278357815161276a888261270d565b975061277583612725565b925050600181019050612756565b5085935050505092915050565b600060208201905081810360008301526127aa8184612732565b905092915050565b600080604083850312156127c9576127c8612312565b5b60006127d78582860161233d565b92505060206127e88582860161233d565b9150509250929050565b600060e082019050612807600083018a6123c0565b81810360208301526128198189612426565b9050818103604083015261282d8188612426565b905061283c606083018761237f565b612849608083018661237f565b61285660a083018561237f565b61286360c083018461237f565b98975050505050505050565b600081519050919050565b600082825260208201905092915050565b6000819050602082019050919050565b600082825260208201905092915050565b60006128b7826123cf565b6128c1818561289b565b93506128d18185602086016123eb565b6128da81612415565b840191505092915050565b6000610100830160008301516128fe60008601826126cf565b50602083015161291160208601826126c0565b506040830151848203604086015261292982826128ac565b9150506060830151848203606086015261294382826128ac565b915050608083015161295860808601826126cf565b5060a083015161296b60a08601826126cf565b5060c083015161297e60c08601826126cf565b5060e083015161299160e08601826126cf565b508091505092915050565b60006129a883836128e5565b905092915050565b6000602082019050919050565b60006129c88261286f565b6129d2818561287a565b9350836020820285016129e48561288b565b8060005b85811015612a205784840389528151612a01858261299c565b9450612a0c836129b0565b925060208a019950506001810190506129e8565b50829750879550505050505092915050565b60006020820190508181036000830152612a4c81846129bd565b905092915050565b600081519050919050565b600082825260208201905092915050565b6000819050602082019050919050565b606082016000820151612a9660008501826126cf565b506020820151612aa960208501826126c0565b506040820151612abc60408501826126cf565b50505050565b6000612ace8383612a80565b60608301905092915050565b6000602082019050919050565b6000612af282612a54565b612afc8185612a5f565b9350612b0783612a70565b8060005b83811015612b38578151612b1f8882612ac2565b9750612b2a83612ada565b925050600181019050612b0b565b5085935050505092915050565b60006020820190508181036000830152612b5f8184612ae7565b905092915050565b6000606082019050612b7c600083018661237f565b612b8960208301856123c0565b612b96604083018461237f565b949350505050565b60008115159050919050565b612bb381612b9e565b82525050565b6000602082019050612bce6000830184612baa565b92915050565b60008060408385031215612beb57612bea612312565b5b6000612bf98582860161233d565b9250506020612c0a8582860161251d565b9150509250929050565b6000819050919050565b6000612c39612c34612c2f8461238e565b612c14565b61238e565b9050919050565b6000612c4b82612c1e565b9050919050565b6000612c5d82612c40565b9050919050565b612c6d81612c52565b82525050565b6000602082019050612c886000830184612c64565b92915050565b7f4e487b7100000000000000000000000000000000000000000000000000000000600052602260045260246000fd5b60006002820490506001821680612cd557607f821691505b602082108103612ce857612ce7612c8e565b5b50919050565b7f496e76616c696420616464726573730000000000000000000000000000000000600082015250565b6000612d24600f836123da565b9150612d2f82612cee565b602082019050919050565b60006020820190508181036000830152612d5381612d17565b9050919050565b7f416c72656164792061206d656d62657200000000000000000000000000000000600082015250565b6000612d906010836123da565b9150612d9b82612d5a565b602082019050919050565b60006020820190508181036000830152612dbf81612d83565b9050919050565b6000602082019050612ddb60008301846123c0565b92915050565b600081519050612df081612326565b92915050565b600060208284031215612e0c57612e0b612312565b5b6000612e1a84828501612de1565b91505092915050565b7f4e487b7100000000000000000000000000000000000000000000000000000000600052601160045260246000fd5b6000612e5d8261231c565b91507fffffffffffffffffffffffffffffffffffffffffffffffffffffffffffffffff8203612e8f57612e8e612e23565b5b600182019050919050565b7f4e487b7100000000000000000000000000000000000000000000000000000000600052603260045260246000fd5b7f4e487b7100000000000000000000000000000000000000000000000000000000600052602160045260246000fd5b7f4e6f2072652d656e7472616e6379000000000000000000000000000000000000600082015250565b6000612f2e600e836123da565b9150612f3982612ef8565b602082019050919050565b60006020820190508181036000830152612f5d81612f21565b9050919050565b7f496e76616c69642070726f706f73616c20696e64657800000000000000000000600082015250565b6000612f9a6016836123da565b9150612fa582612f64565b602082019050919050565b60006020820190508181036000830152612fc981612f8d565b9050919050565b7f4f6e6c79207468652063726561746f72206f66207468652070726f706f73616c60008201527f2063616e20656e642074686520766f74696e6700000000000000000000000000602082015250565b600061302c6033836123da565b915061303782612fd0565b604082019050919050565b6000602082019050818103600083015261305b8161301f565b9050919050565b7f566f74696e6720706572696f6420686173206e6f7420656e6465642079657400600082015250565b6000613098601f836123da565b91506130a382613062565b602082019050919050565b600060208201905081810360008301526130c78161308b565b9050919050565b7f596f7520617265206e6f74207965742061206d656d626572206f66207468697360008201527f20636f6d6d756e69747900000000000000000000000000000000000000000000602082015250565b600061312a602a836123da565b9150613135826130ce565b604082019050919050565b600060208201905081810360008301526131598161311d565b9050919050565b7f596f75206d75737420686f6c6420746f6b656e7320746f20637265617465206160008201527f2070726f706f73616c0000000000000000000000000000000000000000000000602082015250565b60006131bc6029836123da565b91506131c782613160565b604082019050919050565b600060208201905081810360008301526131eb816131af565b9050919050565b7f50726f706f73616c2073746172742074696d65206d75737420626520696e207460008201527f6865206675747572650000000000000000000000000000000000000000000000602082015250565b600061324e6029836123da565b9150613259826131f2565b604082019050919050565b6000602082019050818103600083015261327d81613241565b9050919050565b7f50726f706f73616c20656e642074696d65206d7573742062652061667465722060008201527f73746172742074696d6500000000000000000000000000000000000000000000602082015250565b60006132e0602a836123da565b91506132eb82613284565b604082019050919050565b6000602082019050818103600083015261330f816132d3565b9050919050565b7f4e487b7100000000000000000000000000000000000000000000000000000000600052604160045260246000fd5b60008190508160005260206000209050919050565b60006020601f8301049050919050565b600082821b905092915050565b6000600883026133a77fffffffffffffffffffffffffffffffffffffffffffffffffffffffffffffffff8261336a565b6133b1868361336a565b95508019841693508086168417925050509392505050565b60006133e46133df6133da8461231c565b612c14565b61231c565b9050919050565b6000819050919050565b6133fe836133c9565b61341261340a826133eb565b848454613377565b825550505050565b600090565b61342761341a565b6134328184846133f5565b505050565b5b818110156134565761344b60008261341f565b600181019050613438565b5050565b601f82111561349b5761346c81613345565b6134758461335a565b81016020851015613484578190505b6134986134908561335a565b830182613437565b50505b505050565b600082821c905092915050565b60006134be600019846008026134a0565b1980831691505092915050565b60006134d783836134ad565b9150826002028217905092915050565b6134f0826123cf565b67ffffffffffffffff81111561350957613508613316565b5b6135138254612cbd565b61351e82828561345a565b600060209050601f831160018114613551576000841561353f578287015190505b61354985826134cb565b8655506135b1565b601f19841661355f86613345565b60005b8281101561358757848901518255600182019150602085019450602081019050613562565b868310156135a457848901516135a0601f8916826134ad565b8355505b6001600288020188555050505b505050505050565b60006135c48261231c565b91506135cf8361231c565b92508282039050818111156135e7576135e6612e23565b5b92915050565b82818337600083830152505050565b600061360883856123da565b93506136158385846135ed565b61361e83612415565b840190509392505050565b600060a08201905061363e600083018a61237f565b818103602083015261365181888a6135fc565b905081810360408301526136668186886135fc565b9050613675606083018561237f565b613682608083018461237f565b98975050505050505050565b7f566f74696e6720686173206e6f74207374617274656420796574000000000000600082015250565b60006136c4601a836123da565b91506136cf8261368e565b602082019050919050565b600060208201905081810360008301526136f3816136b7565b9050919050565b7f566f74696e672068617320616c726561647920656e6465640000000000000000600082015250565b60006137306018836123da565b915061373b826136fa565b602082019050919050565b6000602082019050818103600083015261375f81613723565b9050919050565b7f596f75206861766520616c726561647920766f74656420666f7220746869732060008201527f70726f706f73616c000000000000000000000000000000000000000000000000602082015250565b60006137c26028836123da565b91506137cd82613766565b604082019050919050565b600060208201905081810360008301526137f1816137b5565b9050919050565b7f596f75206d75737420686f6c6420746f6b656e7320746f20766f746500000000600082015250565b600061382e601c836123da565b9150613839826137f8565b602082019050919050565b6000602082019050818103600083015261385d81613821565b9050919050565b600061386f8261231c565b915061387a8361231c565b925082820190508082111561389257613891612e23565b5b92915050565b600060a0820190506138ad600083018861237f565b6138ba60208301876123c0565b6138c7604083018661237f565b6138d4606083018561237f565b6138e1608083018461237f565b969550505050505056fea2646970667358221220fce7863a4669af35dfa5b63ca36ed2d4b1f645e728632f5dfb7b615d244bbe4e64736f6c63430008110033",
  "linkReferences": {},
  "deployedLinkReferences": {}
}