{
  "_format": "hh-sol-artifact-1",
  "contractName": "NFTMarketplace",
  "sourceName": "contracts/NFTMarketPlace.sol",
  "abi": [
    {
      "inputs": [],
      "stateMutability": "nonpayable",
      "type": "constructor"
    },
    {
      "anonymous": false,
      "inputs": [
        {
          "indexed": true,
          "internalType": "address",
          "name": "account",
          "type": "address"
        },
        {
          "indexed": true,
          "internalType": "address",
          "name": "operator",
          "type": "address"
        },
        {
          "indexed": false,
          "internalType": "bool",
          "name": "approved",
          "type": "bool"
        }
      ],
      "name": "ApprovalForAll",
      "type": "event"
    },
    {
      "anonymous": false,
      "inputs": [
        {
          "indexed": true,
          "internalType": "address",
          "name": "operator",
          "type": "address"
        },
        {
          "indexed": true,
          "internalType": "address",
          "name": "from",
          "type": "address"
        },
        {
          "indexed": true,
          "internalType": "address",
          "name": "to",
          "type": "address"
        },
        {
          "indexed": false,
          "internalType": "uint256[]",
          "name": "ids",
          "type": "uint256[]"
        },
        {
          "indexed": false,
          "internalType": "uint256[]",
          "name": "values",
          "type": "uint256[]"
        }
      ],
      "name": "TransferBatch",
      "type": "event"
    },
    {
      "anonymous": false,
      "inputs": [
        {
          "indexed": true,
          "internalType": "address",
          "name": "operator",
          "type": "address"
        },
        {
          "indexed": true,
          "internalType": "address",
          "name": "from",
          "type": "address"
        },
        {
          "indexed": true,
          "internalType": "address",
          "name": "to",
          "type": "address"
        },
        {
          "indexed": false,
          "internalType": "uint256",
          "name": "id",
          "type": "uint256"
        },
        {
          "indexed": false,
          "internalType": "uint256",
          "name": "value",
          "type": "uint256"
        }
      ],
      "name": "TransferSingle",
      "type": "event"
    },
    {
      "anonymous": false,
      "inputs": [
        {
          "indexed": false,
          "internalType": "string",
          "name": "value",
          "type": "string"
        },
        {
          "indexed": true,
          "internalType": "uint256",
          "name": "id",
          "type": "uint256"
        }
      ],
      "name": "URI",
      "type": "event"
    },
    {
      "inputs": [
        {
          "internalType": "address",
          "name": "account",
          "type": "address"
        },
        {
          "internalType": "uint256",
          "name": "id",
          "type": "uint256"
        }
      ],
      "name": "balanceOf",
      "outputs": [
        {
          "internalType": "uint256",
          "name": "",
          "type": "uint256"
        }
      ],
      "stateMutability": "view",
      "type": "function"
    },
    {
      "inputs": [
        {
          "internalType": "address[]",
          "name": "accounts",
          "type": "address[]"
        },
        {
          "internalType": "uint256[]",
          "name": "ids",
          "type": "uint256[]"
        }
      ],
      "name": "balanceOfBatch",
      "outputs": [
        {
          "internalType": "uint256[]",
          "name": "",
          "type": "uint256[]"
        }
      ],
      "stateMutability": "view",
      "type": "function"
    },
    {
      "inputs": [
        {
          "internalType": "uint256",
          "name": "collectionId",
          "type": "uint256"
        }
      ],
      "name": "buy",
      "outputs": [],
      "stateMutability": "payable",
      "type": "function"
    },
    {
      "inputs": [
        {
          "internalType": "address",
          "name": "account",
          "type": "address"
        },
        {
          "internalType": "address",
          "name": "operator",
          "type": "address"
        }
      ],
      "name": "isApprovedForAll",
      "outputs": [
        {
          "internalType": "bool",
          "name": "",
          "type": "bool"
        }
      ],
      "stateMutability": "view",
      "type": "function"
    },
    {
      "inputs": [
        {
          "internalType": "address",
          "name": "from",
          "type": "address"
        },
        {
          "internalType": "address",
          "name": "to",
          "type": "address"
        },
        {
          "internalType": "uint256[]",
          "name": "ids",
          "type": "uint256[]"
        },
        {
          "internalType": "uint256[]",
          "name": "amounts",
          "type": "uint256[]"
        },
        {
          "internalType": "bytes",
          "name": "data",
          "type": "bytes"
        }
      ],
      "name": "safeBatchTransferFrom",
      "outputs": [],
      "stateMutability": "nonpayable",
      "type": "function"
    },
    {
      "inputs": [
        {
          "internalType": "address",
          "name": "from",
          "type": "address"
        },
        {
          "internalType": "address",
          "name": "to",
          "type": "address"
        },
        {
          "internalType": "uint256",
          "name": "id",
          "type": "uint256"
        },
        {
          "internalType": "uint256",
          "name": "amount",
          "type": "uint256"
        },
        {
          "internalType": "bytes",
          "name": "data",
          "type": "bytes"
        }
      ],
      "name": "safeTransferFrom",
      "outputs": [],
      "stateMutability": "nonpayable",
      "type": "function"
    },
    {
      "inputs": [
        {
          "internalType": "address",
          "name": "operator",
          "type": "address"
        },
        {
          "internalType": "bool",
          "name": "approved",
          "type": "bool"
        }
      ],
      "name": "setApprovalForAll",
      "outputs": [],
      "stateMutability": "nonpayable",
      "type": "function"
    },
    {
      "inputs": [
        {
          "internalType": "bytes4",
          "name": "interfaceId",
          "type": "bytes4"
        }
      ],
      "name": "supportsInterface",
      "outputs": [
        {
          "internalType": "bool",
          "name": "",
          "type": "bool"
        }
      ],
      "stateMutability": "view",
      "type": "function"
    },
    {
      "inputs": [
        {
          "internalType": "uint256",
          "name": "",
          "type": "uint256"
        }
      ],
      "name": "uri",
      "outputs": [
        {
          "internalType": "string",
          "name": "",
          "type": "string"
        }
      ],
      "stateMutability": "view",
      "type": "function"
    }
  ],
  "bytecode": "0x60806040523480156200001157600080fd5b506040518060a0016040528060628152602001620038a4606291396200003d81620000f860201b60201c565b506000600190505b600a8111620000f1576200007233826001604051806020016040528060008152506200010d60201b60201c565b336003600083815260200190815260200160002060006101000a81548173ffffffffffffffffffffffffffffffffffffffff021916908373ffffffffffffffffffffffffffffffffffffffff160217905550620000db6004620002f460201b620009f01760201c565b8080620000e890620005f8565b91505062000045565b5062000f66565b8060029081620001099190620008b5565b5050565b600073ffffffffffffffffffffffffffffffffffffffff168473ffffffffffffffffffffffffffffffffffffffff16036200017f576040517f08c379a0000000000000000000000000000000000000000000000000000000008152600401620001769062000a23565b60405180910390fd5b6000620001916200030a60201b60201c565b90506000620001a6856200031260201b60201c565b90506000620001bb856200031260201b60201c565b9050620001d4836000898585896200039360201b60201c565b8460008088815260200190815260200160002060008973ffffffffffffffffffffffffffffffffffffffff1673ffffffffffffffffffffffffffffffffffffffff168152602001908152602001600020600082825462000235919062000a45565b925050819055508673ffffffffffffffffffffffffffffffffffffffff16600073ffffffffffffffffffffffffffffffffffffffff168473ffffffffffffffffffffffffffffffffffffffff167fc3d58168c5ae7397731d063d5bbf3d657854427343f4c083240f7aacaa2d0f628989604051620002b592919062000a91565b60405180910390a4620002d4836000898585896200039b60201b60201c565b620002eb83600089898989620003a360201b60201c565b50505050505050565b6001816000016000828254019250508190555050565b600033905090565b60606000600167ffffffffffffffff81111562000334576200033362000650565b5b604051908082528060200260200182016040528015620003635781602001602082028036833780820191505090505b50905082816000815181106200037e576200037d62000abe565b5b60200260200101818152505080915050919050565b505050505050565b505050505050565b620003cf8473ffffffffffffffffffffffffffffffffffffffff166200059c60201b62000a061760201c565b1562000594578373ffffffffffffffffffffffffffffffffffffffff1663f23a6e6187878686866040518663ffffffff1660e01b81526004016200041895949392919062000bcc565b6020604051808303816000875af19250505080156200045757506040513d601f19601f8201168201806040525081019062000454919062000c9c565b60015b62000508576200046662000cdb565b806308c379a003620004c957506200047d62000d36565b806200048a5750620004cb565b806040517f08c379a0000000000000000000000000000000000000000000000000000000008152600401620004c0919062000e12565b60405180910390fd5b505b6040517f08c379a0000000000000000000000000000000000000000000000000000000008152600401620004ff9062000eac565b60405180910390fd5b63f23a6e6160e01b7bffffffffffffffffffffffffffffffffffffffffffffffffffffffff1916817bffffffffffffffffffffffffffffffffffffffffffffffffffffffff19161462000592576040517f08c379a0000000000000000000000000000000000000000000000000000000008152600401620005899062000f44565b60405180910390fd5b505b505050505050565b6000808273ffffffffffffffffffffffffffffffffffffffff163b119050919050565b7f4e487b7100000000000000000000000000000000000000000000000000000000600052601160045260246000fd5b6000819050919050565b60006200060582620005ee565b91507fffffffffffffffffffffffffffffffffffffffffffffffffffffffffffffffff82036200063a5762000639620005bf565b5b600182019050919050565b600081519050919050565b7f4e487b7100000000000000000000000000000000000000000000000000000000600052604160045260246000fd5b7f4e487b7100000000000000000000000000000000000000000000000000000000600052602260045260246000fd5b60006002820490506001821680620006c757607f821691505b602082108103620006dd57620006dc6200067f565b5b50919050565b60008190508160005260206000209050919050565b60006020601f8301049050919050565b600082821b905092915050565b600060088302620007477fffffffffffffffffffffffffffffffffffffffffffffffffffffffffffffffff8262000708565b62000753868362000708565b95508019841693508086168417925050509392505050565b6000819050919050565b600062000796620007906200078a84620005ee565b6200076b565b620005ee565b9050919050565b6000819050919050565b620007b28362000775565b620007ca620007c1826200079d565b84845462000715565b825550505050565b600090565b620007e1620007d2565b620007ee818484620007a7565b505050565b5b8181101562000816576200080a600082620007d7565b600181019050620007f4565b5050565b601f82111562000865576200082f81620006e3565b6200083a84620006f8565b810160208510156200084a578190505b620008626200085985620006f8565b830182620007f3565b50505b505050565b600082821c905092915050565b60006200088a600019846008026200086a565b1980831691505092915050565b6000620008a5838362000877565b9150826002028217905092915050565b620008c08262000645565b67ffffffffffffffff811115620008dc57620008db62000650565b5b620008e88254620006ae565b620008f58282856200081a565b600060209050601f8311600181146200092d576000841562000918578287015190505b62000924858262000897565b86555062000994565b601f1984166200093d86620006e3565b60005b82811015620009675784890151825560018201915060208501945060208101905062000940565b8683101562000987578489015162000983601f89168262000877565b8355505b6001600288020188555050505b505050505050565b600082825260208201905092915050565b7f455243313135353a206d696e7420746f20746865207a65726f2061646472657360008201527f7300000000000000000000000000000000000000000000000000000000000000602082015250565b600062000a0b6021836200099c565b915062000a1882620009ad565b604082019050919050565b6000602082019050818103600083015262000a3e81620009fc565b9050919050565b600062000a5282620005ee565b915062000a5f83620005ee565b925082820190508082111562000a7a5762000a79620005bf565b5b92915050565b62000a8b81620005ee565b82525050565b600060408201905062000aa8600083018562000a80565b62000ab7602083018462000a80565b9392505050565b7f4e487b7100000000000000000000000000000000000000000000000000000000600052603260045260246000fd5b600073ffffffffffffffffffffffffffffffffffffffff82169050919050565b600062000b1a8262000aed565b9050919050565b62000b2c8162000b0d565b82525050565b600081519050919050565b600082825260208201905092915050565b60005b8381101562000b6e57808201518184015260208101905062000b51565b60008484015250505050565b6000601f19601f8301169050919050565b600062000b988262000b32565b62000ba4818562000b3d565b935062000bb681856020860162000b4e565b62000bc18162000b7a565b840191505092915050565b600060a08201905062000be3600083018862000b21565b62000bf2602083018762000b21565b62000c01604083018662000a80565b62000c10606083018562000a80565b818103608083015262000c24818462000b8b565b90509695505050505050565b6000604051905090565b600080fd5b60007fffffffff0000000000000000000000000000000000000000000000000000000082169050919050565b62000c768162000c3f565b811462000c8257600080fd5b50565b60008151905062000c968162000c6b565b92915050565b60006020828403121562000cb55762000cb462000c3a565b5b600062000cc58482850162000c85565b91505092915050565b60008160e01c9050919050565b600060033d111562000cfd5760046000803e62000cfa60005162000cce565b90505b90565b62000d0b8262000b7a565b810181811067ffffffffffffffff8211171562000d2d5762000d2c62000650565b5b80604052505050565b600060443d1062000dce5762000d4b62000c30565b60043d036004823e80513d602482011167ffffffffffffffff8211171562000d7557505062000dce565b808201805167ffffffffffffffff81111562000d95575050505062000dce565b80602083010160043d03850181111562000db457505050505062000dce565b62000dc58260200185018662000d00565b82955050505050505b90565b600062000dde8262000645565b62000dea81856200099c565b935062000dfc81856020860162000b4e565b62000e078162000b7a565b840191505092915050565b6000602082019050818103600083015262000e2e818462000dd1565b905092915050565b7f455243313135353a207472616e7366657220746f206e6f6e2d4552433131353560008201527f526563656976657220696d706c656d656e746572000000000000000000000000602082015250565b600062000e946034836200099c565b915062000ea18262000e36565b604082019050919050565b6000602082019050818103600083015262000ec78162000e85565b9050919050565b7f455243313135353a204552433131353552656365697665722072656a6563746560008201527f6420746f6b656e73000000000000000000000000000000000000000000000000602082015250565b600062000f2c6028836200099c565b915062000f398262000ece565b604082019050919050565b6000602082019050818103600083015262000f5f8162000f1d565b9050919050565b61292e8062000f766000396000f3fe6080604052600436106100855760003560e01c80634e1273f4116100595780634e1273f41461016a578063a22cb465146101a7578063d96a094a146101d0578063e985e9c5146101ec578063f242432a1461022957610085565b8062fdd58e1461008a57806301ffc9a7146100c75780630e89341c146101045780632eb2c2d614610141575b600080fd5b34801561009657600080fd5b506100b160048036038101906100ac91906116a3565b610252565b6040516100be91906116f2565b60405180910390f35b3480156100d357600080fd5b506100ee60048036038101906100e99190611765565b61031a565b6040516100fb91906117ad565b60405180910390f35b34801561011057600080fd5b5061012b600480360381019061012691906117c8565b6103fc565b6040516101389190611885565b60405180910390f35b34801561014d57600080fd5b5061016860048036038101906101639190611aa4565b610490565b005b34801561017657600080fd5b50610191600480360381019061018c9190611c36565b610531565b60405161019e9190611d6c565b60405180910390f35b3480156101b357600080fd5b506101ce60048036038101906101c99190611dba565b61064a565b005b6101ea60048036038101906101e591906117c8565b610660565b005b3480156101f857600080fd5b50610213600480360381019061020e9190611dfa565b6108bb565b60405161022091906117ad565b60405180910390f35b34801561023557600080fd5b50610250600480360381019061024b9190611e3a565b61094f565b005b60008073ffffffffffffffffffffffffffffffffffffffff168373ffffffffffffffffffffffffffffffffffffffff16036102c2576040517f08c379a00000000000000000000000000000000000000000000000000000000081526004016102b990611f43565b60405180910390fd5b60008083815260200190815260200160002060008473ffffffffffffffffffffffffffffffffffffffff1673ffffffffffffffffffffffffffffffffffffffff16815260200190815260200160002054905092915050565b60007fd9b67a26000000000000000000000000000000000000000000000000000000007bffffffffffffffffffffffffffffffffffffffffffffffffffffffff1916827bffffffffffffffffffffffffffffffffffffffffffffffffffffffff191614806103e557507f0e89341c000000000000000000000000000000000000000000000000000000007bffffffffffffffffffffffffffffffffffffffffffffffffffffffff1916827bffffffffffffffffffffffffffffffffffffffffffffffffffffffff1916145b806103f557506103f482610a29565b5b9050919050565b60606002805461040b90611f92565b80601f016020809104026020016040519081016040528092919081815260200182805461043790611f92565b80156104845780601f1061045957610100808354040283529160200191610484565b820191906000526020600020905b81548152906001019060200180831161046757829003601f168201915b50505050509050919050565b610498610a93565b73ffffffffffffffffffffffffffffffffffffffff168573ffffffffffffffffffffffffffffffffffffffff1614806104de57506104dd856104d8610a93565b6108bb565b5b61051d576040517f08c379a000000000000000000000000000000000000000000000000000000000815260040161051490612035565b60405180910390fd5b61052a8585858585610a9b565b5050505050565b60608151835114610577576040517f08c379a000000000000000000000000000000000000000000000000000000000815260040161056e906120c7565b60405180910390fd5b6000835167ffffffffffffffff811115610594576105936118ac565b5b6040519080825280602002602001820160405280156105c25781602001602082028036833780820191505090505b50905060005b845181101561063f5761060f8582815181106105e7576105e66120e7565b5b6020026020010151858381518110610602576106016120e7565b5b6020026020010151610252565b828281518110610622576106216120e7565b5b6020026020010181815250508061063890612145565b90506105c8565b508091505092915050565b61065c610655610a93565b8383610dbc565b5050565b6000811180156106715750600a8111155b6106b0576040517f08c379a00000000000000000000000000000000000000000000000000000000081526004016106a7906121d9565b60405180910390fd5b600073ffffffffffffffffffffffffffffffffffffffff166003600083815260200190815260200160002060009054906101000a900473ffffffffffffffffffffffffffffffffffffffff1673ffffffffffffffffffffffffffffffffffffffff1603610752576040517f08c379a000000000000000000000000000000000000000000000000000000000815260040161074990612245565b60405180910390fd5b670de0b6b3a7640000341461079c576040517f08c379a0000000000000000000000000000000000000000000000000000000008152600401610793906122b1565b60405180910390fd5b6107ec6003600083815260200190815260200160002060009054906101000a900473ffffffffffffffffffffffffffffffffffffffff16338360016040518060200160405280600081525061094f565b6003600082815260200190815260200160002060009054906101000a900473ffffffffffffffffffffffffffffffffffffffff1673ffffffffffffffffffffffffffffffffffffffff166108fc349081150290604051600060405180830381858888f19350505050158015610865573d6000803e3d6000fd5b50336003600083815260200190815260200160002060006101000a81548173ffffffffffffffffffffffffffffffffffffffff021916908373ffffffffffffffffffffffffffffffffffffffff16021790555050565b6000600160008473ffffffffffffffffffffffffffffffffffffffff1673ffffffffffffffffffffffffffffffffffffffff16815260200190815260200160002060008373ffffffffffffffffffffffffffffffffffffffff1673ffffffffffffffffffffffffffffffffffffffff16815260200190815260200160002060009054906101000a900460ff16905092915050565b610957610a93565b73ffffffffffffffffffffffffffffffffffffffff168573ffffffffffffffffffffffffffffffffffffffff16148061099d575061099c85610997610a93565b6108bb565b5b6109dc576040517f08c379a00000000000000000000000000000000000000000000000000000000081526004016109d390612035565b60405180910390fd5b6109e98585858585610f28565b5050505050565b6001816000016000828254019250508190555050565b6000808273ffffffffffffffffffffffffffffffffffffffff163b119050919050565b60007f01ffc9a7000000000000000000000000000000000000000000000000000000007bffffffffffffffffffffffffffffffffffffffffffffffffffffffff1916827bffffffffffffffffffffffffffffffffffffffffffffffffffffffff1916149050919050565b600033905090565b8151835114610adf576040517f08c379a0000000000000000000000000000000000000000000000000000000008152600401610ad690612343565b60405180910390fd5b600073ffffffffffffffffffffffffffffffffffffffff168473ffffffffffffffffffffffffffffffffffffffff1603610b4e576040517f08c379a0000000000000000000000000000000000000000000000000000000008152600401610b45906123d5565b60405180910390fd5b6000610b58610a93565b9050610b688187878787876111c3565b60005b8451811015610d19576000858281518110610b8957610b886120e7565b5b602002602001015190506000858381518110610ba857610ba76120e7565b5b60200260200101519050600080600084815260200190815260200160002060008b73ffffffffffffffffffffffffffffffffffffffff1673ffffffffffffffffffffffffffffffffffffffff16815260200190815260200160002054905081811015610c49576040517f08c379a0000000000000000000000000000000000000000000000000000000008152600401610c4090612467565b60405180910390fd5b81810360008085815260200190815260200160002060008c73ffffffffffffffffffffffffffffffffffffffff1673ffffffffffffffffffffffffffffffffffffffff168152602001908152602001600020819055508160008085815260200190815260200160002060008b73ffffffffffffffffffffffffffffffffffffffff1673ffffffffffffffffffffffffffffffffffffffff1681526020019081526020016000206000828254610cfe9190612487565b9250508190555050505080610d1290612145565b9050610b6b565b508473ffffffffffffffffffffffffffffffffffffffff168673ffffffffffffffffffffffffffffffffffffffff168273ffffffffffffffffffffffffffffffffffffffff167f4a39dc06d4c0dbc64b70af90fd698a233a518aa5d07e595d983b8c0526c8f7fb8787604051610d909291906124bb565b60405180910390a4610da68187878787876111cb565b610db48187878787876111d3565b505050505050565b8173ffffffffffffffffffffffffffffffffffffffff168373ffffffffffffffffffffffffffffffffffffffff1603610e2a576040517f08c379a0000000000000000000000000000000000000000000000000000000008152600401610e2190612564565b60405180910390fd5b80600160008573ffffffffffffffffffffffffffffffffffffffff1673ffffffffffffffffffffffffffffffffffffffff16815260200190815260200160002060008473ffffffffffffffffffffffffffffffffffffffff1673ffffffffffffffffffffffffffffffffffffffff16815260200190815260200160002060006101000a81548160ff0219169083151502179055508173ffffffffffffffffffffffffffffffffffffffff168373ffffffffffffffffffffffffffffffffffffffff167f17307eab39ab6107e8899845ad3d59bd9653f200f220920489ca2b5937696c3183604051610f1b91906117ad565b60405180910390a3505050565b600073ffffffffffffffffffffffffffffffffffffffff168473ffffffffffffffffffffffffffffffffffffffff1603610f97576040517f08c379a0000000000000000000000000000000000000000000000000000000008152600401610f8e906123d5565b60405180910390fd5b6000610fa1610a93565b90506000610fae856113aa565b90506000610fbb856113aa565b9050610fcb8389898585896111c3565b600080600088815260200190815260200160002060008a73ffffffffffffffffffffffffffffffffffffffff1673ffffffffffffffffffffffffffffffffffffffff16815260200190815260200160002054905085811015611062576040517f08c379a000000000000000000000000000000000000000000000000000000000815260040161105990612467565b60405180910390fd5b85810360008089815260200190815260200160002060008b73ffffffffffffffffffffffffffffffffffffffff1673ffffffffffffffffffffffffffffffffffffffff168152602001908152602001600020819055508560008089815260200190815260200160002060008a73ffffffffffffffffffffffffffffffffffffffff1673ffffffffffffffffffffffffffffffffffffffff16815260200190815260200160002060008282546111179190612487565b925050819055508773ffffffffffffffffffffffffffffffffffffffff168973ffffffffffffffffffffffffffffffffffffffff168573ffffffffffffffffffffffffffffffffffffffff167fc3d58168c5ae7397731d063d5bbf3d657854427343f4c083240f7aacaa2d0f628a8a604051611194929190612584565b60405180910390a46111aa848a8a86868a6111cb565b6111b8848a8a8a8a8a611424565b505050505050505050565b505050505050565b505050505050565b6111f28473ffffffffffffffffffffffffffffffffffffffff16610a06565b156113a2578373ffffffffffffffffffffffffffffffffffffffff1663bc197c8187878686866040518663ffffffff1660e01b8152600401611238959493929190612611565b6020604051808303816000875af192505050801561127457506040513d601f19601f82011682018060405250810190611271919061268e565b60015b611319576112806126c8565b806308c379a0036112dc57506112946126ea565b8061129f57506112de565b806040517f08c379a00000000000000000000000000000000000000000000000000000000081526004016112d39190611885565b60405180910390fd5b505b6040517f08c379a0000000000000000000000000000000000000000000000000000000008152600401611310906127ec565b60405180910390fd5b63bc197c8160e01b7bffffffffffffffffffffffffffffffffffffffffffffffffffffffff1916817bffffffffffffffffffffffffffffffffffffffffffffffffffffffff1916146113a0576040517f08c379a00000000000000000000000000000000000000000000000000000000081526004016113979061287e565b60405180910390fd5b505b505050505050565b60606000600167ffffffffffffffff8111156113c9576113c86118ac565b5b6040519080825280602002602001820160405280156113f75781602001602082028036833780820191505090505b509050828160008151811061140f5761140e6120e7565b5b60200260200101818152505080915050919050565b6114438473ffffffffffffffffffffffffffffffffffffffff16610a06565b156115f3578373ffffffffffffffffffffffffffffffffffffffff1663f23a6e6187878686866040518663ffffffff1660e01b815260040161148995949392919061289e565b6020604051808303816000875af19250505080156114c557506040513d601f19601f820116820180604052508101906114c2919061268e565b60015b61156a576114d16126c8565b806308c379a00361152d57506114e56126ea565b806114f0575061152f565b806040517f08c379a00000000000000000000000000000000000000000000000000000000081526004016115249190611885565b60405180910390fd5b505b6040517f08c379a0000000000000000000000000000000000000000000000000000000008152600401611561906127ec565b60405180910390fd5b63f23a6e6160e01b7bffffffffffffffffffffffffffffffffffffffffffffffffffffffff1916817bffffffffffffffffffffffffffffffffffffffffffffffffffffffff1916146115f1576040517f08c379a00000000000000000000000000000000000000000000000000000000081526004016115e89061287e565b60405180910390fd5b505b505050505050565b6000604051905090565b600080fd5b600080fd5b600073ffffffffffffffffffffffffffffffffffffffff82169050919050565b600061163a8261160f565b9050919050565b61164a8161162f565b811461165557600080fd5b50565b60008135905061166781611641565b92915050565b6000819050919050565b6116808161166d565b811461168b57600080fd5b50565b60008135905061169d81611677565b92915050565b600080604083850312156116ba576116b9611605565b5b60006116c885828601611658565b92505060206116d98582860161168e565b9150509250929050565b6116ec8161166d565b82525050565b600060208201905061170760008301846116e3565b92915050565b60007fffffffff0000000000000000000000000000000000000000000000000000000082169050919050565b6117428161170d565b811461174d57600080fd5b50565b60008135905061175f81611739565b92915050565b60006020828403121561177b5761177a611605565b5b600061178984828501611750565b91505092915050565b60008115159050919050565b6117a781611792565b82525050565b60006020820190506117c2600083018461179e565b92915050565b6000602082840312156117de576117dd611605565b5b60006117ec8482850161168e565b91505092915050565b600081519050919050565b600082825260208201905092915050565b60005b8381101561182f578082015181840152602081019050611814565b60008484015250505050565b6000601f19601f8301169050919050565b6000611857826117f5565b6118618185611800565b9350611871818560208601611811565b61187a8161183b565b840191505092915050565b6000602082019050818103600083015261189f818461184c565b905092915050565b600080fd5b7f4e487b7100000000000000000000000000000000000000000000000000000000600052604160045260246000fd5b6118e48261183b565b810181811067ffffffffffffffff82111715611903576119026118ac565b5b80604052505050565b60006119166115fb565b905061192282826118db565b919050565b600067ffffffffffffffff821115611942576119416118ac565b5b602082029050602081019050919050565b600080fd5b600061196b61196684611927565b61190c565b9050808382526020820190506020840283018581111561198e5761198d611953565b5b835b818110156119b757806119a3888261168e565b845260208401935050602081019050611990565b5050509392505050565b600082601f8301126119d6576119d56118a7565b5b81356119e6848260208601611958565b91505092915050565b600080fd5b600067ffffffffffffffff821115611a0f57611a0e6118ac565b5b611a188261183b565b9050602081019050919050565b82818337600083830152505050565b6000611a47611a42846119f4565b61190c565b905082815260208101848484011115611a6357611a626119ef565b5b611a6e848285611a25565b509392505050565b600082601f830112611a8b57611a8a6118a7565b5b8135611a9b848260208601611a34565b91505092915050565b600080600080600060a08688031215611ac057611abf611605565b5b6000611ace88828901611658565b9550506020611adf88828901611658565b945050604086013567ffffffffffffffff811115611b0057611aff61160a565b5b611b0c888289016119c1565b935050606086013567ffffffffffffffff811115611b2d57611b2c61160a565b5b611b39888289016119c1565b925050608086013567ffffffffffffffff811115611b5a57611b5961160a565b5b611b6688828901611a76565b9150509295509295909350565b600067ffffffffffffffff821115611b8e57611b8d6118ac565b5b602082029050602081019050919050565b6000611bb2611bad84611b73565b61190c565b90508083825260208201905060208402830185811115611bd557611bd4611953565b5b835b81811015611bfe5780611bea8882611658565b845260208401935050602081019050611bd7565b5050509392505050565b600082601f830112611c1d57611c1c6118a7565b5b8135611c2d848260208601611b9f565b91505092915050565b60008060408385031215611c4d57611c4c611605565b5b600083013567ffffffffffffffff811115611c6b57611c6a61160a565b5b611c7785828601611c08565b925050602083013567ffffffffffffffff811115611c9857611c9761160a565b5b611ca4858286016119c1565b9150509250929050565b600081519050919050565b600082825260208201905092915050565b6000819050602082019050919050565b611ce38161166d565b82525050565b6000611cf58383611cda565b60208301905092915050565b6000602082019050919050565b6000611d1982611cae565b611d238185611cb9565b9350611d2e83611cca565b8060005b83811015611d5f578151611d468882611ce9565b9750611d5183611d01565b925050600181019050611d32565b5085935050505092915050565b60006020820190508181036000830152611d868184611d0e565b905092915050565b611d9781611792565b8114611da257600080fd5b50565b600081359050611db481611d8e565b92915050565b60008060408385031215611dd157611dd0611605565b5b6000611ddf85828601611658565b9250506020611df085828601611da5565b9150509250929050565b60008060408385031215611e1157611e10611605565b5b6000611e1f85828601611658565b9250506020611e3085828601611658565b9150509250929050565b600080600080600060a08688031215611e5657611e55611605565b5b6000611e6488828901611658565b9550506020611e7588828901611658565b9450506040611e868882890161168e565b9350506060611e978882890161168e565b925050608086013567ffffffffffffffff811115611eb857611eb761160a565b5b611ec488828901611a76565b9150509295509295909350565b7f455243313135353a2061646472657373207a65726f206973206e6f742061207660008201527f616c6964206f776e657200000000000000000000000000000000000000000000602082015250565b6000611f2d602a83611800565b9150611f3882611ed1565b604082019050919050565b60006020820190508181036000830152611f5c81611f20565b9050919050565b7f4e487b7100000000000000000000000000000000000000000000000000000000600052602260045260246000fd5b60006002820490506001821680611faa57607f821691505b602082108103611fbd57611fbc611f63565b5b50919050565b7f455243313135353a2063616c6c6572206973206e6f7420746f6b656e206f776e60008201527f6572206f7220617070726f766564000000000000000000000000000000000000602082015250565b600061201f602e83611800565b915061202a82611fc3565b604082019050919050565b6000602082019050818103600083015261204e81612012565b9050919050565b7f455243313135353a206163636f756e747320616e6420696473206c656e67746860008201527f206d69736d617463680000000000000000000000000000000000000000000000602082015250565b60006120b1602983611800565b91506120bc82612055565b604082019050919050565b600060208201905081810360008301526120e0816120a4565b9050919050565b7f4e487b7100000000000000000000000000000000000000000000000000000000600052603260045260246000fd5b7f4e487b7100000000000000000000000000000000000000000000000000000000600052601160045260246000fd5b60006121508261166d565b91507fffffffffffffffffffffffffffffffffffffffffffffffffffffffffffffffff820361218257612181612116565b5b600182019050919050565b7f496e76616c696420636f6c6c656374696f6e2049440000000000000000000000600082015250565b60006121c3601583611800565b91506121ce8261218d565b602082019050919050565b600060208201905081810360008301526121f2816121b6565b9050919050565b7f436f6c6c656374696f6e20646f6573206e6f7420657869737400000000000000600082015250565b600061222f601983611800565b915061223a826121f9565b602082019050919050565b6000602082019050818103600083015261225e81612222565b9050919050565b7f496e636f7272656374207061796d656e7420616d6f756e740000000000000000600082015250565b600061229b601883611800565b91506122a682612265565b602082019050919050565b600060208201905081810360008301526122ca8161228e565b9050919050565b7f455243313135353a2069647320616e6420616d6f756e7473206c656e6774682060008201527f6d69736d61746368000000000000000000000000000000000000000000000000602082015250565b600061232d602883611800565b9150612338826122d1565b604082019050919050565b6000602082019050818103600083015261235c81612320565b9050919050565b7f455243313135353a207472616e7366657220746f20746865207a65726f20616460008201527f6472657373000000000000000000000000000000000000000000000000000000602082015250565b60006123bf602583611800565b91506123ca82612363565b604082019050919050565b600060208201905081810360008301526123ee816123b2565b9050919050565b7f455243313135353a20696e73756666696369656e742062616c616e636520666f60008201527f72207472616e7366657200000000000000000000000000000000000000000000602082015250565b6000612451602a83611800565b915061245c826123f5565b604082019050919050565b6000602082019050818103600083015261248081612444565b9050919050565b60006124928261166d565b915061249d8361166d565b92508282019050808211156124b5576124b4612116565b5b92915050565b600060408201905081810360008301526124d58185611d0e565b905081810360208301526124e98184611d0e565b90509392505050565b7f455243313135353a2073657474696e6720617070726f76616c2073746174757360008201527f20666f722073656c660000000000000000000000000000000000000000000000602082015250565b600061254e602983611800565b9150612559826124f2565b604082019050919050565b6000602082019050818103600083015261257d81612541565b9050919050565b600060408201905061259960008301856116e3565b6125a660208301846116e3565b9392505050565b6125b68161162f565b82525050565b600081519050919050565b600082825260208201905092915050565b60006125e3826125bc565b6125ed81856125c7565b93506125fd818560208601611811565b6126068161183b565b840191505092915050565b600060a08201905061262660008301886125ad565b61263360208301876125ad565b81810360408301526126458186611d0e565b905081810360608301526126598185611d0e565b9050818103608083015261266d81846125d8565b90509695505050505050565b60008151905061268881611739565b92915050565b6000602082840312156126a4576126a3611605565b5b60006126b284828501612679565b91505092915050565b60008160e01c9050919050565b600060033d11156126e75760046000803e6126e46000516126bb565b90505b90565b600060443d10612777576126fc6115fb565b60043d036004823e80513d602482011167ffffffffffffffff82111715612724575050612777565b808201805167ffffffffffffffff8111156127425750505050612777565b80602083010160043d03850181111561275f575050505050612777565b61276e826020018501866118db565b82955050505050505b90565b7f455243313135353a207472616e7366657220746f206e6f6e2d4552433131353560008201527f526563656976657220696d706c656d656e746572000000000000000000000000602082015250565b60006127d6603483611800565b91506127e18261277a565b604082019050919050565b60006020820190508181036000830152612805816127c9565b9050919050565b7f455243313135353a204552433131353552656365697665722072656a6563746560008201527f6420746f6b656e73000000000000000000000000000000000000000000000000602082015250565b6000612868602883611800565b91506128738261280c565b604082019050919050565b600060208201905081810360008301526128978161285b565b9050919050565b600060a0820190506128b360008301886125ad565b6128c060208301876125ad565b6128cd60408301866116e3565b6128da60608301856116e3565b81810360808301526128ec81846125d8565b9050969550505050505056fea26469706673582212209cd49801b82f11523dff78cdc9a13ee581e78dacb7a1d4b24aa04071e1b8fa8464736f6c6343000811003368747470733a2f2f626166796265696737646d786c6f6d776a37376672723766726f706c7937626b6679326766786c6d6179326c7861756261323566617774327978792e697066732e6e667473746f726167652e6c696e6b2f7b69647d2e6a736f6e",
  "linkReferences": {},
  "deployedLinkReferences": {}
}