{
  "_format": "hh-sol-artifact-1",
  "contractName": "SplitPayment",
  "sourceName": "contracts/SplitPayment.sol",
  "abi": [
    {
      "inputs": [],
      "stateMutability": "nonpayable",
      "type": "constructor"
    },
    {
      "anonymous": false,
      "inputs": [
        {
          "indexed": false,
          "internalType": "address",
          "name": "_from",
          "type": "address"
        },
        {
          "indexed": false,
          "internalType": "uint256",
          "name": "_amount",
          "type": "uint256"
        }
      ],
      "name": "TransferReceived",
      "type": "event"
    },
    {
      "inputs": [
        {
          "internalType": "address payable",
          "name": "_address",
          "type": "address"
        }
      ],
      "name": "addReceipients",
      "outputs": [],
      "stateMutability": "nonpayable",
      "type": "function"
    },
    {
      "inputs": [],
      "name": "clearRecipients",
      "outputs": [],
      "stateMutability": "nonpayable",
      "type": "function"
    },
    {
      "inputs": [],
      "name": "contractBalance",
      "outputs": [
        {
          "internalType": "uint256",
          "name": "",
          "type": "uint256"
        }
      ],
      "stateMutability": "view",
      "type": "function"
    },
    {
      "inputs": [],
      "name": "fundContract",
      "outputs": [],
      "stateMutability": "payable",
      "type": "function"
    },
    {
      "inputs": [],
      "name": "getReceipients",
      "outputs": [
        {
          "internalType": "address payable[]",
          "name": "_address",
          "type": "address[]"
        }
      ],
      "stateMutability": "view",
      "type": "function"
    },
    {
      "inputs": [
        {
          "internalType": "uint256",
          "name": "",
          "type": "uint256"
        }
      ],
      "name": "recipients",
      "outputs": [
        {
          "internalType": "address payable",
          "name": "",
          "type": "address"
        }
      ],
      "stateMutability": "view",
      "type": "function"
    },
    {
      "inputs": [],
      "name": "split",
      "outputs": [],
      "stateMutability": "payable",
      "type": "function"
    },
    {
      "stateMutability": "payable",
      "type": "receive"
    }
  ],
  "bytecode": "0x608060405234801561001057600080fd5b5033600160006101000a81548173ffffffffffffffffffffffffffffffffffffffff021916908373ffffffffffffffffffffffffffffffffffffffff160217905550610e42806100616000396000f3fe6080604052600436106100745760003560e01c8063bd097e211161004e578063bd097e21146100ff578063d1bc76a114610109578063d8fa8b6b14610146578063f76541761461015d5761007b565b80636b9171b6146100805780638b7afe2e146100ab578063b498adae146100d65761007b565b3661007b57005b600080fd5b34801561008c57600080fd5b50610095610167565b6040516100a29190610912565b60405180910390f35b3480156100b757600080fd5b506100c06101f5565b6040516100cd919061094d565b60405180910390f35b3480156100e257600080fd5b506100fd60048036038101906100f89190610999565b6101fd565b005b6101076102f3565b005b34801561011557600080fd5b50610130600480360381019061012b91906109f2565b610427565b60405161013d9190610a2e565b60405180910390f35b34801561015257600080fd5b5061015b610466565b005b61016561054c565b005b606060008054806020026020016040519081016040528092919081815260200182805480156101eb57602002820191906000526020600020905b8160009054906101000a900473ffffffffffffffffffffffffffffffffffffffff1673ffffffffffffffffffffffffffffffffffffffff16815260200190600101908083116101a1575b5050505050905090565b600047905090565b600160009054906101000a900473ffffffffffffffffffffffffffffffffffffffff1673ffffffffffffffffffffffffffffffffffffffff163373ffffffffffffffffffffffffffffffffffffffff161461028d576040517f08c379a000000000000000000000000000000000000000000000000000000000815260040161028490610aa6565b60405180910390fd5b6000819080600181540180825580915050600190039060005260206000200160009091909190916101000a81548173ffffffffffffffffffffffffffffffffffffffff021916908373ffffffffffffffffffffffffffffffffffffffff16021790555050565b600160149054906101000a900460ff1615610343576040517f08c379a000000000000000000000000000000000000000000000000000000000815260040161033a90610b12565b60405180910390fd5b60018060146101000a81548160ff02191690831515021790555060003073ffffffffffffffffffffffffffffffffffffffff163460405161038390610b63565b60006040518083038185875af1925050503d80600081146103c0576040519150601f19603f3d011682016040523d82523d6000602084013e6103c5565b606091505b5050905080610409576040517f08c379a000000000000000000000000000000000000000000000000000000000815260040161040090610bc4565b60405180910390fd5b506000600160146101000a81548160ff021916908315150217905550565b6000818154811061043757600080fd5b906000526020600020016000915054906101000a900473ffffffffffffffffffffffffffffffffffffffff1681565b600160009054906101000a900473ffffffffffffffffffffffffffffffffffffffff1673ffffffffffffffffffffffffffffffffffffffff163373ffffffffffffffffffffffffffffffffffffffff16146104f6576040517f08c379a00000000000000000000000000000000000000000000000000000000081526004016104ed90610aa6565b60405180910390fd5b600080805490500361053d576040517f08c379a000000000000000000000000000000000000000000000000000000000815260040161053490610c30565b60405180910390fd5b60008061054a91906107e4565b565b600160009054906101000a900473ffffffffffffffffffffffffffffffffffffffff1673ffffffffffffffffffffffffffffffffffffffff163373ffffffffffffffffffffffffffffffffffffffff16146105dc576040517f08c379a00000000000000000000000000000000000000000000000000000000081526004016105d390610aa6565b60405180910390fd5b600160149054906101000a900460ff161561062c576040517f08c379a000000000000000000000000000000000000000000000000000000000815260040161062390610b12565b60405180910390fd5b60018060146101000a81548160ff021916908315150217905550600080805490500361068d576040517f08c379a000000000000000000000000000000000000000000000000000000000815260040161068490610c30565b60405180910390fd5b600047116106d0576040517f08c379a00000000000000000000000000000000000000000000000000000000081526004016106c790610c9c565b60405180910390fd5b60008080549050346106e29190610d1a565b905060005b60008054905081101561078c576000818154811061070857610707610d4b565b5b9060005260206000200160009054906101000a900473ffffffffffffffffffffffffffffffffffffffff1673ffffffffffffffffffffffffffffffffffffffff166108fc839081150290604051600060405180830381858888f19350505050158015610778573d6000803e3d6000fd5b50808061078490610d7a565b9150506106e7565b507ff1b03f708b9c39f453fe3f0cef84164c7d6f7df836df0796e1e9c2bce6ee397e33346040516107be929190610de3565b60405180910390a1506000600160146101000a81548160ff021916908315150217905550565b50805460008255906000526020600020908101906108029190610805565b50565b5b8082111561081e576000816000905550600101610806565b5090565b600081519050919050565b600082825260208201905092915050565b6000819050602082019050919050565b600073ffffffffffffffffffffffffffffffffffffffff82169050919050565b60006108798261084e565b9050919050565b6108898161086e565b82525050565b600061089b8383610880565b60208301905092915050565b6000602082019050919050565b60006108bf82610822565b6108c9818561082d565b93506108d48361083e565b8060005b838110156109055781516108ec888261088f565b97506108f7836108a7565b9250506001810190506108d8565b5085935050505092915050565b6000602082019050818103600083015261092c81846108b4565b905092915050565b6000819050919050565b61094781610934565b82525050565b6000602082019050610962600083018461093e565b92915050565b600080fd5b6109768161086e565b811461098157600080fd5b50565b6000813590506109938161096d565b92915050565b6000602082840312156109af576109ae610968565b5b60006109bd84828501610984565b91505092915050565b6109cf81610934565b81146109da57600080fd5b50565b6000813590506109ec816109c6565b92915050565b600060208284031215610a0857610a07610968565b5b6000610a16848285016109dd565b91505092915050565b610a288161086e565b82525050565b6000602082019050610a436000830184610a1f565b92915050565b600082825260208201905092915050565b7f596f7520617265206e6f7420746865206f776e65720000000000000000000000600082015250565b6000610a90601583610a49565b9150610a9b82610a5a565b602082019050919050565b60006020820190508181036000830152610abf81610a83565b9050919050565b7f4e6f2072652d656e7472616e6379000000000000000000000000000000000000600082015250565b6000610afc600e83610a49565b9150610b0782610ac6565b602082019050919050565b60006020820190508181036000830152610b2b81610aef565b9050919050565b600081905092915050565b50565b6000610b4d600083610b32565b9150610b5882610b3d565b600082019050919050565b6000610b6e82610b40565b9150819050919050565b7f4661696c656420746f2073656e64204574686572000000000000000000000000600082015250565b6000610bae601483610a49565b9150610bb982610b78565b602082019050919050565b60006020820190508181036000830152610bdd81610ba1565b9050919050565b7f546865726520617265206e6f2072656365697069656e74730000000000000000600082015250565b6000610c1a601883610a49565b9150610c2582610be4565b602082019050919050565b60006020820190508181036000830152610c4981610c0d565b9050919050565b7f4e6f2066756e6420696e20746865206163636f756e7400000000000000000000600082015250565b6000610c86601683610a49565b9150610c9182610c50565b602082019050919050565b60006020820190508181036000830152610cb581610c79565b9050919050565b7f4e487b7100000000000000000000000000000000000000000000000000000000600052601260045260246000fd5b7f4e487b7100000000000000000000000000000000000000000000000000000000600052601160045260246000fd5b6000610d2582610934565b9150610d3083610934565b925082610d4057610d3f610cbc565b5b828204905092915050565b7f4e487b7100000000000000000000000000000000000000000000000000000000600052603260045260246000fd5b6000610d8582610934565b91507fffffffffffffffffffffffffffffffffffffffffffffffffffffffffffffffff8203610db757610db6610ceb565b5b600182019050919050565b6000610dcd8261084e565b9050919050565b610ddd81610dc2565b82525050565b6000604082019050610df86000830185610dd4565b610e05602083018461093e565b939250505056fea264697066735822122055f3dc45d187f8b83129f5d2b58529f87c8de6f724ac113d00141bf611b647ba64736f6c63430008110033",
  "linkReferences": {},
  "deployedLinkReferences": {}
}