{
  "abi": [
    {
      "inputs": [],
      "stateMutability": "nonpayable",
      "type": "constructor"
    },
    {
      "stateMutability": "payable",
      "type": "fallback"
    },
    {
      "inputs": [
        {
          "internalType": "address",
          "name": "_collectionAddress",
          "type": "address"
        },
        {
          "internalType": "uint256",
          "name": "_nftId",
          "type": "uint256"
        }
      ],
      "name": "buyIn",
      "outputs": [],
      "stateMutability": "payable",
      "type": "function"
    },
    {
      "inputs": [],
      "name": "buyPosition",
      "outputs": [],
      "stateMutability": "nonpayable",
      "type": "function"
    },
    {
      "inputs": [
        {
          "internalType": "uint256",
          "name": "_nftId",
          "type": "uint256"
        },
        {
          "internalType": "address",
          "name": "_collectionAddress",
          "type": "address"
        },
        {
          "internalType": "uint256",
          "name": "_amount",
          "type": "uint256"
        }
      ],
      "name": "calculatePercentage",
      "outputs": [
        {
          "internalType": "uint256",
          "name": "",
          "type": "uint256"
        }
      ],
      "stateMutability": "view",
      "type": "function"
    },
    {
      "inputs": [
        {
          "internalType": "address",
          "name": "_collectionAddress",
          "type": "address"
        },
        {
          "internalType": "uint256",
          "name": "_nftId",
          "type": "uint256"
        },
        {
          "internalType": "address",
          "name": "_ownerAddress",
          "type": "address"
        }
      ],
      "name": "getOwnershipPercentage",
      "outputs": [
        {
          "internalType": "uint256",
          "name": "percentage",
          "type": "uint256"
        }
      ],
      "stateMutability": "view",
      "type": "function"
    },
    {
      "inputs": [
        {
          "internalType": "address",
          "name": "_collectionAddress",
          "type": "address"
        },
        {
          "internalType": "uint256",
          "name": "_nftId",
          "type": "uint256"
        }
      ],
      "name": "getRemainingPosition",
      "outputs": [
        {
          "internalType": "uint256",
          "name": "remaining",
          "type": "uint256"
        }
      ],
      "stateMutability": "view",
      "type": "function"
    },
    {
      "inputs": [
        {
          "internalType": "uint256",
          "name": "_nftId",
          "type": "uint256"
        },
        {
          "internalType": "address",
          "name": "_collectionAddress",
          "type": "address"
        },
        {
          "internalType": "uint256",
          "name": "_assetPrice",
          "type": "uint256"
        }
      ],
      "name": "listForFractionalization",
      "outputs": [
        {
          "internalType": "bool",
          "name": "success",
          "type": "bool"
        }
      ],
      "stateMutability": "nonpayable",
      "type": "function"
    },
    {
      "inputs": [],
      "name": "offerPosition",
      "outputs": [],
      "stateMutability": "nonpayable",
      "type": "function"
    },
    {
      "inputs": [
        {
          "internalType": "address",
          "name": "",
          "type": "address"
        },
        {
          "internalType": "address",
          "name": "",
          "type": "address"
        },
        {
          "internalType": "uint256",
          "name": "",
          "type": "uint256"
        },
        {
          "internalType": "bytes",
          "name": "",
          "type": "bytes"
        }
      ],
      "name": "onERC721Received",
      "outputs": [
        {
          "internalType": "bytes4",
          "name": "",
          "type": "bytes4"
        }
      ],
      "stateMutability": "nonpayable",
      "type": "function"
    },
    {
      "inputs": [],
      "name": "totalAssets",
      "outputs": [
        {
          "internalType": "uint256",
          "name": "",
          "type": "uint256"
        }
      ],
      "stateMutability": "view",
      "type": "function"
    },
    {
      "inputs": [
        {
          "internalType": "address",
          "name": "_collectionAddress",
          "type": "address"
        },
        {
          "internalType": "uint256",
          "name": "_nftId",
          "type": "uint256"
        }
      ],
      "name": "withdraw",
      "outputs": [],
      "stateMutability": "nonpayable",
      "type": "function"
    },
    {
      "stateMutability": "payable",
      "type": "receive"
    }
  ],
  "bytecode": {
    "object": "0x6080604052600060025534801561001557600080fd5b50610c5c806100256000396000f3fe60806040526004361061008f5760003560e01c8063357b138411610056578063357b1384146101445780637c08a96014610138578063ac63a37d14610164578063f3fef3a314610194578063f5241897146101b457005b806301e1d11414610098578063150b7a02146100c1578063275ebeeb14610105578063287e3602146101185780632c16421b1461013857005b3661009657005b005b3480156100a457600080fd5b506100ae60025481565b6040519081526020015b60405180910390f35b3480156100cd57600080fd5b506100ec6100dc3660046109f4565b630a85bd0160e11b949350505050565b6040516001600160e01b031990911681526020016100b8565b610096610113366004610ad4565b610206565b34801561012457600080fd5b506100ae610133366004610ad4565b610393565b34801561009657600080fd5b34801561015057600080fd5b506100ae61015f366004610b00565b6103d2565b34801561017057600080fd5b5061018461017f366004610b00565b6104fa565b60405190151581526020016100b8565b3480156101a057600080fd5b506100966101af366004610ad4565b61073e565b3480156101c057600080fd5b506100ae6101cf366004610b38565b6001600160a01b03928316600090815260208181526040808320948352938152838220929094168152600390910190925290205490565b6000341161026c5760405162461bcd60e51b815260206004820152602860248201527f6e6565642062616c616e63652067726561746572207468616e207a65726f20746044820152673790313abc9034b760c11b60648201526084015b60405180910390fd5b6040516331a9108f60e11b81526004810182905230906001600160a01b03841690636352211e90602401602060405180830381865afa1580156102b3573d6000803e3d6000fd5b505050506040513d601f19601f820116820180604052508101906102d79190610b7a565b6001600160a01b03161461032d5760405162461bcd60e51b815260206004820152601760248201527f726571756573746564206e6674206e6f7420666f756e640000000000000000006044820152606401610263565b600061033a8284346103d2565b6001600160a01b03841660009081526020818152604080832086845280835281842033855260038101845291842085905586845290915260010180549293503492909190610389908490610bb4565b9091555050505050565b6001600160a01b038216600090815260208181526040808320848452909152812060028101546001909101546103c98183610bcd565b95945050505050565b6001600160a01b038216600090815260208181526040808320868452909152812060020154816104028587610393565b90508084106104705760405162461bcd60e51b815260206004820152603460248201527f616d6f756e742067726561746572207468616e20617661696c61626c65207368604482015273617265206f66206e66742072656d61696e696e6760601b6064820152608401610263565b600080610487610481876064610be0565b85610992565b91509150816104ef5760405162461bcd60e51b815260206004820152602e60248201527f6572726f722063616c63756c6174696e672070657263656e74616765206f662060448201526d1bdddb9a5b99c81d1a19481b999d60921b6064820152608401610263565b979650505050505050565b6040516331a9108f60e11b8152600481018490526000908490849033906001600160a01b03831690636352211e90602401602060405180830381865afa158015610548573d6000803e3d6000fd5b505050506040513d601f19601f8201168201806040525081019061056c9190610b7a565b6001600160a01b0316146105d05760405162461bcd60e51b815260206004820152602560248201527f4f6e6c79204e4654206f776e65722063616e2063616c6c20746869732066756e60448201526431ba34b7b760d91b6064820152608401610263565b600280549060006105e083610bf7565b90915550506001600160a01b0385166000818152602081815260408083208a84529091529081902080546001600160a01b031916339081178255600282018890559151632142170760e11b815260048101929092523060248301526044820189905291906342842e0e90606401600060405180830381600087803b15801561066757600080fd5b505af115801561067b573d6000803e3d6000fd5b50506040516331a9108f60e11b8152600481018a90523092506001600160a01b0389169150636352211e90602401602060405180830381865afa1580156106c6573d6000803e3d6000fd5b505050506040513d601f19601f820116820180604052508101906106ea9190610b7a565b6001600160a01b0316149350836107345760405162461bcd60e51b815260206004820152600e60248201526d1b1a5cdd1a5b99c819985a5b195960921b6044820152606401610263565b5050509392505050565b6001600160a01b038281166000908152602081815260408083208584529091529020541633146107d65760405162461bcd60e51b815260206004820152603960248201527f6f6e6c792074686520696e697469616c206f776e6572206f6620746865206e6660448201527f742063616e2063616c6c20746869732066756e6374696f6e73000000000000006064820152608401610263565b6001600160a01b03821660009081526020818152604080832084845290915290206004015460ff16156108405760405162461bcd60e51b8152602060048201526012602482015271185b1c9958591e4818d85cda1959081bdd5d60721b6044820152606401610263565b6001600160a01b0382166000908152602081815260408083208484529091529020600281015460019091015410156108e05760405162461bcd60e51b815260206004820152603b60248201527f7769746864726177616c206f6e6c7920617661696c61626c65207768656e206160448201527f73736574207072696365203d3d2073686172657320626f7567687400000000006064820152608401610263565b6001600160a01b0382166000908152602081815260408083208484529091528082206001015490513391908381818185875af1925050503d8060008114610943576040519150601f19603f3d011682016040523d82523d6000602084013e610948565b606091505b505090508061098d5760405162461bcd60e51b8152602060048201526011602482015270195c9c9bdc8818d85cda1a5b99c81bdd5d607a1b6044820152606401610263565b505050565b600080826000036109a8575060009050806109bf565b60018385816109b9576109b9610c10565b04915091505b9250929050565b6001600160a01b03811681146109db57600080fd5b50565b634e487b7160e01b600052604160045260246000fd5b60008060008060808587031215610a0a57600080fd5b8435610a15816109c6565b93506020850135610a25816109c6565b925060408501359150606085013567ffffffffffffffff80821115610a4957600080fd5b818701915087601f830112610a5d57600080fd5b813581811115610a6f57610a6f6109de565b604051601f8201601f19908116603f01168101908382118183101715610a9757610a976109de565b816040528281528a6020848701011115610ab057600080fd5b82602086016020830137600060208483010152809550505050505092959194509250565b60008060408385031215610ae757600080fd5b8235610af2816109c6565b946020939093013593505050565b600080600060608486031215610b1557600080fd5b833592506020840135610b27816109c6565b929592945050506040919091013590565b600080600060608486031215610b4d57600080fd5b8335610b58816109c6565b9250602084013591506040840135610b6f816109c6565b809150509250925092565b600060208284031215610b8c57600080fd5b8151610b97816109c6565b9392505050565b634e487b7160e01b600052601160045260246000fd5b80820180821115610bc757610bc7610b9e565b92915050565b81810381811115610bc757610bc7610b9e565b8082028115828204841417610bc757610bc7610b9e565b600060018201610c0957610c09610b9e565b5060010190565b634e487b7160e01b600052601260045260246000fdfea26469706673582212208f31ef24471b461e92b8770f8caf98dca36d0475ee3fff88fc5346a09d7702ac64736f6c63430008130033",
    "linkReferences": {}
  },
  "methodIdentifiers": {
    "buyIn(address,uint256)": "275ebeeb",
    "buyPosition()": "7c08a960",
    "calculatePercentage(uint256,address,uint256)": "357b1384",
    "getOwnershipPercentage(address,uint256,address)": "f5241897",
    "getRemainingPosition(address,uint256)": "287e3602",
    "listForFractionalization(uint256,address,uint256)": "ac63a37d",
    "offerPosition()": "2c16421b",
    "onERC721Received(address,address,uint256,bytes)": "150b7a02",
    "totalAssets()": "01e1d114",
    "withdraw(address,uint256)": "f3fef3a3"
  },
  "id": 35
}