{
	"abi": [
		{
			"inputs": [],
			"stateMutability": "nonpayable",
			"type": "constructor"
		},
		{
			"anonymous": false,
			"inputs": [
				{
					"indexed": true,
					"internalType": "address",
					"name": "owner",
					"type": "address"
				},
				{
					"indexed": true,
					"internalType": "address",
					"name": "approved",
					"type": "address"
				},
				{
					"indexed": true,
					"internalType": "uint256",
					"name": "tokenId",
					"type": "uint256"
				}
			],
			"name": "Approval",
			"type": "event"
		},
		{
			"anonymous": false,
			"inputs": [
				{
					"indexed": true,
					"internalType": "address",
					"name": "owner",
					"type": "address"
				},
				{
					"indexed": true,
					"internalType": "address",
					"name": "operator",
					"type": "address"
				},
				{
					"indexed": false,
					"internalType": "bool",
					"name": "approved",
					"type": "bool"
				}
			],
			"name": "ApprovalForAll",
			"type": "event"
		},
		{
			"anonymous": false,
			"inputs": [
				{
					"indexed": true,
					"internalType": "address",
					"name": "previousOwner",
					"type": "address"
				},
				{
					"indexed": true,
					"internalType": "address",
					"name": "newOwner",
					"type": "address"
				}
			],
			"name": "OwnershipTransferred",
			"type": "event"
		},
		{
			"anonymous": false,
			"inputs": [
				{
					"indexed": false,
					"internalType": "address",
					"name": "account",
					"type": "address"
				}
			],
			"name": "Paused",
			"type": "event"
		},
		{
			"anonymous": false,
			"inputs": [
				{
					"indexed": true,
					"internalType": "address",
					"name": "from",
					"type": "address"
				},
				{
					"indexed": true,
					"internalType": "address",
					"name": "to",
					"type": "address"
				},
				{
					"indexed": true,
					"internalType": "uint256",
					"name": "tokenId",
					"type": "uint256"
				}
			],
			"name": "Transfer",
			"type": "event"
		},
		{
			"anonymous": false,
			"inputs": [
				{
					"indexed": false,
					"internalType": "address",
					"name": "account",
					"type": "address"
				}
			],
			"name": "Unpaused",
			"type": "event"
		},
		{
			"inputs": [
				{
					"internalType": "address",
					"name": "to",
					"type": "address"
				},
				{
					"internalType": "uint256",
					"name": "tokenId",
					"type": "uint256"
				}
			],
			"name": "approve",
			"outputs": [],
			"stateMutability": "nonpayable",
			"type": "function"
		},
		{
			"inputs": [
				{
					"internalType": "address",
					"name": "owner",
					"type": "address"
				}
			],
			"name": "balanceOf",
			"outputs": [
				{
					"internalType": "uint256",
					"name": "",
					"type": "uint256"
				}
			],
			"stateMutability": "view",
			"type": "function"
		},
		{
			"inputs": [
				{
					"internalType": "uint256",
					"name": "tokenId",
					"type": "uint256"
				}
			],
			"name": "getApproved",
			"outputs": [
				{
					"internalType": "address",
					"name": "",
					"type": "address"
				}
			],
			"stateMutability": "view",
			"type": "function"
		},
		{
			"inputs": [
				{
					"internalType": "address",
					"name": "owner",
					"type": "address"
				},
				{
					"internalType": "address",
					"name": "operator",
					"type": "address"
				}
			],
			"name": "isApprovedForAll",
			"outputs": [
				{
					"internalType": "bool",
					"name": "",
					"type": "bool"
				}
			],
			"stateMutability": "view",
			"type": "function"
		},
		{
			"inputs": [],
			"name": "name",
			"outputs": [
				{
					"internalType": "string",
					"name": "",
					"type": "string"
				}
			],
			"stateMutability": "view",
			"type": "function"
		},
		{
			"inputs": [],
			"name": "owner",
			"outputs": [
				{
					"internalType": "address",
					"name": "",
					"type": "address"
				}
			],
			"stateMutability": "view",
			"type": "function"
		},
		{
			"inputs": [
				{
					"internalType": "uint256",
					"name": "tokenId",
					"type": "uint256"
				}
			],
			"name": "ownerOf",
			"outputs": [
				{
					"internalType": "address",
					"name": "",
					"type": "address"
				}
			],
			"stateMutability": "view",
			"type": "function"
		},
		{
			"inputs": [],
			"name": "pause",
			"outputs": [],
			"stateMutability": "nonpayable",
			"type": "function"
		},
		{
			"inputs": [],
			"name": "paused",
			"outputs": [
				{
					"internalType": "bool",
					"name": "",
					"type": "bool"
				}
			],
			"stateMutability": "view",
			"type": "function"
		},
		{
			"inputs": [],
			"name": "renounceOwnership",
			"outputs": [],
			"stateMutability": "nonpayable",
			"type": "function"
		},
		{
			"inputs": [
				{
					"internalType": "address",
					"name": "to",
					"type": "address"
				},
				{
					"internalType": "string",
					"name": "uri",
					"type": "string"
				}
			],
			"name": "safeMint",
			"outputs": [],
			"stateMutability": "nonpayable",
			"type": "function"
		},
		{
			"inputs": [
				{
					"internalType": "address",
					"name": "from",
					"type": "address"
				},
				{
					"internalType": "address",
					"name": "to",
					"type": "address"
				},
				{
					"internalType": "uint256",
					"name": "tokenId",
					"type": "uint256"
				}
			],
			"name": "safeTransferFrom",
			"outputs": [],
			"stateMutability": "nonpayable",
			"type": "function"
		},
		{
			"inputs": [
				{
					"internalType": "address",
					"name": "from",
					"type": "address"
				},
				{
					"internalType": "address",
					"name": "to",
					"type": "address"
				},
				{
					"internalType": "uint256",
					"name": "tokenId",
					"type": "uint256"
				},
				{
					"internalType": "bytes",
					"name": "data",
					"type": "bytes"
				}
			],
			"name": "safeTransferFrom",
			"outputs": [],
			"stateMutability": "nonpayable",
			"type": "function"
		},
		{
			"inputs": [
				{
					"internalType": "address",
					"name": "operator",
					"type": "address"
				},
				{
					"internalType": "bool",
					"name": "approved",
					"type": "bool"
				}
			],
			"name": "setApprovalForAll",
			"outputs": [],
			"stateMutability": "nonpayable",
			"type": "function"
		},
		{
			"inputs": [
				{
					"internalType": "bytes4",
					"name": "interfaceId",
					"type": "bytes4"
				}
			],
			"name": "supportsInterface",
			"outputs": [
				{
					"internalType": "bool",
					"name": "",
					"type": "bool"
				}
			],
			"stateMutability": "view",
			"type": "function"
		},
		{
			"inputs": [],
			"name": "symbol",
			"outputs": [
				{
					"internalType": "string",
					"name": "",
					"type": "string"
				}
			],
			"stateMutability": "view",
			"type": "function"
		},
		{
			"inputs": [
				{
					"internalType": "uint256",
					"name": "index",
					"type": "uint256"
				}
			],
			"name": "tokenByIndex",
			"outputs": [
				{
					"internalType": "uint256",
					"name": "",
					"type": "uint256"
				}
			],
			"stateMutability": "view",
			"type": "function"
		},
		{
			"inputs": [
				{
					"internalType": "address",
					"name": "owner",
					"type": "address"
				},
				{
					"internalType": "uint256",
					"name": "index",
					"type": "uint256"
				}
			],
			"name": "tokenOfOwnerByIndex",
			"outputs": [
				{
					"internalType": "uint256",
					"name": "",
					"type": "uint256"
				}
			],
			"stateMutability": "view",
			"type": "function"
		},
		{
			"inputs": [
				{
					"internalType": "uint256",
					"name": "tokenId",
					"type": "uint256"
				}
			],
			"name": "tokenURI",
			"outputs": [
				{
					"internalType": "string",
					"name": "",
					"type": "string"
				}
			],
			"stateMutability": "view",
			"type": "function"
		},
		{
			"inputs": [],
			"name": "totalSupply",
			"outputs": [
				{
					"internalType": "uint256",
					"name": "",
					"type": "uint256"
				}
			],
			"stateMutability": "view",
			"type": "function"
		},
		{
			"inputs": [
				{
					"internalType": "address",
					"name": "from",
					"type": "address"
				},
				{
					"internalType": "address",
					"name": "to",
					"type": "address"
				},
				{
					"internalType": "uint256",
					"name": "tokenId",
					"type": "uint256"
				}
			],
			"name": "transferFrom",
			"outputs": [],
			"stateMutability": "nonpayable",
			"type": "function"
		},
		{
			"inputs": [
				{
					"internalType": "address",
					"name": "newOwner",
					"type": "address"
				}
			],
			"name": "transferOwnership",
			"outputs": [],
			"stateMutability": "nonpayable",
			"type": "function"
		},
		{
			"inputs": [],
			"name": "unpause",
			"outputs": [],
			"stateMutability": "nonpayable",
			"type": "function"
		}
	],
	"bytecode": {
		"object": "0x60806040523480156200001157600080fd5b50604051806040016040528060068152602001654b6f62656e6960d01b8152506040518060400160405280600381526020016225a12760e91b81525081600090816200005e91906200018a565b5060016200006d82826200018a565b5050600b805460ff191690555062000085336200008b565b62000256565b600b80546001600160a01b03838116610100818102610100600160a81b031985161790945560405193909204169182907f8be0079c531659141344cd1fd0a4f28419497f9722a3daafe3b4186f6b6457e090600090a35050565b634e487b7160e01b600052604160045260246000fd5b600181811c908216806200011057607f821691505b6020821081036200013157634e487b7160e01b600052602260045260246000fd5b50919050565b601f8211156200018557600081815260208120601f850160051c81016020861015620001605750805b601f850160051c820191505b8181101562000181578281556001016200016c565b5050505b505050565b81516001600160401b03811115620001a657620001a6620000e5565b620001be81620001b78454620000fb565b8462000137565b602080601f831160018114620001f65760008415620001dd5750858301515b600019600386901b1c1916600185901b17855562000181565b600085815260208120601f198616915b82811015620002275788860151825594840194600190910190840162000206565b5085821015620002465787850151600019600388901b60f8161c191681555b5050505050600190811b01905550565b611e5480620002666000396000f3fe608060405234801561001057600080fd5b506004361061014d5760003560e01c80636352211e116100c3578063a22cb4651161007c578063a22cb46514610294578063b88d4fde146102a7578063c87b56dd146102ba578063d204c45e146102cd578063e985e9c5146102e0578063f2fde38b1461031c57600080fd5b80636352211e1461024057806370a0823114610253578063715018a6146102665780638456cb591461026e5780638da5cb5b1461027657806395d89b411461028c57600080fd5b806323b872dd1161011557806323b872dd146101e15780632f745c59146101f45780633f4ba83a1461020757806342842e0e1461020f5780634f6ccce7146102225780635c975abb1461023557600080fd5b806301ffc9a71461015257806306fdde031461017a578063081812fc1461018f578063095ea7b3146101ba57806318160ddd146101cf575b600080fd5b61016561016036600461180d565b61032f565b60405190151581526020015b60405180910390f35b610182610340565b604051610171919061187a565b6101a261019d36600461188d565b6103d2565b6040516001600160a01b039091168152602001610171565b6101cd6101c83660046118c2565b6103f9565b005b6008545b604051908152602001610171565b6101cd6101ef3660046118ec565b610513565b6101d36102023660046118c2565b610544565b6101cd6105da565b6101cd61021d3660046118ec565b6105ec565b6101d361023036600461188d565b610607565b600b5460ff16610165565b6101a261024e36600461188d565b61069a565b6101d3610261366004611928565b6106fa565b6101cd610780565b6101cd610792565b600b5461010090046001600160a01b03166101a2565b6101826107a2565b6101cd6102a2366004611943565b6107b1565b6101cd6102b5366004611a0b565b6107c0565b6101826102c836600461188d565b6107f8565b6101cd6102db366004611a87565b610803565b6101656102ee366004611ae9565b6001600160a01b03918216600090815260056020908152604080832093909416825291909152205460ff1690565b6101cd61032a366004611928565b61083a565b600061033a826108b3565b92915050565b60606000805461034f90611b1c565b80601f016020809104026020016040519081016040528092919081815260200182805461037b90611b1c565b80156103c85780601f1061039d576101008083540402835291602001916103c8565b820191906000526020600020905b8154815290600101906020018083116103ab57829003601f168201915b5050505050905090565b60006103dd826108d8565b506000908152600460205260409020546001600160a01b031690565b60006104048261069a565b9050806001600160a01b0316836001600160a01b0316036104765760405162461bcd60e51b815260206004820152602160248201527f4552433732313a20617070726f76616c20746f2063757272656e74206f776e656044820152603960f91b60648201526084015b60405180910390fd5b336001600160a01b0382161480610492575061049281336102ee565b6105045760405162461bcd60e51b815260206004820152603d60248201527f4552433732313a20617070726f76652063616c6c6572206973206e6f7420746f60448201527f6b656e206f776e6572206f7220617070726f76656420666f7220616c6c000000606482015260840161046d565b61050e8383610937565b505050565b61051d33826109a5565b6105395760405162461bcd60e51b815260040161046d90611b56565b61050e838383610a24565b600061054f836106fa565b82106105b15760405162461bcd60e51b815260206004820152602b60248201527f455243373231456e756d657261626c653a206f776e657220696e646578206f7560448201526a74206f6620626f756e647360a81b606482015260840161046d565b506001600160a01b03919091166000908152600660209081526040808320938352929052205490565b6105e2610b95565b6105ea610bf5565b565b61050e838383604051806020016040528060008152506107c0565b600061061260085490565b82106106755760405162461bcd60e51b815260206004820152602c60248201527f455243373231456e756d657261626c653a20676c6f62616c20696e646578206f60448201526b7574206f6620626f756e647360a01b606482015260840161046d565b6008828154811061068857610688611ba3565b90600052602060002001549050919050565b6000818152600260205260408120546001600160a01b03168061033a5760405162461bcd60e51b8152602060048201526018602482015277115490cdcc8c4e881a5b9d985b1a59081d1bdad95b88125160421b604482015260640161046d565b60006001600160a01b0382166107645760405162461bcd60e51b815260206004820152602960248201527f4552433732313a2061646472657373207a65726f206973206e6f7420612076616044820152683634b21037bbb732b960b91b606482015260840161046d565b506001600160a01b031660009081526003602052604090205490565b610788610b95565b6105ea6000610c47565b61079a610b95565b6105ea610ca1565b60606001805461034f90611b1c565b6107bc338383610cde565b5050565b6107ca33836109a5565b6107e65760405162461bcd60e51b815260040161046d90611b56565b6107f284848484610dac565b50505050565b606061033a82610ddf565b61080b610b95565b6000610816600c5490565b9050610826600c80546001019055565b6108308382610ee7565b61050e8183610f01565b610842610b95565b6001600160a01b0381166108a75760405162461bcd60e51b815260206004820152602660248201527f4f776e61626c653a206e6577206f776e657220697320746865207a65726f206160448201526564647265737360d01b606482015260840161046d565b6108b081610c47565b50565b60006001600160e01b0319821663780e9d6360e01b148061033a575061033a82610f94565b6000818152600260205260409020546001600160a01b03166108b05760405162461bcd60e51b8152602060048201526018602482015277115490cdcc8c4e881a5b9d985b1a59081d1bdad95b88125160421b604482015260640161046d565b600081815260046020526040902080546001600160a01b0319166001600160a01b038416908117909155819061096c8261069a565b6001600160a01b03167f8c5be1e5ebec7d5bd14f71427d1e84f3dd0314c0f7b2291e5b200ac8c7c3b92560405160405180910390a45050565b6000806109b18361069a565b9050806001600160a01b0316846001600160a01b031614806109f857506001600160a01b0380821660009081526005602090815260408083209388168352929052205460ff165b80610a1c5750836001600160a01b0316610a11846103d2565b6001600160a01b0316145b949350505050565b826001600160a01b0316610a378261069a565b6001600160a01b031614610a5d5760405162461bcd60e51b815260040161046d90611bb9565b6001600160a01b038216610abf5760405162461bcd60e51b8152602060048201526024808201527f4552433732313a207472616e7366657220746f20746865207a65726f206164646044820152637265737360e01b606482015260840161046d565b610acc8383836001610fe4565b826001600160a01b0316610adf8261069a565b6001600160a01b031614610b055760405162461bcd60e51b815260040161046d90611bb9565b600081815260046020908152604080832080546001600160a01b03199081169091556001600160a01b0387811680865260038552838620805460001901905590871680865283862080546001019055868652600290945282852080549092168417909155905184937fddf252ad1be2c89b69c2b068fc378daa952ba7f163c4a11628f55a4df523b3ef91a4505050565b600b546001600160a01b036101009091041633146105ea5760405162461bcd60e51b815260206004820181905260248201527f4f776e61626c653a2063616c6c6572206973206e6f7420746865206f776e6572604482015260640161046d565b610bfd610ff8565b600b805460ff191690557f5db9ee0a495bf2e6ff9c91a7834c1ba4fdd244a5e8aa4e537bd38aeae4b073aa335b6040516001600160a01b03909116815260200160405180910390a1565b600b80546001600160a01b03838116610100818102610100600160a81b031985161790945560405193909204169182907f8be0079c531659141344cd1fd0a4f28419497f9722a3daafe3b4186f6b6457e090600090a35050565b610ca9611041565b600b805460ff191660011790557f62e78cea01bee320cd4e420270b5ea74000d11b0c9f74754ebdbfc544b05a258610c2a3390565b816001600160a01b0316836001600160a01b031603610d3f5760405162461bcd60e51b815260206004820152601960248201527f4552433732313a20617070726f766520746f2063616c6c657200000000000000604482015260640161046d565b6001600160a01b03838116600081815260056020908152604080832094871680845294825291829020805460ff191686151590811790915591519182527f17307eab39ab6107e8899845ad3d59bd9653f200f220920489ca2b5937696c31910160405180910390a3505050565b610db7848484610a24565b610dc384848484611087565b6107f25760405162461bcd60e51b815260040161046d90611bfe565b6060610dea826108d8565b6000828152600a602052604081208054610e0390611b1c565b80601f0160208091040260200160405190810160405280929190818152602001828054610e2f90611b1c565b8015610e7c5780601f10610e5157610100808354040283529160200191610e7c565b820191906000526020600020905b815481529060010190602001808311610e5f57829003601f168201915b505050505090506000610e9a60408051602081019091526000815290565b90508051600003610eac575092915050565b815115610ede578082604051602001610ec6929190611c50565b60405160208183030381529060405292505050919050565b610a1c84611188565b6107bc8282604051806020016040528060008152506111fc565b6000828152600260205260409020546001600160a01b0316610f7c5760405162461bcd60e51b815260206004820152602e60248201527f45524337323155524953746f726167653a2055524920736574206f66206e6f6e60448201526d32bc34b9ba32b73a103a37b5b2b760911b606482015260840161046d565b6000828152600a6020526040902061050e8282611ccd565b60006001600160e01b031982166380ac58cd60e01b1480610fc557506001600160e01b03198216635b5e139f60e01b145b8061033a57506301ffc9a760e01b6001600160e01b031983161461033a565b610fec611041565b6107f28484848461122f565b600b5460ff166105ea5760405162461bcd60e51b815260206004820152601460248201527314185d5cd8589b194e881b9bdd081c185d5cd95960621b604482015260640161046d565b600b5460ff16156105ea5760405162461bcd60e51b815260206004820152601060248201526f14185d5cd8589b194e881c185d5cd95960821b604482015260640161046d565b60006001600160a01b0384163b1561117d57604051630a85bd0160e11b81526001600160a01b0385169063150b7a02906110cb903390899088908890600401611d8d565b6020604051808303816000875af1925050508015611106575060408051601f3d908101601f1916820190925261110391810190611dca565b60015b611163573d808015611134576040519150601f19603f3d011682016040523d82523d6000602084013e611139565b606091505b50805160000361115b5760405162461bcd60e51b815260040161046d90611bfe565b805181602001fd5b6001600160e01b031916630a85bd0160e11b149050610a1c565b506001949350505050565b6060611193826108d8565b60006111aa60408051602081019091526000815290565b905060008151116111ca57604051806020016040528060008152506111f5565b806111d484611363565b6040516020016111e5929190611c50565b6040516020818303038152906040525b9392505050565b61120683836113f6565b6112136000848484611087565b61050e5760405162461bcd60e51b815260040161046d90611bfe565b600181111561129e5760405162461bcd60e51b815260206004820152603560248201527f455243373231456e756d657261626c653a20636f6e7365637574697665207472604482015274185b9cd9995c9cc81b9bdd081cdd5c1c1bdc9d1959605a1b606482015260840161046d565b816001600160a01b0385166112fa576112f581600880546000838152600960205260408120829055600182018355919091527ff3f7a9fe364faab93b216da50a3214154f22a0a2b415b23a84c8169e8b636ee30155565b61131d565b836001600160a01b0316856001600160a01b03161461131d5761131d858261158f565b6001600160a01b038416611339576113348161162c565b61135c565b846001600160a01b0316846001600160a01b03161461135c5761135c84826116db565b5050505050565b606060006113708361171f565b600101905060008167ffffffffffffffff8111156113905761139061197f565b6040519080825280601f01601f1916602001820160405280156113ba576020820181803683370190505b5090508181016020015b600019016f181899199a1a9b1b9c1cb0b131b232b360811b600a86061a8153600a85049450846113c457509392505050565b6001600160a01b03821661144c5760405162461bcd60e51b815260206004820181905260248201527f4552433732313a206d696e7420746f20746865207a65726f2061646472657373604482015260640161046d565b6000818152600260205260409020546001600160a01b0316156114b15760405162461bcd60e51b815260206004820152601c60248201527f4552433732313a20746f6b656e20616c7265616479206d696e74656400000000604482015260640161046d565b6114bf600083836001610fe4565b6000818152600260205260409020546001600160a01b0316156115245760405162461bcd60e51b815260206004820152601c60248201527f4552433732313a20746f6b656e20616c7265616479206d696e74656400000000604482015260640161046d565b6001600160a01b038216600081815260036020908152604080832080546001019055848352600290915280822080546001600160a01b0319168417905551839291907fddf252ad1be2c89b69c2b068fc378daa952ba7f163c4a11628f55a4df523b3ef908290a45050565b6000600161159c846106fa565b6115a69190611de7565b6000838152600760205260409020549091508082146115f9576001600160a01b03841660009081526006602090815260408083208584528252808320548484528184208190558352600790915290208190555b5060009182526007602090815260408084208490556001600160a01b039094168352600681528383209183525290812055565b60085460009061163e90600190611de7565b6000838152600960205260408120546008805493945090928490811061166657611666611ba3565b90600052602060002001549050806008838154811061168757611687611ba3565b60009182526020808320909101929092558281526009909152604080822084905585825281205560088054806116bf576116bf611e08565b6001900381819060005260206000200160009055905550505050565b60006116e6836106fa565b6001600160a01b039093166000908152600660209081526040808320868452825280832085905593825260079052919091209190915550565b60008072184f03e93ff9f4daa797ed6e38ed64bf6a1f0160401b831061175e5772184f03e93ff9f4daa797ed6e38ed64bf6a1f0160401b830492506040015b6d04ee2d6d415b85acef8100000000831061178a576d04ee2d6d415b85acef8100000000830492506020015b662386f26fc1000083106117a857662386f26fc10000830492506010015b6305f5e10083106117c0576305f5e100830492506008015b61271083106117d457612710830492506004015b606483106117e6576064830492506002015b600a831061033a5760010192915050565b6001600160e01b0319811681146108b057600080fd5b60006020828403121561181f57600080fd5b81356111f5816117f7565b60005b8381101561184557818101518382015260200161182d565b50506000910152565b6000815180845261186681602086016020860161182a565b601f01601f19169290920160200192915050565b6020815260006111f5602083018461184e565b60006020828403121561189f57600080fd5b5035919050565b80356001600160a01b03811681146118bd57600080fd5b919050565b600080604083850312156118d557600080fd5b6118de836118a6565b946020939093013593505050565b60008060006060848603121561190157600080fd5b61190a846118a6565b9250611918602085016118a6565b9150604084013590509250925092565b60006020828403121561193a57600080fd5b6111f5826118a6565b6000806040838503121561195657600080fd5b61195f836118a6565b91506020830135801515811461197457600080fd5b809150509250929050565b634e487b7160e01b600052604160045260246000fd5b600067ffffffffffffffff808411156119b0576119b061197f565b604051601f8501601f19908116603f011681019082821181831017156119d8576119d861197f565b816040528093508581528686860111156119f157600080fd5b858560208301376000602087830101525050509392505050565b60008060008060808587031215611a2157600080fd5b611a2a856118a6565b9350611a38602086016118a6565b925060408501359150606085013567ffffffffffffffff811115611a5b57600080fd5b8501601f81018713611a6c57600080fd5b611a7b87823560208401611995565b91505092959194509250565b60008060408385031215611a9a57600080fd5b611aa3836118a6565b9150602083013567ffffffffffffffff811115611abf57600080fd5b8301601f81018513611ad057600080fd5b611adf85823560208401611995565b9150509250929050565b60008060408385031215611afc57600080fd5b611b05836118a6565b9150611b13602084016118a6565b90509250929050565b600181811c90821680611b3057607f821691505b602082108103611b5057634e487b7160e01b600052602260045260246000fd5b50919050565b6020808252602d908201527f4552433732313a2063616c6c6572206973206e6f7420746f6b656e206f776e6560408201526c1c881bdc88185c1c1c9bdd9959609a1b606082015260800190565b634e487b7160e01b600052603260045260246000fd5b60208082526025908201527f4552433732313a207472616e736665722066726f6d20696e636f72726563742060408201526437bbb732b960d91b606082015260800190565b60208082526032908201527f4552433732313a207472616e7366657220746f206e6f6e20455243373231526560408201527131b2b4bb32b91034b6b83632b6b2b73a32b960711b606082015260800190565b60008351611c6281846020880161182a565b835190830190611c7681836020880161182a565b01949350505050565b601f82111561050e57600081815260208120601f850160051c81016020861015611ca65750805b601f850160051c820191505b81811015611cc557828155600101611cb2565b505050505050565b815167ffffffffffffffff811115611ce757611ce761197f565b611cfb81611cf58454611b1c565b84611c7f565b602080601f831160018114611d305760008415611d185750858301515b600019600386901b1c1916600185901b178555611cc5565b600085815260208120601f198616915b82811015611d5f57888601518255948401946001909101908401611d40565b5085821015611d7d5787850151600019600388901b60f8161c191681555b5050505050600190811b01905550565b6001600160a01b0385811682528416602082015260408101839052608060608201819052600090611dc09083018461184e565b9695505050505050565b600060208284031215611ddc57600080fd5b81516111f5816117f7565b8181038181111561033a57634e487b7160e01b600052601160045260246000fd5b634e487b7160e01b600052603160045260246000fdfea26469706673582212206286fd9d903162259f148eb56575e1bf0a9fb6d733f9ebbad6e2cea572b43e6564736f6c63430008130033",
		"linkReferences": {}
	},
	"methodIdentifiers": {
		"approve(address,uint256)": "095ea7b3",
		"balanceOf(address)": "70a08231",
		"getApproved(uint256)": "081812fc",
		"isApprovedForAll(address,address)": "e985e9c5",
		"name()": "06fdde03",
		"owner()": "8da5cb5b",
		"ownerOf(uint256)": "6352211e",
		"pause()": "8456cb59",
		"paused()": "5c975abb",
		"renounceOwnership()": "715018a6",
		"safeMint(address,string)": "d204c45e",
		"safeTransferFrom(address,address,uint256)": "42842e0e",
		"safeTransferFrom(address,address,uint256,bytes)": "b88d4fde",
		"setApprovalForAll(address,bool)": "a22cb465",
		"supportsInterface(bytes4)": "01ffc9a7",
		"symbol()": "95d89b41",
		"tokenByIndex(uint256)": "4f6ccce7",
		"tokenOfOwnerByIndex(address,uint256)": "2f745c59",
		"tokenURI(uint256)": "c87b56dd",
		"totalSupply()": "18160ddd",
		"transferFrom(address,address,uint256)": "23b872dd",
		"transferOwnership(address)": "f2fde38b",
		"unpause()": "3f4ba83a"
	},
	"id": 42
}