{
  "_format": "hh-sol-artifact-1",
  "contractName": "CrowdFund",
  "sourceName": "contracts/CrowdFund.sol",
  "abi": [
    {
      "inputs": [
        {
          "internalType": "contract IERC20",
          "name": "_cUSDToken",
          "type": "address"
        }
      ],
      "stateMutability": "nonpayable",
      "type": "constructor"
    },
    {
      "anonymous": false,
      "inputs": [
        {
          "indexed": false,
          "internalType": "address",
          "name": "projectAddress",
          "type": "address"
        },
        {
          "indexed": false,
          "internalType": "address",
          "name": "recipient",
          "type": "address"
        }
      ],
      "name": "CreatorPaid",
      "type": "event"
    },
    {
      "anonymous": false,
      "inputs": [
        {
          "indexed": false,
          "internalType": "address",
          "name": "contractAddress",
          "type": "address"
        },
        {
          "indexed": false,
          "internalType": "address",
          "name": "projectCreator",
          "type": "address"
        },
        {
          "indexed": false,
          "internalType": "string",
          "name": "title",
          "type": "string"
        },
        {
          "indexed": false,
          "internalType": "string",
          "name": "description",
          "type": "string"
        },
        {
          "indexed": false,
          "internalType": "string",
          "name": "imageLink",
          "type": "string"
        },
        {
          "indexed": false,
          "internalType": "uint256",
          "name": "fundRaisingDeadline",
          "type": "uint256"
        },
        {
          "indexed": false,
          "internalType": "uint256",
          "name": "goalAmount",
          "type": "uint256"
        }
      ],
      "name": "ProjectStarted",
      "type": "event"
    },
    {
      "anonymous": false,
      "inputs": [
        {
          "indexed": false,
          "internalType": "address",
          "name": "projectAddress",
          "type": "address"
        },
        {
          "indexed": false,
          "internalType": "address",
          "name": "contributor",
          "type": "address"
        },
        {
          "indexed": false,
          "internalType": "uint256",
          "name": "amount",
          "type": "uint256"
        },
        {
          "indexed": false,
          "internalType": "uint256",
          "name": "currentTotal",
          "type": "uint256"
        }
      ],
      "name": "ReceivedFunding",
      "type": "event"
    },
    {
      "inputs": [],
      "name": "cUSDToken",
      "outputs": [
        {
          "internalType": "contract IERC20",
          "name": "",
          "type": "address"
        }
      ],
      "stateMutability": "view",
      "type": "function"
    },
    {
      "inputs": [
        {
          "internalType": "uint256",
          "name": "projectId",
          "type": "uint256"
        }
      ],
      "name": "checkIfFundingExpired",
      "outputs": [],
      "stateMutability": "nonpayable",
      "type": "function"
    },
    {
      "inputs": [
        {
          "internalType": "uint256",
          "name": "projectId",
          "type": "uint256"
        },
        {
          "internalType": "uint256",
          "name": "amount",
          "type": "uint256"
        }
      ],
      "name": "contribute",
      "outputs": [],
      "stateMutability": "nonpayable",
      "type": "function"
    },
    {
      "inputs": [
        {
          "internalType": "uint256",
          "name": "projectId",
          "type": "uint256"
        },
        {
          "internalType": "address",
          "name": "contributor",
          "type": "address"
        }
      ],
      "name": "getContributions",
      "outputs": [
        {
          "internalType": "uint256",
          "name": "",
          "type": "uint256"
        }
      ],
      "stateMutability": "view",
      "type": "function"
    },
    {
      "inputs": [],
      "name": "getProjectCount",
      "outputs": [
        {
          "internalType": "uint256",
          "name": "",
          "type": "uint256"
        }
      ],
      "stateMutability": "view",
      "type": "function"
    },
    {
      "inputs": [
        {
          "internalType": "uint256",
          "name": "projectId",
          "type": "uint256"
        }
      ],
      "name": "getProjectDetails",
      "outputs": [
        {
          "internalType": "address payable",
          "name": "projectCreator",
          "type": "address"
        },
        {
          "internalType": "string",
          "name": "projectTitle",
          "type": "string"
        },
        {
          "internalType": "string",
          "name": "projectDescription",
          "type": "string"
        },
        {
          "internalType": "string",
          "name": "projectImageLink",
          "type": "string"
        },
        {
          "internalType": "uint256",
          "name": "fundRaisingDeadline",
          "type": "uint256"
        },
        {
          "internalType": "enum CrowdFund.ProjectState",
          "name": "currentState",
          "type": "uint8"
        },
        {
          "internalType": "uint256",
          "name": "projectGoalAmount",
          "type": "uint256"
        },
        {
          "internalType": "uint256",
          "name": "currentAmount",
          "type": "uint256"
        }
      ],
      "stateMutability": "view",
      "type": "function"
    },
    {
      "inputs": [
        {
          "internalType": "uint256",
          "name": "projectId",
          "type": "uint256"
        }
      ],
      "name": "payOut",
      "outputs": [
        {
          "internalType": "bool",
          "name": "",
          "type": "bool"
        }
      ],
      "stateMutability": "nonpayable",
      "type": "function"
    },
    {
      "inputs": [
        {
          "internalType": "uint256",
          "name": "",
          "type": "uint256"
        }
      ],
      "name": "projects",
      "outputs": [
        {
          "internalType": "address payable",
          "name": "creator",
          "type": "address"
        },
        {
          "internalType": "uint256",
          "name": "goalAmount",
          "type": "uint256"
        },
        {
          "internalType": "uint256",
          "name": "completeAt",
          "type": "uint256"
        },
        {
          "internalType": "uint256",
          "name": "currentBalance",
          "type": "uint256"
        },
        {
          "internalType": "uint256",
          "name": "raisingDeadline",
          "type": "uint256"
        },
        {
          "internalType": "string",
          "name": "title",
          "type": "string"
        },
        {
          "internalType": "string",
          "name": "description",
          "type": "string"
        },
        {
          "internalType": "string",
          "name": "imageLink",
          "type": "string"
        },
        {
          "internalType": "enum CrowdFund.ProjectState",
          "name": "state",
          "type": "uint8"
        }
      ],
      "stateMutability": "view",
      "type": "function"
    },
    {
      "inputs": [
        {
          "internalType": "string",
          "name": "title",
          "type": "string"
        },
        {
          "internalType": "string",
          "name": "description",
          "type": "string"
        },
        {
          "internalType": "string",
          "name": "imageLink",
          "type": "string"
        },
        {
          "internalType": "uint256",
          "name": "durationInDays",
          "type": "uint256"
        },
        {
          "internalType": "uint256",
          "name": "amountToRaise",
          "type": "uint256"
        }
      ],
      "name": "startProject",
      "outputs": [],
      "stateMutability": "nonpayable",
      "type": "function"
    }
  ],
  "bytecode": "0x60806040523480156200001157600080fd5b5060405162001df738038062001df78339818101604052810190620000379190620000fd565b80600160006101000a81548173ffffffffffffffffffffffffffffffffffffffff021916908373ffffffffffffffffffffffffffffffffffffffff160217905550506200012f565b600080fd5b600073ffffffffffffffffffffffffffffffffffffffff82169050919050565b6000620000b18262000084565b9050919050565b6000620000c582620000a4565b9050919050565b620000d781620000b8565b8114620000e357600080fd5b50565b600081519050620000f781620000cc565b92915050565b6000602082840312156200011657620001156200007f565b5b60006200012684828501620000e6565b91505092915050565b611cb8806200013f6000396000f3fe608060405234801561001057600080fd5b50600436106100935760003560e01c8063836c93c711610066578063836c93c7146101435780638c5909171461015f578063aafc92d61461017b578063da333ca6146101ab578063dc20500b146101db57610093565b80630ea86ad814610098578063107046bd146100b65780633bcff3b0146100ee5780635f8439e31461010c575b600080fd5b6100a06101f7565b6040516100ad9190610f8c565b60405180910390f35b6100d060048036038101906100cb9190610fe7565b61021d565b6040516100e59998979695949392919061114b565b60405180910390f35b6100f6610440565b60405161010391906111ed565b60405180910390f35b61012660048036038101906101219190610fe7565b61044c565b60405161013a989796959493929190611208565b60405180910390f35b61015d60048036038101906101589190610fe7565b6106ce565b005b6101796004803603810190610174919061129b565b610778565b005b61019560048036038101906101909190611319565b610a49565b6040516101a291906111ed565b60405180910390f35b6101c560048036038101906101c09190610fe7565b610b01565b6040516101d29190611374565b60405180910390f35b6101f560048036038101906101f091906113f4565b610d6b565b005b600160009054906101000a900473ffffffffffffffffffffffffffffffffffffffff1681565b6000818154811061022d57600080fd5b90600052602060002090600a02016000915090508060000160009054906101000a900473ffffffffffffffffffffffffffffffffffffffff169080600101549080600201549080600301549080600401549080600501805461028e906114ff565b80601f01602080910402602001604051908101604052809291908181526020018280546102ba906114ff565b80156103075780601f106102dc57610100808354040283529160200191610307565b820191906000526020600020905b8154815290600101906020018083116102ea57829003601f168201915b50505050509080600601805461031c906114ff565b80601f0160208091040260200160405190810160405280929190818152602001828054610348906114ff565b80156103955780601f1061036a57610100808354040283529160200191610395565b820191906000526020600020905b81548152906001019060200180831161037857829003601f168201915b5050505050908060070180546103aa906114ff565b80601f01602080910402602001604051908101604052809291908181526020018280546103d6906114ff565b80156104235780601f106103f857610100808354040283529160200191610423565b820191906000526020600020905b81548152906001019060200180831161040657829003601f168201915b5050505050908060080160009054906101000a900460ff16905089565b60008080549050905090565b6000606080606060008060008060008054905089106104a0576040517f08c379a00000000000000000000000000000000000000000000000000000000081526004016104979061157c565b60405180910390fd5b6000808a815481106104b5576104b461159c565b5b90600052602060002090600a020190508060000160009054906101000a900473ffffffffffffffffffffffffffffffffffffffff1698508060050180546104fb906114ff565b80601f0160208091040260200160405190810160405280929190818152602001828054610527906114ff565b80156105745780601f1061054957610100808354040283529160200191610574565b820191906000526020600020905b81548152906001019060200180831161055757829003601f168201915b5050505050975080600601805461058a906114ff565b80601f01602080910402602001604051908101604052809291908181526020018280546105b6906114ff565b80156106035780601f106105d857610100808354040283529160200191610603565b820191906000526020600020905b8154815290600101906020018083116105e657829003601f168201915b50505050509650806007018054610619906114ff565b80601f0160208091040260200160405190810160405280929190818152602001828054610645906114ff565b80156106925780601f1061066757610100808354040283529160200191610692565b820191906000526020600020905b81548152906001019060200180831161067557829003601f168201915b50505050509550806004015494508060080160009054906101000a900460ff169350806001015492508060030154915050919395975091939597565b6000805490508110610715576040517f08c379a000000000000000000000000000000000000000000000000000000000815260040161070c9061157c565b60405180910390fd5b600080828154811061072a5761072961159c565b5b90600052602060002090600a0201905080600401544211156107745760018160080160006101000a81548160ff0219169083600281111561076e5761076d6110d4565b5b02179055505b5050565b60008054905082106107bf576040517f08c379a00000000000000000000000000000000000000000000000000000000081526004016107b69061157c565b60405180910390fd5b60008083815481106107d4576107d361159c565b5b90600052602060002090600a02019050600060028111156107f8576107f76110d4565b5b8160080160009054906101000a900460ff16600281111561081c5761081b6110d4565b5b1461085c576040517f08c379a000000000000000000000000000000000000000000000000000000000815260040161085390611617565b60405180910390fd5b6000821161089f576040517f08c379a000000000000000000000000000000000000000000000000000000000815260040161089690611683565b60405180910390fd5b600160009054906101000a900473ffffffffffffffffffffffffffffffffffffffff1673ffffffffffffffffffffffffffffffffffffffff166323b872dd3330856040518463ffffffff1660e01b81526004016108fe939291906116b2565b6020604051808303816000875af115801561091d573d6000803e3d6000fd5b505050506040513d601f19601f820116820180604052508101906109419190611715565b50610996828260090160003373ffffffffffffffffffffffffffffffffffffffff1673ffffffffffffffffffffffffffffffffffffffff16815260200190815260200160002054610ee190919063ffffffff16565b8160090160003373ffffffffffffffffffffffffffffffffffffffff1673ffffffffffffffffffffffffffffffffffffffff168152602001908152602001600020819055506109f2828260030154610ee190919063ffffffff16565b81600301819055507f764ae8471685cb2523a83883556d07b48cef2a2cd37a0cd66a156bed098b04fb3033848460030154604051610a339493929190611742565b60405180910390a1610a44836106ce565b505050565b600080805490508310610a91576040517f08c379a0000000000000000000000000000000000000000000000000000000008152600401610a889061157c565b60405180910390fd5b6000808481548110610aa657610aa561159c565b5b90600052602060002090600a020190508060090160008473ffffffffffffffffffffffffffffffffffffffff1673ffffffffffffffffffffffffffffffffffffffff1681526020019081526020016000205491505092915050565b600080805490508210610b49576040517f08c379a0000000000000000000000000000000000000000000000000000000008152600401610b409061157c565b60405180910390fd5b6000808381548110610b5e57610b5d61159c565b5b90600052602060002090600a020190508060000160009054906101000a900473ffffffffffffffffffffffffffffffffffffffff1673ffffffffffffffffffffffffffffffffffffffff163373ffffffffffffffffffffffffffffffffffffffff1614610c00576040517f08c379a0000000000000000000000000000000000000000000000000000000008152600401610bf7906117f9565b60405180910390fd5b60008160030154905060008260030181905550600160009054906101000a900473ffffffffffffffffffffffffffffffffffffffff1673ffffffffffffffffffffffffffffffffffffffff1663a9059cbb33836040518363ffffffff1660e01b8152600401610c70929190611819565b6020604051808303816000875af1158015610c8f573d6000803e3d6000fd5b505050506040513d601f19601f82011682018060405250810190610cb39190611715565b15610d29577fba5e837743d81ad0e6deb16089dbb65b549fdda8ad802fd8d4822884d70dc8b23033604051610ce9929190611842565b60405180910390a160028260080160006101000a81548160ff02191690836002811115610d1957610d186110d4565b5b0217905550600192505050610d66565b80826003018190555060028260080160006101000a81548160ff02191690836002811115610d5a57610d596110d4565b5b02179055506000925050505b919050565b6000610d95610d866201518085610ef790919063ffffffff16565b42610ee190919063ffffffff16565b90506000806001816001815401808255809150500390600052602060002090600a02019050338160000160006101000a81548173ffffffffffffffffffffffffffffffffffffffff021916908373ffffffffffffffffffffffffffffffffffffffff16021790555082816001018190555060008160020181905550600081600301819055508181600401819055508989826005019182610e36929190611a47565b508787826006019182610e4a929190611a47565b508585826007019182610e5e929190611a47565b5060008160080160006101000a81548160ff02191690836002811115610e8757610e866110d4565b5b02179055507fc317f13e51fbbe0e6c97f372f8607e3fc3d532c0f8a7a894dd38fba96f2a284c30338c8c8c8c8c8c8a8c604051610ecd9a99989796959493929190611b53565b60405180910390a150505050505050505050565b60008183610eef9190611c0c565b905092915050565b60008183610f059190611c40565b905092915050565b600073ffffffffffffffffffffffffffffffffffffffff82169050919050565b6000819050919050565b6000610f52610f4d610f4884610f0d565b610f2d565b610f0d565b9050919050565b6000610f6482610f37565b9050919050565b6000610f7682610f59565b9050919050565b610f8681610f6b565b82525050565b6000602082019050610fa16000830184610f7d565b92915050565b600080fd5b600080fd5b6000819050919050565b610fc481610fb1565b8114610fcf57600080fd5b50565b600081359050610fe181610fbb565b92915050565b600060208284031215610ffd57610ffc610fa7565b5b600061100b84828501610fd2565b91505092915050565b600061101f82610f0d565b9050919050565b61102f81611014565b82525050565b61103e81610fb1565b82525050565b600081519050919050565b600082825260208201905092915050565b60005b8381101561107e578082015181840152602081019050611063565b60008484015250505050565b6000601f19601f8301169050919050565b60006110a682611044565b6110b0818561104f565b93506110c0818560208601611060565b6110c98161108a565b840191505092915050565b7f4e487b7100000000000000000000000000000000000000000000000000000000600052602160045260246000fd5b60038110611114576111136110d4565b5b50565b600081905061112582611103565b919050565b600061113582611117565b9050919050565b6111458161112a565b82525050565b600061012082019050611161600083018c611026565b61116e602083018b611035565b61117b604083018a611035565b6111886060830189611035565b6111956080830188611035565b81810360a08301526111a7818761109b565b905081810360c08301526111bb818661109b565b905081810360e08301526111cf818561109b565b90506111df61010083018461113c565b9a9950505050505050505050565b60006020820190506112026000830184611035565b92915050565b60006101008201905061121e600083018b611026565b8181036020830152611230818a61109b565b90508181036040830152611244818961109b565b90508181036060830152611258818861109b565b90506112676080830187611035565b61127460a083018661113c565b61128160c0830185611035565b61128e60e0830184611035565b9998505050505050505050565b600080604083850312156112b2576112b1610fa7565b5b60006112c085828601610fd2565b92505060206112d185828601610fd2565b9150509250929050565b60006112e682610f0d565b9050919050565b6112f6816112db565b811461130157600080fd5b50565b600081359050611313816112ed565b92915050565b600080604083850312156113305761132f610fa7565b5b600061133e85828601610fd2565b925050602061134f85828601611304565b9150509250929050565b60008115159050919050565b61136e81611359565b82525050565b60006020820190506113896000830184611365565b92915050565b600080fd5b600080fd5b600080fd5b60008083601f8401126113b4576113b361138f565b5b8235905067ffffffffffffffff8111156113d1576113d0611394565b5b6020830191508360018202830111156113ed576113ec611399565b5b9250929050565b60008060008060008060008060a0898b03121561141457611413610fa7565b5b600089013567ffffffffffffffff81111561143257611431610fac565b5b61143e8b828c0161139e565b9850985050602089013567ffffffffffffffff81111561146157611460610fac565b5b61146d8b828c0161139e565b9650965050604089013567ffffffffffffffff8111156114905761148f610fac565b5b61149c8b828c0161139e565b945094505060606114af8b828c01610fd2565b92505060806114c08b828c01610fd2565b9150509295985092959890939650565b7f4e487b7100000000000000000000000000000000000000000000000000000000600052602260045260246000fd5b6000600282049050600182168061151757607f821691505b60208210810361152a576115296114d0565b5b50919050565b7f496e76616c69642070726f6a6563742049440000000000000000000000000000600082015250565b600061156660128361104f565b915061157182611530565b602082019050919050565b6000602082019050818103600083015261159581611559565b9050919050565b7f4e487b7100000000000000000000000000000000000000000000000000000000600052603260045260246000fd5b7f50726f6a656374206e6f7420696e2066756e6472616973696e67207374617465600082015250565b600061160160208361104f565b915061160c826115cb565b602082019050919050565b60006020820190508181036000830152611630816115f4565b9050919050565b7f496e76616c696420636f6e747269627574696f6e20616d6f756e740000000000600082015250565b600061166d601b8361104f565b915061167882611637565b602082019050919050565b6000602082019050818103600083015261169c81611660565b9050919050565b6116ac816112db565b82525050565b60006060820190506116c760008301866116a3565b6116d460208301856116a3565b6116e16040830184611035565b949350505050565b6116f281611359565b81146116fd57600080fd5b50565b60008151905061170f816116e9565b92915050565b60006020828403121561172b5761172a610fa7565b5b600061173984828501611700565b91505092915050565b600060808201905061175760008301876116a3565b61176460208301866116a3565b6117716040830185611035565b61177e6060830184611035565b95945050505050565b7f4f6e6c792070726f6a6563742063726561746f722063616e2063616c6c20746860008201527f69732066756e6374696f6e000000000000000000000000000000000000000000602082015250565b60006117e3602b8361104f565b91506117ee82611787565b604082019050919050565b60006020820190508181036000830152611812816117d6565b9050919050565b600060408201905061182e60008301856116a3565b61183b6020830184611035565b9392505050565b600060408201905061185760008301856116a3565b61186460208301846116a3565b9392505050565b600082905092915050565b7f4e487b7100000000000000000000000000000000000000000000000000000000600052604160045260246000fd5b60008190508160005260206000209050919050565b60006020601f8301049050919050565b600082821b905092915050565b6000600883026119077fffffffffffffffffffffffffffffffffffffffffffffffffffffffffffffffff826118ca565b61191186836118ca565b95508019841693508086168417925050509392505050565b600061194461193f61193a84610fb1565b610f2d565b610fb1565b9050919050565b6000819050919050565b61195e83611929565b61197261196a8261194b565b8484546118d7565b825550505050565b600090565b61198761197a565b611992818484611955565b505050565b5b818110156119b6576119ab60008261197f565b600181019050611998565b5050565b601f8211156119fb576119cc816118a5565b6119d5846118ba565b810160208510156119e4578190505b6119f86119f0856118ba565b830182611997565b50505b505050565b600082821c905092915050565b6000611a1e60001984600802611a00565b1980831691505092915050565b6000611a378383611a0d565b9150826002028217905092915050565b611a51838361186b565b67ffffffffffffffff811115611a6a57611a69611876565b5b611a7482546114ff565b611a7f8282856119ba565b6000601f831160018114611aae5760008415611a9c578287013590505b611aa68582611a2b565b865550611b0e565b601f198416611abc866118a5565b60005b82811015611ae457848901358255600182019150602085019450602081019050611abf565b86831015611b015784890135611afd601f891682611a0d565b8355505b6001600288020188555050505b50505050505050565b82818337600083830152505050565b6000611b32838561104f565b9350611b3f838584611b17565b611b488361108a565b840190509392505050565b600060e082019050611b68600083018d6116a3565b611b75602083018c6116a3565b8181036040830152611b88818a8c611b26565b90508181036060830152611b9d81888a611b26565b90508181036080830152611bb2818688611b26565b9050611bc160a0830185611035565b611bce60c0830184611035565b9b9a5050505050505050505050565b7f4e487b7100000000000000000000000000000000000000000000000000000000600052601160045260246000fd5b6000611c1782610fb1565b9150611c2283610fb1565b9250828201905080821115611c3a57611c39611bdd565b5b92915050565b6000611c4b82610fb1565b9150611c5683610fb1565b9250828202611c6481610fb1565b91508282048414831517611c7b57611c7a611bdd565b5b509291505056fea264697066735822122082503188ddd8f84d6dc80dbdaea2c9dc07a0f83930e525885723dc259d01a3eb64736f6c63430008120033",
  "linkReferences": {},
  "deployedLinkReferences": {}
}