{
  "_format": "hh-sol-artifact-1",
  "contractName": "StocksExample",
  "sourceName": "contracts/StocksExample .sol",
  "abi": [
    {
      "inputs": [],
      "name": "CalldataMustHaveValidPayload",
      "type": "error"
    },
    {
      "inputs": [],
      "name": "CalldataOverOrUnderFlow",
      "type": "error"
    },
    {
      "inputs": [],
      "name": "CanNotPickMedianOfEmptyArray",
      "type": "error"
    },
    {
      "inputs": [],
      "name": "EachSignerMustProvideTheSameValue",
      "type": "error"
    },
    {
      "inputs": [],
      "name": "EmptyCalldataPointersArr",
      "type": "error"
    },
    {
      "inputs": [],
      "name": "IncorrectUnsignedMetadataSize",
      "type": "error"
    },
    {
      "inputs": [
        {
          "internalType": "uint256",
          "name": "receivedSignersCount",
          "type": "uint256"
        },
        {
          "internalType": "uint256",
          "name": "requiredSignersCount",
          "type": "uint256"
        }
      ],
      "name": "InsufficientNumberOfUniqueSigners",
      "type": "error"
    },
    {
      "inputs": [],
      "name": "InvalidCalldataPointer",
      "type": "error"
    },
    {
      "inputs": [
        {
          "internalType": "address",
          "name": "receivedSigner",
          "type": "address"
        }
      ],
      "name": "SignerNotAuthorised",
      "type": "error"
    },
    {
      "inputs": [
        {
          "internalType": "uint256",
          "name": "receivedTimestampSeconds",
          "type": "uint256"
        },
        {
          "internalType": "uint256",
          "name": "blockTimestamp",
          "type": "uint256"
        }
      ],
      "name": "TimestampFromTooLongFuture",
      "type": "error"
    },
    {
      "inputs": [
        {
          "internalType": "uint256",
          "name": "receivedTimestampSeconds",
          "type": "uint256"
        },
        {
          "internalType": "uint256",
          "name": "blockTimestamp",
          "type": "uint256"
        }
      ],
      "name": "TimestampIsTooOld",
      "type": "error"
    },
    {
      "inputs": [
        {
          "internalType": "uint256[]",
          "name": "values",
          "type": "uint256[]"
        }
      ],
      "name": "aggregateValues",
      "outputs": [
        {
          "internalType": "uint256",
          "name": "",
          "type": "uint256"
        }
      ],
      "stateMutability": "view",
      "type": "function"
    },
    {
      "inputs": [
        {
          "internalType": "address",
          "name": "signerAddress",
          "type": "address"
        }
      ],
      "name": "getAuthorisedSignerIndex",
      "outputs": [
        {
          "internalType": "uint8",
          "name": "",
          "type": "uint8"
        }
      ],
      "stateMutability": "view",
      "type": "function"
    },
    {
      "inputs": [],
      "name": "getLatestTslaPrice",
      "outputs": [
        {
          "internalType": "uint256",
          "name": "",
          "type": "uint256"
        }
      ],
      "stateMutability": "view",
      "type": "function"
    },
    {
      "inputs": [],
      "name": "getUniqueSignersThreshold",
      "outputs": [
        {
          "internalType": "uint8",
          "name": "",
          "type": "uint8"
        }
      ],
      "stateMutability": "view",
      "type": "function"
    },
    {
      "inputs": [
        {
          "internalType": "uint256",
          "name": "receivedTimestampMilliseconds",
          "type": "uint256"
        }
      ],
      "name": "validateTimestamp",
      "outputs": [],
      "stateMutability": "view",
      "type": "function"
    }
  ],
  "bytecode": "0x608060405234801561001057600080fd5b5061144a806100206000396000f3fe608060405234801561001057600080fd5b50600436106100575760003560e01c80633ce142f51461005c5780633ed5726b1461008c578063b24ebfcc146100aa578063f50b2efe146100da578063f90c4924146100f6575b600080fd5b61007660048036038101906100719190610eef565b610114565b6040516100839190610f38565b60405180910390f35b6100946101a8565b6040516100a19190610f6c565b60405180910390f35b6100c460048036038101906100bf919061110c565b6101dd565b6040516100d19190610f6c565b60405180910390f35b6100f460048036038101906100ef9190611155565b6101ef565b005b6100fe6101fb565b60405161010b9190610f38565b60405180910390f35b600073926e370fd53c23f8b71ad2b3217b227e41a92b1273ffffffffffffffffffffffffffffffffffffffff168273ffffffffffffffffffffffffffffffffffffffff160361016657600090506101a3565b816040517fec459bc000000000000000000000000000000000000000000000000000000000815260040161019a9190611191565b60405180910390fd5b919050565b6000807f54534c410000000000000000000000000000000000000000000000000000000090506101d781610204565b91505090565b60006101e8826102a0565b9050919050565b6101f8816102b2565b50565b60006001905090565b600080600167ffffffffffffffff81111561022257610221610f9d565b5b6040519080825280602002602001820160405280156102505781602001602082028036833780820191505090505b5090508281600081518110610268576102676111ac565b5b60200260200101818152505061027d8161037c565b6000815181106102905761028f6111ac565b5b6020026020010151915050919050565b60006102ab8261038e565b9050919050565b60006103e8826102c29190611239565b90508042101561032457603c42826102da919061126a565b111561031f5780426040517fb6b0916d00000000000000000000000000000000000000000000000000000000815260040161031692919061129e565b60405180910390fd5b610378565b60b48142610332919061126a565b11156103775780426040517f0321d0b500000000000000000000000000000000000000000000000000000000815260040161036e92919061129e565b60405180910390fd5b5b5050565b606061038782610482565b9050919050565b6000808251036103ca576040517f9e198af900000000000000000000000000000000000000000000000000000000815260040160405180910390fd5b6103d382610691565b6000600283516103e39190611239565b90506000600284516103f591906112c7565b0361045e5760006104468460018461040d919061126a565b8151811061041e5761041d6111ac565b5b6020026020010151858481518110610439576104386111ac565b5b60200260200101516106e4565b90506002816104559190611239565b9250505061047d565b828181518110610471576104706111ac565b5b60200260200101519150505b919050565b60606000825167ffffffffffffffff8111156104a1576104a0610f9d565b5b6040519080825280602002602001820160405280156104cf5781602001602082028036833780820191505090505b5090506000835167ffffffffffffffff8111156104ef576104ee610f9d565b5b60405190808252806020026020018201604052801561051d5781602001602082028036833780820191505090505b5090506000845167ffffffffffffffff81111561053d5761053c610f9d565b5b60405190808252806020026020018201604052801561057057816020015b606081526020019060019003908161055b5790505b50905060005b8551811015610603576105876101fb565b60ff1667ffffffffffffffff8111156105a3576105a2610f9d565b5b6040519080825280602002602001820160405280156105d15781602001602082028036833780820191505090505b508282815181106105e5576105e46111ac565b5b602002602001018190525080806105fb906112f8565b915050610576565b50600061060e6106fa565b9050600061061b8261080b565b61ffff16905060028261062e9190611340565b91506000604051905060005b828110156106795760006106518a89898989610867565b9050808561065f9190611340565b945082604052508080610671906112f8565b91505061063a565b506106848487610b5f565b9650505050505050919050565b805160208201602082028101815b818110156106dd57825b818110156106d15781518151808210156106c4578084528183525b50506020810190506106a9565b5060208101905061069f565b5050505050565b600081836106f29190611340565b905092915050565b60008060203603356602ed57011e000081166602ed57011e0000149150508061074f576040517fe7764c9e00000000000000000000000000000000000000000000000000000000815260040160405180910390fd5b6000803690506029111561078f576040517f5796f78a00000000000000000000000000000000000000000000000000000000815260040160405180910390fd5b602936033590506000600960038362ffffff166107ac9190611340565b6107b69190611340565b905060003690506002826107ca9190611340565b1115610802576040517fc30a7bd700000000000000000000000000000000000000000000000000000000815260040160405180910390fd5b80935050505090565b60008060208361081b9190611340565b9050600036905081111561085b576040517f5796f78a00000000000000000000000000000000000000000000000000000000815260040160405180910390fd5b80360335915050919050565b60008060008061087685610cac565b91509150600080600060606000600d6108a46020886108959190611340565b89610d2290919063ffffffff16565b6108ae9190611340565b905060006108d560688c6108c29190611340565b6000369050610d3890919063ffffffff16565b905060006109078360418e6108ea9190611340565b6108f49190611340565b6000369050610d3890919063ffffffff16565b90506109138382610941565b935082602085012094508135965061095d565b60006040519050818152602081019050818101604052919050565b600061094c83610926565b838382376020810391505092915050565b61096e8765ffffffffffff166101ef565b6109848560418e61097f9190611340565b610d4e565b955061098f86610114565b60ff1699505050505050505060008060005b84811015610b2a576109b4888583610dcd565b809350819450505060005b8c51811015610b16578c81815181106109db576109da6111ac565b5b60200260200101518403610b035760008b82815181106109fe576109fd6111ac565b5b60200260200101519050610a128189610e53565b158015610a425750610a226101fb565b60ff168d8381518110610a3857610a376111ac565b5b6020026020010151105b15610afd578c8281518110610a5a57610a596111ac565b5b602002602001018051809190610a6f906112f8565b81525050838b8381518110610a8757610a866111ac565b5b602002602001015160018f8581518110610aa457610aa36111ac565b5b6020026020010151610ab6919061126a565b81518110610ac757610ac66111ac565b5b602002602001018181525050610add8189610e6c565b8c8381518110610af057610aef6111ac565b5b6020026020010181815250505b50610b16565b8080610b0e906112f8565b9150506109bf565b508080610b22906112f8565b9150506109a1565b50505081602082610b3b9190611340565b610b459190611374565b604e610b519190611340565b935050505095945050505050565b60606000835167ffffffffffffffff811115610b7e57610b7d610f9d565b5b604051908082528060200260200182016040528015610bac5781602001602082028036833780820191505090505b5090506000610bb96101fb565b60ff16905060005b8551811015610ca05781858281518110610bde57610bdd6111ac565b5b60200260200101511015610c4557848181518110610bff57610bfe6111ac565b5b6020026020010151826040517f2b13aef5000000000000000000000000000000000000000000000000000000008152600401610c3c92919061129e565b60405180910390fd5b6000610c6a878381518110610c5d57610c5c6111ac565b5b60200260200101516101dd565b905080848381518110610c8057610c7f6111ac565b5b602002602001018181525050508080610c98906112f8565b915050610bc1565b50819250505092915050565b6000806000806000604186610cc19190611340565b90506000610ce8602083610cd59190611340565b6000369050610d3890919063ffffffff16565b905080359350610d02600382610d3890919063ffffffff16565b9050803592508362ffffff1695508263ffffffff16945050505050915091565b60008183610d309190611374565b905092915050565b60008183610d46919061126a565b905092915050565b6000806000808436038035935060208101905080359250602081019050803560001a91505060018682858560405160008152602001604052604051610d9694939291906113cf565b6020604051602081039080840390855afa158015610db8573d6000803e3d6000fd5b50505060206040510351935050505092915050565b6000806000604e86610ddf9190611340565b90506000610e20610e11602088610df69190611340565b876001610e039190611340565b610d2290919063ffffffff16565b836106e490919063ffffffff16565b90506000610e3b826000369050610d3890919063ffffffff16565b90508035945060208101359350505050935093915050565b600080826001901b841690506000811191505092915050565b6000816001901b8317905092915050565b6000604051905090565b600080fd5b600080fd5b600073ffffffffffffffffffffffffffffffffffffffff82169050919050565b6000610ebc82610e91565b9050919050565b610ecc81610eb1565b8114610ed757600080fd5b50565b600081359050610ee981610ec3565b92915050565b600060208284031215610f0557610f04610e87565b5b6000610f1384828501610eda565b91505092915050565b600060ff82169050919050565b610f3281610f1c565b82525050565b6000602082019050610f4d6000830184610f29565b92915050565b6000819050919050565b610f6681610f53565b82525050565b6000602082019050610f816000830184610f5d565b92915050565b600080fd5b6000601f19601f8301169050919050565b7f4e487b7100000000000000000000000000000000000000000000000000000000600052604160045260246000fd5b610fd582610f8c565b810181811067ffffffffffffffff82111715610ff457610ff3610f9d565b5b80604052505050565b6000611007610e7d565b90506110138282610fcc565b919050565b600067ffffffffffffffff82111561103357611032610f9d565b5b602082029050602081019050919050565b600080fd5b61105281610f53565b811461105d57600080fd5b50565b60008135905061106f81611049565b92915050565b600061108861108384611018565b610ffd565b905080838252602082019050602084028301858111156110ab576110aa611044565b5b835b818110156110d457806110c08882611060565b8452602084019350506020810190506110ad565b5050509392505050565b600082601f8301126110f3576110f2610f87565b5b8135611103848260208601611075565b91505092915050565b60006020828403121561112257611121610e87565b5b600082013567ffffffffffffffff8111156111405761113f610e8c565b5b61114c848285016110de565b91505092915050565b60006020828403121561116b5761116a610e87565b5b600061117984828501611060565b91505092915050565b61118b81610eb1565b82525050565b60006020820190506111a66000830184611182565b92915050565b7f4e487b7100000000000000000000000000000000000000000000000000000000600052603260045260246000fd5b7f4e487b7100000000000000000000000000000000000000000000000000000000600052601260045260246000fd5b7f4e487b7100000000000000000000000000000000000000000000000000000000600052601160045260246000fd5b600061124482610f53565b915061124f83610f53565b92508261125f5761125e6111db565b5b828204905092915050565b600061127582610f53565b915061128083610f53565b92508282039050818111156112985761129761120a565b5b92915050565b60006040820190506112b36000830185610f5d565b6112c06020830184610f5d565b9392505050565b60006112d282610f53565b91506112dd83610f53565b9250826112ed576112ec6111db565b5b828206905092915050565b600061130382610f53565b91507fffffffffffffffffffffffffffffffffffffffffffffffffffffffffffffffff82036113355761133461120a565b5b600182019050919050565b600061134b82610f53565b915061135683610f53565b925082820190508082111561136e5761136d61120a565b5b92915050565b600061137f82610f53565b915061138a83610f53565b925082820261139881610f53565b915082820484148315176113af576113ae61120a565b5b5092915050565b6000819050919050565b6113c9816113b6565b82525050565b60006080820190506113e460008301876113c0565b6113f16020830186610f29565b6113fe60408301856113c0565b61140b60608301846113c0565b9594505050505056fea264697066735822122003020a3056d1809fde8684a1da4a294407424a97c25205ba21210cc12873f8bd64736f6c63430008110033",
  "linkReferences": {},
  "deployedLinkReferences": {}
}