{
  "_format": "hh-sol-artifact-1",
  "contractName": "Auction",
  "sourceName": "contracts/Auction.sol",
  "abi": [
    {
      "inputs": [
        {
          "internalType": "uint256",
          "name": "_duration",
          "type": "uint256"
        }
      ],
      "stateMutability": "nonpayable",
      "type": "constructor"
    },
    {
      "anonymous": false,
      "inputs": [
        {
          "indexed": false,
          "internalType": "address",
          "name": "winner",
          "type": "address"
        },
        {
          "indexed": false,
          "internalType": "uint256",
          "name": "bidAmount",
          "type": "uint256"
        }
      ],
      "name": "auctionFinished",
      "type": "event"
    },
    {
      "anonymous": false,
      "inputs": [
        {
          "indexed": false,
          "internalType": "address",
          "name": "bidder",
          "type": "address"
        },
        {
          "indexed": false,
          "internalType": "uint256",
          "name": "bidAmount",
          "type": "uint256"
        }
      ],
      "name": "topBidIncreased",
      "type": "event"
    },
    {
      "inputs": [],
      "name": "bid",
      "outputs": [],
      "stateMutability": "payable",
      "type": "function"
    },
    {
      "inputs": [
        {
          "internalType": "address",
          "name": "",
          "type": "address"
        }
      ],
      "name": "bids",
      "outputs": [
        {
          "internalType": "uint256",
          "name": "",
          "type": "uint256"
        }
      ],
      "stateMutability": "view",
      "type": "function"
    },
    {
      "inputs": [],
      "name": "endtime",
      "outputs": [
        {
          "internalType": "uint256",
          "name": "",
          "type": "uint256"
        }
      ],
      "stateMutability": "view",
      "type": "function"
    },
    {
      "inputs": [],
      "name": "finish",
      "outputs": [],
      "stateMutability": "payable",
      "type": "function"
    },
    {
      "inputs": [],
      "name": "finished",
      "outputs": [
        {
          "internalType": "bool",
          "name": "",
          "type": "bool"
        }
      ],
      "stateMutability": "view",
      "type": "function"
    },
    {
      "inputs": [],
      "name": "getAuction",
      "outputs": [
        {
          "internalType": "address",
          "name": "_host",
          "type": "address"
        },
        {
          "internalType": "uint256",
          "name": "_endtime",
          "type": "uint256"
        },
        {
          "internalType": "uint256",
          "name": "_topBid",
          "type": "uint256"
        },
        {
          "internalType": "address",
          "name": "_topBidder",
          "type": "address"
        },
        {
          "internalType": "bool",
          "name": "_finished",
          "type": "bool"
        }
      ],
      "stateMutability": "view",
      "type": "function"
    },
    {
      "inputs": [],
      "name": "host",
      "outputs": [
        {
          "internalType": "address payable",
          "name": "",
          "type": "address"
        }
      ],
      "stateMutability": "view",
      "type": "function"
    },
    {
      "inputs": [
        {
          "internalType": "uint256",
          "name": "duration",
          "type": "uint256"
        }
      ],
      "name": "setEndtime",
      "outputs": [],
      "stateMutability": "nonpayable",
      "type": "function"
    },
    {
      "inputs": [],
      "name": "topBid",
      "outputs": [
        {
          "internalType": "uint256",
          "name": "",
          "type": "uint256"
        }
      ],
      "stateMutability": "view",
      "type": "function"
    },
    {
      "inputs": [],
      "name": "topBidder",
      "outputs": [
        {
          "internalType": "address",
          "name": "",
          "type": "address"
        }
      ],
      "stateMutability": "view",
      "type": "function"
    },
    {
      "inputs": [],
      "name": "withdraw",
      "outputs": [
        {
          "internalType": "bool",
          "name": "",
          "type": "bool"
        }
      ],
      "stateMutability": "nonpayable",
      "type": "function"
    }
  ],
  "bytecode": "0x60806040523480156200001157600080fd5b5060405162000f9438038062000f948339818101604052810190620000379190620000b1565b8042620000459190620000dd565b600181905550336000806101000a81548173ffffffffffffffffffffffffffffffffffffffff021916908373ffffffffffffffffffffffffffffffffffffffff1602179055506000600381905550506200018d565b600081519050620000ab8162000173565b92915050565b600060208284031215620000c457600080fd5b6000620000d4848285016200009a565b91505092915050565b6000620000ea826200013a565b9150620000f7836200013a565b9250827fffffffffffffffffffffffffffffffffffffffffffffffffffffffffffffffff038211156200012f576200012e62000144565b5b828201905092915050565b6000819050919050565b7f4e487b7100000000000000000000000000000000000000000000000000000000600052601160045260246000fd5b6200017e816200013a565b81146200018a57600080fd5b50565b610df7806200019d6000396000f3fe60806040526004361061009c5760003560e01c806362ea82db1161006457806362ea82db14610155578063636bf730146101925780637327df25146101bd578063bef4876b146101ec578063d56b288914610217578063f437bc59146102215761009c565b806301333f06146100a157806305240343146100cc5780631998aeef146100f55780632ca126f8146100ff5780633ccfd60b1461012a575b600080fd5b3480156100ad57600080fd5b506100b661024c565b6040516100c39190610a07565b60405180910390f35b3480156100d857600080fd5b506100f360048036038101906100ee9190610900565b610272565b005b6100fd610287565b005b34801561010b57600080fd5b5061011461047a565b6040516101219190610b72565b60405180910390f35b34801561013657600080fd5b5061013f610480565b60405161014c9190610ab9565b60405180910390f35b34801561016157600080fd5b5061017c600480360381019061017791906108d7565b6105a4565b6040516101899190610b72565b60405180910390f35b34801561019e57600080fd5b506101a76105bc565b6040516101b49190610b72565b60405180910390f35b3480156101c957600080fd5b506101d26105c2565b6040516101e3959493929190610a66565b60405180910390f35b3480156101f857600080fd5b50610201610636565b60405161020e9190610ab9565b60405180910390f35b61021f610649565b005b34801561022d57600080fd5b506102366107c1565b6040516102439190610a22565b60405180910390f35b600260009054906101000a900473ffffffffffffffffffffffffffffffffffffffff1681565b804261027e9190610ba9565b60018190555050565b6001544211156102cc576040517f08c379a00000000000000000000000000000000000000000000000000000000081526004016102c390610b12565b60405180910390fd5b6003543411610310576040517f08c379a000000000000000000000000000000000000000000000000000000000815260040161030790610b32565b60405180910390fd5b6000600354146103955760035460046000600260009054906101000a900473ffffffffffffffffffffffffffffffffffffffff1673ffffffffffffffffffffffffffffffffffffffff1673ffffffffffffffffffffffffffffffffffffffff168152602001908152602001600020600082825461038d9190610ba9565b925050819055505b33600260006101000a81548173ffffffffffffffffffffffffffffffffffffffff021916908373ffffffffffffffffffffffffffffffffffffffff1602179055503460038190555061043f6040518060400160405280601281526020017f746f704269646465723a202573202f2025730000000000000000000000000000815250600260009054906101000a900473ffffffffffffffffffffffffffffffffffffffff16336107e5565b7f7635e37094566fa4ea4b08dd77117e7ace1e3e5a6ee614bcd37eb6ad8eccc1d93334604051610470929190610a3d565b60405180910390a1565b60015481565b600080600460003373ffffffffffffffffffffffffffffffffffffffff1673ffffffffffffffffffffffffffffffffffffffff168152602001908152602001600020549050600081111561059b576000600460003373ffffffffffffffffffffffffffffffffffffffff1673ffffffffffffffffffffffffffffffffffffffff168152602001908152602001600020819055503373ffffffffffffffffffffffffffffffffffffffff166108fc829081150290604051600060405180830381858888f1935050505061059a5780600460003373ffffffffffffffffffffffffffffffffffffffff1673ffffffffffffffffffffffffffffffffffffffff1681526020019081526020016000208190555060009150506105a1565b5b60019150505b90565b60046020528060005260406000206000915090505481565b60035481565b60008060008060008060009054906101000a900473ffffffffffffffffffffffffffffffffffffffff16600154600354600260009054906101000a900473ffffffffffffffffffffffffffffffffffffffff16600560009054906101000a900460ff16945094509450945094509091929394565b600560009054906101000a900460ff1681565b60015442101561068e576040517f08c379a000000000000000000000000000000000000000000000000000000000815260040161068590610b52565b60405180910390fd5b600560009054906101000a900460ff16156106de576040517f08c379a00000000000000000000000000000000000000000000000000000000081526004016106d590610b12565b60405180910390fd5b6001600560006101000a81548160ff0219169083151502179055507fd0cf8e3f18ba7294910551daebfd3ec1e6dc1ce599a026f41196f54bc6aafbb4600260009054906101000a900473ffffffffffffffffffffffffffffffffffffffff1660035460405161074e929190610a3d565b60405180910390a160008054906101000a900473ffffffffffffffffffffffffffffffffffffffff1673ffffffffffffffffffffffffffffffffffffffff166108fc6003549081150290604051600060405180830381858888f193505050501580156107be573d6000803e3d6000fd5b50565b60008054906101000a900473ffffffffffffffffffffffffffffffffffffffff1681565b61087f8383836040516024016107fd93929190610ad4565b6040516020818303038152906040527ffcec75e0000000000000000000000000000000000000000000000000000000007bffffffffffffffffffffffffffffffffffffffffffffffffffffffff19166020820180517bffffffffffffffffffffffffffffffffffffffffffffffffffffffff8381831617835250505050610884565b505050565b60008151905060006a636f6e736f6c652e6c6f679050602083016000808483855afa5050505050565b6000813590506108bc81610d93565b92915050565b6000813590506108d181610daa565b92915050565b6000602082840312156108e957600080fd5b60006108f7848285016108ad565b91505092915050565b60006020828403121561091257600080fd5b6000610920848285016108c2565b91505092915050565b61093281610c11565b82525050565b61094181610bff565b82525050565b61095081610c23565b82525050565b600061096182610b8d565b61096b8185610b98565b935061097b818560208601610c59565b61098481610cbb565b840191505092915050565b600061099c601d83610b98565b91506109a782610ccc565b602082019050919050565b60006109bf602983610b98565b91506109ca82610cf5565b604082019050919050565b60006109e2602883610b98565b91506109ed82610d44565b604082019050919050565b610a0181610c4f565b82525050565b6000602082019050610a1c6000830184610938565b92915050565b6000602082019050610a376000830184610929565b92915050565b6000604082019050610a526000830185610938565b610a5f60208301846109f8565b9392505050565b600060a082019050610a7b6000830188610938565b610a8860208301876109f8565b610a9560408301866109f8565b610aa26060830185610938565b610aaf6080830184610947565b9695505050505050565b6000602082019050610ace6000830184610947565b92915050565b60006060820190508181036000830152610aee8186610956565b9050610afd6020830185610938565b610b0a6040830184610938565b949350505050565b60006020820190508181036000830152610b2b8161098f565b9050919050565b60006020820190508181036000830152610b4b816109b2565b9050919050565b60006020820190508181036000830152610b6b816109d5565b9050919050565b6000602082019050610b8760008301846109f8565b92915050565b600081519050919050565b600082825260208201905092915050565b6000610bb482610c4f565b9150610bbf83610c4f565b9250827fffffffffffffffffffffffffffffffffffffffffffffffffffffffffffffffff03821115610bf457610bf3610c8c565b5b828201905092915050565b6000610c0a82610c2f565b9050919050565b6000610c1c82610c2f565b9050919050565b60008115159050919050565b600073ffffffffffffffffffffffffffffffffffffffff82169050919050565b6000819050919050565b60005b83811015610c77578082015181840152602081019050610c5c565b83811115610c86576000848401525b50505050565b7f4e487b7100000000000000000000000000000000000000000000000000000000600052601160045260246000fd5b6000601f19601f8301169050919050565b7f41756374696f6e2068617320616c72656164792066696e69736865642e000000600082015250565b7f596f757220626964206d75737420626520686967686572207468616e2074686560008201527f20746f70206269642e0000000000000000000000000000000000000000000000602082015250565b7f41756374696f6e20656e6474696d65206861736e2774206265656e207265616360008201527f686564207965742e000000000000000000000000000000000000000000000000602082015250565b610d9c81610bff565b8114610da757600080fd5b50565b610db381610c4f565b8114610dbe57600080fd5b5056fea2646970667358221220cfd6ff3217305c8d52d911fce5b3204b5c225351ca72e1e9b1c64923fde5820364736f6c63430008040033",
  "linkReferences": {},
  "deployedLinkReferences": {}
}