{
  "_format": "hh-sol-artifact-1",
  "contractName": "NFT",
  "sourceName": "contracts/NFT.sol",
  "abi": [
    {
      "inputs": [],
      "stateMutability": "nonpayable",
      "type": "constructor"
    },
    {
      "anonymous": false,
      "inputs": [
        {
          "indexed": true,
          "internalType": "address",
          "name": "owner",
          "type": "address"
        },
        {
          "indexed": true,
          "internalType": "address",
          "name": "approved",
          "type": "address"
        },
        {
          "indexed": true,
          "internalType": "uint256",
          "name": "tokenId",
          "type": "uint256"
        }
      ],
      "name": "Approval",
      "type": "event"
    },
    {
      "anonymous": false,
      "inputs": [
        {
          "indexed": true,
          "internalType": "address",
          "name": "owner",
          "type": "address"
        },
        {
          "indexed": true,
          "internalType": "address",
          "name": "operator",
          "type": "address"
        },
        {
          "indexed": false,
          "internalType": "bool",
          "name": "approved",
          "type": "bool"
        }
      ],
      "name": "ApprovalForAll",
      "type": "event"
    },
    {
      "anonymous": false,
      "inputs": [
        {
          "indexed": true,
          "internalType": "address",
          "name": "previousOwner",
          "type": "address"
        },
        {
          "indexed": true,
          "internalType": "address",
          "name": "newOwner",
          "type": "address"
        }
      ],
      "name": "OwnershipTransferred",
      "type": "event"
    },
    {
      "anonymous": false,
      "inputs": [
        {
          "indexed": true,
          "internalType": "address",
          "name": "from",
          "type": "address"
        },
        {
          "indexed": true,
          "internalType": "address",
          "name": "to",
          "type": "address"
        },
        {
          "indexed": true,
          "internalType": "uint256",
          "name": "tokenId",
          "type": "uint256"
        }
      ],
      "name": "Transfer",
      "type": "event"
    },
    {
      "inputs": [
        {
          "internalType": "address",
          "name": "to",
          "type": "address"
        },
        {
          "internalType": "uint256",
          "name": "tokenId",
          "type": "uint256"
        }
      ],
      "name": "approve",
      "outputs": [],
      "stateMutability": "nonpayable",
      "type": "function"
    },
    {
      "inputs": [
        {
          "internalType": "address",
          "name": "owner",
          "type": "address"
        }
      ],
      "name": "balanceOf",
      "outputs": [
        {
          "internalType": "uint256",
          "name": "",
          "type": "uint256"
        }
      ],
      "stateMutability": "view",
      "type": "function"
    },
    {
      "inputs": [
        {
          "internalType": "uint256",
          "name": "tokenId",
          "type": "uint256"
        }
      ],
      "name": "getApproved",
      "outputs": [
        {
          "internalType": "address",
          "name": "",
          "type": "address"
        }
      ],
      "stateMutability": "view",
      "type": "function"
    },
    {
      "inputs": [
        {
          "internalType": "address",
          "name": "owner",
          "type": "address"
        },
        {
          "internalType": "address",
          "name": "operator",
          "type": "address"
        }
      ],
      "name": "isApprovedForAll",
      "outputs": [
        {
          "internalType": "bool",
          "name": "",
          "type": "bool"
        }
      ],
      "stateMutability": "view",
      "type": "function"
    },
    {
      "inputs": [],
      "name": "name",
      "outputs": [
        {
          "internalType": "string",
          "name": "",
          "type": "string"
        }
      ],
      "stateMutability": "view",
      "type": "function"
    },
    {
      "inputs": [],
      "name": "owner",
      "outputs": [
        {
          "internalType": "address",
          "name": "",
          "type": "address"
        }
      ],
      "stateMutability": "view",
      "type": "function"
    },
    {
      "inputs": [
        {
          "internalType": "uint256",
          "name": "tokenId",
          "type": "uint256"
        }
      ],
      "name": "ownerOf",
      "outputs": [
        {
          "internalType": "address",
          "name": "",
          "type": "address"
        }
      ],
      "stateMutability": "view",
      "type": "function"
    },
    {
      "inputs": [],
      "name": "renounceOwnership",
      "outputs": [],
      "stateMutability": "nonpayable",
      "type": "function"
    },
    {
      "inputs": [
        {
          "internalType": "string",
          "name": "uri",
          "type": "string"
        }
      ],
      "name": "safeMint",
      "outputs": [],
      "stateMutability": "nonpayable",
      "type": "function"
    },
    {
      "inputs": [
        {
          "internalType": "address",
          "name": "from",
          "type": "address"
        },
        {
          "internalType": "address",
          "name": "to",
          "type": "address"
        },
        {
          "internalType": "uint256",
          "name": "tokenId",
          "type": "uint256"
        }
      ],
      "name": "safeTransferFrom",
      "outputs": [],
      "stateMutability": "nonpayable",
      "type": "function"
    },
    {
      "inputs": [
        {
          "internalType": "address",
          "name": "from",
          "type": "address"
        },
        {
          "internalType": "address",
          "name": "to",
          "type": "address"
        },
        {
          "internalType": "uint256",
          "name": "tokenId",
          "type": "uint256"
        },
        {
          "internalType": "bytes",
          "name": "data",
          "type": "bytes"
        }
      ],
      "name": "safeTransferFrom",
      "outputs": [],
      "stateMutability": "nonpayable",
      "type": "function"
    },
    {
      "inputs": [
        {
          "internalType": "address",
          "name": "operator",
          "type": "address"
        },
        {
          "internalType": "bool",
          "name": "approved",
          "type": "bool"
        }
      ],
      "name": "setApprovalForAll",
      "outputs": [],
      "stateMutability": "nonpayable",
      "type": "function"
    },
    {
      "inputs": [
        {
          "internalType": "bytes4",
          "name": "interfaceId",
          "type": "bytes4"
        }
      ],
      "name": "supportsInterface",
      "outputs": [
        {
          "internalType": "bool",
          "name": "",
          "type": "bool"
        }
      ],
      "stateMutability": "view",
      "type": "function"
    },
    {
      "inputs": [],
      "name": "symbol",
      "outputs": [
        {
          "internalType": "string",
          "name": "",
          "type": "string"
        }
      ],
      "stateMutability": "view",
      "type": "function"
    },
    {
      "inputs": [
        {
          "internalType": "uint256",
          "name": "tokenId",
          "type": "uint256"
        }
      ],
      "name": "tokenURI",
      "outputs": [
        {
          "internalType": "string",
          "name": "",
          "type": "string"
        }
      ],
      "stateMutability": "view",
      "type": "function"
    },
    {
      "inputs": [
        {
          "internalType": "address",
          "name": "from",
          "type": "address"
        },
        {
          "internalType": "address",
          "name": "to",
          "type": "address"
        },
        {
          "internalType": "uint256",
          "name": "tokenId",
          "type": "uint256"
        }
      ],
      "name": "transferFrom",
      "outputs": [],
      "stateMutability": "nonpayable",
      "type": "function"
    },
    {
      "inputs": [
        {
          "internalType": "address",
          "name": "newOwner",
          "type": "address"
        }
      ],
      "name": "transferOwnership",
      "outputs": [],
      "stateMutability": "nonpayable",
      "type": "function"
    }
  ],
  "bytecode": "0x60806040523480156200001157600080fd5b506040518060400160405280600a81526020017f4e46546578616d706c65000000000000000000000000000000000000000000008152506040518060400160405280600481526020017f43454c4f0000000000000000000000000000000000000000000000000000000081525081600090816200008f919062000412565b508060019081620000a1919062000412565b505050620000c4620000b8620000ca60201b60201c565b620000d260201b60201c565b620004f9565b600033905090565b6000600760009054906101000a900473ffffffffffffffffffffffffffffffffffffffff16905081600760006101000a81548173ffffffffffffffffffffffffffffffffffffffff021916908373ffffffffffffffffffffffffffffffffffffffff1602179055508173ffffffffffffffffffffffffffffffffffffffff168173ffffffffffffffffffffffffffffffffffffffff167f8be0079c531659141344cd1fd0a4f28419497f9722a3daafe3b4186f6b6457e060405160405180910390a35050565b600081519050919050565b7f4e487b7100000000000000000000000000000000000000000000000000000000600052604160045260246000fd5b7f4e487b7100000000000000000000000000000000000000000000000000000000600052602260045260246000fd5b600060028204905060018216806200021a57607f821691505b60208210810362000230576200022f620001d2565b5b50919050565b60008190508160005260206000209050919050565b60006020601f8301049050919050565b600082821b905092915050565b6000600883026200029a7fffffffffffffffffffffffffffffffffffffffffffffffffffffffffffffffff826200025b565b620002a686836200025b565b95508019841693508086168417925050509392505050565b6000819050919050565b6000819050919050565b6000620002f3620002ed620002e784620002be565b620002c8565b620002be565b9050919050565b6000819050919050565b6200030f83620002d2565b620003276200031e82620002fa565b84845462000268565b825550505050565b600090565b6200033e6200032f565b6200034b81848462000304565b505050565b5b8181101562000373576200036760008262000334565b60018101905062000351565b5050565b601f821115620003c2576200038c8162000236565b62000397846200024b565b81016020851015620003a7578190505b620003bf620003b6856200024b565b83018262000350565b50505b505050565b600082821c905092915050565b6000620003e760001984600802620003c7565b1980831691505092915050565b6000620004028383620003d4565b9150826002028217905092915050565b6200041d8262000198565b67ffffffffffffffff811115620004395762000438620001a3565b5b62000445825462000201565b6200045282828562000377565b600060209050601f8311600181146200048a576000841562000475578287015190505b620004818582620003f4565b865550620004f1565b601f1984166200049a8662000236565b60005b82811015620004c4578489015182556001820191506020850194506020810190506200049d565b86831015620004e45784890151620004e0601f891682620003d4565b8355505b6001600288020188555050505b505050505050565b612e0c80620005096000396000f3fe608060405234801561001057600080fd5b506004361061010b5760003560e01c806370a08231116100a2578063a22cb46511610071578063a22cb465146102a4578063b88d4fde146102c0578063c87b56dd146102dc578063e985e9c51461030c578063f2fde38b1461033c5761010b565b806370a082311461022e578063715018a61461025e5780638da5cb5b1461026857806395d89b41146102865761010b565b806323b872dd116100de57806323b872dd146101aa57806342842e0e146101c65780636352211e146101e2578063695850fb146102125761010b565b806301ffc9a71461011057806306fdde0314610140578063081812fc1461015e578063095ea7b31461018e575b600080fd5b61012a60048036038101906101259190611c10565b610358565b6040516101379190611c58565b60405180910390f35b61014861043a565b6040516101559190611d03565b60405180910390f35b61017860048036038101906101739190611d5b565b6104cc565b6040516101859190611dc9565b60405180910390f35b6101a860048036038101906101a39190611e10565b610512565b005b6101c460048036038101906101bf9190611e50565b610629565b005b6101e060048036038101906101db9190611e50565b610689565b005b6101fc60048036038101906101f79190611d5b565b6106a9565b6040516102099190611dc9565b60405180910390f35b61022c60048036038101906102279190611fd8565b61072f565b005b61024860048036038101906102439190612021565b61075f565b604051610255919061205d565b60405180910390f35b610266610816565b005b61027061082a565b60405161027d9190611dc9565b60405180910390f35b61028e610854565b60405161029b9190611d03565b60405180910390f35b6102be60048036038101906102b991906120a4565b6108e6565b005b6102da60048036038101906102d59190612185565b6108fc565b005b6102f660048036038101906102f19190611d5b565b61095e565b6040516103039190611d03565b60405180910390f35b61032660048036038101906103219190612208565b610970565b6040516103339190611c58565b60405180910390f35b61035660048036038101906103519190612021565b610a04565b005b60007f80ac58cd000000000000000000000000000000000000000000000000000000007bffffffffffffffffffffffffffffffffffffffffffffffffffffffff1916827bffffffffffffffffffffffffffffffffffffffffffffffffffffffff1916148061042357507f5b5e139f000000000000000000000000000000000000000000000000000000007bffffffffffffffffffffffffffffffffffffffffffffffffffffffff1916827bffffffffffffffffffffffffffffffffffffffffffffffffffffffff1916145b80610433575061043282610a87565b5b9050919050565b60606000805461044990612277565b80601f016020809104026020016040519081016040528092919081815260200182805461047590612277565b80156104c25780601f10610497576101008083540402835291602001916104c2565b820191906000526020600020905b8154815290600101906020018083116104a557829003601f168201915b5050505050905090565b60006104d782610af1565b6004600083815260200190815260200160002060009054906101000a900473ffffffffffffffffffffffffffffffffffffffff169050919050565b600061051d826106a9565b90508073ffffffffffffffffffffffffffffffffffffffff168373ffffffffffffffffffffffffffffffffffffffff160361058d576040517f08c379a00000000000000000000000000000000000000000000000000000000081526004016105849061231a565b60405180910390fd5b8073ffffffffffffffffffffffffffffffffffffffff166105ac610b3c565b73ffffffffffffffffffffffffffffffffffffffff1614806105db57506105da816105d5610b3c565b610970565b5b61061a576040517f08c379a0000000000000000000000000000000000000000000000000000000008152600401610611906123ac565b60405180910390fd5b6106248383610b44565b505050565b61063a610634610b3c565b82610bfd565b610679576040517f08c379a00000000000000000000000000000000000000000000000000000000081526004016106709061243e565b60405180910390fd5b610684838383610c92565b505050565b6106a4838383604051806020016040528060008152506108fc565b505050565b6000806106b583610f8b565b9050600073ffffffffffffffffffffffffffffffffffffffff168173ffffffffffffffffffffffffffffffffffffffff1603610726576040517f08c379a000000000000000000000000000000000000000000000000000000000815260040161071d906124aa565b60405180910390fd5b80915050919050565b600061073b6008610fc8565b90506107476008610fd6565b6107513382610fec565b61075b818361100a565b5050565b60008073ffffffffffffffffffffffffffffffffffffffff168273ffffffffffffffffffffffffffffffffffffffff16036107cf576040517f08c379a00000000000000000000000000000000000000000000000000000000081526004016107c69061253c565b60405180910390fd5b600360008373ffffffffffffffffffffffffffffffffffffffff1673ffffffffffffffffffffffffffffffffffffffff168152602001908152602001600020549050919050565b61081e611077565b61082860006110f5565b565b6000600760009054906101000a900473ffffffffffffffffffffffffffffffffffffffff16905090565b60606001805461086390612277565b80601f016020809104026020016040519081016040528092919081815260200182805461088f90612277565b80156108dc5780601f106108b1576101008083540402835291602001916108dc565b820191906000526020600020905b8154815290600101906020018083116108bf57829003601f168201915b5050505050905090565b6108f86108f1610b3c565b83836111bb565b5050565b61090d610907610b3c565b83610bfd565b61094c576040517f08c379a00000000000000000000000000000000000000000000000000000000081526004016109439061243e565b60405180910390fd5b61095884848484611327565b50505050565b606061096982611383565b9050919050565b6000600560008473ffffffffffffffffffffffffffffffffffffffff1673ffffffffffffffffffffffffffffffffffffffff16815260200190815260200160002060008373ffffffffffffffffffffffffffffffffffffffff1673ffffffffffffffffffffffffffffffffffffffff16815260200190815260200160002060009054906101000a900460ff16905092915050565b610a0c611077565b600073ffffffffffffffffffffffffffffffffffffffff168173ffffffffffffffffffffffffffffffffffffffff1603610a7b576040517f08c379a0000000000000000000000000000000000000000000000000000000008152600401610a72906125ce565b60405180910390fd5b610a84816110f5565b50565b60007f01ffc9a7000000000000000000000000000000000000000000000000000000007bffffffffffffffffffffffffffffffffffffffffffffffffffffffff1916827bffffffffffffffffffffffffffffffffffffffffffffffffffffffff1916149050919050565b610afa81611495565b610b39576040517f08c379a0000000000000000000000000000000000000000000000000000000008152600401610b30906124aa565b60405180910390fd5b50565b600033905090565b816004600083815260200190815260200160002060006101000a81548173ffffffffffffffffffffffffffffffffffffffff021916908373ffffffffffffffffffffffffffffffffffffffff160217905550808273ffffffffffffffffffffffffffffffffffffffff16610bb7836106a9565b73ffffffffffffffffffffffffffffffffffffffff167f8c5be1e5ebec7d5bd14f71427d1e84f3dd0314c0f7b2291e5b200ac8c7c3b92560405160405180910390a45050565b600080610c09836106a9565b90508073ffffffffffffffffffffffffffffffffffffffff168473ffffffffffffffffffffffffffffffffffffffff161480610c4b5750610c4a8185610970565b5b80610c8957508373ffffffffffffffffffffffffffffffffffffffff16610c71846104cc565b73ffffffffffffffffffffffffffffffffffffffff16145b91505092915050565b8273ffffffffffffffffffffffffffffffffffffffff16610cb2826106a9565b73ffffffffffffffffffffffffffffffffffffffff1614610d08576040517f08c379a0000000000000000000000000000000000000000000000000000000008152600401610cff90612660565b60405180910390fd5b600073ffffffffffffffffffffffffffffffffffffffff168273ffffffffffffffffffffffffffffffffffffffff1603610d77576040517f08c379a0000000000000000000000000000000000000000000000000000000008152600401610d6e906126f2565b60405180910390fd5b610d8483838360016114d6565b8273ffffffffffffffffffffffffffffffffffffffff16610da4826106a9565b73ffffffffffffffffffffffffffffffffffffffff1614610dfa576040517f08c379a0000000000000000000000000000000000000000000000000000000008152600401610df190612660565b60405180910390fd5b6004600082815260200190815260200160002060006101000a81549073ffffffffffffffffffffffffffffffffffffffff02191690556001600360008573ffffffffffffffffffffffffffffffffffffffff1673ffffffffffffffffffffffffffffffffffffffff168152602001908152602001600020600082825403925050819055506001600360008473ffffffffffffffffffffffffffffffffffffffff1673ffffffffffffffffffffffffffffffffffffffff16815260200190815260200160002060008282540192505081905550816002600083815260200190815260200160002060006101000a81548173ffffffffffffffffffffffffffffffffffffffff021916908373ffffffffffffffffffffffffffffffffffffffff160217905550808273ffffffffffffffffffffffffffffffffffffffff168473ffffffffffffffffffffffffffffffffffffffff167fddf252ad1be2c89b69c2b068fc378daa952ba7f163c4a11628f55a4df523b3ef60405160405180910390a4610f8683838360016114dc565b505050565b60006002600083815260200190815260200160002060009054906101000a900473ffffffffffffffffffffffffffffffffffffffff169050919050565b600081600001549050919050565b6001816000016000828254019250508190555050565b6110068282604051806020016040528060008152506114e2565b5050565b61101382611495565b611052576040517f08c379a000000000000000000000000000000000000000000000000000000000815260040161104990612784565b60405180910390fd5b806006600084815260200190815260200160002090816110729190612950565b505050565b61107f610b3c565b73ffffffffffffffffffffffffffffffffffffffff1661109d61082a565b73ffffffffffffffffffffffffffffffffffffffff16146110f3576040517f08c379a00000000000000000000000000000000000000000000000000000000081526004016110ea90612a6e565b60405180910390fd5b565b6000600760009054906101000a900473ffffffffffffffffffffffffffffffffffffffff16905081600760006101000a81548173ffffffffffffffffffffffffffffffffffffffff021916908373ffffffffffffffffffffffffffffffffffffffff1602179055508173ffffffffffffffffffffffffffffffffffffffff168173ffffffffffffffffffffffffffffffffffffffff167f8be0079c531659141344cd1fd0a4f28419497f9722a3daafe3b4186f6b6457e060405160405180910390a35050565b8173ffffffffffffffffffffffffffffffffffffffff168373ffffffffffffffffffffffffffffffffffffffff1603611229576040517f08c379a000000000000000000000000000000000000000000000000000000000815260040161122090612ada565b60405180910390fd5b80600560008573ffffffffffffffffffffffffffffffffffffffff1673ffffffffffffffffffffffffffffffffffffffff16815260200190815260200160002060008473ffffffffffffffffffffffffffffffffffffffff1673ffffffffffffffffffffffffffffffffffffffff16815260200190815260200160002060006101000a81548160ff0219169083151502179055508173ffffffffffffffffffffffffffffffffffffffff168373ffffffffffffffffffffffffffffffffffffffff167f17307eab39ab6107e8899845ad3d59bd9653f200f220920489ca2b5937696c318360405161131a9190611c58565b60405180910390a3505050565b611332848484610c92565b61133e8484848461153d565b61137d576040517f08c379a000000000000000000000000000000000000000000000000000000000815260040161137490612b6c565b60405180910390fd5b50505050565b606061138e82610af1565b60006006600084815260200190815260200160002080546113ae90612277565b80601f01602080910402602001604051908101604052809291908181526020018280546113da90612277565b80156114275780601f106113fc57610100808354040283529160200191611427565b820191906000526020600020905b81548152906001019060200180831161140a57829003601f168201915b5050505050905060006114386116c4565b9050600081510361144d578192505050611490565b60008251111561148257808260405160200161146a929190612bc8565b60405160208183030381529060405292505050611490565b61148b846116db565b925050505b919050565b60008073ffffffffffffffffffffffffffffffffffffffff166114b783610f8b565b73ffffffffffffffffffffffffffffffffffffffff1614159050919050565b50505050565b50505050565b6114ec8383611743565b6114f9600084848461153d565b611538576040517f08c379a000000000000000000000000000000000000000000000000000000000815260040161152f90612b6c565b60405180910390fd5b505050565b600061155e8473ffffffffffffffffffffffffffffffffffffffff16611960565b156116b7578373ffffffffffffffffffffffffffffffffffffffff1663150b7a02611587610b3c565b8786866040518563ffffffff1660e01b81526004016115a99493929190612c41565b6020604051808303816000875af19250505080156115e557506040513d601f19601f820116820180604052508101906115e29190612ca2565b60015b611667573d8060008114611615576040519150601f19603f3d011682016040523d82523d6000602084013e61161a565b606091505b50600081510361165f576040517f08c379a000000000000000000000000000000000000000000000000000000000815260040161165690612b6c565b60405180910390fd5b805181602001fd5b63150b7a0260e01b7bffffffffffffffffffffffffffffffffffffffffffffffffffffffff1916817bffffffffffffffffffffffffffffffffffffffffffffffffffffffff1916149150506116bc565b600190505b949350505050565b606060405180602001604052806000815250905090565b60606116e682610af1565b60006116f06116c4565b90506000815111611710576040518060200160405280600081525061173b565b8061171a84611983565b60405160200161172b929190612bc8565b6040516020818303038152906040525b915050919050565b600073ffffffffffffffffffffffffffffffffffffffff168273ffffffffffffffffffffffffffffffffffffffff16036117b2576040517f08c379a00000000000000000000000000000000000000000000000000000000081526004016117a990612d1b565b60405180910390fd5b6117bb81611495565b156117fb576040517f08c379a00000000000000000000000000000000000000000000000000000000081526004016117f290612d87565b60405180910390fd5b6118096000838360016114d6565b61181281611495565b15611852576040517f08c379a000000000000000000000000000000000000000000000000000000000815260040161184990612d87565b60405180910390fd5b6001600360008473ffffffffffffffffffffffffffffffffffffffff1673ffffffffffffffffffffffffffffffffffffffff16815260200190815260200160002060008282540192505081905550816002600083815260200190815260200160002060006101000a81548173ffffffffffffffffffffffffffffffffffffffff021916908373ffffffffffffffffffffffffffffffffffffffff160217905550808273ffffffffffffffffffffffffffffffffffffffff16600073ffffffffffffffffffffffffffffffffffffffff167fddf252ad1be2c89b69c2b068fc378daa952ba7f163c4a11628f55a4df523b3ef60405160405180910390a461195c6000838360016114dc565b5050565b6000808273ffffffffffffffffffffffffffffffffffffffff163b119050919050565b60606000600161199284611a51565b01905060008167ffffffffffffffff8111156119b1576119b0611ead565b5b6040519080825280601f01601f1916602001820160405280156119e35781602001600182028036833780820191505090505b509050600082602001820190505b600115611a46578080600190039150507f3031323334353637383961626364656600000000000000000000000000000000600a86061a8153600a8581611a3a57611a39612da7565b5b049450600085036119f1575b819350505050919050565b600080600090507a184f03e93ff9f4daa797ed6e38ed64bf6a1f0100000000000000008310611aaf577a184f03e93ff9f4daa797ed6e38ed64bf6a1f0100000000000000008381611aa557611aa4612da7565b5b0492506040810190505b6d04ee2d6d415b85acef81000000008310611aec576d04ee2d6d415b85acef81000000008381611ae257611ae1612da7565b5b0492506020810190505b662386f26fc100008310611b1b57662386f26fc100008381611b1157611b10612da7565b5b0492506010810190505b6305f5e1008310611b44576305f5e1008381611b3a57611b39612da7565b5b0492506008810190505b6127108310611b69576127108381611b5f57611b5e612da7565b5b0492506004810190505b60648310611b8c5760648381611b8257611b81612da7565b5b0492506002810190505b600a8310611b9b576001810190505b80915050919050565b6000604051905090565b600080fd5b600080fd5b60007fffffffff0000000000000000000000000000000000000000000000000000000082169050919050565b611bed81611bb8565b8114611bf857600080fd5b50565b600081359050611c0a81611be4565b92915050565b600060208284031215611c2657611c25611bae565b5b6000611c3484828501611bfb565b91505092915050565b60008115159050919050565b611c5281611c3d565b82525050565b6000602082019050611c6d6000830184611c49565b92915050565b600081519050919050565b600082825260208201905092915050565b60005b83811015611cad578082015181840152602081019050611c92565b60008484015250505050565b6000601f19601f8301169050919050565b6000611cd582611c73565b611cdf8185611c7e565b9350611cef818560208601611c8f565b611cf881611cb9565b840191505092915050565b60006020820190508181036000830152611d1d8184611cca565b905092915050565b6000819050919050565b611d3881611d25565b8114611d4357600080fd5b50565b600081359050611d5581611d2f565b92915050565b600060208284031215611d7157611d70611bae565b5b6000611d7f84828501611d46565b91505092915050565b600073ffffffffffffffffffffffffffffffffffffffff82169050919050565b6000611db382611d88565b9050919050565b611dc381611da8565b82525050565b6000602082019050611dde6000830184611dba565b92915050565b611ded81611da8565b8114611df857600080fd5b50565b600081359050611e0a81611de4565b92915050565b60008060408385031215611e2757611e26611bae565b5b6000611e3585828601611dfb565b9250506020611e4685828601611d46565b9150509250929050565b600080600060608486031215611e6957611e68611bae565b5b6000611e7786828701611dfb565b9350506020611e8886828701611dfb565b9250506040611e9986828701611d46565b9150509250925092565b600080fd5b600080fd5b7f4e487b7100000000000000000000000000000000000000000000000000000000600052604160045260246000fd5b611ee582611cb9565b810181811067ffffffffffffffff82111715611f0457611f03611ead565b5b80604052505050565b6000611f17611ba4565b9050611f238282611edc565b919050565b600067ffffffffffffffff821115611f4357611f42611ead565b5b611f4c82611cb9565b9050602081019050919050565b82818337600083830152505050565b6000611f7b611f7684611f28565b611f0d565b905082815260208101848484011115611f9757611f96611ea8565b5b611fa2848285611f59565b509392505050565b600082601f830112611fbf57611fbe611ea3565b5b8135611fcf848260208601611f68565b91505092915050565b600060208284031215611fee57611fed611bae565b5b600082013567ffffffffffffffff81111561200c5761200b611bb3565b5b61201884828501611faa565b91505092915050565b60006020828403121561203757612036611bae565b5b600061204584828501611dfb565b91505092915050565b61205781611d25565b82525050565b6000602082019050612072600083018461204e565b92915050565b61208181611c3d565b811461208c57600080fd5b50565b60008135905061209e81612078565b92915050565b600080604083850312156120bb576120ba611bae565b5b60006120c985828601611dfb565b92505060206120da8582860161208f565b9150509250929050565b600067ffffffffffffffff8211156120ff576120fe611ead565b5b61210882611cb9565b9050602081019050919050565b6000612128612123846120e4565b611f0d565b90508281526020810184848401111561214457612143611ea8565b5b61214f848285611f59565b509392505050565b600082601f83011261216c5761216b611ea3565b5b813561217c848260208601612115565b91505092915050565b6000806000806080858703121561219f5761219e611bae565b5b60006121ad87828801611dfb565b94505060206121be87828801611dfb565b93505060406121cf87828801611d46565b925050606085013567ffffffffffffffff8111156121f0576121ef611bb3565b5b6121fc87828801612157565b91505092959194509250565b6000806040838503121561221f5761221e611bae565b5b600061222d85828601611dfb565b925050602061223e85828601611dfb565b9150509250929050565b7f4e487b7100000000000000000000000000000000000000000000000000000000600052602260045260246000fd5b6000600282049050600182168061228f57607f821691505b6020821081036122a2576122a1612248565b5b50919050565b7f4552433732313a20617070726f76616c20746f2063757272656e74206f776e6560008201527f7200000000000000000000000000000000000000000000000000000000000000602082015250565b6000612304602183611c7e565b915061230f826122a8565b604082019050919050565b60006020820190508181036000830152612333816122f7565b9050919050565b7f4552433732313a20617070726f76652063616c6c6572206973206e6f7420746f60008201527f6b656e206f776e6572206f7220617070726f76656420666f7220616c6c000000602082015250565b6000612396603d83611c7e565b91506123a18261233a565b604082019050919050565b600060208201905081810360008301526123c581612389565b9050919050565b7f4552433732313a2063616c6c6572206973206e6f7420746f6b656e206f776e6560008201527f72206f7220617070726f76656400000000000000000000000000000000000000602082015250565b6000612428602d83611c7e565b9150612433826123cc565b604082019050919050565b600060208201905081810360008301526124578161241b565b9050919050565b7f4552433732313a20696e76616c696420746f6b656e2049440000000000000000600082015250565b6000612494601883611c7e565b915061249f8261245e565b602082019050919050565b600060208201905081810360008301526124c381612487565b9050919050565b7f4552433732313a2061646472657373207a65726f206973206e6f74206120766160008201527f6c6964206f776e65720000000000000000000000000000000000000000000000602082015250565b6000612526602983611c7e565b9150612531826124ca565b604082019050919050565b6000602082019050818103600083015261255581612519565b9050919050565b7f4f776e61626c653a206e6577206f776e657220697320746865207a65726f206160008201527f6464726573730000000000000000000000000000000000000000000000000000602082015250565b60006125b8602683611c7e565b91506125c38261255c565b604082019050919050565b600060208201905081810360008301526125e7816125ab565b9050919050565b7f4552433732313a207472616e736665722066726f6d20696e636f72726563742060008201527f6f776e6572000000000000000000000000000000000000000000000000000000602082015250565b600061264a602583611c7e565b9150612655826125ee565b604082019050919050565b600060208201905081810360008301526126798161263d565b9050919050565b7f4552433732313a207472616e7366657220746f20746865207a65726f2061646460008201527f7265737300000000000000000000000000000000000000000000000000000000602082015250565b60006126dc602483611c7e565b91506126e782612680565b604082019050919050565b6000602082019050818103600083015261270b816126cf565b9050919050565b7f45524337323155524953746f726167653a2055524920736574206f66206e6f6e60008201527f6578697374656e7420746f6b656e000000000000000000000000000000000000602082015250565b600061276e602e83611c7e565b915061277982612712565b604082019050919050565b6000602082019050818103600083015261279d81612761565b9050919050565b60008190508160005260206000209050919050565b60006020601f8301049050919050565b600082821b905092915050565b6000600883026128067fffffffffffffffffffffffffffffffffffffffffffffffffffffffffffffffff826127c9565b61281086836127c9565b95508019841693508086168417925050509392505050565b6000819050919050565b600061284d61284861284384611d25565b612828565b611d25565b9050919050565b6000819050919050565b61286783612832565b61287b61287382612854565b8484546127d6565b825550505050565b600090565b612890612883565b61289b81848461285e565b505050565b5b818110156128bf576128b4600082612888565b6001810190506128a1565b5050565b601f821115612904576128d5816127a4565b6128de846127b9565b810160208510156128ed578190505b6129016128f9856127b9565b8301826128a0565b50505b505050565b600082821c905092915050565b600061292760001984600802612909565b1980831691505092915050565b60006129408383612916565b9150826002028217905092915050565b61295982611c73565b67ffffffffffffffff81111561297257612971611ead565b5b61297c8254612277565b6129878282856128c3565b600060209050601f8311600181146129ba57600084156129a8578287015190505b6129b28582612934565b865550612a1a565b601f1984166129c8866127a4565b60005b828110156129f0578489015182556001820191506020850194506020810190506129cb565b86831015612a0d5784890151612a09601f891682612916565b8355505b6001600288020188555050505b505050505050565b7f4f776e61626c653a2063616c6c6572206973206e6f7420746865206f776e6572600082015250565b6000612a58602083611c7e565b9150612a6382612a22565b602082019050919050565b60006020820190508181036000830152612a8781612a4b565b9050919050565b7f4552433732313a20617070726f766520746f2063616c6c657200000000000000600082015250565b6000612ac4601983611c7e565b9150612acf82612a8e565b602082019050919050565b60006020820190508181036000830152612af381612ab7565b9050919050565b7f4552433732313a207472616e7366657220746f206e6f6e20455243373231526560008201527f63656976657220696d706c656d656e7465720000000000000000000000000000602082015250565b6000612b56603283611c7e565b9150612b6182612afa565b604082019050919050565b60006020820190508181036000830152612b8581612b49565b9050919050565b600081905092915050565b6000612ba282611c73565b612bac8185612b8c565b9350612bbc818560208601611c8f565b80840191505092915050565b6000612bd48285612b97565b9150612be08284612b97565b91508190509392505050565b600081519050919050565b600082825260208201905092915050565b6000612c1382612bec565b612c1d8185612bf7565b9350612c2d818560208601611c8f565b612c3681611cb9565b840191505092915050565b6000608082019050612c566000830187611dba565b612c636020830186611dba565b612c70604083018561204e565b8181036060830152612c828184612c08565b905095945050505050565b600081519050612c9c81611be4565b92915050565b600060208284031215612cb857612cb7611bae565b5b6000612cc684828501612c8d565b91505092915050565b7f4552433732313a206d696e7420746f20746865207a65726f2061646472657373600082015250565b6000612d05602083611c7e565b9150612d1082612ccf565b602082019050919050565b60006020820190508181036000830152612d3481612cf8565b9050919050565b7f4552433732313a20746f6b656e20616c7265616479206d696e74656400000000600082015250565b6000612d71601c83611c7e565b9150612d7c82612d3b565b602082019050919050565b60006020820190508181036000830152612da081612d64565b9050919050565b7f4e487b7100000000000000000000000000000000000000000000000000000000600052601260045260246000fdfea2646970667358221220d07198dda2ed495e383cfe568380a9dd3da4c72338f01345b254583354bc9e1364736f6c63430008110033",
  "linkReferences": {},
  "deployedLinkReferences": {}
}