{
  "_format": "hh-sol-artifact-1",
  "contractName": "DynamicNFT",
  "sourceName": "contracts/DynamicNFT.sol",
  "abi": [
    {
      "inputs": [],
      "stateMutability": "nonpayable",
      "type": "constructor"
    },
    {
      "anonymous": false,
      "inputs": [
        {
          "indexed": true,
          "internalType": "address",
          "name": "account",
          "type": "address"
        },
        {
          "indexed": true,
          "internalType": "address",
          "name": "operator",
          "type": "address"
        },
        {
          "indexed": false,
          "internalType": "bool",
          "name": "approved",
          "type": "bool"
        }
      ],
      "name": "ApprovalForAll",
      "type": "event"
    },
    {
      "anonymous": false,
      "inputs": [
        {
          "indexed": false,
          "internalType": "address",
          "name": "sender",
          "type": "address"
        },
        {
          "indexed": false,
          "internalType": "uint256",
          "name": "amount",
          "type": "uint256"
        }
      ],
      "name": "MoneyReceived",
      "type": "event"
    },
    {
      "anonymous": false,
      "inputs": [
        {
          "indexed": true,
          "internalType": "address",
          "name": "previousOwner",
          "type": "address"
        },
        {
          "indexed": true,
          "internalType": "address",
          "name": "newOwner",
          "type": "address"
        }
      ],
      "name": "OwnershipTransferred",
      "type": "event"
    },
    {
      "anonymous": false,
      "inputs": [
        {
          "indexed": true,
          "internalType": "address",
          "name": "operator",
          "type": "address"
        },
        {
          "indexed": true,
          "internalType": "address",
          "name": "from",
          "type": "address"
        },
        {
          "indexed": true,
          "internalType": "address",
          "name": "to",
          "type": "address"
        },
        {
          "indexed": false,
          "internalType": "uint256[]",
          "name": "ids",
          "type": "uint256[]"
        },
        {
          "indexed": false,
          "internalType": "uint256[]",
          "name": "values",
          "type": "uint256[]"
        }
      ],
      "name": "TransferBatch",
      "type": "event"
    },
    {
      "anonymous": false,
      "inputs": [
        {
          "indexed": true,
          "internalType": "address",
          "name": "operator",
          "type": "address"
        },
        {
          "indexed": true,
          "internalType": "address",
          "name": "from",
          "type": "address"
        },
        {
          "indexed": true,
          "internalType": "address",
          "name": "to",
          "type": "address"
        },
        {
          "indexed": false,
          "internalType": "uint256",
          "name": "id",
          "type": "uint256"
        },
        {
          "indexed": false,
          "internalType": "uint256",
          "name": "value",
          "type": "uint256"
        }
      ],
      "name": "TransferSingle",
      "type": "event"
    },
    {
      "anonymous": false,
      "inputs": [
        {
          "indexed": false,
          "internalType": "string",
          "name": "value",
          "type": "string"
        },
        {
          "indexed": true,
          "internalType": "uint256",
          "name": "id",
          "type": "uint256"
        }
      ],
      "name": "URI",
      "type": "event"
    },
    {
      "inputs": [
        {
          "internalType": "address",
          "name": "account",
          "type": "address"
        },
        {
          "internalType": "uint256",
          "name": "id",
          "type": "uint256"
        }
      ],
      "name": "balanceOf",
      "outputs": [
        {
          "internalType": "uint256",
          "name": "",
          "type": "uint256"
        }
      ],
      "stateMutability": "view",
      "type": "function"
    },
    {
      "inputs": [
        {
          "internalType": "address[]",
          "name": "accounts",
          "type": "address[]"
        },
        {
          "internalType": "uint256[]",
          "name": "ids",
          "type": "uint256[]"
        }
      ],
      "name": "balanceOfBatch",
      "outputs": [
        {
          "internalType": "uint256[]",
          "name": "",
          "type": "uint256[]"
        }
      ],
      "stateMutability": "view",
      "type": "function"
    },
    {
      "inputs": [],
      "name": "depositFund",
      "outputs": [],
      "stateMutability": "payable",
      "type": "function"
    },
    {
      "inputs": [
        {
          "internalType": "address",
          "name": "",
          "type": "address"
        }
      ],
      "name": "deposited",
      "outputs": [
        {
          "internalType": "bool",
          "name": "",
          "type": "bool"
        }
      ],
      "stateMutability": "view",
      "type": "function"
    },
    {
      "inputs": [
        {
          "internalType": "address",
          "name": "",
          "type": "address"
        }
      ],
      "name": "funds",
      "outputs": [
        {
          "internalType": "uint256",
          "name": "",
          "type": "uint256"
        }
      ],
      "stateMutability": "view",
      "type": "function"
    },
    {
      "inputs": [],
      "name": "getUserSavings",
      "outputs": [
        {
          "internalType": "uint256",
          "name": "",
          "type": "uint256"
        }
      ],
      "stateMutability": "view",
      "type": "function"
    },
    {
      "inputs": [],
      "name": "hasDeposited",
      "outputs": [
        {
          "internalType": "bool",
          "name": "",
          "type": "bool"
        }
      ],
      "stateMutability": "view",
      "type": "function"
    },
    {
      "inputs": [
        {
          "internalType": "address",
          "name": "account",
          "type": "address"
        },
        {
          "internalType": "address",
          "name": "operator",
          "type": "address"
        }
      ],
      "name": "isApprovedForAll",
      "outputs": [
        {
          "internalType": "bool",
          "name": "",
          "type": "bool"
        }
      ],
      "stateMutability": "view",
      "type": "function"
    },
    {
      "inputs": [
        {
          "internalType": "address",
          "name": "account",
          "type": "address"
        },
        {
          "internalType": "uint256",
          "name": "uriId",
          "type": "uint256"
        }
      ],
      "name": "mint",
      "outputs": [],
      "stateMutability": "nonpayable",
      "type": "function"
    },
    {
      "inputs": [
        {
          "internalType": "address",
          "name": "to",
          "type": "address"
        },
        {
          "internalType": "uint256[]",
          "name": "ids",
          "type": "uint256[]"
        },
        {
          "internalType": "uint256[]",
          "name": "amounts",
          "type": "uint256[]"
        },
        {
          "internalType": "bytes",
          "name": "data",
          "type": "bytes"
        }
      ],
      "name": "mintBatch",
      "outputs": [],
      "stateMutability": "nonpayable",
      "type": "function"
    },
    {
      "inputs": [],
      "name": "owner",
      "outputs": [
        {
          "internalType": "address",
          "name": "",
          "type": "address"
        }
      ],
      "stateMutability": "view",
      "type": "function"
    },
    {
      "inputs": [],
      "name": "receiveMoney",
      "outputs": [],
      "stateMutability": "payable",
      "type": "function"
    },
    {
      "inputs": [],
      "name": "renounceOwnership",
      "outputs": [],
      "stateMutability": "nonpayable",
      "type": "function"
    },
    {
      "inputs": [
        {
          "internalType": "address",
          "name": "from",
          "type": "address"
        },
        {
          "internalType": "address",
          "name": "to",
          "type": "address"
        },
        {
          "internalType": "uint256[]",
          "name": "ids",
          "type": "uint256[]"
        },
        {
          "internalType": "uint256[]",
          "name": "amounts",
          "type": "uint256[]"
        },
        {
          "internalType": "bytes",
          "name": "data",
          "type": "bytes"
        }
      ],
      "name": "safeBatchTransferFrom",
      "outputs": [],
      "stateMutability": "nonpayable",
      "type": "function"
    },
    {
      "inputs": [
        {
          "internalType": "address",
          "name": "from",
          "type": "address"
        },
        {
          "internalType": "address",
          "name": "to",
          "type": "address"
        },
        {
          "internalType": "uint256",
          "name": "id",
          "type": "uint256"
        },
        {
          "internalType": "uint256",
          "name": "amount",
          "type": "uint256"
        },
        {
          "internalType": "bytes",
          "name": "data",
          "type": "bytes"
        }
      ],
      "name": "safeTransferFrom",
      "outputs": [],
      "stateMutability": "nonpayable",
      "type": "function"
    },
    {
      "inputs": [
        {
          "internalType": "address",
          "name": "operator",
          "type": "address"
        },
        {
          "internalType": "bool",
          "name": "approved",
          "type": "bool"
        }
      ],
      "name": "setApprovalForAll",
      "outputs": [],
      "stateMutability": "nonpayable",
      "type": "function"
    },
    {
      "inputs": [
        {
          "internalType": "uint256",
          "name": "tokenId",
          "type": "uint256"
        },
        {
          "internalType": "string",
          "name": "newURI",
          "type": "string"
        }
      ],
      "name": "setTokenURI",
      "outputs": [],
      "stateMutability": "nonpayable",
      "type": "function"
    },
    {
      "inputs": [
        {
          "internalType": "bytes4",
          "name": "interfaceId",
          "type": "bytes4"
        }
      ],
      "name": "supportsInterface",
      "outputs": [
        {
          "internalType": "bool",
          "name": "",
          "type": "bool"
        }
      ],
      "stateMutability": "view",
      "type": "function"
    },
    {
      "inputs": [
        {
          "internalType": "address",
          "name": "newOwner",
          "type": "address"
        }
      ],
      "name": "transferOwnership",
      "outputs": [],
      "stateMutability": "nonpayable",
      "type": "function"
    },
    {
      "inputs": [
        {
          "internalType": "uint256",
          "name": "_tokenid",
          "type": "uint256"
        }
      ],
      "name": "uri",
      "outputs": [
        {
          "internalType": "string",
          "name": "",
          "type": "string"
        }
      ],
      "stateMutability": "pure",
      "type": "function"
    }
  ],
  "bytecode": "0x60806040523480156200001157600080fd5b506040518060800160405280605a8152602001620041dd605a91396200003d816200006460201b60201c565b506200005e620000526200007960201b60201c565b6200008160201b60201c565b620004a8565b8060029081620000759190620003c1565b5050565b600033905090565b6000600360009054906101000a900473ffffffffffffffffffffffffffffffffffffffff16905081600360006101000a81548173ffffffffffffffffffffffffffffffffffffffff021916908373ffffffffffffffffffffffffffffffffffffffff1602179055508173ffffffffffffffffffffffffffffffffffffffff168173ffffffffffffffffffffffffffffffffffffffff167f8be0079c531659141344cd1fd0a4f28419497f9722a3daafe3b4186f6b6457e060405160405180910390a35050565b600081519050919050565b7f4e487b7100000000000000000000000000000000000000000000000000000000600052604160045260246000fd5b7f4e487b7100000000000000000000000000000000000000000000000000000000600052602260045260246000fd5b60006002820490506001821680620001c957607f821691505b602082108103620001df57620001de62000181565b5b50919050565b60008190508160005260206000209050919050565b60006020601f8301049050919050565b600082821b905092915050565b600060088302620002497fffffffffffffffffffffffffffffffffffffffffffffffffffffffffffffffff826200020a565b6200025586836200020a565b95508019841693508086168417925050509392505050565b6000819050919050565b6000819050919050565b6000620002a26200029c62000296846200026d565b62000277565b6200026d565b9050919050565b6000819050919050565b620002be8362000281565b620002d6620002cd82620002a9565b84845462000217565b825550505050565b600090565b620002ed620002de565b620002fa818484620002b3565b505050565b5b81811015620003225762000316600082620002e3565b60018101905062000300565b5050565b601f82111562000371576200033b81620001e5565b6200034684620001fa565b8101602085101562000356578190505b6200036e6200036585620001fa565b830182620002ff565b50505b505050565b600082821c905092915050565b6000620003966000198460080262000376565b1980831691505092915050565b6000620003b1838362000383565b9150826002028217905092915050565b620003cc8262000147565b67ffffffffffffffff811115620003e857620003e762000152565b5b620003f48254620001b0565b6200040182828562000326565b600060209050601f83116001811462000439576000841562000424578287015190505b620004308582620003a3565b865550620004a0565b601f1984166200044986620001e5565b60005b8281101562000473578489015182556001820191506020850194506020810190506200044c565b868310156200049357848901516200048f601f89168262000383565b8355505b6001600288020188555050505b505050505050565b613d2580620004b86000396000f3fe60806040526004361061011e5760003560e01c80636d26ec18116100a0578063cb13cddb11610064578063cb13cddb14610390578063e2ae93fb146103cd578063e985e9c51461040a578063f242432a14610447578063f2fde38b146104705761011e565b80636d26ec1814610311578063715018a61461031b5780638d0d8cb6146103325780638da5cb5b1461033c578063a22cb465146103675761011e565b80632eb2c2d6116100e75780632eb2c2d61461022c57806335d866011461025557806340c10f19146102805780634e1273f4146102a9578063690e2ea9146102e65761011e565b8062fdd58e1461012357806301ffc9a7146101605780630e89341c1461019d578063162094c4146101da5780631f7fdffa14610203575b600080fd5b34801561012f57600080fd5b5061014a60048036038101906101459190612294565b610499565b60405161015791906122e3565b60405180910390f35b34801561016c57600080fd5b5061018760048036038101906101829190612356565b610561565b604051610194919061239e565b60405180910390f35b3480156101a957600080fd5b506101c460048036038101906101bf91906123b9565b610643565b6040516101d19190612476565b60405180910390f35b3480156101e657600080fd5b5061020160048036038101906101fc91906125cd565b610674565b005b34801561020f57600080fd5b5061022a60048036038101906102259190612792565b6106a1565b005b34801561023857600080fd5b50610253600480360381019061024e919061284d565b6106bb565b005b34801561026157600080fd5b5061026a61075c565b604051610277919061239e565b60405180910390f35b34801561028c57600080fd5b506102a760048036038101906102a29190612294565b6107b0565b005b3480156102b557600080fd5b506102d060048036038101906102cb91906129df565b6107d8565b6040516102dd9190612b15565b60405180910390f35b3480156102f257600080fd5b506102fb6108f1565b60405161030891906122e3565b60405180910390f35b610319610938565b005b34801561032757600080fd5b50610330610973565b005b61033a610987565b005b34801561034857600080fd5b50610351610c86565b60405161035e9190612b46565b60405180910390f35b34801561037357600080fd5b5061038e60048036038101906103899190612b8d565b610cb0565b005b34801561039c57600080fd5b506103b760048036038101906103b29190612bcd565b610cc6565b6040516103c4919061239e565b60405180910390f35b3480156103d957600080fd5b506103f460048036038101906103ef9190612bcd565b610ce6565b60405161040191906122e3565b60405180910390f35b34801561041657600080fd5b50610431600480360381019061042c9190612bfa565b610cfe565b60405161043e919061239e565b60405180910390f35b34801561045357600080fd5b5061046e60048036038101906104699190612c3a565b610d92565b005b34801561047c57600080fd5b5061049760048036038101906104929190612bcd565b610e33565b005b60008073ffffffffffffffffffffffffffffffffffffffff168373ffffffffffffffffffffffffffffffffffffffff1603610509576040517f08c379a000000000000000000000000000000000000000000000000000000000815260040161050090612d43565b60405180910390fd5b60008083815260200190815260200160002060008473ffffffffffffffffffffffffffffffffffffffff1673ffffffffffffffffffffffffffffffffffffffff16815260200190815260200160002054905092915050565b60007fd9b67a26000000000000000000000000000000000000000000000000000000007bffffffffffffffffffffffffffffffffffffffffffffffffffffffff1916827bffffffffffffffffffffffffffffffffffffffffffffffffffffffff1916148061062c57507f0e89341c000000000000000000000000000000000000000000000000000000007bffffffffffffffffffffffffffffffffffffffffffffffffffffffff1916827bffffffffffffffffffffffffffffffffffffffffffffffffffffffff1916145b8061063c575061063b82610eb6565b5b9050919050565b606061064e82610f20565b60405160200161065e9190612e83565b6040516020818303038152906040529050919050565b61067c610fee565b8060066000848152602001908152602001600020908161069c91906130bc565b505050565b6106a9610fee565b6106b58484848461106c565b50505050565b6106c3611298565b73ffffffffffffffffffffffffffffffffffffffff168573ffffffffffffffffffffffffffffffffffffffff161480610709575061070885610703611298565b610cfe565b5b610748576040517f08c379a000000000000000000000000000000000000000000000000000000000815260040161073f90613200565b60405180910390fd5b61075585858585856112a0565b5050505050565b6000600560003373ffffffffffffffffffffffffffffffffffffffff1673ffffffffffffffffffffffffffffffffffffffff16815260200190815260200160002060009054906101000a900460ff16905090565b6107b8610fee565b6107d482826001604051806020016040528060008152506115c1565b5050565b6060815183511461081e576040517f08c379a000000000000000000000000000000000000000000000000000000000815260040161081590613292565b60405180910390fd5b6000835167ffffffffffffffff81111561083b5761083a6124a2565b5b6040519080825280602002602001820160405280156108695781602001602082028036833780820191505090505b50905060005b84518110156108e6576108b685828151811061088e5761088d6132b2565b5b60200260200101518583815181106108a9576108a86132b2565b5b6020026020010151610499565b8282815181106108c9576108c86132b2565b5b602002602001018181525050806108df90613310565b905061086f565b508091505092915050565b6000600460003373ffffffffffffffffffffffffffffffffffffffff1673ffffffffffffffffffffffffffffffffffffffff16815260200190815260200160002054905090565b7f27b15ed4cf832749ed39f33a64e4707ed60a761485e41ffec7343ecaddc0c02a3334604051610969929190613358565b60405180910390a1565b61097b610fee565b6109856000611771565b565b600034116109ca576040517f08c379a00000000000000000000000000000000000000000000000000000000081526004016109c1906133f3565b60405180910390fd5b600560003373ffffffffffffffffffffffffffffffffffffffff1673ffffffffffffffffffffffffffffffffffffffff16815260200190815260200160002060009054906101000a900460ff16610a9457610a3733600180604051806020016040528060008152506115c1565b6001600560003373ffffffffffffffffffffffffffffffffffffffff1673ffffffffffffffffffffffffffffffffffffffff16815260200190815260200160002060006101000a81548160ff021916908315150217905550610c2e565b6001600460003373ffffffffffffffffffffffffffffffffffffffff1673ffffffffffffffffffffffffffffffffffffffff168152602001908152602001600020541015610b0457610aff6001604051806080016040528060578152602001613c4260579139610674565b610c2d565b6002600460003373ffffffffffffffffffffffffffffffffffffffff1673ffffffffffffffffffffffffffffffffffffffff1681526020019081526020016000205410158015610b9357506003600460003373ffffffffffffffffffffffffffffffffffffffff1673ffffffffffffffffffffffffffffffffffffffff16815260200190815260200160002054105b15610bc057610bbb6002604051806080016040528060578152602001613beb60579139610674565b610c2c565b6003600460003373ffffffffffffffffffffffffffffffffffffffff1673ffffffffffffffffffffffffffffffffffffffff1681526020019081526020016000205410610c2b57610c2a6003604051806080016040528060578152602001613c9960579139610674565b5b5b5b5b34600460003373ffffffffffffffffffffffffffffffffffffffff1673ffffffffffffffffffffffffffffffffffffffff1681526020019081526020016000206000828254610c7d9190613413565b92505081905550565b6000600360009054906101000a900473ffffffffffffffffffffffffffffffffffffffff16905090565b610cc2610cbb611298565b8383611837565b5050565b60056020528060005260406000206000915054906101000a900460ff1681565b60046020528060005260406000206000915090505481565b6000600160008473ffffffffffffffffffffffffffffffffffffffff1673ffffffffffffffffffffffffffffffffffffffff16815260200190815260200160002060008373ffffffffffffffffffffffffffffffffffffffff1673ffffffffffffffffffffffffffffffffffffffff16815260200190815260200160002060009054906101000a900460ff16905092915050565b610d9a611298565b73ffffffffffffffffffffffffffffffffffffffff168573ffffffffffffffffffffffffffffffffffffffff161480610de05750610ddf85610dda611298565b610cfe565b5b610e1f576040517f08c379a0000000000000000000000000000000000000000000000000000000008152600401610e1690613200565b60405180910390fd5b610e2c85858585856119a3565b5050505050565b610e3b610fee565b600073ffffffffffffffffffffffffffffffffffffffff168173ffffffffffffffffffffffffffffffffffffffff1603610eaa576040517f08c379a0000000000000000000000000000000000000000000000000000000008152600401610ea1906134b9565b60405180910390fd5b610eb381611771565b50565b60007f01ffc9a7000000000000000000000000000000000000000000000000000000007bffffffffffffffffffffffffffffffffffffffffffffffffffffffff1916827bffffffffffffffffffffffffffffffffffffffffffffffffffffffff1916149050919050565b606060006001610f2f84611c3e565b01905060008167ffffffffffffffff811115610f4e57610f4d6124a2565b5b6040519080825280601f01601f191660200182016040528015610f805781602001600182028036833780820191505090505b509050600082602001820190505b600115610fe3578080600190039150507f3031323334353637383961626364656600000000000000000000000000000000600a86061a8153600a8581610fd757610fd66134d9565b5b04945060008503610f8e575b819350505050919050565b610ff6611298565b73ffffffffffffffffffffffffffffffffffffffff16611014610c86565b73ffffffffffffffffffffffffffffffffffffffff161461106a576040517f08c379a000000000000000000000000000000000000000000000000000000000815260040161106190613554565b60405180910390fd5b565b600073ffffffffffffffffffffffffffffffffffffffff168473ffffffffffffffffffffffffffffffffffffffff16036110db576040517f08c379a00000000000000000000000000000000000000000000000000000000081526004016110d2906135e6565b60405180910390fd5b815183511461111f576040517f08c379a000000000000000000000000000000000000000000000000000000000815260040161111690613678565b60405180910390fd5b6000611129611298565b905061113a81600087878787611d91565b60005b84518110156111f357838181518110611159576111586132b2565b5b6020026020010151600080878481518110611177576111766132b2565b5b6020026020010151815260200190815260200160002060008873ffffffffffffffffffffffffffffffffffffffff1673ffffffffffffffffffffffffffffffffffffffff16815260200190815260200160002060008282546111d99190613413565b9250508190555080806111eb90613310565b91505061113d565b508473ffffffffffffffffffffffffffffffffffffffff16600073ffffffffffffffffffffffffffffffffffffffff168273ffffffffffffffffffffffffffffffffffffffff167f4a39dc06d4c0dbc64b70af90fd698a233a518aa5d07e595d983b8c0526c8f7fb878760405161126b929190613698565b60405180910390a461128281600087878787611d99565b61129181600087878787611da1565b5050505050565b600033905090565b81518351146112e4576040517f08c379a00000000000000000000000000000000000000000000000000000000081526004016112db90613678565b60405180910390fd5b600073ffffffffffffffffffffffffffffffffffffffff168473ffffffffffffffffffffffffffffffffffffffff1603611353576040517f08c379a000000000000000000000000000000000000000000000000000000000815260040161134a90613741565b60405180910390fd5b600061135d611298565b905061136d818787878787611d91565b60005b845181101561151e57600085828151811061138e5761138d6132b2565b5b6020026020010151905060008583815181106113ad576113ac6132b2565b5b60200260200101519050600080600084815260200190815260200160002060008b73ffffffffffffffffffffffffffffffffffffffff1673ffffffffffffffffffffffffffffffffffffffff1681526020019081526020016000205490508181101561144e576040517f08c379a0000000000000000000000000000000000000000000000000000000008152600401611445906137d3565b60405180910390fd5b81810360008085815260200190815260200160002060008c73ffffffffffffffffffffffffffffffffffffffff1673ffffffffffffffffffffffffffffffffffffffff168152602001908152602001600020819055508160008085815260200190815260200160002060008b73ffffffffffffffffffffffffffffffffffffffff1673ffffffffffffffffffffffffffffffffffffffff16815260200190815260200160002060008282546115039190613413565b925050819055505050508061151790613310565b9050611370565b508473ffffffffffffffffffffffffffffffffffffffff168673ffffffffffffffffffffffffffffffffffffffff168273ffffffffffffffffffffffffffffffffffffffff167f4a39dc06d4c0dbc64b70af90fd698a233a518aa5d07e595d983b8c0526c8f7fb8787604051611595929190613698565b60405180910390a46115ab818787878787611d99565b6115b9818787878787611da1565b505050505050565b600073ffffffffffffffffffffffffffffffffffffffff168473ffffffffffffffffffffffffffffffffffffffff1603611630576040517f08c379a0000000000000000000000000000000000000000000000000000000008152600401611627906135e6565b60405180910390fd5b600061163a611298565b9050600061164785611f78565b9050600061165485611f78565b905061166583600089858589611d91565b8460008088815260200190815260200160002060008973ffffffffffffffffffffffffffffffffffffffff1673ffffffffffffffffffffffffffffffffffffffff16815260200190815260200160002060008282546116c49190613413565b925050819055508673ffffffffffffffffffffffffffffffffffffffff16600073ffffffffffffffffffffffffffffffffffffffff168473ffffffffffffffffffffffffffffffffffffffff167fc3d58168c5ae7397731d063d5bbf3d657854427343f4c083240f7aacaa2d0f6289896040516117429291906137f3565b60405180910390a461175983600089858589611d99565b61176883600089898989611ff2565b50505050505050565b6000600360009054906101000a900473ffffffffffffffffffffffffffffffffffffffff16905081600360006101000a81548173ffffffffffffffffffffffffffffffffffffffff021916908373ffffffffffffffffffffffffffffffffffffffff1602179055508173ffffffffffffffffffffffffffffffffffffffff168173ffffffffffffffffffffffffffffffffffffffff167f8be0079c531659141344cd1fd0a4f28419497f9722a3daafe3b4186f6b6457e060405160405180910390a35050565b8173ffffffffffffffffffffffffffffffffffffffff168373ffffffffffffffffffffffffffffffffffffffff16036118a5576040517f08c379a000000000000000000000000000000000000000000000000000000000815260040161189c9061388e565b60405180910390fd5b80600160008573ffffffffffffffffffffffffffffffffffffffff1673ffffffffffffffffffffffffffffffffffffffff16815260200190815260200160002060008473ffffffffffffffffffffffffffffffffffffffff1673ffffffffffffffffffffffffffffffffffffffff16815260200190815260200160002060006101000a81548160ff0219169083151502179055508173ffffffffffffffffffffffffffffffffffffffff168373ffffffffffffffffffffffffffffffffffffffff167f17307eab39ab6107e8899845ad3d59bd9653f200f220920489ca2b5937696c3183604051611996919061239e565b60405180910390a3505050565b600073ffffffffffffffffffffffffffffffffffffffff168473ffffffffffffffffffffffffffffffffffffffff1603611a12576040517f08c379a0000000000000000000000000000000000000000000000000000000008152600401611a0990613741565b60405180910390fd5b6000611a1c611298565b90506000611a2985611f78565b90506000611a3685611f78565b9050611a46838989858589611d91565b600080600088815260200190815260200160002060008a73ffffffffffffffffffffffffffffffffffffffff1673ffffffffffffffffffffffffffffffffffffffff16815260200190815260200160002054905085811015611add576040517f08c379a0000000000000000000000000000000000000000000000000000000008152600401611ad4906137d3565b60405180910390fd5b85810360008089815260200190815260200160002060008b73ffffffffffffffffffffffffffffffffffffffff1673ffffffffffffffffffffffffffffffffffffffff168152602001908152602001600020819055508560008089815260200190815260200160002060008a73ffffffffffffffffffffffffffffffffffffffff1673ffffffffffffffffffffffffffffffffffffffff1681526020019081526020016000206000828254611b929190613413565b925050819055508773ffffffffffffffffffffffffffffffffffffffff168973ffffffffffffffffffffffffffffffffffffffff168573ffffffffffffffffffffffffffffffffffffffff167fc3d58168c5ae7397731d063d5bbf3d657854427343f4c083240f7aacaa2d0f628a8a604051611c0f9291906137f3565b60405180910390a4611c25848a8a86868a611d99565b611c33848a8a8a8a8a611ff2565b505050505050505050565b600080600090507a184f03e93ff9f4daa797ed6e38ed64bf6a1f0100000000000000008310611c9c577a184f03e93ff9f4daa797ed6e38ed64bf6a1f0100000000000000008381611c9257611c916134d9565b5b0492506040810190505b6d04ee2d6d415b85acef81000000008310611cd9576d04ee2d6d415b85acef81000000008381611ccf57611cce6134d9565b5b0492506020810190505b662386f26fc100008310611d0857662386f26fc100008381611cfe57611cfd6134d9565b5b0492506010810190505b6305f5e1008310611d31576305f5e1008381611d2757611d266134d9565b5b0492506008810190505b6127108310611d56576127108381611d4c57611d4b6134d9565b5b0492506004810190505b60648310611d795760648381611d6f57611d6e6134d9565b5b0492506002810190505b600a8310611d88576001810190505b80915050919050565b505050505050565b505050505050565b611dc08473ffffffffffffffffffffffffffffffffffffffff166121c9565b15611f70578373ffffffffffffffffffffffffffffffffffffffff1663bc197c8187878686866040518663ffffffff1660e01b8152600401611e06959493929190613903565b6020604051808303816000875af1925050508015611e4257506040513d601f19601f82011682018060405250810190611e3f9190613980565b60015b611ee757611e4e6139ba565b806308c379a003611eaa5750611e626139dc565b80611e6d5750611eac565b806040517f08c379a0000000000000000000000000000000000000000000000000000000008152600401611ea19190612476565b60405180910390fd5b505b6040517f08c379a0000000000000000000000000000000000000000000000000000000008152600401611ede90613ade565b60405180910390fd5b63bc197c8160e01b7bffffffffffffffffffffffffffffffffffffffffffffffffffffffff1916817bffffffffffffffffffffffffffffffffffffffffffffffffffffffff191614611f6e576040517f08c379a0000000000000000000000000000000000000000000000000000000008152600401611f6590613b70565b60405180910390fd5b505b505050505050565b60606000600167ffffffffffffffff811115611f9757611f966124a2565b5b604051908082528060200260200182016040528015611fc55781602001602082028036833780820191505090505b5090508281600081518110611fdd57611fdc6132b2565b5b60200260200101818152505080915050919050565b6120118473ffffffffffffffffffffffffffffffffffffffff166121c9565b156121c1578373ffffffffffffffffffffffffffffffffffffffff1663f23a6e6187878686866040518663ffffffff1660e01b8152600401612057959493929190613b90565b6020604051808303816000875af192505050801561209357506040513d601f19601f820116820180604052508101906120909190613980565b60015b6121385761209f6139ba565b806308c379a0036120fb57506120b36139dc565b806120be57506120fd565b806040517f08c379a00000000000000000000000000000000000000000000000000000000081526004016120f29190612476565b60405180910390fd5b505b6040517f08c379a000000000000000000000000000000000000000000000000000000000815260040161212f90613ade565b60405180910390fd5b63f23a6e6160e01b7bffffffffffffffffffffffffffffffffffffffffffffffffffffffff1916817bffffffffffffffffffffffffffffffffffffffffffffffffffffffff1916146121bf576040517f08c379a00000000000000000000000000000000000000000000000000000000081526004016121b690613b70565b60405180910390fd5b505b505050505050565b6000808273ffffffffffffffffffffffffffffffffffffffff163b119050919050565b6000604051905090565b600080fd5b600080fd5b600073ffffffffffffffffffffffffffffffffffffffff82169050919050565b600061222b82612200565b9050919050565b61223b81612220565b811461224657600080fd5b50565b60008135905061225881612232565b92915050565b6000819050919050565b6122718161225e565b811461227c57600080fd5b50565b60008135905061228e81612268565b92915050565b600080604083850312156122ab576122aa6121f6565b5b60006122b985828601612249565b92505060206122ca8582860161227f565b9150509250929050565b6122dd8161225e565b82525050565b60006020820190506122f860008301846122d4565b92915050565b60007fffffffff0000000000000000000000000000000000000000000000000000000082169050919050565b612333816122fe565b811461233e57600080fd5b50565b6000813590506123508161232a565b92915050565b60006020828403121561236c5761236b6121f6565b5b600061237a84828501612341565b91505092915050565b60008115159050919050565b61239881612383565b82525050565b60006020820190506123b3600083018461238f565b92915050565b6000602082840312156123cf576123ce6121f6565b5b60006123dd8482850161227f565b91505092915050565b600081519050919050565b600082825260208201905092915050565b60005b83811015612420578082015181840152602081019050612405565b60008484015250505050565b6000601f19601f8301169050919050565b6000612448826123e6565b61245281856123f1565b9350612462818560208601612402565b61246b8161242c565b840191505092915050565b60006020820190508181036000830152612490818461243d565b905092915050565b600080fd5b600080fd5b7f4e487b7100000000000000000000000000000000000000000000000000000000600052604160045260246000fd5b6124da8261242c565b810181811067ffffffffffffffff821117156124f9576124f86124a2565b5b80604052505050565b600061250c6121ec565b905061251882826124d1565b919050565b600067ffffffffffffffff821115612538576125376124a2565b5b6125418261242c565b9050602081019050919050565b82818337600083830152505050565b600061257061256b8461251d565b612502565b90508281526020810184848401111561258c5761258b61249d565b5b61259784828561254e565b509392505050565b600082601f8301126125b4576125b3612498565b5b81356125c484826020860161255d565b91505092915050565b600080604083850312156125e4576125e36121f6565b5b60006125f28582860161227f565b925050602083013567ffffffffffffffff811115612613576126126121fb565b5b61261f8582860161259f565b9150509250929050565b600067ffffffffffffffff821115612644576126436124a2565b5b602082029050602081019050919050565b600080fd5b600061266d61266884612629565b612502565b905080838252602082019050602084028301858111156126905761268f612655565b5b835b818110156126b957806126a5888261227f565b845260208401935050602081019050612692565b5050509392505050565b600082601f8301126126d8576126d7612498565b5b81356126e884826020860161265a565b91505092915050565b600067ffffffffffffffff82111561270c5761270b6124a2565b5b6127158261242c565b9050602081019050919050565b6000612735612730846126f1565b612502565b9050828152602081018484840111156127515761275061249d565b5b61275c84828561254e565b509392505050565b600082601f83011261277957612778612498565b5b8135612789848260208601612722565b91505092915050565b600080600080608085870312156127ac576127ab6121f6565b5b60006127ba87828801612249565b945050602085013567ffffffffffffffff8111156127db576127da6121fb565b5b6127e7878288016126c3565b935050604085013567ffffffffffffffff811115612808576128076121fb565b5b612814878288016126c3565b925050606085013567ffffffffffffffff811115612835576128346121fb565b5b61284187828801612764565b91505092959194509250565b600080600080600060a08688031215612869576128686121f6565b5b600061287788828901612249565b955050602061288888828901612249565b945050604086013567ffffffffffffffff8111156128a9576128a86121fb565b5b6128b5888289016126c3565b935050606086013567ffffffffffffffff8111156128d6576128d56121fb565b5b6128e2888289016126c3565b925050608086013567ffffffffffffffff811115612903576129026121fb565b5b61290f88828901612764565b9150509295509295909350565b600067ffffffffffffffff821115612937576129366124a2565b5b602082029050602081019050919050565b600061295b6129568461291c565b612502565b9050808382526020820190506020840283018581111561297e5761297d612655565b5b835b818110156129a757806129938882612249565b845260208401935050602081019050612980565b5050509392505050565b600082601f8301126129c6576129c5612498565b5b81356129d6848260208601612948565b91505092915050565b600080604083850312156129f6576129f56121f6565b5b600083013567ffffffffffffffff811115612a1457612a136121fb565b5b612a20858286016129b1565b925050602083013567ffffffffffffffff811115612a4157612a406121fb565b5b612a4d858286016126c3565b9150509250929050565b600081519050919050565b600082825260208201905092915050565b6000819050602082019050919050565b612a8c8161225e565b82525050565b6000612a9e8383612a83565b60208301905092915050565b6000602082019050919050565b6000612ac282612a57565b612acc8185612a62565b9350612ad783612a73565b8060005b83811015612b08578151612aef8882612a92565b9750612afa83612aaa565b925050600181019050612adb565b5085935050505092915050565b60006020820190508181036000830152612b2f8184612ab7565b905092915050565b612b4081612220565b82525050565b6000602082019050612b5b6000830184612b37565b92915050565b612b6a81612383565b8114612b7557600080fd5b50565b600081359050612b8781612b61565b92915050565b60008060408385031215612ba457612ba36121f6565b5b6000612bb285828601612249565b9250506020612bc385828601612b78565b9150509250929050565b600060208284031215612be357612be26121f6565b5b6000612bf184828501612249565b91505092915050565b60008060408385031215612c1157612c106121f6565b5b6000612c1f85828601612249565b9250506020612c3085828601612249565b9150509250929050565b600080600080600060a08688031215612c5657612c556121f6565b5b6000612c6488828901612249565b9550506020612c7588828901612249565b9450506040612c868882890161227f565b9350506060612c978882890161227f565b925050608086013567ffffffffffffffff811115612cb857612cb76121fb565b5b612cc488828901612764565b9150509295509295909350565b7f455243313135353a2061646472657373207a65726f206973206e6f742061207660008201527f616c6964206f776e657200000000000000000000000000000000000000000000602082015250565b6000612d2d602a836123f1565b9150612d3882612cd1565b604082019050919050565b60006020820190508181036000830152612d5c81612d20565b9050919050565b600081905092915050565b7f68747470733a2f2f697066732e696f2f697066732f626166796265696137613760008201527f616b6778666679796e36676b3372706573757a373364747a67676e376774627760208201527f6665696737376b37746f326e73686a342f000000000000000000000000000000604082015250565b6000612df0605183612d63565b9150612dfb82612d6e565b605182019050919050565b6000612e11826123e6565b612e1b8185612d63565b9350612e2b818560208601612402565b80840191505092915050565b7f2e6a736f6e000000000000000000000000000000000000000000000000000000600082015250565b6000612e6d600583612d63565b9150612e7882612e37565b600582019050919050565b6000612e8e82612de3565b9150612e9a8284612e06565b9150612ea582612e60565b915081905092915050565b7f4e487b7100000000000000000000000000000000000000000000000000000000600052602260045260246000fd5b60006002820490506001821680612ef757607f821691505b602082108103612f0a57612f09612eb0565b5b50919050565b60008190508160005260206000209050919050565b60006020601f8301049050919050565b600082821b905092915050565b600060088302612f727fffffffffffffffffffffffffffffffffffffffffffffffffffffffffffffffff82612f35565b612f7c8683612f35565b95508019841693508086168417925050509392505050565b6000819050919050565b6000612fb9612fb4612faf8461225e565b612f94565b61225e565b9050919050565b6000819050919050565b612fd383612f9e565b612fe7612fdf82612fc0565b848454612f42565b825550505050565b600090565b612ffc612fef565b613007818484612fca565b505050565b5b8181101561302b57613020600082612ff4565b60018101905061300d565b5050565b601f8211156130705761304181612f10565b61304a84612f25565b81016020851015613059578190505b61306d61306585612f25565b83018261300c565b50505b505050565b600082821c905092915050565b600061309360001984600802613075565b1980831691505092915050565b60006130ac8383613082565b9150826002028217905092915050565b6130c5826123e6565b67ffffffffffffffff8111156130de576130dd6124a2565b5b6130e88254612edf565b6130f382828561302f565b600060209050601f8311600181146131265760008415613114578287015190505b61311e85826130a0565b865550613186565b601f19841661313486612f10565b60005b8281101561315c57848901518255600182019150602085019450602081019050613137565b868310156131795784890151613175601f891682613082565b8355505b6001600288020188555050505b505050505050565b7f455243313135353a2063616c6c6572206973206e6f7420746f6b656e206f776e60008201527f6572206f7220617070726f766564000000000000000000000000000000000000602082015250565b60006131ea602e836123f1565b91506131f58261318e565b604082019050919050565b60006020820190508181036000830152613219816131dd565b9050919050565b7f455243313135353a206163636f756e747320616e6420696473206c656e67746860008201527f206d69736d617463680000000000000000000000000000000000000000000000602082015250565b600061327c6029836123f1565b915061328782613220565b604082019050919050565b600060208201905081810360008301526132ab8161326f565b9050919050565b7f4e487b7100000000000000000000000000000000000000000000000000000000600052603260045260246000fd5b7f4e487b7100000000000000000000000000000000000000000000000000000000600052601160045260246000fd5b600061331b8261225e565b91507fffffffffffffffffffffffffffffffffffffffffffffffffffffffffffffffff820361334d5761334c6132e1565b5b600182019050919050565b600060408201905061336d6000830185612b37565b61337a60208301846122d4565b9392505050565b7f416d6f756e742073686f756c642062652067726561746572207468616e207a6560008201527f726f000000000000000000000000000000000000000000000000000000000000602082015250565b60006133dd6022836123f1565b91506133e882613381565b604082019050919050565b6000602082019050818103600083015261340c816133d0565b9050919050565b600061341e8261225e565b91506134298361225e565b9250828201905080821115613441576134406132e1565b5b92915050565b7f4f776e61626c653a206e6577206f776e657220697320746865207a65726f206160008201527f6464726573730000000000000000000000000000000000000000000000000000602082015250565b60006134a36026836123f1565b91506134ae82613447565b604082019050919050565b600060208201905081810360008301526134d281613496565b9050919050565b7f4e487b7100000000000000000000000000000000000000000000000000000000600052601260045260246000fd5b7f4f776e61626c653a2063616c6c6572206973206e6f7420746865206f776e6572600082015250565b600061353e6020836123f1565b915061354982613508565b602082019050919050565b6000602082019050818103600083015261356d81613531565b9050919050565b7f455243313135353a206d696e7420746f20746865207a65726f2061646472657360008201527f7300000000000000000000000000000000000000000000000000000000000000602082015250565b60006135d06021836123f1565b91506135db82613574565b604082019050919050565b600060208201905081810360008301526135ff816135c3565b9050919050565b7f455243313135353a2069647320616e6420616d6f756e7473206c656e6774682060008201527f6d69736d61746368000000000000000000000000000000000000000000000000602082015250565b60006136626028836123f1565b915061366d82613606565b604082019050919050565b6000602082019050818103600083015261369181613655565b9050919050565b600060408201905081810360008301526136b28185612ab7565b905081810360208301526136c68184612ab7565b90509392505050565b7f455243313135353a207472616e7366657220746f20746865207a65726f20616460008201527f6472657373000000000000000000000000000000000000000000000000000000602082015250565b600061372b6025836123f1565b9150613736826136cf565b604082019050919050565b6000602082019050818103600083015261375a8161371e565b9050919050565b7f455243313135353a20696e73756666696369656e742062616c616e636520666f60008201527f72207472616e7366657200000000000000000000000000000000000000000000602082015250565b60006137bd602a836123f1565b91506137c882613761565b604082019050919050565b600060208201905081810360008301526137ec816137b0565b9050919050565b600060408201905061380860008301856122d4565b61381560208301846122d4565b9392505050565b7f455243313135353a2073657474696e6720617070726f76616c2073746174757360008201527f20666f722073656c660000000000000000000000000000000000000000000000602082015250565b60006138786029836123f1565b91506138838261381c565b604082019050919050565b600060208201905081810360008301526138a78161386b565b9050919050565b600081519050919050565b600082825260208201905092915050565b60006138d5826138ae565b6138df81856138b9565b93506138ef818560208601612402565b6138f88161242c565b840191505092915050565b600060a0820190506139186000830188612b37565b6139256020830187612b37565b81810360408301526139378186612ab7565b9050818103606083015261394b8185612ab7565b9050818103608083015261395f81846138ca565b90509695505050505050565b60008151905061397a8161232a565b92915050565b600060208284031215613996576139956121f6565b5b60006139a48482850161396b565b91505092915050565b60008160e01c9050919050565b600060033d11156139d95760046000803e6139d66000516139ad565b90505b90565b600060443d10613a69576139ee6121ec565b60043d036004823e80513d602482011167ffffffffffffffff82111715613a16575050613a69565b808201805167ffffffffffffffff811115613a345750505050613a69565b80602083010160043d038501811115613a51575050505050613a69565b613a60826020018501866124d1565b82955050505050505b90565b7f455243313135353a207472616e7366657220746f206e6f6e2d4552433131353560008201527f526563656976657220696d706c656d656e746572000000000000000000000000602082015250565b6000613ac86034836123f1565b9150613ad382613a6c565b604082019050919050565b60006020820190508181036000830152613af781613abb565b9050919050565b7f455243313135353a204552433131353552656365697665722072656a6563746560008201527f6420746f6b656e73000000000000000000000000000000000000000000000000602082015250565b6000613b5a6028836123f1565b9150613b6582613afe565b604082019050919050565b60006020820190508181036000830152613b8981613b4d565b9050919050565b600060a082019050613ba56000830188612b37565b613bb26020830187612b37565b613bbf60408301866122d4565b613bcc60608301856122d4565b8181036080830152613bde81846138ca565b9050969550505050505056fe68747470733a2f2f697066732e696f2f697066732f6261667962656961376137616b6778666679796e36676b3372706573757a373364747a67676e37677462776665696737376b37746f326e73686a342f322e6a736f6e68747470733a2f2f697066732e696f2f697066732f6261667962656961376137616b6778666679796e36676b3372706573757a373364747a67676e37677462776665696737376b37746f326e73686a342f312e6a736f6e68747470733a2f2f697066732e696f2f697066732f6261667962656961376137616b6778666679796e36676b3372706573757a373364747a67676e37677462776665696737376b37746f326e73686a342f332e6a736f6ea264697066735822122019c69fc9fcd1ce8ac451b8e69b440a5d37a3f9cdce877ddd6e3d7bc96582c77364736f6c6343000811003368747470733a2f2f697066732e696f2f697066732f6261667962656961376137616b6778666679796e36676b3372706573757a373364747a67676e37677462776665696737376b37746f326e73686a342f7b69647d2e6a736f6e",
  "linkReferences": {},
  "deployedLinkReferences": {}
}