{
  "_format": "hh-sol-artifact-1",
  "contractName": "Auction",
  "sourceName": "contracts/Auction.sol",
  "abi": [
    {
      "inputs": [],
      "stateMutability": "nonpayable",
      "type": "constructor"
    },
    {
      "anonymous": false,
      "inputs": [
        {
          "indexed": false,
          "internalType": "address",
          "name": "winner",
          "type": "address"
        },
        {
          "indexed": false,
          "internalType": "uint256",
          "name": "amount",
          "type": "uint256"
        }
      ],
      "name": "AuctionEnded",
      "type": "event"
    },
    {
      "anonymous": false,
      "inputs": [
        {
          "indexed": false,
          "internalType": "address",
          "name": "bidder",
          "type": "address"
        },
        {
          "indexed": false,
          "internalType": "uint256",
          "name": "amount",
          "type": "uint256"
        }
      ],
      "name": "HighestBidIncreased",
      "type": "event"
    },
    {
      "inputs": [],
      "name": "auctionEndTime",
      "outputs": [
        {
          "internalType": "uint256",
          "name": "",
          "type": "uint256"
        }
      ],
      "stateMutability": "view",
      "type": "function"
    },
    {
      "inputs": [],
      "name": "bid",
      "outputs": [],
      "stateMutability": "payable",
      "type": "function"
    },
    {
      "inputs": [
        {
          "internalType": "address",
          "name": "",
          "type": "address"
        }
      ],
      "name": "bids",
      "outputs": [
        {
          "internalType": "uint256",
          "name": "",
          "type": "uint256"
        }
      ],
      "stateMutability": "view",
      "type": "function"
    },
    {
      "inputs": [],
      "name": "endAuction",
      "outputs": [],
      "stateMutability": "payable",
      "type": "function"
    },
    {
      "inputs": [
        {
          "internalType": "uint256",
          "name": "",
          "type": "uint256"
        }
      ],
      "name": "getBidderAmount",
      "outputs": [
        {
          "internalType": "uint256",
          "name": "",
          "type": "uint256"
        }
      ],
      "stateMutability": "view",
      "type": "function"
    },
    {
      "inputs": [],
      "name": "getEndTime",
      "outputs": [
        {
          "internalType": "uint256",
          "name": "",
          "type": "uint256"
        }
      ],
      "stateMutability": "view",
      "type": "function"
    },
    {
      "inputs": [],
      "name": "getHighestBidderAddress",
      "outputs": [
        {
          "internalType": "address",
          "name": "_highestBidder",
          "type": "address"
        }
      ],
      "stateMutability": "view",
      "type": "function"
    },
    {
      "inputs": [],
      "name": "getOwnerBalance",
      "outputs": [
        {
          "internalType": "uint256",
          "name": "_balance",
          "type": "uint256"
        }
      ],
      "stateMutability": "view",
      "type": "function"
    },
    {
      "inputs": [],
      "name": "highestBid",
      "outputs": [
        {
          "internalType": "uint256",
          "name": "",
          "type": "uint256"
        }
      ],
      "stateMutability": "view",
      "type": "function"
    },
    {
      "inputs": [],
      "name": "highestBidder",
      "outputs": [
        {
          "internalType": "address",
          "name": "",
          "type": "address"
        }
      ],
      "stateMutability": "view",
      "type": "function"
    },
    {
      "inputs": [],
      "name": "owner",
      "outputs": [
        {
          "internalType": "address payable",
          "name": "",
          "type": "address"
        }
      ],
      "stateMutability": "view",
      "type": "function"
    },
    {
      "inputs": [],
      "name": "refund",
      "outputs": [],
      "stateMutability": "nonpayable",
      "type": "function"
    },
    {
      "inputs": [
        {
          "internalType": "uint256",
          "name": "newEndtime",
          "type": "uint256"
        }
      ],
      "name": "updateEndtime",
      "outputs": [],
      "stateMutability": "nonpayable",
      "type": "function"
    }
  ],
  "bytecode": "0x608060405234801561001057600080fd5b50336000806101000a81548173ffffffffffffffffffffffffffffffffffffffff021916908373ffffffffffffffffffffffffffffffffffffffff16021790555060784261005e91906100a2565b6001819055506100d6565b6000819050919050565b7f4e487b7100000000000000000000000000000000000000000000000000000000600052601160045260246000fd5b60006100ad82610069565b91506100b883610069565b92508282019050808211156100d0576100cf610073565b5b92915050565b610cf1806100e56000396000f3fe6080604052600436106100c25760003560e01c8063590e1ae31161007f5780638da5cb5b116100595780638da5cb5b1461023757806391f9015714610262578063d57bde791461028d578063fe67a54b146102b8576100c2565b8063590e1ae3146101a657806362ea82db146101bd5780638145e0b6146101fa576100c2565b8063116dc521146100c75780631998aeef146100f2578063439f5ac2146100fc5780634b449cba146101275780634ff97d9c14610152578063590791f21461017b575b600080fd5b3480156100d357600080fd5b506100dc6102c2565b6040516100e991906108e6565b60405180910390f35b6100fa6102ec565b005b34801561010857600080fd5b5061011161047d565b60405161011e919061091a565b60405180910390f35b34801561013357600080fd5b5061013c610487565b604051610149919061091a565b60405180910390f35b34801561015e57600080fd5b5061017960048036038101906101749190610966565b61048d565b005b34801561018757600080fd5b506101906104a2565b60405161019d919061091a565b60405180910390f35b3480156101b257600080fd5b506101bb6104e2565b005b3480156101c957600080fd5b506101e460048036038101906101df91906109bf565b610615565b6040516101f1919061091a565b60405180910390f35b34801561020657600080fd5b50610221600480360381019061021c9190610966565b61062d565b60405161022e919061091a565b60405180910390f35b34801561024357600080fd5b5061024c610676565b6040516102599190610a0d565b60405180910390f35b34801561026e57600080fd5b5061027761069a565b60405161028491906108e6565b60405180910390f35b34801561029957600080fd5b506102a26106c0565b6040516102af919061091a565b60405180910390f35b6102c06106c6565b005b6000600260009054906101000a900473ffffffffffffffffffffffffffffffffffffffff16905090565b600154421115610331576040517f08c379a000000000000000000000000000000000000000000000000000000000815260040161032890610a85565b60405180910390fd5b6003543411610375576040517f08c379a000000000000000000000000000000000000000000000000000000000815260040161036c90610af1565b60405180910390fd5b6000600354146103fa5760035460046000600260009054906101000a900473ffffffffffffffffffffffffffffffffffffffff1673ffffffffffffffffffffffffffffffffffffffff1673ffffffffffffffffffffffffffffffffffffffff16815260200190815260200160002060008282546103f29190610b40565b925050819055505b33600260006101000a81548173ffffffffffffffffffffffffffffffffffffffff021916908373ffffffffffffffffffffffffffffffffffffffff160217905550346003819055507ff4757a49b326036464bec6fe419a4ae38c8a02ce3e68bf0809674f6aab8ad3003334604051610473929190610b74565b60405180910390a1565b6000600154905090565b60015481565b80426104999190610b40565b60018190555050565b60008060009054906101000a900473ffffffffffffffffffffffffffffffffffffffff1673ffffffffffffffffffffffffffffffffffffffff1631905090565b600154421015610527576040517f08c379a000000000000000000000000000000000000000000000000000000000815260040161051e90610be9565b60405180910390fd5b60003373ffffffffffffffffffffffffffffffffffffffff16600460003373ffffffffffffffffffffffffffffffffffffffff1673ffffffffffffffffffffffffffffffffffffffff1681526020019081526020016000205460405161058c90610c3a565b60006040518083038185875af1925050503d80600081146105c9576040519150601f19603f3d011682016040523d82523d6000602084013e6105ce565b606091505b5050905080610612576040517f08c379a000000000000000000000000000000000000000000000000000000000815260040161060990610c9b565b60405180910390fd5b50565b60046020528060005260406000206000915090505481565b6000600460003373ffffffffffffffffffffffffffffffffffffffff1673ffffffffffffffffffffffffffffffffffffffff168152602001908152602001600020549050919050565b60008054906101000a900473ffffffffffffffffffffffffffffffffffffffff1681565b600260009054906101000a900473ffffffffffffffffffffffffffffffffffffffff1681565b60035481565b60015442101561070b576040517f08c379a000000000000000000000000000000000000000000000000000000000815260040161070290610be9565b60405180910390fd5b600560009054906101000a900460ff161561075b576040517f08c379a000000000000000000000000000000000000000000000000000000000815260040161075290610a85565b60405180910390fd5b6001600560006101000a81548160ff0219169083151502179055507fdaec4582d5d9595688c8c98545fdd1c696d41c6aeaeb636737e84ed2f5c00eda600260009054906101000a900473ffffffffffffffffffffffffffffffffffffffff166003546040516107cb929190610b74565b60405180910390a160008060009054906101000a900473ffffffffffffffffffffffffffffffffffffffff1673ffffffffffffffffffffffffffffffffffffffff1660035460405161081c90610c3a565b60006040518083038185875af1925050503d8060008114610859576040519150601f19603f3d011682016040523d82523d6000602084013e61085e565b606091505b50509050806108a2576040517f08c379a000000000000000000000000000000000000000000000000000000000815260040161089990610c9b565b60405180910390fd5b50565b600073ffffffffffffffffffffffffffffffffffffffff82169050919050565b60006108d0826108a5565b9050919050565b6108e0816108c5565b82525050565b60006020820190506108fb60008301846108d7565b92915050565b6000819050919050565b61091481610901565b82525050565b600060208201905061092f600083018461090b565b92915050565b600080fd5b61094381610901565b811461094e57600080fd5b50565b6000813590506109608161093a565b92915050565b60006020828403121561097c5761097b610935565b5b600061098a84828501610951565b91505092915050565b61099c816108c5565b81146109a757600080fd5b50565b6000813590506109b981610993565b92915050565b6000602082840312156109d5576109d4610935565b5b60006109e3848285016109aa565b91505092915050565b60006109f7826108a5565b9050919050565b610a07816109ec565b82525050565b6000602082019050610a2260008301846109fe565b92915050565b600082825260208201905092915050565b7f41756374696f6e20616c726561647920656e6465642e00000000000000000000600082015250565b6000610a6f601683610a28565b9150610a7a82610a39565b602082019050919050565b60006020820190508181036000830152610a9e81610a62565b9050919050565b7f546865726520616c7265616479206973206120686967686572206269642e0000600082015250565b6000610adb601e83610a28565b9150610ae682610aa5565b602082019050919050565b60006020820190508181036000830152610b0a81610ace565b9050919050565b7f4e487b7100000000000000000000000000000000000000000000000000000000600052601160045260246000fd5b6000610b4b82610901565b9150610b5683610901565b9250828201905080821115610b6e57610b6d610b11565b5b92915050565b6000604082019050610b8960008301856108d7565b610b96602083018461090b565b9392505050565b7f41756374696f6e206e6f742079657420656e6465642e00000000000000000000600082015250565b6000610bd3601683610a28565b9150610bde82610b9d565b602082019050919050565b60006020820190508181036000830152610c0281610bc6565b9050919050565b600081905092915050565b50565b6000610c24600083610c09565b9150610c2f82610c14565b600082019050919050565b6000610c4582610c17565b9150819050919050565b7f4661696c656420746f2073656e64204574686572000000000000000000000000600082015250565b6000610c85601483610a28565b9150610c9082610c4f565b602082019050919050565b60006020820190508181036000830152610cb481610c78565b905091905056fea264697066735822122087d8403dd37ee67a06c129d35a7cedeafb3265f891390c8bef36b3a0785b4f6f64736f6c63430008110033",
  "linkReferences": {},
  "deployedLinkReferences": {}
}