{
  "_format": "hh-sol-artifact-1",
  "contractName": "CeloBet",
  "sourceName": "contracts/CeloBet.sol",
  "abi": [
    {
      "inputs": [
        {
          "internalType": "uint256",
          "name": "_blockNumber",
          "type": "uint256"
        }
      ],
      "stateMutability": "nonpayable",
      "type": "constructor"
    },
    {
      "inputs": [],
      "name": "CalldataMustHaveValidPayload",
      "type": "error"
    },
    {
      "inputs": [],
      "name": "CalldataOverOrUnderFlow",
      "type": "error"
    },
    {
      "inputs": [],
      "name": "CanNotPickMedianOfEmptyArray",
      "type": "error"
    },
    {
      "inputs": [],
      "name": "EachSignerMustProvideTheSameValue",
      "type": "error"
    },
    {
      "inputs": [],
      "name": "EmptyCalldataPointersArr",
      "type": "error"
    },
    {
      "inputs": [],
      "name": "IncorrectUnsignedMetadataSize",
      "type": "error"
    },
    {
      "inputs": [
        {
          "internalType": "uint256",
          "name": "receivedSignersCount",
          "type": "uint256"
        },
        {
          "internalType": "uint256",
          "name": "requiredSignersCount",
          "type": "uint256"
        }
      ],
      "name": "InsufficientNumberOfUniqueSigners",
      "type": "error"
    },
    {
      "inputs": [],
      "name": "InvalidCalldataPointer",
      "type": "error"
    },
    {
      "inputs": [
        {
          "internalType": "address",
          "name": "receivedSigner",
          "type": "address"
        }
      ],
      "name": "SignerNotAuthorised",
      "type": "error"
    },
    {
      "inputs": [
        {
          "internalType": "uint256",
          "name": "receivedTimestampSeconds",
          "type": "uint256"
        },
        {
          "internalType": "uint256",
          "name": "blockTimestamp",
          "type": "uint256"
        }
      ],
      "name": "TimestampFromTooLongFuture",
      "type": "error"
    },
    {
      "inputs": [
        {
          "internalType": "uint256",
          "name": "receivedTimestampSeconds",
          "type": "uint256"
        },
        {
          "internalType": "uint256",
          "name": "blockTimestamp",
          "type": "uint256"
        }
      ],
      "name": "TimestampIsTooOld",
      "type": "error"
    },
    {
      "anonymous": false,
      "inputs": [
        {
          "indexed": false,
          "internalType": "uint256",
          "name": "amount",
          "type": "uint256"
        }
      ],
      "name": "AmountReceived",
      "type": "event"
    },
    {
      "inputs": [
        {
          "internalType": "uint256[]",
          "name": "values",
          "type": "uint256[]"
        }
      ],
      "name": "aggregateValues",
      "outputs": [
        {
          "internalType": "uint256",
          "name": "",
          "type": "uint256"
        }
      ],
      "stateMutability": "view",
      "type": "function"
    },
    {
      "inputs": [],
      "name": "betClosed",
      "outputs": [
        {
          "internalType": "bool",
          "name": "",
          "type": "bool"
        }
      ],
      "stateMutability": "view",
      "type": "function"
    },
    {
      "inputs": [],
      "name": "blockNumber",
      "outputs": [
        {
          "internalType": "uint256",
          "name": "",
          "type": "uint256"
        }
      ],
      "stateMutability": "view",
      "type": "function"
    },
    {
      "inputs": [],
      "name": "closeBet",
      "outputs": [],
      "stateMutability": "payable",
      "type": "function"
    },
    {
      "inputs": [
        {
          "internalType": "address",
          "name": "",
          "type": "address"
        }
      ],
      "name": "exist",
      "outputs": [
        {
          "internalType": "bool",
          "name": "",
          "type": "bool"
        }
      ],
      "stateMutability": "view",
      "type": "function"
    },
    {
      "inputs": [
        {
          "internalType": "address",
          "name": "signerAddress",
          "type": "address"
        }
      ],
      "name": "getAuthorisedSignerIndex",
      "outputs": [
        {
          "internalType": "uint8",
          "name": "",
          "type": "uint8"
        }
      ],
      "stateMutability": "view",
      "type": "function"
    },
    {
      "inputs": [],
      "name": "getCeloPrice",
      "outputs": [
        {
          "internalType": "uint256",
          "name": "",
          "type": "uint256"
        }
      ],
      "stateMutability": "view",
      "type": "function"
    },
    {
      "inputs": [],
      "name": "getContractBalance",
      "outputs": [
        {
          "internalType": "uint256",
          "name": "",
          "type": "uint256"
        }
      ],
      "stateMutability": "view",
      "type": "function"
    },
    {
      "inputs": [],
      "name": "getUniqueSignersThreshold",
      "outputs": [
        {
          "internalType": "uint8",
          "name": "",
          "type": "uint8"
        }
      ],
      "stateMutability": "view",
      "type": "function"
    },
    {
      "inputs": [],
      "name": "getUsers",
      "outputs": [
        {
          "components": [
            {
              "internalType": "address payable",
              "name": "userAddress",
              "type": "address"
            },
            {
              "internalType": "uint256",
              "name": "bet",
              "type": "uint256"
            },
            {
              "internalType": "uint256",
              "name": "betAmount",
              "type": "uint256"
            }
          ],
          "internalType": "struct CeloBet.User[]",
          "name": "",
          "type": "tuple[]"
        }
      ],
      "stateMutability": "view",
      "type": "function"
    },
    {
      "inputs": [
        {
          "internalType": "address",
          "name": "",
          "type": "address"
        }
      ],
      "name": "hasBet",
      "outputs": [
        {
          "internalType": "bool",
          "name": "",
          "type": "bool"
        }
      ],
      "stateMutability": "view",
      "type": "function"
    },
    {
      "inputs": [],
      "name": "noCount",
      "outputs": [
        {
          "internalType": "uint256",
          "name": "",
          "type": "uint256"
        }
      ],
      "stateMutability": "view",
      "type": "function"
    },
    {
      "inputs": [],
      "name": "owner",
      "outputs": [
        {
          "internalType": "address payable",
          "name": "",
          "type": "address"
        }
      ],
      "stateMutability": "view",
      "type": "function"
    },
    {
      "inputs": [
        {
          "internalType": "uint256",
          "name": "_bet",
          "type": "uint256"
        }
      ],
      "name": "placeBet",
      "outputs": [],
      "stateMutability": "payable",
      "type": "function"
    },
    {
      "inputs": [],
      "name": "registerUser",
      "outputs": [],
      "stateMutability": "nonpayable",
      "type": "function"
    },
    {
      "inputs": [],
      "name": "totalBetAmount",
      "outputs": [
        {
          "internalType": "uint256",
          "name": "",
          "type": "uint256"
        }
      ],
      "stateMutability": "view",
      "type": "function"
    },
    {
      "inputs": [],
      "name": "totalNoAmount",
      "outputs": [
        {
          "internalType": "uint256",
          "name": "",
          "type": "uint256"
        }
      ],
      "stateMutability": "view",
      "type": "function"
    },
    {
      "inputs": [],
      "name": "totalYesAmount",
      "outputs": [
        {
          "internalType": "uint256",
          "name": "",
          "type": "uint256"
        }
      ],
      "stateMutability": "view",
      "type": "function"
    },
    {
      "inputs": [
        {
          "internalType": "uint256",
          "name": "",
          "type": "uint256"
        }
      ],
      "name": "userList",
      "outputs": [
        {
          "internalType": "address payable",
          "name": "userAddress",
          "type": "address"
        },
        {
          "internalType": "uint256",
          "name": "bet",
          "type": "uint256"
        },
        {
          "internalType": "uint256",
          "name": "betAmount",
          "type": "uint256"
        }
      ],
      "stateMutability": "view",
      "type": "function"
    },
    {
      "inputs": [
        {
          "internalType": "uint256",
          "name": "receivedTimestampMilliseconds",
          "type": "uint256"
        }
      ],
      "name": "validateTimestamp",
      "outputs": [],
      "stateMutability": "view",
      "type": "function"
    },
    {
      "inputs": [],
      "name": "withdraw",
      "outputs": [],
      "stateMutability": "nonpayable",
      "type": "function"
    },
    {
      "inputs": [],
      "name": "yesCount",
      "outputs": [
        {
          "internalType": "uint256",
          "name": "",
          "type": "uint256"
        }
      ],
      "stateMutability": "view",
      "type": "function"
    }
  ],
  "bytecode": "0x60806040523480156200001157600080fd5b5060405162002d3a38038062002d3a8339818101604052810190620000379190620000f9565b33600360006101000a81548173ffffffffffffffffffffffffffffffffffffffff021916908373ffffffffffffffffffffffffffffffffffffffff160217905550806004819055506000600560006101000a81548160ff021916908315150217905550600060068190555060006007819055506000600881905550506200012b565b600080fd5b6000819050919050565b620000d381620000be565b8114620000df57600080fd5b50565b600081519050620000f381620000c8565b92915050565b600060208284031215620001125762000111620000b9565b5b60006200012284828501620000e2565b91505092915050565b612bff806200013b6000396000f3fe6080604052600436106101345760003560e01c80636f9fb98a116100ab578063a2fcbad71161006f578063a2fcbad7146103fc578063b24ebfcc14610427578063bbe18d4314610464578063eaa968cc1461048f578063f50b2efe14610499578063f90c4924146104c257610134565b80636f9fb98a1461031157806373544cfd1461033c578063776377b4146103675780638da5cb5b146103925780639f4216e8146103bd57610134565b80634d3820eb116100fd5780634d3820eb146102115780634dfefc4b1461022857806357e871e7146102655780635c8d9541146102905780635eb36d55146102bb578063613f4594146102e657610134565b8062ce8e3e1461013957806310fe7c4814610164578063136f1016146101805780633ccfd60b146101bd5780633ce142f5146101d4575b600080fd5b34801561014557600080fd5b5061014e6104ed565b60405161015b9190612114565b60405180910390f35b61017e60048036038101906101799190612176565b6105b6565b005b34801561018c57600080fd5b506101a760048036038101906101a291906121e1565b610951565b6040516101b49190612229565b60405180910390f35b3480156101c957600080fd5b506101d2610971565b005b3480156101e057600080fd5b506101fb60048036038101906101f691906121e1565b610a48565b6040516102089190612260565b60405180910390f35b34801561021d57600080fd5b50610226610b2c565b005b34801561023457600080fd5b5061024f600480360381019061024a91906121e1565b610ccd565b60405161025c9190612229565b60405180910390f35b34801561027157600080fd5b5061027a610ced565b604051610287919061228a565b60405180910390f35b34801561029c57600080fd5b506102a5610cf3565b6040516102b2919061228a565b60405180910390f35b3480156102c757600080fd5b506102d0610cf9565b6040516102dd919061228a565b60405180910390f35b3480156102f257600080fd5b506102fb610cff565b604051610308919061228a565b60405180910390f35b34801561031d57600080fd5b50610326610d05565b604051610333919061228a565b60405180910390f35b34801561034857600080fd5b50610351610d0d565b60405161035e919061228a565b60405180910390f35b34801561037357600080fd5b5061037c610dcd565b604051610389919061228a565b60405180910390f35b34801561039e57600080fd5b506103a7610dd3565b6040516103b491906122b4565b60405180910390f35b3480156103c957600080fd5b506103e460048036038101906103df9190612176565b610df9565b6040516103f3939291906122cf565b60405180910390f35b34801561040857600080fd5b50610411610e53565b60405161041e919061228a565b60405180910390f35b34801561043357600080fd5b5061044e6004803603810190610449919061245f565b610e59565b60405161045b919061228a565b60405180910390f35b34801561047057600080fd5b50610479610e6b565b6040516104869190612229565b60405180910390f35b610497610e7e565b005b3480156104a557600080fd5b506104c060048036038101906104bb9190612176565b61133b565b005b3480156104ce57600080fd5b506104d7611347565b6040516104e49190612260565b60405180910390f35b60606000805480602002602001604051908101604052809291908181526020016000905b828210156105ad57838290600052602060002090600302016040518060600160405290816000820160009054906101000a900473ffffffffffffffffffffffffffffffffffffffff1673ffffffffffffffffffffffffffffffffffffffff1673ffffffffffffffffffffffffffffffffffffffff1681526020016001820154815260200160028201548152505081526020019060010190610511565b50505050905090565b600560009054906101000a900460ff1615610606576040517f08c379a00000000000000000000000000000000000000000000000000000000081526004016105fd90612505565b60405180910390fd5b600160003373ffffffffffffffffffffffffffffffffffffffff1673ffffffffffffffffffffffffffffffffffffffff16815260200190815260200160002060009054906101000a900460ff16610692576040517f08c379a000000000000000000000000000000000000000000000000000000000815260040161068990612571565b60405180910390fd5b600260003373ffffffffffffffffffffffffffffffffffffffff1673ffffffffffffffffffffffffffffffffffffffff16815260200190815260200160002060009054906101000a900460ff161561071f576040517f08c379a0000000000000000000000000000000000000000000000000000000008152600401610716906125dd565b60405180910390fd5b600081148061072e5750600181145b61076d576040517f08c379a000000000000000000000000000000000000000000000000000000000815260040161076490612649565b60405180910390fd5b600034116107b0576040517f08c379a00000000000000000000000000000000000000000000000000000000081526004016107a7906126b5565b60405180910390fd5b6001600260003373ffffffffffffffffffffffffffffffffffffffff1673ffffffffffffffffffffffffffffffffffffffff16815260200190815260200160002060006101000a81548160ff021916908315150217905550346006600082825461081a9190612704565b92505081905550600181036108615760016007600082825461083c9190612704565b9250508190555034600960008282546108559190612704565b92505081905550610895565b6001600860008282546108749190612704565b9250508190555034600a600082825461088d9190612704565b925050819055505b600060405180606001604052803373ffffffffffffffffffffffffffffffffffffffff16815260200183815260200134815250908060018154018082558091505060019003906000526020600020906003020160009091909190915060008201518160000160006101000a81548173ffffffffffffffffffffffffffffffffffffffff021916908373ffffffffffffffffffffffffffffffffffffffff1602179055506020820151816001015560408201518160020155505050565b60026020528060005260406000206000915054906101000a900460ff1681565b60004790506000600360009054906101000a900473ffffffffffffffffffffffffffffffffffffffff1673ffffffffffffffffffffffffffffffffffffffff16826040516109be90612769565b60006040518083038185875af1925050503d80600081146109fb576040519150601f19603f3d011682016040523d82523d6000602084013e610a00565b606091505b5050905080610a44576040517f08c379a0000000000000000000000000000000000000000000000000000000008152600401610a3b906127ca565b60405180910390fd5b5050565b60007311fffc9970c41b9bfb9aa35be838d39bce918cff73ffffffffffffffffffffffffffffffffffffffff168273ffffffffffffffffffffffffffffffffffffffff1603610a9a5760009050610b27565b73dbcc2c6c892c8d3e3fe4d325fec810b7376a5ed673ffffffffffffffffffffffffffffffffffffffff168273ffffffffffffffffffffffffffffffffffffffff1603610aea5760019050610b27565b816040517fec459bc0000000000000000000000000000000000000000000000000000000008152600401610b1e91906127f9565b60405180910390fd5b919050565b600160003373ffffffffffffffffffffffffffffffffffffffff1673ffffffffffffffffffffffffffffffffffffffff16815260200190815260200160002060009054906101000a900460ff1615610bb9576040517f08c379a0000000000000000000000000000000000000000000000000000000008152600401610bb090612860565b60405180910390fd5b600060405180606001604052803373ffffffffffffffffffffffffffffffffffffffff168152602001600281526020016000815250908060018154018082558091505060019003906000526020600020906003020160009091909190915060008201518160000160006101000a81548173ffffffffffffffffffffffffffffffffffffffff021916908373ffffffffffffffffffffffffffffffffffffffff1602179055506020820151816001015560408201518160020155505060018060003373ffffffffffffffffffffffffffffffffffffffff1673ffffffffffffffffffffffffffffffffffffffff16815260200190815260200160002060006101000a81548160ff021916908315150217905550565b60016020528060005260406000206000915054906101000a900460ff1681565b60045481565b60075481565b60095481565b60065481565b600047905090565b6000600360009054906101000a900473ffffffffffffffffffffffffffffffffffffffff1673ffffffffffffffffffffffffffffffffffffffff163373ffffffffffffffffffffffffffffffffffffffff1614610d9f576040517f08c379a0000000000000000000000000000000000000000000000000000000008152600401610d96906128cc565b60405180910390fd5b610dc87f3078633065646536383037626435643964610000000000000000000000000000611350565b905090565b600a5481565b600360009054906101000a900473ffffffffffffffffffffffffffffffffffffffff1681565b60008181548110610e0957600080fd5b90600052602060002090600302016000915090508060000160009054906101000a900473ffffffffffffffffffffffffffffffffffffffff16908060010154908060020154905083565b60085481565b6000610e64826113ec565b9050919050565b600560009054906101000a900460ff1681565b600360009054906101000a900473ffffffffffffffffffffffffffffffffffffffff1673ffffffffffffffffffffffffffffffffffffffff163373ffffffffffffffffffffffffffffffffffffffff1614610f0e576040517f08c379a0000000000000000000000000000000000000000000000000000000008152600401610f05906128cc565b60405180910390fd5b600560009054906101000a900460ff1615610f5e576040517f08c379a0000000000000000000000000000000000000000000000000000000008152600401610f5590612505565b60405180910390fd5b600454431015610fa3576040517f08c379a0000000000000000000000000000000000000000000000000000000008152600401610f9a90612938565b60405180910390fd5b6001600560006101000a81548160ff0219169083151502179055506000610fe97f3078633065646536383037626435643964610000000000000000000000000000611350565b90506000600854600954610ffd9190612987565b90506000600754600a546110119190612987565b905060005b6000805490508110156112cc5760006001851015801561105b5750600160008381548110611047576110466129b8565b5b906000526020600020906003020160010154145b15611171578260008381548110611075576110746129b8565b5b9060005260206000209060030201600201546110919190612704565b9050600081111561116c57804710156110df576040517f08c379a00000000000000000000000000000000000000000000000000000000081526004016110d690612a33565b60405180910390fd5b600082815481106110f3576110f26129b8565b5b906000526020600020906003020160000160009054906101000a900473ffffffffffffffffffffffffffffffffffffffff1673ffffffffffffffffffffffffffffffffffffffff166108fc829081150290604051600060405180830381858888f1935050505015801561116a573d6000803e3d6000fd5b505b6112b8565b6001851080156111a557506000808381548110611191576111906129b8565b5b906000526020600020906003020160010154145b156112b75783600083815481106111bf576111be6129b8565b5b9060005260206000209060030201600201546111db9190612704565b905060008111156112b65780471015611229576040517f08c379a000000000000000000000000000000000000000000000000000000000815260040161122090612a33565b60405180910390fd5b6000828154811061123d5761123c6129b8565b5b906000526020600020906003020160000160009054906101000a900473ffffffffffffffffffffffffffffffffffffffff1673ffffffffffffffffffffffffffffffffffffffff166108fc829081150290604051600060405180830381858888f193505050501580156112b4573d6000803e3d6000fd5b505b5b5b5080806112c490612a53565b915050611016565b50600360009054906101000a900473ffffffffffffffffffffffffffffffffffffffff1673ffffffffffffffffffffffffffffffffffffffff166108fc479081150290604051600060405180830381858888f19350505050158015611335573d6000803e3d6000fd5b50505050565b611344816113fe565b50565b60006002905090565b600080600167ffffffffffffffff81111561136e5761136d61231c565b5b60405190808252806020026020018201604052801561139c5781602001602082028036833780820191505090505b50905082816000815181106113b4576113b36129b8565b5b6020026020010181815250506113c9816114c8565b6000815181106113dc576113db6129b8565b5b6020026020010151915050919050565b60006113f7826114da565b9050919050565b60006103e88261140e9190612987565b90508042101561147057603c42826114269190612a9b565b111561146b5780426040517fb6b0916d000000000000000000000000000000000000000000000000000000008152600401611462929190612acf565b60405180910390fd5b6114c4565b60b4814261147e9190612a9b565b11156114c35780426040517f0321d0b50000000000000000000000000000000000000000000000000000000081526004016114ba929190612acf565b60405180910390fd5b5b5050565b60606114d3826115ce565b9050919050565b600080825103611516576040517f9e198af900000000000000000000000000000000000000000000000000000000815260040160405180910390fd5b61151f826117dd565b60006002835161152f9190612987565b90506000600284516115419190612af8565b036115aa576000611592846001846115599190612a9b565b8151811061156a576115696129b8565b5b6020026020010151858481518110611585576115846129b8565b5b6020026020010151611830565b90506002816115a19190612987565b925050506115c9565b8281815181106115bd576115bc6129b8565b5b60200260200101519150505b919050565b60606000825167ffffffffffffffff8111156115ed576115ec61231c565b5b60405190808252806020026020018201604052801561161b5781602001602082028036833780820191505090505b5090506000835167ffffffffffffffff81111561163b5761163a61231c565b5b6040519080825280602002602001820160405280156116695781602001602082028036833780820191505090505b5090506000845167ffffffffffffffff8111156116895761168861231c565b5b6040519080825280602002602001820160405280156116bc57816020015b60608152602001906001900390816116a75790505b50905060005b855181101561174f576116d3611347565b60ff1667ffffffffffffffff8111156116ef576116ee61231c565b5b60405190808252806020026020018201604052801561171d5781602001602082028036833780820191505090505b50828281518110611731576117306129b8565b5b6020026020010181905250808061174790612a53565b9150506116c2565b50600061175a611846565b9050600061176782611957565b61ffff16905060028261177a9190612704565b91506000604051905060005b828110156117c557600061179d8a898989896119b3565b905080856117ab9190612704565b9450826040525080806117bd90612a53565b915050611786565b506117d08487611cab565b9650505050505050919050565b805160208201602082028101815b8181101561182957825b8181101561181d578151815180821015611810578084528183525b50506020810190506117f5565b506020810190506117eb565b5050505050565b6000818361183e9190612704565b905092915050565b60008060203603356602ed57011e000081166602ed57011e0000149150508061189b576040517fe7764c9e00000000000000000000000000000000000000000000000000000000815260040160405180910390fd5b600080369050602911156118db576040517f5796f78a00000000000000000000000000000000000000000000000000000000815260040160405180910390fd5b602936033590506000600960038362ffffff166118f89190612704565b6119029190612704565b905060003690506002826119169190612704565b111561194e576040517fc30a7bd700000000000000000000000000000000000000000000000000000000815260040160405180910390fd5b80935050505090565b6000806020836119679190612704565b905060003690508111156119a7576040517f5796f78a00000000000000000000000000000000000000000000000000000000815260040160405180910390fd5b80360335915050919050565b6000806000806119c285611df8565b91509150600080600060606000600d6119f06020886119e19190612704565b89611e6e90919063ffffffff16565b6119fa9190612704565b90506000611a2160688c611a0e9190612704565b6000369050611e8490919063ffffffff16565b90506000611a538360418e611a369190612704565b611a409190612704565b6000369050611e8490919063ffffffff16565b9050611a5f8382611a8d565b9350826020850120945081359650611aa9565b60006040519050818152602081019050818101604052919050565b6000611a9883611a72565b838382376020810391505092915050565b611aba8765ffffffffffff1661133b565b611ad08560418e611acb9190612704565b611e9a565b9550611adb86610a48565b60ff1699505050505050505060008060005b84811015611c7657611b00888583611f19565b809350819450505060005b8c51811015611c62578c8181518110611b2757611b266129b8565b5b60200260200101518403611c4f5760008b8281518110611b4a57611b496129b8565b5b60200260200101519050611b5e8189611f9f565b158015611b8e5750611b6e611347565b60ff168d8381518110611b8457611b836129b8565b5b6020026020010151105b15611c49578c8281518110611ba657611ba56129b8565b5b602002602001018051809190611bbb90612a53565b81525050838b8381518110611bd357611bd26129b8565b5b602002602001015160018f8581518110611bf057611bef6129b8565b5b6020026020010151611c029190612a9b565b81518110611c1357611c126129b8565b5b602002602001018181525050611c298189611fb8565b8c8381518110611c3c57611c3b6129b8565b5b6020026020010181815250505b50611c62565b8080611c5a90612a53565b915050611b0b565b508080611c6e90612a53565b915050611aed565b50505081602082611c879190612704565b611c919190612b29565b604e611c9d9190612704565b935050505095945050505050565b60606000835167ffffffffffffffff811115611cca57611cc961231c565b5b604051908082528060200260200182016040528015611cf85781602001602082028036833780820191505090505b5090506000611d05611347565b60ff16905060005b8551811015611dec5781858281518110611d2a57611d296129b8565b5b60200260200101511015611d9157848181518110611d4b57611d4a6129b8565b5b6020026020010151826040517f2b13aef5000000000000000000000000000000000000000000000000000000008152600401611d88929190612acf565b60405180910390fd5b6000611db6878381518110611da957611da86129b8565b5b6020026020010151610e59565b905080848381518110611dcc57611dcb6129b8565b5b602002602001018181525050508080611de490612a53565b915050611d0d565b50819250505092915050565b6000806000806000604186611e0d9190612704565b90506000611e34602083611e219190612704565b6000369050611e8490919063ffffffff16565b905080359350611e4e600382611e8490919063ffffffff16565b9050803592508362ffffff1695508263ffffffff16945050505050915091565b60008183611e7c9190612b29565b905092915050565b60008183611e929190612a9b565b905092915050565b6000806000808436038035935060208101905080359250602081019050803560001a91505060018682858560405160008152602001604052604051611ee29493929190612b84565b6020604051602081039080840390855afa158015611f04573d6000803e3d6000fd5b50505060206040510351935050505092915050565b6000806000604e86611f2b9190612704565b90506000611f6c611f5d602088611f429190612704565b876001611f4f9190612704565b611e6e90919063ffffffff16565b8361183090919063ffffffff16565b90506000611f87826000369050611e8490919063ffffffff16565b90508035945060208101359350505050935093915050565b600080826001901b841690506000811191505092915050565b6000816001901b8317905092915050565b600081519050919050565b600082825260208201905092915050565b6000819050602082019050919050565b600073ffffffffffffffffffffffffffffffffffffffff82169050919050565b600061202082611ff5565b9050919050565b61203081612015565b82525050565b6000819050919050565b61204981612036565b82525050565b6060820160008201516120656000850182612027565b5060208201516120786020850182612040565b50604082015161208b6040850182612040565b50505050565b600061209d838361204f565b60608301905092915050565b6000602082019050919050565b60006120c182611fc9565b6120cb8185611fd4565b93506120d683611fe5565b8060005b838110156121075781516120ee8882612091565b97506120f9836120a9565b9250506001810190506120da565b5085935050505092915050565b6000602082019050818103600083015261212e81846120b6565b905092915050565b6000604051905090565b600080fd5b600080fd5b61215381612036565b811461215e57600080fd5b50565b6000813590506121708161214a565b92915050565b60006020828403121561218c5761218b612140565b5b600061219a84828501612161565b91505092915050565b60006121ae82611ff5565b9050919050565b6121be816121a3565b81146121c957600080fd5b50565b6000813590506121db816121b5565b92915050565b6000602082840312156121f7576121f6612140565b5b6000612205848285016121cc565b91505092915050565b60008115159050919050565b6122238161220e565b82525050565b600060208201905061223e600083018461221a565b92915050565b600060ff82169050919050565b61225a81612244565b82525050565b60006020820190506122756000830184612251565b92915050565b61228481612036565b82525050565b600060208201905061229f600083018461227b565b92915050565b6122ae81612015565b82525050565b60006020820190506122c960008301846122a5565b92915050565b60006060820190506122e460008301866122a5565b6122f1602083018561227b565b6122fe604083018461227b565b949350505050565b600080fd5b6000601f19601f8301169050919050565b7f4e487b7100000000000000000000000000000000000000000000000000000000600052604160045260246000fd5b6123548261230b565b810181811067ffffffffffffffff821117156123735761237261231c565b5b80604052505050565b6000612386612136565b9050612392828261234b565b919050565b600067ffffffffffffffff8211156123b2576123b161231c565b5b602082029050602081019050919050565b600080fd5b60006123db6123d684612397565b61237c565b905080838252602082019050602084028301858111156123fe576123fd6123c3565b5b835b8181101561242757806124138882612161565b845260208401935050602081019050612400565b5050509392505050565b600082601f83011261244657612445612306565b5b81356124568482602086016123c8565b91505092915050565b60006020828403121561247557612474612140565b5b600082013567ffffffffffffffff81111561249357612492612145565b5b61249f84828501612431565b91505092915050565b600082825260208201905092915050565b7f42657474696e6720697320636c6f736564000000000000000000000000000000600082015250565b60006124ef6011836124a8565b91506124fa826124b9565b602082019050919050565b6000602082019050818103600083015261251e816124e2565b9050919050565b7f596f752068617665206e6f742072656769737465726564000000000000000000600082015250565b600061255b6017836124a8565b915061256682612525565b602082019050919050565b6000602082019050818103600083015261258a8161254e565b9050919050565b7f596f75206861766520616c726561647920706c61636564206120626574000000600082015250565b60006125c7601d836124a8565b91506125d282612591565b602082019050919050565b600060208201905081810360008301526125f6816125ba565b9050919050565b7f496e76616c6964206265742076616c7565000000000000000000000000000000600082015250565b60006126336011836124a8565b915061263e826125fd565b602082019050919050565b6000602082019050818103600083015261266281612626565b9050919050565b7f62657420616d6f756e74206d757374206265206d6f7265207468616e20300000600082015250565b600061269f601e836124a8565b91506126aa82612669565b602082019050919050565b600060208201905081810360008301526126ce81612692565b9050919050565b7f4e487b7100000000000000000000000000000000000000000000000000000000600052601160045260246000fd5b600061270f82612036565b915061271a83612036565b9250828201905080821115612732576127316126d5565b5b92915050565b600081905092915050565b50565b6000612753600083612738565b915061275e82612743565b600082019050919050565b600061277482612746565b9150819050919050565b7f4661696c656420746f2073656e64204574686572000000000000000000000000600082015250565b60006127b46014836124a8565b91506127bf8261277e565b602082019050919050565b600060208201905081810360008301526127e3816127a7565b9050919050565b6127f3816121a3565b82525050565b600060208201905061280e60008301846127ea565b92915050565b7f416c726561647920726567697374657265640000000000000000000000000000600082015250565b600061284a6012836124a8565b915061285582612814565b602082019050919050565b600060208201905081810360008301526128798161283d565b9050919050565b7f596f7520617265206e6f7420746865206f776e65720000000000000000000000600082015250565b60006128b66015836124a8565b91506128c182612880565b602082019050919050565b600060208201905081810360008301526128e5816128a9565b9050919050565b7f426c6f636b20706572696f64206e6f7420796574207265616368656400000000600082015250565b6000612922601c836124a8565b915061292d826128ec565b602082019050919050565b6000602082019050818103600083015261295181612915565b9050919050565b7f4e487b7100000000000000000000000000000000000000000000000000000000600052601260045260246000fd5b600061299282612036565b915061299d83612036565b9250826129ad576129ac612958565b5b828204905092915050565b7f4e487b7100000000000000000000000000000000000000000000000000000000600052603260045260246000fd5b7f496e73756666696369656e7420636f6e74726163742062616c616e6365000000600082015250565b6000612a1d601d836124a8565b9150612a28826129e7565b602082019050919050565b60006020820190508181036000830152612a4c81612a10565b9050919050565b6000612a5e82612036565b91507fffffffffffffffffffffffffffffffffffffffffffffffffffffffffffffffff8203612a9057612a8f6126d5565b5b600182019050919050565b6000612aa682612036565b9150612ab183612036565b9250828203905081811115612ac957612ac86126d5565b5b92915050565b6000604082019050612ae4600083018561227b565b612af1602083018461227b565b9392505050565b6000612b0382612036565b9150612b0e83612036565b925082612b1e57612b1d612958565b5b828206905092915050565b6000612b3482612036565b9150612b3f83612036565b9250828202612b4d81612036565b91508282048414831517612b6457612b636126d5565b5b5092915050565b6000819050919050565b612b7e81612b6b565b82525050565b6000608082019050612b996000830187612b75565b612ba66020830186612251565b612bb36040830185612b75565b612bc06060830184612b75565b9594505050505056fea2646970667358221220e182c94c0464a4b946dd21c8ad03d65ddee2849375800b368dd2993ff7c6887d64736f6c63430008110033",
  "linkReferences": {},
  "deployedLinkReferences": {}
}